:100000000C9462000C94060B0C942D0B0C948A003B
:100010000C948A000C948A000C948A000C948A0038
:100020000C948A000C948A000C948A000C948A0028
:100030000C948A000C948A000C948A000C948A0018
:100040000C94540B0C948A000C944B0E0C947D0E63
:100050000C948A000C948A000C948A000C948A00F8
:100060000C948A000C948A0000000009000302002E
:10007000000405080000000000000000000000016E
:10008000020408102040800102040810200102042C
:100090000810204080400404040404040404020204
:1000A000020202020303030303030202030000002F
:1000B00000250028002B0000000000240027002A53
:1000C0000000AD0E11241FBECFEFD4E0DEBFCDBFC8
:1000D00011E0A0E0B1E0EEEAF8E202C005900D9276
:1000E000AA34B107D9F722E0AAE4B1E001C01D9219
:1000F000A931B207E1F710E0C2E6D0E004C02197D1
:10010000FE010E942A14C136D107C9F70E949E1130
:100110000C9455140C9400000C943F140C94471448
:100120002F923F924F925F926F927F928F929F9207
:10013000AF92BF92CF92DF92EF92FF920F931F93F5
:10014000CF93DF93CDB7DEB728970FB6F894DEBF15
:100150000FBECDBF4090020150900301609004019A
:1001600070900501C301B2010E94CA126B017C01AB
:1001700080916B0190916C01A0916D01B0916E0125
:1001800089839A83AB83BC8360914D0170914E014A
:10019000072E000C880B990B0E94CA122091550162
:1001A0003091560140915701509158010E947F13A0
:1001B00020E030E045E053E40E947F134B015C01F6
:1001C00090914C019D8369817A818B819C810E94F1
:1001D000C812A50194010E94AF119B01AC01C70197
:1001E000B6010E947A1387FDCAC2AD81AA2309F421
:1001F000C9C210926B0110926C0110926D011092A5
:100200006E0160914F0170915001072E000C880B18
:10021000990B0E94CA122B013C01A5019401C70150
:10022000B6010E94AE119B01AC01C301B2010E9454
:100230007F130E94921260930201709303018093D6
:1002400004019093050161E085E00E94F20C61E0F9
:1002500086E00E94F20C10924C01609102017091B4
:10026000030180910401909105010E94CA1220E0CF
:1002700030E045E053E40E942012AB01BC0122E0D3
:1002800030E08CE791E00E94D21067E271E08CE7E9
:1002900091E00E94160F8090000190900101B5E05E
:1002A0008B0E911CC4010E948C00A0905B01B09049
:1002B0005C0120915D0130915E013A832983E090D9
:1002C0005F01F0906001A0916101B0916201BE8375
:1002D000AD8300916301109164012090650130901D
:1002E0006601813009F081C2B501BB0C880B990B06
:1002F0000E94CA1220E030E04AE754E40E947F13D3
:100300002B013C0129813A81B901330F880B990BEC
:100310000E94CA1220E030E048EC52E40E947F13B1
:100320009B01AC01C301B2010E94AF112B013C0142
:10033000B701FF0C880B990B0E94CA1220E030E035
:1003400040E251E40E947F139B01AC01C301B20162
:100350000E94AF116B017C01AD81BE81BD01BB0F5D
:10036000880B990B0E94CA129B01AC01C701B60110
:100370000E94AF116B017C01B801110F880B990B22
:100380000E94CA1220E030E040E251E40E942012B4
:100390009B01AC01C701B6010E94AF116B017C014A
:1003A000B101330C880B990B0E94CA1220E030E097
:1003B00048EC52E40E9420129B01AC01C701B60137
:1003C0000E94AF116B017C016091020170910301E9
:1003D00080910401909105010E94CA1220E030E052
:1003E00040E251E40E947F1320E030E045E053E416
:1003F0000E9420129B01AC01C701B6010E94AF11FF
:100400006B017C0120E030E0A9010E941B1287FFF4
:1004100004C060E0C4010E948E0020E030E0A90129
:10042000C701B6010E947A1387FD08C080910001C0
:100430009091010161E005960E948E0020E030E07D
:10044000A901C701B6010E947A13181624F0F7FA21
:10045000F094F7F8F09420E030E04AE754E4C70164
:10046000B6010E9420120E9492124B0170935C010F
:1004700060935B01072E000C880B990B0E94CA1237
:1004800020E030E04AE754E40E947F139B01AC0176
:10049000C701B6010E94AE116B017C0120E030E083
:1004A00048EC52E40E9420120E94921270935E0166
:1004B00060935D01072E000C880B990B0E94CA12F5
:1004C00020E030E048EC52E40E947F139B01AC0135
:1004D000C701B6010E94AE116B017C0120E030E043
:1004E00040E251E40E9420120E9492127093600137
:1004F00060935F01072E000C880B990B0E94CA12B3
:1005000020E030E040E251E40E947F139B01AC0107
:10051000C701B6010E94AE116B017C010E949212CC
:100520007093620160936101072E000C880B990B98
:100530000E94CA129B01AC01C701B6010E94AE1114
:100540006B017C0120E030E040E251E40E947F1327
:100550000E9492127093640160936301072E000C55
:10056000880B990B0E94CA1220E030E040E251E46F
:100570000E9420129B01AC01C701B6010E94AE117E
:1005800020E030E048EC52E40E947F130E94921277
:100590007093660160936501809100019091010163
:1005A000682D01970E948E008091000190910101B9
:1005B00005960E948C0090E090935A018093590117
:1005C000892B31F46AE071E08CE791E00E94160F0C
:1005D00060915B0170915C016115710531F480914E
:1005E000510190915201019761F44AE050E08CE78B
:1005F00091E00E94D40F81E090E0909352018093AB
:10060000510160915D0180910001909101010E9472
:100610008E0060915D0170915E016115710531F48C
:100620008091510190915201019761F44AE050E0AC
:100630008CE791E00E94D40F81E090E0909352010A
:1006400080935101809100019091010160915F01BF
:1006500001960E948E0060915F01709160016115AA
:10066000710531F48091510190915201019761F42B
:100670004AE050E08CE791E00E94D40F81E090E0E6
:10068000909352018093510180910001909101015A
:100690006091610102960E948E00609161017091EB
:1006A00062016115710531F48091510190915201FF
:1006B000019761F44AE050E08CE791E00E94D40F8A
:1006C00081E090E09093520180935101809100016C
:1006D000909101016091630103960E948E006091E8
:1006E0006301709164016115710531F480915101CC
:1006F00090915201019761F44AE050E08CE791E05B
:100700000E94D40F81E090E09093520180935101B8
:1007100080910001909101016091650104960E9411
:100720008E0060916501709166014AE050E08CE7AF
:1007300091E00E94D40F67E271E08CE791E00E94A3
:10074000290F80914F01909150018130910509F05E
:1007500045C390935401809353018091000190917F
:1007600001016091530107960E948E001092520180
:100770001092510181E090E0A0E0B0E015C0BD8191
:10078000B1110DC080916B0190916C01A0916D0130
:10079000B0916E01892B8A2B8B2B09F0B3C0D3014A
:1007A000C2010196A11DB11D809302019093030126
:1007B000A0930401B093050128960FB6F894DEBF0C
:1007C0000FBECDBFDF91CF911F910F91FF90EF90A2
:1007D000DF90CF90BF90AF909F908F907F906F9061
:1007E0005F904F903F902F9008956091020170911B
:1007F000030180910401909105010E94CA1220E03A
:1008000030E040E251E40E947F1320E030E045E018
:1008100053E40E9420122B013C01B501BB0C880B54
:10082000990B0E94CA1220E030E04AE754E40E948B
:100830007F135B016C0129813A81B901330F880B69
:10084000990B0E94CA1220E030E048EC52E40E946A
:100850007F139B01AC01C601B5010E94AF115B0182
:100860006C01B701FF0C880B990B0E94CA1220E0A3
:1008700030E040E251E40E947F139B01AC01C601CD
:10088000B5010E94AF116B017C01AD81BE81BD013C
:10089000BB0F880B990B0E94CA129B01AC01C701C8
:1008A000B6010E94AF116B017C01B801110F880BDA
:1008B000990B0E94CA1220E030E040E251E40E940D
:1008C00020129B01AC01C701B6010E94AF116B0160
:1008D0007C01B101330C880B990B0E94CA1220E0F5
:1008E00030E048EC52E40E9420129B01AC01C701A9
:1008F000B6010E94AF119B01AC01C301B2010E947D
:10090000AE117ECD10926B0110926C0110926D01B0
:1009100010926E0160914F0170915001072E000CF2
:10092000880B990B0E94CA122B013C01A50194016E
:10093000C701B6010E94AE119B01AC01C301B20117
:100940000E947F130E949212609302017093030130
:10095000809304019093050161E085E00E94F20C10
:1009600061E086E00E94F20C10924C01609102015D
:100970007091030180910401909105010E94CA12B7
:1009800020E030E045E053E40E942012AB01BC01BE
:1009900022E030E08CE791E00E94D21067E271E043
:1009A0008CE791E00E94160FC0900001D0900101E9
:1009B000B5E0CB0ED11CC6010E948C00E0905B011B
:1009C000F0905C0100915D0110915E0120915F014A
:1009D0003091600138872F8320906101309062014F
:1009E000A0916301B0916401BA83A983209165014C
:1009F000309166013E832D83813009F060C1B701DB
:100A0000FF0C880B990B0E94CA1220E030E04AE7E5
:100A100054E40E947F134B015C01B801110F880B55
:100A2000990B0E94CA1220E030E048EC52E40E9488
:100A30007F139B01AC01C501B4010E94AF114B01B2
:100A40005C01AF81B885BD01BB0F880B990B0E947B
:100A5000CA1220E030E040E251E40E947F139B0183
:100A6000AC01C501B4010E94AF114B015C01B101A1
:100A7000330C880B990B0E94CA129B01AC01C50173
:100A8000B4010E94AF114B015C0129813A81B90187
:100A9000330F880B990B0E94CA1220E030E040E22D
:100AA00051E40E9420129B01AC01C501B4010E94D7
:100AB000AF114B015C01AD81BE81BD01BB0F880B45
:100AC000990B0E94CA1220E030E048EC52E40E94E8
:100AD00020129B01AC01C501B4010E94AF114B0172
:100AE0005C01609102017091030180910401909179
:100AF00005010E94CA1220E030E040E251E40E9469
:100B00007F1320E030E045E053E40E9420129B0177
:100B1000AC01C501B4010E94AF114B015C0120E0A2
:100B200030E0A9010E941B1287FF04C060E0C601EB
:100B30000E948E0020E030E0A901C501B4010E94AE
:100B40007A1387FD08C0809100019091010161E056
:100B500005960E948E0020E030E0A901C501B40195
:100B60000E947A13181624F0B7FAB094B7F8B0942C
:100B700020E030E04AE754E4C501B4010E942012AD
:100B80000E9492126B0170935C0160935B01072ECF
:100B9000000C880B990B0E94CA1220E030E04AE753
:100BA00054E40E947F139B01AC01C501B4010E9473
:100BB000AE114B015C0120E030E048EC52E40E94B1
:100BC00020120E94921270935E0160935D01072EC5
:100BD000000C880B990B0E94CA1220E030E048EC10
:100BE00052E40E947F139B01AC01C501B4010E9435
:100BF000AE114B015C0120E030E040E251E40E9484
:100C000020120E9492127093600160935F01072E80
:100C1000000C880B990B0E94CA1220E030E040E2E1
:100C200051E40E947F139B01AC01C501B4010E94F5
:100C3000AE114B015C010E949212709362016093AD
:100C40006101072E000C880B990B0E94CA129B01B0
:100C5000AC01C501B4010E94AE114B015C0120E062
:100C600030E040E251E40E947F130E9492127093A0
:100C7000640160936301072E000C880B990B0E949E
:100C8000CA1220E030E040E251E40E9420129B01B1
:100C9000AC01C501B4010E94AE1120E030E048EC87
:100CA00052E40E947F130E94921270936601609337
:100CB000650180910001909101016C2D72CC6091D1
:100CC00002017091030180910401909105010E943D
:100CD000CA1220E030E040E251E40E947F1320E09D
:100CE00030E045E053E40E9420124B015C01B70163
:100CF000FF0C880B990B0E94CA1220E030E04AE7F3
:100D000054E40E947F132B013C01B801110F880BA2
:100D1000990B0E94CA1220E030E048EC52E40E9495
:100D20007F139B01AC01C301B2010E94AF112B01E3
:100D30003C012F813885B901330F880B990B0E9434
:100D4000CA1220E030E040E251E40E947F139B0190
:100D5000AC01C301B2010E94AF112B013C01B101F2
:100D6000330C880B990B0E94CA129B01AC01C30182
:100D7000B2010E94AF112B013C01A981BA81BD01D2
:100D8000BB0F880B990B0E94CA1220E030E040E2B2
:100D900051E40E9420129B01AC01C301B2010E94E8
:100DA000AF112B013C012D813E81B901330F880B1E
:100DB000990B0E94CA1220E030E048EC52E40E94F5
:100DC00020129B01AC01C301B2010E94AF119B0133
:100DD000AC01C501B4010E94AE119FCE1092540126
:100DE00010925301BACCCF92DF92EF92FF920F9301
:100DF0001F93CF93DF9343E050E060E970E080E021
:100E00000E94E60A61E085E00E94B60C61E086E09F
:100E10000E94B60C61E085E00E94F20C61E086E081
:100E20000E94F20C60E08FE00E94B60C85B5887FCE
:100E3000816085BD26E040E05BE460E070E08CE727
:100E400091E00E94F30D10926B0110926C011092D0
:100E50006D0110926E01109267011092680110925C
:100E6000690110926A01C0910001D0910101CE0187
:100E700001970E948C0090E090935C0180935B014D
:100E8000CE010E948C0090E090935E0180935D0102
:100E9000CE0101960E948C0090E0909360018093B7
:100EA0005F01CE0102960E948C0090E09093620157
:100EB00080936101CE0103960E948C0090E0909394
:100EC000640180936301CE0104960E948C0090E03F
:100ED0009093660180936501CE0105960E948C0077
:100EE00090E090935A01809359018E010A5F1F4F41
:100EF000C8010E948C006AE00E94F113682F70E024
:100F000090E080E00E94CA126B017C01C092550102
:100F1000D0925601E0925701F0925801CE01089606
:100F20000E948C0090E090934B0180934A0120E056
:100F300030E040E450E4C701B6010E947A1318166D
:100F400084F480E090E0A0E0BFE3809355019093AB
:100F50005601A0935701B093580165E0C8010E9463
:100F60008E00C0910001D09101012796CE010E9410
:100F70008C0090E08230910524F590935401809389
:100F8000530180914A0190914B01029764F01092B5
:100F90004B0110924A01809100019091010160E0A3
:100FA00008960E948E0064EF71E080E090E0DF918F
:100FB000CF911F910F91FF90EF90DF90CF900C9405
:100FC000CF0B81E090E0909354018093530161E056
:100FD000CE010E948E00D5CF0F931F93CF93DF9346
:100FE0001092520110925101C0910001D091010163
:100FF000CE0101970E948C0090E090935C01809359
:101000005B01CE010E948C0090E090935E01809382
:101010005D01CE0101960E948C0090E090936001EA
:1010200080935F01CE0102960E948C0090E0909325
:10103000620180936101CE0103960E948C0090E0D2
:101040009093640180936301CE0104960E948C000A
:1010500090E09093660180936501CE0105960E9411
:101060008C0090E090935A0180935901CE0106962E
:101070000E948C00682F70E090E080E00E94CA120D
:1010800020E030E040E251E40E94201260935501DC
:10109000709356018093570190935801CE010796A3
:1010A0000E948C0090E09093540180935301CE01F4
:1010B00008960E948C0090E090934B0180934A0127
:1010C0008CE791E00E94200D892B79F041E070E0DF
:1010D00060E08CE791E00E943C1160936F01709397
:1010E0007001809371019093720180916F019091D2
:1010F0007001A0917101B09172018136934EA641A9
:10110000B10509F0C7C06CE071E08CE791E00E9486
:10111000160F8091590190915A01892B31F46AE0A0
:1011200071E08CE791E00E94160F60915B01709175
:101130005C016115710531F480915101909152016A
:10114000019761F44AE050E08CE791E00E94D40FEF
:1011500081E090E0909352018093510160915D0194
:1011600070915E016115710531F48091510190918A
:101170005201019761F44AE050E08CE791E00E944F
:10118000D40F81E090E090935201809351016091DF
:101190005F01709160016115710531F48091510119
:1011A00090915201019761F44AE050E08CE791E0A0
:1011B0000E94D40F81E090E09093520180935101FE
:1011C00060916101709162016115710531F4809146
:1011D000510190915201019761F44AE050E08CE78F
:1011E00091E00E94D40F81E090E0909352018093AF
:1011F000510160916301709164016115710531F4D1
:101200008091510190915201019761F44AE050E0C0
:101210008CE791E00E94D40F81E090E0909352011E
:101220008093510160916501709166014AE050E040
:101230008CE791E00E94D40F67E271E08CE791E0C7
:101240000E94160F4091550150915601609157012F
:101250007091580122E030E08CE791E00E94D210BA
:1012600067E271E08CE791E00E94160F60914A01FD
:1012700070914B014AE050E08CE791E00E94D40F5E
:1012800067E271E08CE791E00E94290F1092520111
:101290001092510160916F01709170018091710104
:1012A000909172018B019C011A56284131090F312E
:1012B00011052105310528F50E94CA1220E030E50C
:1012C00043EC59E40E94AE1120E030E040E251E4EA
:1012D0000E9420126093550170935601809357012C
:1012E0009093580120E030E040E251E40E947F13E7
:1012F0000E949912809100019091010106960E942E
:101300008E0080916F0190917001A0917101B09158
:101310007201813A904FA941B10571F481E090E0EA
:1013200090934B0180934A018091000190910101BB
:1013300061E008960E948E0080916F01909170018B
:10134000A0917101B0917201803A904FA941B1050D
:1013500061F410924B0110924A018091000190912A
:10136000010160E008960E948E0080916F019091CB
:101370007001A0917101B09172018236934EA64125
:10138000B10509F04BC0809100019091010160E02E
:1013900001970E948E0060E0809100019091010110
:1013A0000E948E00809100019091010160E0019601
:1013B0000E948E00809100019091010160E00296F0
:1013C0000E948E00809100019091010160E00396DF
:1013D0000E948E00809100019091010160E00496CE
:1013E0000E948E00809100019091010161E00596BC
:1013F0000E948E0010925E0110925D0110926001B9
:1014000010925F01109262011092610110926401CA
:1014100010926301109266011092650180916F0134
:1014200090917001A0917101B0917201AC01BD0168
:1014300041505109610971094115534567407105D2
:1014400058F580936B0190936C01A0936D01B0935C
:101450006E0110926F011092700110927101109242
:10146000720180914C01882309F468C010924C01EC
:101470008CE791E00E948C0D80914A0190914B0184
:10148000892B09F074C06FEF70E085E00E94300C8A
:1014900060E086E00E94F20C80916F0190917001F3
:1014A000A0917101B091720181302DEA920728EF6D
:1014B000A2072FEFB20790F1B095A0959095819576
:1014C0009F4FAF4FBF4F80936B0190936C01A093E0
:1014D0006D01B0936E0110926F0110927001109225
:1014E00071011092720180914C01882309F449C066
:1014F00010924C018CE791E00E948C0D80914A0182
:1015000090914B01892B09F056C060E085E00E9464
:10151000F20C6FEF70E086E00E94300C10926F01C9
:101520001092700110927101109272018CE791E09B
:10153000DF91CF911F910F910C948C0D81E08093DE
:101540004C0181E090E09093500180934F012091F5
:10155000530130915401232B29F490934E01809331
:101560004D0186CF10924E0110924D0181CF60E067
:1015700085E00E94F20C6FEF70E086E00E94300C74
:101580008BCF81E080934C018FEF9FEF90935001C0
:1015900080934F01809153019091540181309105C6
:1015A00029F490934E0180934D01A4CF10924E01E7
:1015B00010924D019FCF6FEF70E085E00E94300CDC
:1015C00060E086E00E94F20CA9CF08958230E8F432
:1015D000E82FF0E0EE0FFF1FEA5FFE4F718360839C
:1015E000813041F0809169008C7F482B40936900E5
:1015F000E89A089580916900837F440F551F440F36
:10160000551F482B40936900E99A08951F920F9245
:101610000FB60F9211242F933F934F935F936F93C5
:101620007F938F939F93AF93BF93EF93FF93E0913B
:101630000601F09107010995FF91EF91BF91AF91DC
:101640009F918F917F916F915F914F913F912F91DA
:101650000F900FBE0F901F9018951F920F920FB60C
:101660000F9211242F933F934F935F936F937F9328
:101670008F939F93AF93BF93EF93FF93E0910801F4
:10168000F09109010995FF91EF91BF91AF919F9161
:101690008F917F916F915F914F913F912F910F901B
:1016A0000FBE0F901F9018951F920F920FB60F92BA
:1016B00011242F933F938F939F93AF93BF93809168
:1016C000780190917901A0917A01B0917B013091DC
:1016D000770123E0230F2D3768F126E8230F0296C8
:1016E000A11DB11D2093770180937801909379011A
:1016F000A0937A01B0937B01809173019091740162
:10170000A0917501B09176010196A11DB11D809344
:10171000730190937401A0937501B0937601BF910A
:10172000AF919F918F913F912F910F900FBE0F908E
:101730001F9018950196A11DB11DD4CF2FB7F89415
:10174000609178017091790180917A0190917B018B
:101750002FBF08953FB7F894809173019091740161
:10176000A0917501B091760126B5A89B05C02F3FC9
:1017700019F00196A11DB11D3FBFBA2FA92F982FB7
:101780008827BC01CD01620F711D811D911D42E0B2
:10179000660F771F881F991F4A95D1F708958F927A
:1017A0009F92AF92BF92CF92DF92EF92FF926B0126
:1017B0007C010E94AA0B4B015C01C114D104E1041D
:1017C000F104E9F00E94AD110E94AA0B6819790991
:1017D0008A099B09683E73408105910570F321E0F9
:1017E000C21AD108E108F10888EE880E83E0981E3D
:1017F000A11CB11CC114D104E104F10429F7FF902C
:10180000EF90DF90CF90BF90AF909F908F90089512
:10181000789484B5836084BD85B5836085BDEEE62C
:10182000F0E0808181608083E1E8F0E082E0808305
:10183000808181608083E0E8F0E080818160808346
:10184000E1EBF0E0808184608083E0EBF0E0808178
:101850008160808387E880937A001092C1000895A8
:101860001F93CF93DF93182FEB0161E00E94B60C1A
:10187000209739F460E0812FDF91CF911F910C9474
:10188000F20CCF3FD10511F461E0F5CFE12FF0E08C
:10189000E859FF4FE491E43031F140F4E230B1F027
:1018A000E330E1F0C038D1057CF7E4CFE83029F12E
:1018B000E93059F1E530B1F7809180008062809382
:1018C0008000D0938B00C0938A0004C084B58068E8
:1018D00084BDC7BDDF91CF911F91089584B580620B
:1018E00084BDC8BDF7CF8091800080688093800060
:1018F000D0938900C0938800EDCF8091B0008068BC
:101900008093B000C093B300E5CF8091B0008062B7
:101910008093B000C093B400DDCF843081F028F410
:101920008230E9F08330F9F00895883071F0893021
:1019300091F08530B9F4809180008F7D03C0809153
:1019400080008F778093800008958091B0008F771A
:101950008093B00008958091B0008F7DF9CF84B559
:101960008F7784BD089584B58F7DFBCFCF93DF93B0
:1019700090E0FC01E158FF4F24918A569F4FFC01F3
:1019800084918823C9F090E0880F991FFC01E954E5
:10199000FF4FA591B491FC01E355FF4FC591D49140
:1019A00061110DC09FB7F8948C91209582238C9380
:1019B0008881282328839FBFDF91CF9108956230CB
:1019C00051F49FB7F8943C91822F809583238C9398
:1019D000E8812E2BEFCF8FB7F894EC912E2B2C9320
:1019E0008FBFEACF1F93CF93DF93282F30E0F90109
:1019F000E859FF4F8491F901E158FF4FD491F90163
:101A0000EA56FF4FC491CC23A9F0162F81110E94F2
:101A10008D0CEC2FF0E0EE0FFF1FE355FF4FA5916B
:101A2000B4918FB7F894EC91111108C0D095DE23D2
:101A3000DC938FBFDF91CF911F910895DE2BF8CFFC
:101A4000FC01918D228D892F90E0805C9F4F821B3D
:101A500091098F7399270895FC01918D828D9817B4
:101A600031F0828DE80FF11D858D90E008958FEFA4
:101A70009FEF0895FC01918D828D981761F0A28DE2
:101A8000AE0FBF2FB11D5D968C91928D9F5F9F739E
:101A9000928F90E008958FEF9FEF0895FC01538D92
:101AA000448D252F30E0842F90E0821B930B541738
:101AB00010F0CF9608950197089583EA9EE0892B50
:101AC00049F080E090E0892B29F00E94A30E81115B
:101AD0000C9400000895FC01A48DA80FB92FB11D2E
:101AE000A35ABF4F2C91848D90E001968F73992754
:101AF000848FA689B7892C93A089B1898C91806441
:101B00008C93938D848D981306C00288F389E02D01
:101B100080818F7D80830895CF93DF93EC01888D42
:101B20008823B9F0AA89BB89E889F9898C9185FD58
:101B300003C0808186FD0DC00FB607FCF7CF8C91E6
:101B400085FFF2CF808185FFEDCFCE010E946B0D26
:101B5000E9CFDF91CF910895EF92FF920F931F93FA
:101B6000CF93DF93EC0181E0888F9B8D8C8D981350
:101B700016C0E889F989808185FF11C0EE89FF8947
:101B80006083E889F98980818064808381E090E0C6
:101B9000DF91CF911F910F91FF90EF900895F62E56
:101BA0000B8D10E00F5F1F4F0F731127E02E8C8DF0
:101BB0008E110CC00FB607FCFACFE889F989808135
:101BC00085FFF5CFCE010E946B0DF1CFEB8DEC0FB1
:101BD000FD2FF11DE35AFF4FF0820B8FEA89FB893D
:101BE00080818062D2CFCF92DF92EF92FF921F93DB
:101BF000CF93DF93EC016A017B01122FE889F98909
:101C000082E08083C11481EED806E104F104A1F0E2
:101C100060E079E08DE390E0A70196010E94FD135A
:101C20002150310941095109569547953795279516
:101C3000211580E1380798F0E889F989108260E879
:101C400074E88EE190E0A70196010E94FD132150F7
:101C50003109410951095695479537952795EC85E6
:101C6000FD853083EE85FF852083188EEC89FD8904
:101C70001083EA89FB89808188698083EA89FB89EE
:101C800080818F7D8083DF91CF911F91FF90EF90B6
:101C9000DF90CF9008951F920F920FB60F921124EC
:101CA0002F938F939F93EF93FF93E0918C01F0918B
:101CB0008D018081E0919201F091930182FD1BC022
:101CC0009081809195018F5F8F732091960182178B
:101CD00041F0E0919501F0E0E458FE4F958F80933C
:101CE0009501FF91EF919F918F912F910F900FBED2
:101CF0000F901F9018958081F4CF1F920F920FB60E
:101D00000F9211242F933F934F935F936F937F9381
:101D10008F939F93AF93BF93EF93FF938CE791E0E3
:101D20000E946B0DFF91EF91BF91AF919F918F91A9
:101D30007F916F915F914F913F912F910F900FBEC7
:101D40000F901F9018958CE791E00E94200D21E0E4
:101D5000892B09F420E0822F0895ECE7F1E013824B
:101D6000128288EE93E0A0E0B0E084839583A6839E
:101D7000B7838DE291E09183808385EC90E0958735
:101D8000848784EC90E09787868780EC90E0918B45
:101D9000808B81EC90E0938B828B82EC90E0958B32
:101DA000848B86EC90E0978B868B118E128E138E2F
:101DB000148E0895AF92BF92CF92DF92EF92FF926E
:101DC0000F931F93CF93DF936C017B018B01040F63
:101DD000151FEB015E01AE18BF08C017D10759F0FF
:101DE0006991D601ED91FC910190F081E02DC60141
:101DF0000995892B79F7C501DF91CF911F910F913B
:101E0000FF90EF90DF90CF90BF90AF900895FB01CF
:101E100001900020E9F73197AF01461B570BDC0119
:101E2000ED91FC910280F381E02D0994611571051B
:101E300011F00C94070F90E080E00895DC01ED9123
:101E4000FC910190F081E02D09946BE371E00C941A
:101E5000070F0F931F93CF93DF938C01D0E0C0E067
:101E60006115710519F00E94070FEC01C8010E946D
:101E7000250F8C0F9D1FDF91CF911F910F9108951A
:101E80008F929F92AF92BF92EF92FF920F931F9308
:101E9000CF93DF93CDB7DEB7A1970FB6F894DEBF2F
:101EA0000FBECDBF7C01FA01CB0119A2223008F48C
:101EB0002AE08E010F5D1F4F822E912CB12CA12C98
:101EC000BF01A50194010E94FD13F901CA016A3006
:101ED0000CF5605DD8016E938D01232B242B252BEF
:101EE00079F790E080E0109721F0BD01C7010E94D2
:101EF000070FA1960FB6F894DEBF0FBECDBFDF91DE
:101F0000CF911F910F91FF90EF90BF90AF909F9056
:101F10008F900895695CDECFCF92DF92EF92FF92AF
:101F20000F931F93CF93DF932115310581F4DC01CB
:101F3000ED91FC910190F081E02D642FDF91CF9124
:101F40001F910F91FF90EF90DF90CF9009942A306E
:101F5000310501F52AE077FF1DC06A017B01EC0124
:101F60006DE20E941E0F8C0144275527BA014C19BF
:101F70005D096E097F092AE0CE010E94400F800FA3
:101F8000911FDF91CF911F910F91FF90EF90DF9004
:101F9000CF900895DF91CF911F910F91FF90EF9017
:101FA000DF90CF900C94400F9A01AB01770F660B36
:101FB000770B0C948C0F2115310541F4DC01ED9168
:101FC000FC910190F081E02D642F09940C94400F56
:101FD0009A01AB0170E060E00C94DB0F2F923F920E
:101FE0004F925F926F927F928F929F92AF92BF9229
:101FF000CF92DF92EF92FF921F93CF93DF93EC018A
:102000006A017B01722EAB019601CB01B6010E94E1
:10201000EC136EE371E0811126C046015701E8948C
:10202000B7F82FEF3FEF4FE75FE7C501B4010E941C
:10203000EC1381110CC02FEF3FEF4FE75FE7C501B5
:10204000B4010E941B1262E471E0181664F02FEFD5
:102050003FEF4FE75FE4C701B6010E947A131816FD
:10206000B4F466E471E0CE01DF91CF911F91FF904F
:10207000EF90DF90CF90BF90AF909F908F907F9028
:102080006F905F904F903F902F900C94070F2FEF21
:102090003FEF4FE75FECC701B6010E941B1287FDBF
:1020A000E0CF20E030E0A901C701B6010E941B1279
:1020B000312C212C87FF09C06DE2CE010E941E0F3A
:1020C0001C01F7FAF094F7F8F09410E060E070E08B
:1020D00080E09FE3711641F020E030E040E251E4FF
:1020E0000E9420121F5FF6CFA70196010E94AF1138
:1020F0002B013C010E9499124B015C012AE0BC01BA
:10210000A401CE010E94400F7C01E20CF31C1123BC
:10211000B1F1C501B4010E94C8129B01AC01C30119
:10212000B2010E94AE114B015C016EE2CE010E9431
:102130001E0FE80EF91E115010F120E030E040E2D1
:1021400051E4C501B4010E947F132B013C010E94A0
:1021500099124B014AE050E0CE010E94E80FE80ED0
:10216000F91EB40190E080E00E94C8129B01AC010E
:10217000C301B2010E94AE114B015C01DCCFC7016B
:10218000DF91CF911F91FF90EF90DF90CF90BF90A4
:10219000AF909F908F907F906F905F904F903F9007
:1021A0002F9008950C94EE0F0F931F93CF93DF930E
:1021B000EC010E949E0B688779878A879B87E8815C
:1021C000F9810484F585E02DCE01099597FF15C0AE
:1021D0000E949E0B088519852A853B85601B710B23
:1021E000820B930B0C811D812E813F81601771073B
:1021F0008207930720F38FEF9FEFDF91CF911F911D
:102200000F910895FF920F931F93CF93DF93EC01EB
:102210008B01F42ECE010E94D41097FD1DC08D328B
:102220009105D1F09C01205331092A303105A0F0ED
:10223000FF2019F08E32910579F00130110551F02F
:102240000230110589F48D30910571F05CF4099725
:10225000029750F08FEF9FEFDF91CF911F910F9179
:10226000FF9008958097B1F7E881F9810284F385A2
:10227000E02DCE010995CECFBF92CF92DF92EF92A3
:10228000FF920F931F93CF93DF938C01C42F40E0F5
:102290000E940211FC01C12CD12C760197FD3EC099
:1022A000B12C0C2E000CDD0BCE17DF07D9F0ED3270
:1022B000F10509F43FC0CF01C0970A9798F4AAE04E
:1022C000B0E0A70196010E941F146F01FF0FEE08F6
:1022D000FF08C60ED71EE81EF91E80E3C81AD108F3
:1022E000E108F108D801ED91FC910284F385E02D1D
:1022F000C8010995C8010E94D410FC01C0970A9733
:1023000098F2CE17DF0781F2BB2041F0F094E09401
:10231000D094C094C11CD11CE11CF11CC701B601B2
:10232000DF91CF911F910F91FF90EF90DF90CF90B1
:10233000BF900895BB24B394D5CF08950E94080C94
:102340000E949D110E94F306CDE5DDE00E94EC079E
:102350002097E1F30E945D0DF9CF08955058BB27F7
:10236000AA270E94C6110C9440130E94321338F021
:102370000E94391320F039F49F3F19F426F40C948D
:102380002F130EF4E095E7FB0C942913E92F0E941C
:10239000511358F3BA17620773078407950720F0A3
:1023A00079F4A6F50C9473130EF4E0950B2EBA2F66
:1023B000A02D0B01B90190010C01CA01A00111244B
:1023C000FF27591B99F0593F50F4503E68F11A16F7
:1023D000F040A22F232F342F4427585FF3CF469588
:1023E00037952795A795F0405395C9F77EF41F16AA
:1023F000BA0B620B730B840BBAF09150A1F0FF0F74
:10240000BB1F661F771F881FC2F70EC0BA0F621F5F
:10241000731F841F48F4879577956795B795F7954F
:102420009E3F08F0B0CF9395880F08F09927EE0FE4
:102430009795879508950E94051308F481E0089503
:102440000E9434120C9440130E94391358F00E94D9
:10245000321340F029F45F3F29F00C9429135111F5
:102460000C9474130C942F130E94511368F3992346
:10247000B1F3552391F3951B550BBB27AA27621780
:102480007307840738F09F5F5F4F220F331F441F8D
:10249000AA1FA9F335D00E2E3AF0E0E832D09150C1
:1024A0005040E695001CCAF72BD0FE2F29D0660FAE
:1024B000771F881FBB1F261737074807AB07B0E8F1
:1024C00009F0BB0B802DBF01FF2793585F4F3AF0F7
:1024D0009E3F510578F00C9429130C9474135F3FC0
:1024E000E4F3983ED4F3869577956795B795F7957D
:1024F0009F5FC9F7880F911D9695879597F9089565
:10250000E1E0660F771F881FBB1F62177307840700
:10251000BA0720F0621B730B840BBA0BEE1F88F70F
:10252000E09508950E9499126894B1110C94741367
:1025300008950E94591388F09F5798F0B92F992752
:10254000B751B0F0E1F0660F771F881F991F1AF09E
:10255000BA95C9F714C0B13091F00E947313B1E07D
:1025600008950C947313672F782F8827B85F39F07C
:10257000B93FCCF3869577956795B395D9F73EF437
:1025800090958095709561957F4F8F4F9F4F0895DF
:10259000E89409C097FB3EF49095809570956195FD
:1025A0007F4F8F4F9F4F9923A9F0F92F96E9BB27B3
:1025B0009395F695879577956795B795F111F8CF2F
:1025C000FAF4BB0F11F460FF1BC06F5F7F4F8F4F9A
:1025D0009F4F16C0882311F096E911C0772321F090
:1025E0009EE8872F762F05C0662371F096E8862F28
:1025F00070E060E02AF09A95660F771F881FDAF77F
:10260000880F9695879597F90895990F0008550FAB
:10261000AA0BE0E8FEEF16161706E807F907C0F068
:1026200012161306E407F50798F0621B730B840B70
:10263000950B39F40A2661F0232B242B252B21F44A
:1026400008950A2609F4A140A6958FEF811D811DEA
:10265000089597F99F6780E870E060E008959FEF24
:1026600080EC089500240A94161617061806090629
:10267000089500240A9412161306140605060895F8
:10268000092E0394000C11F4882352F0BB0F40F480
:10269000BF2B11F460FF04C06F5F7F4F8F4F9F4FC0
:1026A000089557FD9058440F551F59F05F3F71F042
:1026B0004795880F97FB991F61F09F3F79F08795A9
:1026C0000895121613061406551FF2CF4695F1DF32
:1026D00008C0161617061806991FF1CF86957105C2
:1026E000610508940895E894BB2766277727CB01F6
:1026F00097F908950E94051308F48FEF08950E943A
:1027000092130C9440130E94321338F00E94391334
:1027100020F0952311F00C9429130C942F131124FD
:102720000C9474130E94511370F3959FC1F3950F8D
:1027300050E0551F629FF001729FBB27F00DB11D45
:10274000639FAA27F00DB11DAA1F649F6627B00DD5
:10275000A11D661F829F2227B00DA11D621F739FBE
:10276000B00DA11D621F839FA00D611D221F749FCC
:102770003327A00D611D231F849F600D211D822F13
:10278000762F6A2F11249F5750409AF0F1F088233A
:102790004AF0EE0FFF1FBB1F661F771F881F915067
:1027A0005040A9F79E3F510580F00C9429130C94DA
:1027B00074135F3FE4F3983ED4F38695779567955D
:1027C000B795F795E7959F5FC1F7FE2B880F911D91
:1027D0009695879597F908950E940513880B990B94
:1027E0000895991B79E004C0991F961708F0961B6D
:1027F000881F7A95C9F780950895A1E21A2EAA1B21
:10280000BB1BFD010DC0AA1FBB1FEE1FFF1FA217A0
:10281000B307E407F50720F0A21BB30BE40BF50B9D
:10282000661F771F881F991F1A9469F76095709526
:10283000809590959B01AC01BD01CF0108950E9448
:102840003014A59F900DB49F900DA49F800D911DF5
:1028500011240895EE0FFF1F0590F491E02D0994C7
:10286000A29FB001B39FC001A39F700D811D1124D1
:10287000911DB29F700D811D1124911D0895F9992C
:10288000FECF92BD81BDF89A992780B50895262F75
:10289000F999FECF1FBA92BD81BD20BD0FB6F89445
:0E28A000FA9AF99A0FBE01960895F894FFCFA8
:1028AE00010001000000E50A00002D0057616E6472
:1028BE0065726572526F7461746F7250726F4132CD
:1028CE0030323430323236410000000000AC0DDAC6
:1028DE000E4E0D8C0D200D3A0D2C0D0D0A006E6155
:0A28EE006E00696E66006F766600EA
:00000001FF
