:100000000C9467000C948F000C948F000C948F005C
:100010000C948F000C948F000C948F000C948F0024
:100020000C948F000C948F000C948F000C948F0014
:100030000C948F000C948F000C948F000C948F0004
:100040000C9416140C948F000C9466170C9498174B
:100050000C948F000C948F000C948F000C948F00E4
:100060000C948F000C948F00000000090003020024
:10007000000405080000000000000000000000016E
:10008000020408102040800102040810200102042C
:100090000810204080400404040404040404020204
:1000A000020202020303030303030202030000002F
:1000B0000023002600290000000000250028002B56
:1000C0000000000000240027002A0000C8171124A7
:1000D0001FBECFEFD4E0DEBFCDBF11E0A0E0B1E0A6
:1000E000E0E4FBE302C005900D92A63CB107D9F70E
:1000F00022E0A6ECB1E001C01D92AF3DB207E1F7EE
:1001000010E0C7E6D0E004C02197FE010E94541D14
:10011000C636D107C9F70E94CB1A0C949E1D0C94C9
:1001200000000F931F93CF93DF93CDECD1E08C01B0
:100130000D5C1140C8018C0F9D1F0E94881D899382
:1001400081E0C13DD807B1F78DEC91E0DF91CF910F
:100150001F910F9108950C94881DFF920F931F9388
:10016000CF93DF93EC01F62E08811981C8010E941C
:10017000881DF81621F06F2DC8010E94901DCE0138
:10018000DF91CF911F910F91FF900895CF93DF934F
:1001900000D0CDB7DEB79A838983CE0101960E9445
:1001A000AD000F900F90DF91CF910895EF92FF92E5
:1001B0000F931F93CF93DF9300D0CDB7DEB70DEC35
:1001C00011E08D5C91407C01C701800F911F9A83E3
:1001D0008983F80161918F01CE0101960E94AD00E3
:1001E000F1E0013D1F0781F78DEC91E00F900F903A
:1001F000DF91CF911F910F91FF90EF900895CF92D3
:10020000DF92EF92FF920F931F93CF93DF9361E002
:1002100087E00E94A11561E086E00E94A11561E0DF
:1002200083E00E94A11561E087E00E94DD1560E097
:1002300083E10E94A11560E080E10E94A11561E0C8
:1002400083E00E94A11561E089E00E94A11526E0EB
:1002500040E05BE460E070E082E492E00E940E1710
:1002600010922302109222028091F2019091F301E8
:1002700060E044960E94C60080918100887F816082
:100280008093810085B5887F816085BDC091F20132
:10029000D091F301CE010E94AB00682F70E090E096
:1002A00080E00E94F51B6093E6017093E701809364
:1002B000E8019093E901CE0101960E94AB00682FFE
:1002C00070E090E080E00E94F51B6093DE01709387
:1002D000DF018093E0019093E101CE0102960E943C
:1002E000AB00682F70E06C597F4F072E000C880B15
:1002F000990B0E94F71B6093E2017093E3018093D6
:10030000E4019093E501CE0103960E94AB00682FB3
:1003100070E090E080E00E94F51B6093DA0170933A
:10032000DB018093DC019093DD01CE0105960E94F4
:10033000AB0090E090932102809320026E018AE04E
:10034000C80ED11CC6010E94AB00082F10E010930C
:10035000CC010093CB01CE010B960E94AB00E82E9E
:10036000F12CF092CA01E092C901CE010C960E94D4
:10037000AB0090E00115110511F401E010E01093BD
:10038000CC010093CB01E114F10419F4EE24E394C1
:10039000F12CF092CA01E092C901009711F481E0BA
:1003A00090E09093C8018093C701602FC6010E941E
:1003B000C6008091F2019091F3016091C9010B9602
:1003C0000E94C6008091F2019091F3016091C701F3
:1003D0000C960E94C600C091F201D091F301CE01AB
:1003E0000D960E94AB008A3709F024C181E080930A
:1003F000C6018091200290912102873991054CF02D
:10040000109221021092200260E0CE0105960E9417
:10041000C60020E030E048EC52E46091DE017091CB
:10042000DF018091E0019091E1010E944D1B20913C
:10043000E6013091E7014091E8015091E9010E9405
:10044000DC1A6B017C01C092EE01D092EF01E092C8
:10045000F001F092F10120E030E048EC52E46091CC
:10046000DA017091DB018091DC019091DD010E9445
:100470004D1B2091E2013091E3014091E401509144
:10048000E5010E94DC1A6093EA017093EB0180930E
:10049000EC019093ED0120E030E044EB52E4C70121
:1004A000B6010E94A71C1816A4F58091F201909144
:1004B000F30140E050E060EA71E44093EE015093B4
:1004C000EF016093F0017093F1014093E6015093C6
:1004D000E7016093E8017093E9011092DE01109248
:1004E000DF011092E0011092E10164E10E94C60078
:1004F0006091DE017091DF018091E0019091E10156
:100500000E94C61B8091F2019091F30101960E9416
:10051000C60020E030E046E953E46091EA017091C2
:10052000EB018091EC019091ED010E94A71C18163F
:10053000ACF58091F2019091F30140E050E06CED58
:1005400072E44093EA015093EB016093EC017093E5
:10055000ED014093E2015093E3016093E401709355
:10056000E5011092DA011092DB011092DC01109289
:10057000DD016AE002960E94C6006091DA01709186
:10058000DB018091DC019091DD010E94C61B80910E
:10059000F2019091F30103960E94C6008091F2014E
:1005A0009091F30106960E949100C090CD01D090E9
:1005B000CE01E090CF01F090D001A7019601C701D4
:1005C000B6010E94191D811113C020E030E0A9017D
:1005D000C701B6010E94481B87FD0AC020E030E039
:1005E00044EB53E4C701B6010E94A71C87FD16C067
:1005F0001092CD011092CE011092CF011092D00135
:100600008091F2019091F30106960E94D6008091AC
:10061000F2019091F30106960E94910060E084E05F
:10062000DF91CF911F910F91FF90EF90DF90CF90CE
:100630000C94A1151092C601DCCEFC012081318101
:1006400024533142293E334048F4FC012281338156
:10065000205A3F4081E0293E334008F080E0089571
:10066000FC019C0120583F4F60E070E0CB01660F19
:10067000771F881F991F46815781493E534008F0D4
:1006800061603496E217F30791F708954F925F92F5
:100690006F927F92AF92BF92CF92DF92EF92FF92D2
:1006A0000F931F93CF93DF93CDB7DEB7C858D1090F
:1006B0000FB6F894DEBF0FBECDBF0E946C146B0165
:1006C0007C0184E00E940B16019709F45FC0CE0103
:1006D00001967C0110E000E06C010E946C142B017B
:1006E0003C01580191E0A922BB2484E00E940B1632
:1006F0008A159B0569F40E946C14641975098609B2
:1007000097096130784F8442914078F310E027C018
:100710000E946C14641975098609970926E096955C
:100720008795779567952A95D1F7F701619371932E
:100730007F010F5F1F4F0434110579F6C6010E9437
:100740001D03182F882311F3C6010E943003609304
:10075000D5017093D6018093D7019093D801812F52
:10076000C857DF4F0FB6F894DEBF0FBECDBFDF9185
:10077000CF911F910F91FF90EF90DF90CF90BF909E
:10078000AF907F906F905F904F9008950E946C148F
:100790006C197D098E099F096130784F8442914020
:1007A00008F48FCFB3CF8F929F92AF92BF92CF9228
:1007B000DF92EF92FF92CF93DF9320E030E044EBA3
:1007C00052E46091D1017091D2018091D301909156
:1007D000D4010E94481B87FFD9C061E083E00E94DA
:1007E000DD1580E090E5A3ECB6E480931C029093C5
:1007F0001D02A0931E02B0931F02C3E0D0E020E0D0
:1008000030E0A90160911C0270911D0280911E02CE
:1008100090911F020E94A71C18160CF08FC180E156
:100820000E94FD14BC01990F880B990B0E94F71BC5
:100830002DEC3CEC4CE453E40E944D1B20E030E0F6
:1008400040E952E40E94AC1C6B017C01C092FC01A7
:10085000D092FD01E092FE01F092FF018090CD0167
:100860009090CE01A090CF01B090D001A50194014D
:100870000E94A71CA501940118160CF07CC0C701AA
:10088000B6010E94DB1A6093D1017093D20180936C
:10089000D3019093D40120E030E044EB52E4609126
:1008A000D1017091D2018091D3019091D4010E9425
:1008B000A71C18160CF442C161E086E00E94DD1509
:1008C0008091240290912502BE010E941E1DCB0141
:1008D0000E94CA1460E086E00E94DD158091240227
:1008E00090912502BE010E941E1DCB010E94CA14D8
:1008F00020E030E040E85FE360911C0270911D024F
:1009000080911E0290911F020E94DB1A60931C02CC
:1009100070931D0280931E0290931F0220E030E02E
:1009200040E85FE3609118027091190280911A0209
:1009300090911B020E94DC1A6093180270931902B6
:1009400080931A0290931B0220E030E040E85FE3BE
:100950006091140270911502809116029091170215
:100960000E94DC1A609314027093150280931602A1
:100970009093170244CF60E070E084EB93E40E9410
:10098000DB1AA70196010E94DC1A7DCF60E083E0AC
:100990000E94DD1580E090E5A3ECB6E480931C0294
:1009A00090931D02A0931E02B0931F02C3E0D0E0FB
:1009B00020E030E0A90160911C0270911D0280913D
:1009C0001E0290911F020E94A71C18160CF0B6C0C0
:1009D00080E10E94FD14BC01990F880B990B0E94C5
:1009E000F71B2DEC3CEC4CE453E40E944D1B20E043
:1009F00030E040E952E40E94AC1C6B017C01C092E3
:100A0000FC01D092FD01E092FE01F092FF01809086
:100A1000CD019090CE01A090CF01B090D001A50162
:100A200094010E94A71CA501940118160CF07BC02C
:100A3000C701B6010E94DB1A6093D1017093D20105
:100A40008093D3019093D40120E030E044EB52E452
:100A50006091D1017091D2018091D3019091D40124
:100A60000E94481B87FD6AC061E086E00E94DD1598
:100A70008091240290912502BE010E941E1DCB018F
:100A80000E94CA1460E086E00E94DD158091240275
:100A900090912502BE010E941E1DCB010E94CA1426
:100AA00020E030E040E85FE360911C0270911D029D
:100AB00080911E0290911F020E94DB1A60931C021B
:100AC00070931D0280931E0290931F0220E030E07D
:100AD00040E85FE3609118027091190280911A0258
:100AE00090911B020E94DC1A609318027093190205
:100AF00080931A0290931B0220E030E040E85FE30D
:100B00006091140270911502809116029091170263
:100B10000E94DC1A609314027093150280931602EF
:100B20009093170245CF60E070E084EB93E40E945D
:100B3000DB1AA70196010E94DC1A7ECF68EE73E0F3
:100B400080E090E0DF91CF91FF90EF90DF90CF9029
:100B5000BF90AF909F908F900C9491148F929F9222
:100B6000AF92BF92CF92DF92EF92FF921F93CF93FB
:100B7000DF93182FEB0170E060E085E00E941B1509
:100B800010922302109222028091F2019091F301BF
:100B900060E044960E94C60085B5887F836085BD6D
:100BA000612F83E00E94DD1560E087E00E94DD1583
:100BB000109218021092190210921A0210921B023F
:100BC00080E090E8ABEBB4E480931C0290931D02AC
:100BD000A0931E02B0931F0220E030E0A9016091B3
:100BE0001C0270911D0280911E0290911F020E94B2
:100BF000A71C1816ECF580E10E94FD14BC01990FAA
:100C0000880B990B0E94F71B2DEC3CEC4CE453E451
:100C10000E944D1B20E030E040E952E40E94AC1CF1
:100C20000E94BF1B072E000C880B990B0E94F71B1C
:100C30006B017C018090CD019090CE01A090CF01FE
:100C4000B090D001A50194010E94A71CA5019401B8
:100C500018160CF085C0C701B6010E94DB1A0E946D
:100C6000BF1B112309F487C0C617D7070CF087C034
:100C700080E090E6AAE6B6E480931C0290931D0201
:100C8000A0931E02B0931F0220E030E0A901609102
:100C90001C0270911D0280911E0290911F020E9401
:100CA000A71C1816ECF580E10E94FD14BC01990FF9
:100CB000880B990B0E94F71B2DEC3CEC4CE453E4A1
:100CC0000E944D1B20E030E040E952E40E94AC1C41
:100CD0000E94BF1B072E000C880B990B0E94F71B6C
:100CE0006B017C018090CD019090CE01A090CF014E
:100CF000B090D001A50194010E94A71CA501940108
:100D000018160CF0B9C0C701B6010E94DB1A0E9488
:100D1000BF1B112309F4BBC06C177D070CF4BBC0CB
:100D200068EE73E080E090E00E94911461E087E05B
:100D30000E94DD1569E371E082E492E00E944418AC
:100D400085B5887F816085BDDF91CF911F91FF9030
:100D5000EF90DF90CF90BF90AF909F908F900895CD
:100D600060E070E084EB93E40E94DB1AA701960137
:100D70000E94DC1A74CF6C177D070CF479CF61E008
:100D800086E00E94DD1520E030E040E05FE3609106
:100D90001C0270911D0280911E0290911F020E9400
:100DA000AC1C20E030E04AEF53E40E94DC1A0E94C1
:100DB000C61BCB010E94CA1460E086E00E94DD15CC
:100DC00020E030E040E05FE360911C0270911D0282
:100DD00080911E0290911F020E94AC1C20E030E026
:100DE0004AEF53E40E94DC1A0E94C61BCB010E940A
:100DF000CA1420E030E040E85FE360911C0270918B
:100E00001D0280911E0290911F020E94DB1A6093C6
:100E10001C0270931D0280931E0290931F0220E01B
:100E200030E040E85FE36091180270911902809110
:100E30001A0290911B020E94DC1A609318027093B0
:100E4000190280931A0290931B0220E030E040E8E0
:100E50005FE36091140270911502809116029091E7
:100E600017020E94DC1A609314027093150280939B
:100E7000160290931702B0CE60E070E084EB93E42A
:100E80000E94DB1AA70196010E94DC1A40CF6C1762
:100E90007D070CF445CF61E086E00E94DD1580916E
:100EA0002402909125028C5D95400E94CA1460E056
:100EB00086E00E94DD158091240290912502845ADB
:100EC00096400E94CA1420E030E040E85FE3609161
:100ED0001C0270911D0280911E0290911F020E94BF
:100EE000DB1A60931C0270931D0280931E02909384
:100EF0001F0220E030E040E85FE36091180270914B
:100F0000190280911A0290911B020E94DC1A6093D0
:100F100018027093190280931A0290931B0220E02A
:100F200030E040E85FE36091140270911502809117
:100F30001602909117020E94DC1A609314027093BB
:100F4000150280931602909317029ECE8F929F9265
:100F5000AF92BF92CF92DF92EF92FF921F93CF9307
:100F6000DF93CDB7DEB764970FB6F894DEBF0FBE40
:100F7000CDBFC090F201D090F301C60144960E940B
:100F8000AB00E82EF12CF0922302E0922202C6017F
:100F900005960E94AB0090E090932102809320027E
:100FA000B70185E00E941B1560912002709121021B
:100FB00089E00E941B1580ED97E0909325028093B5
:100FC00024021092F8011092F9011092FA01109285
:100FD000FB011092F4011092F5011092F6011092AB
:100FE000F70120E030E044EB52E46091D1017091D0
:100FF000D2018091D3019091D4010E94A71C1816B0
:10100000BCF48091220290912302892B89F070E038
:1010100060E085E00E941B151092230210922202CC
:101020008091F2019091F30160E044960E94C60025
:1010300020E030E040E251E4609110027091110232
:1010400080911202909113020E94481B87FF11C0E9
:1010500070E060E085E00E941B1510922302109260
:1010600022028091F2019091F30160E044960E9487
:10107000C600E090F201F090F301C7010A960E94C9
:10108000AB0090E09093CC018093CB01C7010B960D
:101090000E94AB0090E09093CA018093C901C70100
:1010A0000C960E94AB0090E09093C8018093C7011A
:1010B00083E10E94FD14BC01990F880B990B0E94DB
:1010C000F71B20E030E040EA50E40E94AC1C20E036
:1010D00030E040E85AE30E94AC1C29E831E440E4E7
:1010E00050E40E94AC1C6B017C01C0921002D092B3
:1010F0001102E0921202F092130211E020E030E0BF
:1011000040E251E40E94A71C18160CF010E08091F8
:10111000C601882309F490C0B0902A0220E030E094
:1011200040E251E4C701B6010E94A71C18160CF05A
:10113000B7C1B11077C08091310290913202A09175
:101140003302B0913402892B8A2B8B2B51F40E94ED
:101150006014609331027093320280933302909353
:1011600034020E946014C0903502D0903602E090A4
:101170003702F09038026C197D098E099F090E9490
:10118000F51B20E030E04AE757E40E944D1B6B015D
:101190007C0120E030E040E050E40E94A71C87FD85
:1011A000C6C020E030E040E850E4C701B6010E942C
:1011B000481B87FFBCC02091EA013091EB014091B0
:1011C000EC015091ED016091EE017091EF01809181
:1011D000F0019091F1010E94DC1A20E030E040E043
:1011E0005FE30E94AC1C2091D1013091D20140916B
:1011F000D3015091D4010E94A71C18160CF092C084
:1012000089EE93E0A0E0B0E080932602909327025D
:10121000A0932802B093290210922C0210922B0264
:101220001092D9010E94601460932D0270932E02D7
:1012300080932F029093300280913102909132027C
:10124000A0913302B0913402892B8A2B8B2B09F1A8
:101250000E946014C0903102D0903202E0903302BC
:10126000F09034026C197D098E099F096130724E2D
:101270008440910570F010922C0210922B02109273
:10128000D901109231021092320210923302109260
:10129000340210932A020E944603882309F446C1AF
:1012A0008091D5019091D601A091D701B091D8013C
:1012B0008F3560EA96076DEFA607B10509F00BC1FF
:1012C0002091EA013091EB014091EC015091ED0148
:1012D0006091EE017091EF018091F0019091F10128
:1012E0000E94DC1A20E030E040E05FE30E94AC1C8A
:1012F0002091D1013091D2014091D3015091D4017C
:101300000E94A71C18160CF0E1C089EE93E0A0E043
:10131000B0E08093260290932702A0932802B09316
:10132000290204C188EE93E0A0E0B0E06DCF20E098
:1013300030E040E050E4C701B6010E94481B87FF3F
:101340008BC02DEC3CEC4CE45EE3C701B6010E947F
:10135000A71C87FD81C08091D901811133C084E130
:10136000E3E0F1E0DE01119601900D928A95E1F73C
:101370002091000130910101FE01319690E080E062
:10138000419151914217530711F40C9403140196A3
:101390008A309105A9F78FE097E29093010180933D
:1013A00000018091000190910101092E000CAA0B0F
:1013B000BB0B8093260290932702A0932802B09340
:1013C000290230CF80912B0290912C0201969093AC
:1013D0002C0280932B0281309105B1F48091CB01D6
:1013E0009091CC01AC01092E000C660B770B409359
:1013F000260250932702609328027093290290934B
:101400000101809300010ECF8230910529F4809173
:10141000C9019091CA01E6CF8330910529F48091EA
:10142000C7019091C801DECF049709F0FBCE8FE091
:1014300097E2A0E0B0E08093260290932702A09369
:101440002802B09329029093010180930001109229
:101450002C0210922B02E6CE20E030E040E251E474
:10146000C701B6010E94481B87FFDCCE20E030E0B8
:1014700040E850E4C701B6010E94A71C87FDD2CE08
:1014800081E08093D9018FE097E2A0E0B0E0809303
:10149000260290932702A0932802B0932902AFCF8F
:1014A000BB2009F4C9CE0E9460146093350270938A
:1014B00036028093370290933802109231021092D4
:1014C00032021092330210923402B6CE88EE93E0CC
:1014D000A0E0B0E01ECF8F3420EB92072DEFA207E3
:1014E000B10509F07DC480E1E7E1F1E0DE0111968C
:1014F00001900D928A95E1F74091220250912302CA
:10150000FE0131969E012F5E3F4F819191914817C8
:1015100059074CF49093230280932202092E000C69
:10152000AA0BBB0BF6CE2E173F0779F782E492E0A9
:101530000E943416892B79F041E070E060E082E48B
:1015400092E00E94691A60932602709327028093AA
:101550002802909329028091260290912702A0915F
:101560002802B09129028336934EA641B10559F461
:101570008091F2019091F3016AE70D960E94C600F6
:1015800081E08093C6018091260290912702A0916C
:101590002802B09129028436934EA641B10551F438
:1015A0008091F2019091F30160E00D960E94C600D7
:1015B0001092C6018091260290912702A0912802E4
:1015C000B09129020197A109B1098F3F9105A105A9
:1015D000B105A0F485B5887F816085BD9091260214
:1015E000692F809127029093220280932302809199
:1015F000F2019091F30144960E94C6008091260268
:1016000090912702A0912802B09129028F30974231
:10161000A105B10589F470E060E085E00E941B152A
:1016200010922302109222028091F2019091F30114
:1016300060E044960E94C6008091260290912702A5
:10164000A0912802B0912902AC01BD01405D574034
:1016500061097109473951056105710578F4805DAB
:10166000974090932102809320022091F2013091C3
:10167000F301682FC90105960E94C60060912602F9
:101680007091270280912802909129026B017C01C0
:1016900020E1C21A27E2D20AE108F10820E3C216CB
:1016A00025E7D206E104F10408F069C00E94F71BA7
:1016B00020E030E44CE156E40E94DB1A20E030E008
:1016C00048EC52E40E944D1B6B017C01C092EE017C
:1016D000D092EF01E092F001F092F1010E94BF1B65
:1016E0004B01072E000C880B990B0E94F71B9B01E6
:1016F000AC012093E6013093E7014093E801509359
:10170000E901C701B6010E94DB1A20E030E048EC95
:1017100052E40E94AC1C6093DE017093DF01809361
:10172000E0019093E101682D8091F2019091F30125
:101730000E94C6006091DE017091DF018091E0019E
:101740009091E1010E94C61B8091F2019091F301FA
:1017500001960E94C6006EE371E082E492E00E946E
:1017600031184091EE015091EF016091F0017091BC
:10177000F10122E030E082E492E00E94EF196091F2
:1017800026027091270280912802909129026B0114
:101790007C0120E4C21A2CE9D20AE108F10828EB06
:1017A000C21628E8D206E104F10408F074C00E94D1
:1017B000F71B20E030E44CE157E40E94DB1A20E004
:1017C00030E048EC52E40E944D1B4B015C018092DA
:1017D000EA019092EB01A092EC01B092ED010E941F
:1017E000BF1B072E000C880B990B0E94F71B6B0187
:1017F0007C01C092E201D092E301E092E401F09218
:10180000E501AC019B01C501B4010E94DB1A20E097
:1018100030E048EC52E40E94AC1C6093DA01709313
:10182000DB018093DC019093DD0120E030E048ECA7
:1018300052E4C701B6010E94DB1A0E94C61B8091C8
:10184000F2019091F30102960E94C6006091DA01C4
:101850007091DB018091DC019091DD010E94C61B3B
:101860008091F2019091F30103960E94C6006FE40B
:1018700071E082E492E00E9431184091EA015091B7
:10188000EB016091EC017091ED0122E030E082E427
:1018900092E00E94EF198091260290912702A09178
:1018A0002802B0912902883E9340A105B10569F450
:1018B0006091EE017091EF018091F0019091F10142
:1018C0000E94BF1B80E00E94AE058091260290918D
:1018D0002702A0912802B0912902893E9340A105D8
:1018E000B10569F46091EA017091EB018091EC011E
:1018F0009091ED010E94BF1B81E00E94AE05809196
:10190000260290912702A0912802B0912902AC01F1
:10191000BD01415452446F4071094F3F510561056B
:10192000710550F460EC680F2091F2013091F301E1
:10193000C9010A960E94C600809126029091270252
:10194000A0912802B0912902AC01BD014158544830
:101950006E4171094F3F51056105710550F460E812
:10196000680F2091F2013091F301C9010B960E949A
:10197000C6008091260290912702A0912802B09182
:101980002902AC01BD01415C564C6D4271094F3FCB
:1019900051056105710550F460E4680F2091F20172
:1019A0003091F301C9010C960E94C6008091260275
:1019B00090912702A0912802B0912902813A96487D
:1019C000A140B10509F007C370E060E085E00E9426
:1019D0001B1585B5887F836085BD61E083E00E942B
:1019E000DD1560E087E00E94DD1580E10E94FD14B6
:1019F0000E94D30361E083E00E94DD15109218027B
:101A00001092190210921A0210921B0210921402E4
:101A100010921502109216021092170280E090E5C3
:101A2000A3ECB6E480931C0290931D02A0931E02C7
:101A3000B0931F0220E030E0A90160911C02709178
:101A40001D0280911E0290911F020E94A71C181671
:101A50000CF075C120E030E040E85FE360911802CF
:101A60007091190280911A0290911B020E94481BEA
:101A7000811146C00E94601460930C0270930D02A5
:101A800080930E0290930F0280E10E94FD14BC012E
:101A9000990F880B990B0E94F71B2DEC3CEC4CE442
:101AA00053E40E944D1B20E030E040E952E40E94E4
:101AB000AC1C0E94BF1B072E000C880B990B0E94C8
:101AC000F71B6B017C018090CD019090CE01A0901E
:101AD000CF01B090D001A50194010E94A71CA501DF
:101AE000940118160CF0AEC1C701B6010E94DB1AB2
:101AF00060930002709301028093020290930302AC
:101B000020E030E046E153E4609118027091190240
:101B100080911A0290911B020E94A71C18160CF0CB
:101B2000B2C10E946014C0900C02D0900D02E090EF
:101B30000E02F0900F026C197D098E099F096093C7
:101B400008027093090280930A0290930B0280E1CD
:101B50000E94FD14BC01990F880B990B0E94F71B82
:101B60002DEC3CEC4CE453E40E944D1B20E030E0B3
:101B700040E952E40E94AC1C0E94BF1B072E000CDF
:101B8000880B990B0E94F71B6B017C018090CD01A3
:101B90009090CE01A090CF01B090D001A50194010A
:101BA0000E94A71CA501940118160CF056C1C7018C
:101BB000B6010E94DB1A209100023091010240918F
:101BC0000202509103020E94DB1A6B017C016091BA
:101BD00008027091090280910A0290910B020E9402
:101BE000F51B9B01AC01C701B6010E944D1B20E013
:101BF00030E048EC52E40E94AC1C6B017C0120E018
:101C000030E0A9010E94A71C181624F0F7FAF094FE
:101C1000F7F8F094C0920402D0920502E092060216
:101C2000F0920702109218021092190210921A02F2
:101C300010921B022DEC3CEC4CEC5DE3C701B601AD
:101C40000E94481B87FF1FC120E030E04AEF53E4A9
:101C50006091140270911502809116029091170202
:101C60000E94A71C18160CF00EC180E10E94FD1402
:101C7000BC01990F880B990B0E94F71B2DEC3CECD3
:101C80004CE453E40E944D1B20E030E040E952E474
:101C90000E94AC1C0E94BF1B072E000C880B990BE6
:101CA0000E94F71B6B017C018090CD019090CE01CA
:101CB000A090CF01B090D001A50194010E94A71C73
:101CC000A501940118160CF0D3C0C701B6010E94FB
:101CD000DB1A6093EA017093EB018093EC0190931F
:101CE000ED01C090EA01D090EB01E090EC01F090A2
:101CF000ED01C701B6010E94BF1B072E000C880B27
:101D0000990B0E94F71B9B01AC012093E2013093D9
:101D1000E3014093E4015093E501C701B6010E943D
:101D2000DB1A20E030E048EC52E40E94AC1C6093E7
:101D3000DA017093DB018093DC019093DD0168ECA4
:101D400070E080E090E00E94911480E090E0A8E4D0
:101D5000B3E480931C0290931D02A0931E02B093E3
:101D60001F0220E030E0A90160911C0270911D0269
:101D700080911E0290911F020E94A71C18160CF061
:101D8000D9C060E083E00E94DD1561E086E00E943A
:101D9000DD1580912402909125020E94CA1460E012
:101DA00086E00E94DD1580912402909125020E9418
:101DB000CA1420E030E040E85FE360911C027091BB
:101DC0001D0280911E0290911F020E94DB1A6093F7
:101DD0001C0270931D0280931E0290931F02C1CFBC
:101DE00087379848AD4FB10509F0A0CB82E1E7E213
:101DF000F1E0DE01119601900D928A95E1F72091B4
:101E0000220230912302FE013196AE014D5E5F4FFA
:101E100081919191821793070CF47CCB213031058D
:101E200069F48F3067E2960749F490932302809318
:101E300022028FE097E2A0E0B0E06BCA4E175F0786
:101E400039F774CB60E070E084EB93E40E94DB1A16
:101E5000A70196010E94DC1A4BCE60E070E084EB93
:101E600093E40E94DB1AA70196010E94DC1AA3CE1C
:101E700060E070E084EB93E40E94DB1AA701960116
:101E80000E94DC1A26CF61E086E00E94DD15809179
:101E90002402909125020E94CA1460E086E00E940C
:101EA000DD1580912402909125020E94CA1420E041
:101EB00030E040E85FE360911C0270911D02809168
:101EC0001E0290911F020E94DB1A60931C02709305
:101ED0001D0280931E0290931F0220E030E040E834
:101EE0005FE3609118027091190280911A0290913B
:101EF0001B020E94DC1A60931802709319028093EF
:101F00001A0290931B0220E030E040E85FE360910A
:101F100014027091150280911602909117020E948E
:101F2000DC1A60931402709315028093160290934A
:101F3000170280CD61E087E00E94DD1520E030E0EF
:101F400048EC52E46091E2017091E3018091E40178
:101F50009091E5010E94DB1A0E94C61B8091F2015C
:101F60009091F30102960E94C6006091DA0170918F
:101F7000DB018091DC019091DD010E94C61B809104
:101F8000F2019091F30103960E94C6006FE571E0A3
:101F900082E492E00E9431184091EA015091EB01F5
:101FA0006091EC017091ED0122E030E082E492E07A
:101FB0000E94ED1962EA71E082E492E00E94441806
:101FC00085B5887F816085BD609122027091230272
:101FD00085E00E941B158091260290912702A09116
:101FE0002802B0912902803A9648A140B10509F033
:101FF000CDC270E060E085E00E941B1585B5887F4A
:10200000836085BD60E083E00E94DD1560E087E0CD
:102010000E94DD1580E10E94FD140E94D30360E060
:1020200083E00E94DD15109218021092190210929E
:102030001A0210921B0210921402109215021092B2
:1020400016021092170280E090E5A3ECB6E48093AC
:102050001C0290931D02A0931E02B0931F0220E069
:1020600030E0A90160911C0270911D0280911E0256
:1020700090911F020E94A71C18160CF075C120E059
:1020800030E040E85FE3609118027091190280919E
:102090001A0290911B020E94481B811146C00E94A7
:1020A000601460930C0270930D0280930E02909363
:1020B0000F0280E10E94FD14BC01990F880B990B5F
:1020C0000E94F71B2DEC3CEC4CE453E40E944D1BAA
:1020D00020E030E040E952E40E94AC1C0E94BF1BAB
:1020E000072E000C880B990B0E94F71B6B017C01DB
:1020F0008090CD019090CE01A090CF01B090D00102
:10210000A50194010E94A71CA501940118160CF0CA
:102110007CC1C701B6010E94DB1A60930002709374
:102120000102809302029093030220E030E046E136
:1021300053E4609118027091190280911A029091F3
:102140001B020E94A71C18160CF080C10E9460148C
:10215000C0900C02D0900D02E0900E02F0900F02A1
:102160006C197D098E099F0960930802709309021A
:1021700080930A0290930B0280E10E94FD14BC013F
:10218000990F880B990B0E94F71B2DEC3CEC4CE44B
:1021900053E40E944D1B20E030E040E952E40E94ED
:1021A000AC1C0E94BF1B072E000C880B990B0E94D1
:1021B000F71B6B017C018090CD019090CE01A09027
:1021C000CF01B090D001A50194010E94A71CA501E8
:1021D000940118160CF024C1C701B6010E94DB1A45
:1021E00020910002309101024091020250910302BD
:1021F0000E94DB1A6B017C01609108027091090258
:1022000080910A0290910B020E94F51B9B01AC0188
:10221000C701B6010E944D1B20E030E048EC52E4BB
:102220000E94AC1C6B017C0120E030E0A9010E94FF
:10223000A71C181624F0F7FAF094F7F8F094C0925F
:102240000402D0920502E0920602F0920702109278
:1022500018021092190210921A0210921B022DEC11
:102260003CEC4CEC5DE3C701B6010E94481B87FFC4
:10227000EDC020E030E04AEF53E460911402709129
:10228000150280911602909117020E94A71C181641
:102290000CF0DCC080E10E94FD14BC01990F880B9A
:1022A000990B0E94F71B2DEC3CEC4CE453E40E948C
:1022B0004D1B20E030E040E952E40E94AC1C0E943B
:1022C000BF1B072E000C880B990B0E94F71B6B019C
:1022D0007C018090CD019090CE01A090CF01B09074
:1022E000D001A50194010E94A71CA5019401181614
:1022F0000CF0A1C0C701B6010E94DB1A6093EE0189
:102300007093EF018093F0019093F101C090EE0182
:10231000D090EF01E090F001F090F101C701B6011B
:102320000E94BF1B072E000C880B990B0E94F71B05
:102330009B01AC012093E6013093E7014093E80153
:102340005093E901C701B6010E94DB1A20E030E09A
:1023500048EC52E40E94AC1C6093DE017093DF01F4
:102360008093E0019093E10168EC70E080E090E000
:102370000E94911480E090E0A8E4B3E480931C02F2
:1023800090931D02A0931E02B0931F0220E030E044
:10239000A90160911C0270911D0280911E02909112
:1023A0001F020E94A71C61E018160CF0A6C083E073
:1023B0000E94DD1561E086E00E94DD158091240217
:1023C000909125020E94CA1460E086E00E94DD150B
:1023D00080912402909125020E94CA1420E030E0EE
:1023E00040E85FE360911C0270911D0280911E0223
:1023F00090911F020E94DB1A60931C0270931D02D1
:1024000080931E0290931F02C1CF60E070E084EBC6
:1024100093E40E94DB1AA70196010E94DC1A7DCE8C
:1024200060E070E084EB93E40E94DB1AA701960160
:102430000E94DC1AD5CE60E070E084EB93E40E9449
:10244000DB1AA70196010E94DC1A58CF61E086E0F2
:102450000E94DD1580912402909125020E94CA14E9
:1024600060E086E00E94DD158091240290912502B3
:102470000E94CA1420E030E040E85FE360911C0253
:1024800070911D0280911E0290911F020E94DB1A22
:1024900060931C0270931D0280931E0290931F0292
:1024A00020E030E040E85FE360911802709119028B
:1024B00080911A0290911B020E94DC1A609318020C
:1024C0007093190280931A0290931B0220E030E06F
:1024D00040E85FE36091140270911502809116024A
:1024E000909117020E94DC1A6093140270931502F7
:1024F0008093160290931702B2CD87E00E94DD15FB
:102500006091E6017091E7018091E8019091E90105
:102510000E94C61B8091F2019091F3010E94C600B7
:102520006091DE017091DF018091E0019091E10105
:102530000E94C61B8091F2019091F30101960E94C6
:10254000C60067E671E082E492E00E943118409193
:10255000EE015091EF016091F0017091F10122E0E4
:1025600030E082E492E00E94ED1962EA71E082E4D8
:1025700092E00E94441885B5887F816085BD609196
:1025800022027091230285E00E941B158091260291
:1025900090912702A0912802B09129028236934E91
:1025A000A641B105F1F58090FC019090FD01A0904D
:1025B000FE01B090FF0120E030E040EA51E4C501A7
:1025C000B4010E94DB1A6B017C0120E030E0A9011C
:1025D0000E94481B87FF03C1A501940160E070E0E1
:1025E00080EA91E40E94DB1A9B01AC0160E070E09C
:1025F00084EB93E40E94DB1A6093CD017093CE01CB
:102600008093CF019093D0018091F2019091F301DA
:1026100006960E94D60060E771E082E492E00E9494
:10262000441810922602109227021092280210924B
:10263000290280E10E94FD14BC01990F880B990BBF
:102640000E94F71B2DEC3CEC4CE453E40E944D1B24
:1026500020E030E040E952E40E94AC1C6B017C01B8
:10266000C092FC01D092FD01E092FE01F092FF01C8
:102670008090CD019090CE01A090CF01B090D0017C
:10268000A50194010E94A71CA501940118160CF045
:10269000AFC0C701B6010E94DB1A6093D1017093ED
:1026A000D2018093D3019093D4016AE871E082E46F
:1026B00092E00E9431184091EE015091EF0160913B
:1026C000F0017091F10122E030E082E492E00E949A
:1026D000ED1962EA71E082E492E00E9431184091C3
:1026E000EA015091EB016091EC017091ED0122E063
:1026F00030E082E492E00E94ED1962EA71E082E447
:1027000092E00E9431184091D1015091D201609124
:10271000D3017091D40122E030E082E492E00E9483
:10272000ED1962EA71E082E492E00E943118409172
:10273000100250911102609112027091130222E076
:1027400030E082E492E00E94ED1962EA71E082E4F6
:1027500092E00E94311860912202709123024AE0B7
:1027600050E082E492E00E94EF1862EA71E082E4B5
:1027700092E00E94311860912002709121024AE09B
:1027800050E082E492E00E94EF1862EA71E082E495
:1027900092E00E9431186091C60170E04AE050E07A
:1027A00082E492E00E94EF1862EA71E082E492E033
:1027B0000E94441882E492E064960FB6F894DEBF5B
:1027C0000FBECDBFDF91CF911F91FF90EF90DF90B3
:1027D000CF90BF90AF909F908F900C94A116C09215
:1027E000CD01D092CE01E092CF01F092D0010CCF7A
:1027F00060E070E084EB93E40E94DB1AA70196018D
:102800000E94DC1A4ACF8930910511F40C94CB094F
:10281000FC013196EE0FFF1F81E090E08C0F9D1FB1
:10282000E80FF91F808191810C94CD091F920F92BE
:102830000FB60F9211242F933F938F939F93AF93D3
:10284000BF9380913E0290913F02A0914002B091CF
:10285000410230913D0223E0230F2D3768F126E835
:10286000230F0296A11DB11D20933D0280933E02CD
:1028700090933F02A0934002B093410280913902AD
:1028800090913A02A0913B02B0913C020196A11DA9
:10289000B11D8093390290933A02A0933B02B0930A
:1028A0003C02BF91AF919F918F913F912F910F90DB
:1028B0000FBE0F901F9018950196A11DB11DD4CF8A
:1028C0002FB7F89460913E0270913F0280914002D0
:1028D000909141022FBF08953FB7F894809139023B
:1028E00090913A02A0913B02B0913C0226B5A89B80
:1028F00005C02F3F19F00196A11DB11D3FBFBA2F92
:10290000A92F982F8827BC01CD01620F711D811D51
:10291000911D42E0660F771F881F991F4A95D1F7D6
:1029200008958F929F92AF92BF92CF92DF92EF92D3
:10293000FF926B017C010E946C144B015C01C1147D
:10294000D104E104F104E9F00E94DA1A0E946C1447
:10295000681979098A099B09683E734081059105C8
:1029600070F321E0C21AD108E108F10888EE880E60
:1029700083E0981EA11CB11CC114D104E104F10430
:1029800029F7FF90EF90DF90CF90BF90AF909F908E
:102990008F9008958230910538F0880F991F880F25
:1029A000991F05970197F1F70895789484B583608E
:1029B00084BD85B5836085BDEEE6F0E080818160F1
:1029C0008083E1E8F0E082E0808380818160808321
:1029D000E0E8F0E0808181608083E1EBF0E08081DD
:1029E00084608083E0EBF0E080818160808387E811
:1029F00080937A001092C1000895883020F08D30C5
:102A000008F48DE08E502091020190E4299F9001FE
:102A100011248770822B80937C0080917A008064DF
:102A200080937A0080917A0086FDFCCF80917800B7
:102A30009091790008951F93CF93DF93182FEB01A6
:102A400061E00E94A115209739F460E0812FDF91A9
:102A5000CF911F910C94DD15CF3FD10511F461E0AA
:102A6000F5CFE12FF0E0E859FF4FE491E43031F188
:102A700040F4E230B1F0E330E1F0C038D1057CF74A
:102A8000E4CFE83029F1E93059F1E530B1F7809130
:102A90008000806280938000D0938B00C0938A0076
:102AA00004C084B5806884BDC7BDDF91CF911F91FC
:102AB000089584B5806284BDC8BDF7CF8091800041
:102AC000806880938000D0938900C0938800EDCF08
:102AD0008091B00080688093B000C093B300E5CFD0
:102AE0008091B00080628093B000C093B400DDCFCD
:102AF000843081F028F48230E9F08330F9F00895D1
:102B0000883071F0893091F08530B9F4809180007F
:102B10008F7D03C0809180008F778093800008951F
:102B20008091B0008F778093B00008958091B000BD
:102B30008F7DF9CF84B58F7784BD089584B58F7D5F
:102B4000FBCFCF93DF9390E0FC01E158FF4F24913E
:102B50008A569F4FFC0184918823C9F090E0880F2A
:102B6000991FFC01EF53FF4FA591B491FC01E9546B
:102B7000FF4FC591D49161110DC09FB7F8948C910E
:102B8000209582238C938881282328839FBFDF91FF
:102B9000CF910895623051F49FB7F8943C91822F01
:102BA000809583238C93E8812E2BEFCF8FB7F894F9
:102BB000EC912E2B2C938FBFEACF1F93CF93DF93F3
:102BC000282F30E0F901E859FF4F8491F901E158CD
:102BD000FF4FD491F901EA56FF4FC491CC23A9F0DD
:102BE000162F81110E947815EC2FF0E0EE0FFF1FD9
:102BF000E954FF4FA591B4918FB7F894EC9111115E
:102C000008C0D095DE23DC938FBFDF91CF911F9159
:102C10000895DE2BF8CFCF93DF93282F30E0F90112
:102C2000E859FF4F8491F901E158FF4FD491F90120
:102C3000EA56FF4FC491CC23A1F081110E94781570
:102C4000EC2FF0E0EE0FFF1FE355FF4FA591B4917D
:102C5000EC91ED2381E090E009F480E0DF91CF91E9
:102C6000089580E090E0FACFFC01918D228D892FAC
:102C700090E0805C9F4F821B91098F739927089584
:102C8000FC01918D828D981731F0828DE80FF11D36
:102C9000858D90E008958FEF9FEF0895FC01918D51
:102CA000828D981761F0A28DAE0FBF2FB11D5D967A
:102CB0008C91928D9F5F9F73928F90E008958FEF1C
:102CC0009FEF0895FC01538D448D252F30E0842F14
:102CD00090E0821B930B541710F0CF960895019744
:102CE00008958EEB97E1892B49F080E090E0892BE5
:102CF00029F00E94BE1781110C9400000895FC0178
:102D0000A48DA80FB92FB11DA35ABF4F2C91848D4C
:102D100090E001968F739927848FA689B7892C93A9
:102D2000A089B1898C91837080648C93938D848DFC
:102D3000981306C00288F389E02D80818F7D8083FF
:102D40000895CF93DF93EC01888D8823B9F0AA8989
:102D5000BB89E889F9898C9185FD03C0808186FD56
:102D60000DC00FB607FCF7CF8C9185FFF2CF8081A5
:102D700085FFEDCFCE010E947F16E9CFDF91CF9185
:102D80000895EF92FF920F931F93CF93DF93EC017F
:102D900081E0888F9B8D8C8D98131AC0E889F98902
:102DA000808185FF15C09FB7F894EE89FF89608305
:102DB000E889F98980818370806480839FBF81E086
:102DC00090E0DF91CF911F910F91FF90EF900895C8
:102DD000F62E0B8D10E00F5F1F4F0F731127E02EA3
:102DE0008C8D8E110CC00FB607FCFACFE889F989DB
:102DF000808185FFF5CFCE010E947F16F1CFEB8D4C
:102E0000EC0FFD2FF11DE35AFF4FF0829FB7F894AE
:102E10000B8FEA89FB8980818062CFCFCF92DF92CE
:102E2000EF92FF921F93CF93DF93EC016A017B0136
:102E3000122FE889F98982E08083C11481EED806D7
:102E4000E104F104A1F060E079E08DE390E0A701F6
:102E500096010E94321D21503109410951095695B0
:102E6000479537952795211580E1380798F0E8892F
:102E7000F989108260E874E88EE190E0A70196017C
:102E80000E94321D2150310941095109569547953B
:102E900037952795EC85FD853083EE85FF8520836A
:102EA000188EEC89FD891083EA89FB898081886905
:102EB0008083EA89FB8980818F7D8083DF91CF9138
:102EC0001F91FF90EF90DF90CF9008951F920F9287
:102ED0000FB60F9211242F938F939F93EF93FF932D
:102EE000E0915202F09153028081E0915802F091FA
:102EF000590282FD1BC0908180915B028F5F8F73AE
:102F000020915C02821741F0E0915B02F0E0EE5B01
:102F1000FD4F958F80935B02FF91EF919F918F9171
:102F20002F910F900FBE0F901F9018958081F4CFB6
:102F30001F920F920FB60F9211242F933F934F932E
:102F40005F936F937F938F939F93AF93BF93EF9311
:102F5000FF9382E492E00E947F16FF91EF91BF9170
:102F6000AF919F918F917F916F915F914F913F9121
:102F70002F910F900FBE0F901F90189582E492E052
:102F80000E94341621E0892B09F420E0822F089555
:102F9000E2E4F2E01382128288EE93E0A0E0B0E077
:102FA00084839583A683B78388EA91E091838083A5
:102FB00085EC90E09587848784EC90E097878687FE
:102FC00080EC90E0918B808B81EC90E0938B828BF6
:102FD00082EC90E0958B848B86EC90E0978B868BCF
:102FE000118E128E138E148E0895AF92BF92CF92CF
:102FF000DF92EF92FF920F931F93CF93DF936C01B9
:103000007B018B01040F151FEB015E01AE18BF0899
:10301000C017D10759F06991D601ED91FC9101904B
:10302000F081E02DC6010995892B79F7C501DF9163
:10303000CF911F910F91FF90EF90DF90CF90BF90B5
:10304000AF900895FB0101900020E9F73197AF019F
:10305000461B570BDC01ED91FC910280F381E02DC2
:1030600009946115710511F00C94221890E080E02C
:103070000895DC01ED91FC910190F081E02D09941F
:1030800066EB71E00C9422180F931F93CF93DF939C
:103090008C01D0E0C0E06115710519F00E94221882
:1030A000EC01C8010E9440188C0F9D1FDF91CF9149
:1030B0001F910F9108958F929F92AF92BF92EF92BE
:1030C000FF920F931F93CF93DF93CDB7DEB7A197F6
:1030D0000FB6F894DEBF0FBECDBF7C01FA01CB0165
:1030E00019A2223008F42AE08E010F5D1F4F822EB4
:1030F000912CB12CA12CBF01A50194010E94321D7D
:10310000F901CA016A300CF5605DD8016E938D013A
:10311000232B242B252B79F790E080E0109721F0CA
:10312000BD01C7010E942218A1960FB6F894DEBF18
:103130000FBECDBFDF91CF911F910F91FF90EF9008
:10314000BF90AF909F908F900895695CDECFCF9233
:10315000DF92EF92FF920F931F93CF93DF9321158E
:10316000310581F4DC01ED91FC910190F081E02DBD
:10317000642FDF91CF911F910F91FF90EF90DF901F
:10318000CF9009942A30310501F52AE077FF1DC060
:103190006A017B01EC016DE20E9439188C01442721
:1031A0005527BA014C195D096E097F092AE0CE0145
:1031B0000E945B18800F911FDF91CF911F910F919B
:1031C000FF90EF90DF90CF900895DF91CF911F9106
:1031D0000F91FF90EF90DF90CF900C945B189A01C5
:1031E000AB01770F660B770B0C94A71821153105EF
:1031F00041F4DC01ED91FC910190F081E02D642F10
:1032000009940C945B189A01AB0170E060E00C9497
:10321000F6182F923F924F925F926F927F928F9209
:103220009F92AF92BF92CF92DF92EF92FF921F9345
:10323000CF93DF93EC016A017B01722EAB01960103
:10324000CB01B6010E94191D69EB71E0811126C006
:1032500046015701E894B7F82FEF3FEF4FE75FE7DC
:10326000C501B4010E94191D81110CC02FEF3FEF61
:103270004FE75FE7C501B4010E94481B6DEB71E0A9
:10328000181664F02FEF3FEF4FE75FE4C701B60178
:103290000E94A71C1816B4F461EC71E0CE01DF9116
:1032A000CF911F91FF90EF90DF90CF90BF90AF90A4
:1032B0009F908F907F906F905F904F903F902F9056
:1032C0000C9422182FEF3FEF4FE75FECC701B601D8
:1032D0000E94481B87FDE0CF20E030E0A901C70134
:1032E000B6010E94481B312C212C87FF09C06DE2DA
:1032F000CE010E9439181C01F7FAF094F7F8F09407
:1033000010E060E070E080E09FE3711641F020E0A3
:1033100030E040E251E40E944D1B1F5FF6CFA70151
:1033200096010E94DC1A2B013C010E94C61B4B0136
:103330005C012AE0BC01A401CE010E945B187C0163
:10334000E20CF31C1123B1F1C501B4010E94F51B7D
:103350009B01AC01C301B2010E94DB1A4B015C016D
:103360006EE2CE010E943918E80EF91E115010F1DC
:1033700020E030E040E251E4C501B4010E94AC1C01
:103380002B013C010E94C61B4B014AE050E0CE01DC
:103390000E940319E80EF91EB40190E080E00E943B
:1033A000F51B9B01AC01C301B2010E94DB1A4B016A
:1033B0005C01DCCFC701DF91CF911F91FF90EF90AF
:1033C000DF90CF90BF90AF909F908F907F906F9045
:1033D0005F904F903F902F9008950C9409190F9390
:1033E0001F93CF93DF93EC010E9409198C01CE014A
:1033F0000E944018800F911FDF91CF911F910F9174
:1034000008950F931F93CF93DF93EC010E946014F4
:10341000688779878A879B87E881F9810484F585A5
:10342000E02DCE01099597FF15C00E946014088514
:1034300019852A853B85601B710B820B930B0C81D0
:103440001D812E813F81601771078207930720F34A
:103450008FEF9FEFDF91CF911F910F910895FF9212
:103460000F931F93CF93DF93EC018B01F42ECE01CA
:103470000E94011A97FD1DC08D329105D1F09C016B
:10348000205331092A303105A0F0FF2019F08E3287
:10349000910579F00130110551F00230110589F4E0
:1034A0008D30910571F05CF40997029750F08FEF21
:1034B0009FEFDF91CF911F910F91FF90089580971B
:1034C000B1F7E881F9810284F385E02DCE010995F9
:1034D000CECFBF92CF92DF92EF92FF920F931F93C6
:1034E000CF93DF938C01C42F40E00E942F1AFC0180
:1034F000C12CD12C760197FD3EC0B12C0C2E000CB6
:10350000DD0BCE17DF07D9F0ED32F10509F43FC02E
:10351000CF01C0970A9798F4AAE0B0E0A7019601FE
:103520000E945A1D6F01FF0FEE08FF08C60ED71E3E
:10353000E81EF91E80E3C81AD108E108F108D80195
:10354000ED91FC910284F385E02DC8010995C80135
:103550000E94011AFC01C0970A9798F2CE17DF0764
:1035600081F2BB2041F0F094E094D094C094C11C4F
:10357000D11CE11CF11CC701B601DF91CF911F9155
:103580000F91FF90EF90DF90CF90BF900895BB24F4
:10359000B394D5CF08950E94D5140E94CA1A0E94F0
:1035A000FF00C1E7D6E10E94A6072097E1F30E9441
:1035B0007116F9CF08955058BB27AA270E94F31A15
:1035C0000C946D1C0E945F1C38F00E94661C20F059
:1035D00039F49F3F19F426F40C945C1C0EF4E0952A
:1035E000E7FB0C94561CE92F0E947E1C58F3BA1777
:1035F000620773078407950720F079F4A6F50C9409
:10360000A01C0EF4E0950B2EBA2FA02D0B01B901D2
:1036100090010C01CA01A0011124FF27591B99F048
:10362000593F50F4503E68F11A16F040A22F232F54
:10363000342F4427585FF3CF469537952795A795A4
:10364000F0405395C9F77EF41F16BA0B620B730B4B
:10365000840BBAF09150A1F0FF0FBB1F661F771FBC
:10366000881FC2F70EC0BA0F621F731F841F48F471
:10367000879577956795B795F7959E3F08F0B0CFFA
:103680009395880F08F09927EE0F979587950895E1
:103690000E94321C08F481E008950E94611B0C9482
:1036A0006D1C0E94661C58F00E945F1C40F029F4BB
:1036B0005F3F29F00C94561C51110C94A11C0C94E2
:1036C0005C1C0E947E1C68F39923B1F3552391F38F
:1036D000951B550BBB27AA2762177307840738F081
:1036E0009F5F5F4F220F331F441FAA1FA9F335D0DE
:1036F0000E2E3AF0E0E832D091505040E695001C92
:10370000CAF72BD0FE2F29D0660F771F881FBB1F4B
:10371000261737074807AB07B0E809F0BB0B802D29
:10372000BF01FF2793585F4F3AF09E3F510578F055
:103730000C94561C0C94A11C5F3FE4F3983ED4F308
:10374000869577956795B795F7959F5FC9F7880F29
:10375000911D9695879597F90895E1E0660F771F7B
:10376000881FBB1F621773078407BA0720F0621B0C
:10377000730B840BBA0BEE1F88F7E09508950E9437
:10378000C61B6894B1110C94A11C08950E94861C5C
:1037900088F09F5798F0B92F9927B751B0F0E1F012
:1037A000660F771F881F991F1AF0BA95C9F714C0C2
:1037B000B13091F00E94A01CB1E008950C94A01CBF
:1037C000672F782F8827B85F39F0B93FCCF38695FB
:1037D00077956795B395D9F73EF490958095709558
:1037E00061957F4F8F4F9F4F0895E89409C097FBD5
:1037F0003EF490958095709561957F4F8F4F9F4FC8
:103800009923A9F0F92F96E9BB279395F69587950B
:1038100077956795B795F111F8CFFAF4BB0F11F4CE
:1038200060FF1BC06F5F7F4F8F4F9F4F16C0882375
:1038300011F096E911C0772321F09EE8872F762FAB
:1038400005C0662371F096E8862F70E060E02AF0EC
:103850009A95660F771F881FDAF7880F96958795D8
:1038600097F90895990F0008550FAA0BE0E8FEEFAD
:1038700016161706E807F907C0F012161306E40734
:10388000F50798F0621B730B840B950B39F40A262D
:1038900061F0232B242B252B21F408950A2609F40B
:1038A000A140A6958FEF811D811D089597F99F670F
:1038B00080E870E060E008959FEF80EC08950024B8
:1038C0000A941616170618060906089500240A9485
:1038D00012161306140605060895092E0394000C0B
:1038E00011F4882352F0BB0F40F4BF2B11F460FF9A
:1038F00004C06F5F7F4F8F4F9F4F089557FD9058C3
:10390000440F551F59F05F3F71F04795880F97FBA3
:10391000991F61F09F3F79F087950895121613065D
:103920001406551FF2CF4695F1DF08C0161617068C
:103930001806991FF1CF86957105610508940895C1
:10394000E894BB2766277727CB0197F908950E9453
:10395000321C08F48FEF08950E94BF1C0C946D1C5C
:103960000E945F1C38F00E94661C20F0952311F025
:103970000C94561C0C945C1C11240C94A11C0E94E9
:103980007E1C70F3959FC1F3950F50E0551F629F09
:10399000F001729FBB27F00DB11D639FAA27F00DA8
:1039A000B11DAA1F649F6627B00DA11D661F829FCF
:1039B0002227B00DA11D621F739FB00DA11D621FB4
:1039C000839FA00D611D221F749F3327A00D611DD1
:1039D000231F849F600D211D822F762F6A2F1124B3
:1039E0009F5750409AF0F1F088234AF0EE0FFF1FE6
:1039F000BB1F661F771F881F91505040A9F79E3F3D
:103A0000510580F00C94561C0C94A11C5F3FE4F30C
:103A1000983ED4F3869577956795B795F795E79592
:103A20009F5FC1F7FE2B880F911D9695879597F99B
:103A300008950E94321C880B990B089597FB072E5E
:103A400016F4009407D077FD09D00E94651D07FC8D
:103A500005D03EF4909581959F4F0895709561959E
:103A60007F4F0895A1E21A2EAA1BBB1BFD010DC0BA
:103A7000AA1FBB1FEE1FFF1FA217B307E407F5071E
:103A800020F0A21BB30BE40BF50B661F771F881FFA
:103A9000991F1A9469F760957095809590959B0190
:103AA000AC01BD01CF010895EE0FFF1F0590F49109
:103AB000E02D09940E94791DA59F900DB49F900D53
:103AC000A49F800D911D11240895AA1BBB1B51E1D9
:103AD00007C0AA1FBB1FA617B70710F0A61BB70B7E
:103AE000881F991F5A95A9F780959095BC01CD0123
:103AF0000895A29FB001B39FC001A39F700D811DC7
:103B00001124911DB29F700D811D1124911D0895E6
:103B1000F999FECF92BD81BDF89A992780B5089595
:103B2000262FF999FECF1FBA92BD81BD20BD0FB6D9
:103B3000F894FA9AF99A0FBE01960895F894FFCF77
:103B40000F27010F2701000200040008000F001ECC
:103B5000003C007800FF0001000200040008001093
:103B6000002000400080008000400020001000087D
:103B7000000400020001000F27646F6E6500436CB3
:103B80006F7365506F736974696F6E536574004F1E
:103B900070656E506F736974696F6E536574004F12
:103BA00070656E53657400436C6F73655365740084
:103BB000506F736974696F6E2073617665642074E9
:103BC0006F20454550524F4D2E0057616E6465720F
:103BD0006572436F76657256344132303235303714
:103BE0003033410000000000C116F5176216A1161F
:103BF00034164E1640160D0A006E616E00696E6630
:063C0000006F7666000073
:00000001FF
