:100000000C9462000C948A000C948A000C948A0070
:100010000C948A000C948A000C948A000C948A0038
:100020000C948A000C948A000C948A000C948A0028
:100030000C948A000C948A000C948A000C948A0018
:100040000C944C0D0C948A000C9416100C944810CF
:100050000C948A000C948A000C948A000C948A00F8
:100060000C948A000C948A0000000009000302002E
:10007000000405080000000000000000000000016E
:10008000020408102040800102040810200102042C
:100090000810204080400404040404040404020204
:1000A000020202020303030303030202030000002F
:1000B00000250028002B0000000000240027002A53
:1000C0000000781011241FBECFEFD4E0DEBFCDBFFB
:1000D00011E0A0E0B1E0E6EAFCE202C005900D927A
:1000E000AE35B107D9F722E0AEE5B1E001C01D920F
:1000F000A033B207E1F710E0C2E6D0E004C02197D8
:10010000FE010E941B16C136D107C9F70E947B135E
:100110000C9451160C9400000C943B160C9443164E
:10012000CF92DF92EF92FF920F931F93CF93DF93C3
:1001300061E083E00E947A0E61E082E00E947A0E24
:1001400061E084E00E947A0E61E083E00E94B60ED6
:1001500062E083E10E947A0E26E040E05BE460E02A
:1001600070E083E991E00E94BE0F10928501109229
:100170008401C0910001D0910101CE0101970E943C
:100180008C0090E090936B0180936A01CE010E94F5
:100190008C0090E090936D0180936C01CE010196EC
:1001A0000E948C0090E090936F0180936E01CE01CD
:1001B00002960E948C0090E09093710180937001F0
:1001C000CE0103960E948C0090E09093730180937F
:1001D0007201CE0104960E948C0090E0909375010C
:1001E00080937401CE0105960E948C0090E090935C
:1001F0006901809368018E010A5F1F4FC8010E9448
:100200008C006AE00E94CE15682F70E090E080E0DC
:100210000E94A7146B017C01C0926401D092650119
:10022000E0926601F0926701CE0108960E948C0070
:1002300090E090935F0180935E0120E030E040E425
:1002400050E4C701B6010E945715181684F480E0E7
:1002500090E0A0E0BFE38093640190936501A093D8
:100260006601B093670165E0C8010E948E00C091ED
:100270000001D09101012796CE010E948C0090E0F0
:1002800082309105F4F49093630180936201809130
:100290005E0190915F010297FCF010925F01109255
:1002A0005E01809100019091010160E00896DF916C
:1002B000CF911F910F91FF90EF90DF90CF900C9412
:1002C0008E0081E090E0909363018093620161E091
:1002D000CE010E948E00DBCFDF91CF911F910F9155
:1002E000FF90EF90DF90CF9008952F923F924F9222
:1002F0005F926F927F928F929F92AF92BF92CF92B6
:10030000DF92EF92FF920F931F93CF93DF9300D072
:1003100000D000D0CDB7DEB710926101109260011D
:1003200020910001309101013A832983C90101978D
:100330000E948C0090E090936B0180936A01898108
:100340009A810E948C0090E090936D0180936C01E3
:1003500089819A8101960E948C0090E090936F01B0
:1003600080936E0189819A8102960E948C0090E0B0
:10037000909371018093700189819A8103960E9404
:100380008C0090E0909373018093720189819A812F
:1003900004960E948C0090E0909375018093740104
:1003A00089819A8105960E948C0090E09093690162
:1003B0008093680189819A8106960E948C00682F3B
:1003C00070E090E080E00E94A71420E030E040E27E
:1003D00051E40E94FD136093640170936501809362
:1003E00066019093670189819A8107960E948C002B
:1003F00090E0909363018093620189819A810896CD
:100400000E948C0090E090935F0180935E011092B7
:1004100078011092790110927A0110927B0110926A
:10042000800110928101109282011092830120E0DC
:1004300030E040EA51E46091800170918101809147
:100440008201909183010E94F81387FF4AC083E1E3
:100450000E94330EBC01990F880B990B0E94A714C0
:1004600020E030E040EA50E40E945C1520E030E0FB
:1004700040E85AE30E945C1529E831E440E450E486
:100480000E945C159B01AC0160917801709179012B
:1004900080917A0190917B010E948C136093780186
:1004A0007093790180937A0190937B0184E690E0C8
:1004B0000E94000E20E030E040E85FE360918001A0
:1004C0007091810180918201909183010E948C132F
:1004D00060938001709381018093820190938301E6
:1004E000A6CF20E030E040EA51E4609178017091BD
:1004F000790180917A0190917B010E94FD136B013B
:100500007C0120E030E0A9010E945715181624F064
:10051000F7FAF094F7F8F094C0927C01D0927D0144
:10052000E0927E01F0927F0183E991E00E94E40E67
:10053000892B79F041E070E060E083E991E00E946E
:1005400019136093860170938701809388019093BB
:1005500089018091860190918701A0918801B091D5
:100560008901803231EA930737E0A307B1050CF027
:1005700019C284E690E09093770180937601809190
:10058000860190918701A0918801B0918901AC0109
:10059000BD014052514A67407109413452446F4095
:1005A000710590F420E530E03093770120937601D7
:1005B00080549244AF40B1098093860190938701A3
:1005C000A0938801B0938901809186019091870161
:1005D000A0918801B09189018236934EA641B10560
:1005E00009F04BC0809100019091010160E00197FA
:1005F0000E948E0060E080910001909101010E94B4
:100600008E00809100019091010160E001960E94AE
:100610008E00809100019091010160E002960E949D
:100620008E00809100019091010160E003960E948C
:100630008E00809100019091010160E004960E947B
:100640008E00809100019091010161E005960E9469
:100650008E0010926D0110926C0110926F01109239
:100660006E0110927101109270011092730110923C
:10067000720110927501109274016091860170915F
:10068000870180918801909189018B019C011A5604
:10069000284131090F3111052105310528F50E9446
:1006A000A71420E030E543EC59E40E948B1320E0CE
:1006B00030E040E251E40E94FD13609364017093C6
:1006C0006501809366019093670120E030E040E28D
:1006D00051E40E945C150E94761480910001909173
:1006E000010106960E948E008091860190918701FB
:1006F000A0918801B0918901813A904FA941B1053B
:1007000071F481E090E090935F0180935E018091AD
:1007100000019091010161E008960E948E00809195
:10072000860190918701A0918801B0918901803A5A
:10073000904FA941B10561F410925F0110925E01E2
:10074000809100019091010160E008960E948E0066
:10075000C0908601D0908701E0908801F0908901D7
:1007600080E4C81A87E7D80A8BE1E80AF10890E428
:10077000C9169EE7D90695E0E906F10408F09FC086
:10078000C701B60120EA36E841E050E00E94FC15BE
:10079000298320936A0130936B01C701B60120E1E0
:1007A00037E240E050E00E94FC158AE0882E912C50
:1007B000A12CB12CCA01B901A50194010E94FC151C
:1007C00070936D0160936C01C701B60128EE33E0B0
:1007D00040E050E00E94FC15CA01B901A501940156
:1007E0000E94FC1570936F0160936E01C701B60102
:1007F00024E630E040E050E00E94FC15CA01B90157
:10080000A50194010E94FC15709371016093700121
:10081000C701B601A50194010E94FC152B01CA0174
:10082000B901A50194010E94FC15709373016093B6
:100830007201509275014092740180910001909173
:100840000101698101970E948E0060916C01809185
:100850000001909101010E948E0080910001909111
:10086000010160916E0101960E948E00809100014D
:10087000909101016091700102960E948E0080911A
:100880000001909101016091720103960E948E0017
:1008900080910001909101016091740104960E9481
:1008A0008E0063E271E083E991E00E94E1102AE0AA
:1008B00030E0B701A60183E991E00E94A611809182
:1008C000860190918701A0918801B09189010197DB
:1008D000A109B1098032914AA740B105B0F420E0E6
:1008E00030E040E351E460917C0170917D018091A2
:1008F0007E0190917F010E94F81387FF21C169E377
:1009000071E083E991E00E94F4108091860190915A
:100910008701A0918801B0918901803E9E45A84F32
:10092000BF4FB0F020E030E040E351E460917C0143
:1009300070917D0180917E0190917F010E94F8135A
:1009400087FFD0C469E371E083E991E00E94F4106D
:1009500010928601109287011092880110928901ED
:1009600083E991E00E94510F64E670E080E090E03E
:1009700026960FB6F894DEBF0FBECDBFDF91CF91A4
:100980001F910F91FF90EF90DF90CF90BF90AF90AD
:100990009F908F907F906F905F904F903F902F909F
:1009A0000C94C70D8136934EA641B10509F0E7CDF1
:1009B00063E071E083E991E00E94E11080916801B9
:1009C00090916901892B31F461E271E083E991E052
:1009D0000E94E11060916A0170916B0161157105CF
:1009E00031F48091600190916101019761F44AE0D6
:1009F00050E083E991E00E949F1181E090E09093A4
:100A000061018093600160916C0170916D016115CD
:100A1000710531F48091600190916101019761F459
:100A20004AE050E083E991E00E949F1181E090E06C
:100A3000909361018093600160916E0170916F01EC
:100A40006115710531F48091600190916101019708
:100A500061F44AE050E083E991E00E949F1181E057
:100A600090E09093610180936001609170017091BA
:100A700071016115710531F48091600190916101FE
:100A8000019761F44AE050E083E991E00E949F11F0
:100A900081E090E090936101809360016091720128
:100AA000709173016115710531F48091600190912D
:100AB0006101019761F44AE050E083E991E00E940E
:100AC0009F1181E090E090936101809360016091BB
:100AD0007401709175014AE050E083E991E00E9451
:100AE0009F116FE171E083E991E00E94E110409174
:100AF000640150916501609166017091670122E087
:100B000030E083E991E00E94AF126FE171E083E988
:100B100091E00E94E11060915E0170915F014AE0F6
:100B200050E083E991E00E949F116FE171E083E959
:100B300091E00E94F41010926101109260011FCDAB
:100B400080915E0190915F0161E0892B09F060E086
:100B500084E00E94B60E60E083E00E94B60E8091B1
:100B6000620190916301892B09F048C020E030ECCC
:100B70004EE854E4609164017091650180916601D2
:100B8000909167010E945C156093800170938101D0
:100B9000809382019093830120E030E0A90160916D
:100BA00080017091810180918201909183010E9466
:100BB000571518161CF561E082E00E94B60E809170
:100BC0007601909177010E94000E60E082E00E9421
:100BD000B60E80917601909177010E94000E20E080
:100BE00030E040E85FE36091800170918101809185
:100BF0008201909183010E948B13C6CF6091860180
:100C00007091870180918801909189010E94A714B9
:100C1000609380017093810180938201909383019E
:100C2000812C912C540120E030E0A90160918001D9
:100C30007091810180918201909183010E945715EA
:100C400018160CF043C061E082E00E94B60E80915D
:100C50007601909177010E94000E60E082E00E9490
:100C6000B60E80917601909177010E94000E83E983
:100C700091E00E94FE0E9A83898320E030E040E8F4
:100C80005FE3C501B4010E948C134B015C014981F3
:100C90005A814A30510519F04F3F5F4FB9F420E0B7
:100CA00030E040E85FE360918001709181018091C4
:100CB0008201909183010E948B1360938001709355
:100CC00081018093820190938301ADCF61E083E045
:100CD0000E94B60E20E030EC4EE854E4C501B401A9
:100CE0000E94FD13AB01BC0122E030E083E991E0FA
:100CF0000E94AF126FE171E083E991E00E94E11080
:100D000068EE73E080E090E00E94C70DC0900001A3
:100D1000D090010195E0C90ED11CC6010E948C0043
:100D2000E0906A01F0906B0100916C0110916D01EF
:100D300020916E0130916F013E832D8320907001D0
:100D40003090710140917201509173015A8349832F
:100D500020917401309175013C832B83813009F01F
:100D60003AC2B701FF0C880B990B0E94A71420E030
:100D700030E04AE754E40E945C152B013C01B801C5
:100D8000110F880B990B0E94A71420E030E048EC6B
:100D900052E40E945C159B01AC01C301B2010E94A8
:100DA0008C132B013C014D815E81BA01550F880BDC
:100DB000990B0E94A71420E030E040E251E40E9429
:100DC0005C159B01AC01C301B2010E948C132B0185
:100DD0003C01B101330C880B990B0E94A7149B01B5
:100DE000AC01C301B2010E948C132B013C0129818B
:100DF0003A81B901330F880B990B0E94A71420E0A8
:100E000030E040E251E40E94FD139B01AC01C301BC
:100E1000B2010E948C132B013C014B815C81BA0111
:100E2000550F880B990B0E94A71420E030E048EC86
:100E300052E40E94FD139B01AC01C301B2010E9468
:100E40008C132B013C0120E030E040E251E4C5016D
:100E5000B4010E945C1520E030EC4EE854E40E949E
:100E6000FD139B01AC01C301B2010E948C134B0125
:100E70005C0120E030E0A9010E94F81387FF04C064
:100E800060E0C6010E948E0020E030E0A901C501AB
:100E9000B4010E94571587FD08C080910001909110
:100EA000010161E005960E948E0020E030E0A9017A
:100EB000C501B4010E945715181624F0B7FAB09472
:100EC000B7F8B09420E030E04AE754E4C501B4013B
:100ED0000E94FD130E946F146B0170936B0160936D
:100EE0006A01072E000C880B990B0E94A71420E0C2
:100EF00030E04AE754E40E945C159B01AC01C50157
:100F0000B4010E948B134B015C0120E030E048ECFF
:100F100052E40E94FD130E946F1470936D01609360
:100F20006C01072E000C880B990B0E94A71420E07F
:100F300030E048EC52E40E945C159B01AC01C50115
:100F4000B4010E948B134B015C0120E030E040E2D1
:100F500051E40E94FD130E946F1470936F0160931F
:100F60006E01072E000C880B990B0E94A71420E03D
:100F700030E040E251E40E945C159B01AC01C501E8
:100F8000B4010E948B134B015C010E946F1470939B
:100F9000710160937001072E000C880B990B0E9461
:100FA000A7149B01AC01C501B4010E948B134B0136
:100FB0005C0120E030E040E251E40E945C150E94B8
:100FC0006F147093730160937201072E000C880BED
:100FD000990B0E94A71420E030E040E251E40E9407
:100FE000FD139B01AC01C501B4010E948B1320E0ED
:100FF00030E048EC52E40E945C150E946F1470933C
:1010000075016093740180910001909101016C2D34
:1010100001970E948E008091000190910101059638
:101020000E948C0090E09093690180936801892B65
:1010300031F461E271E083E991E00E94E110609196
:101040006A0170916B016115710531F48091600145
:1010500090916101019761F44AE050E083E991E0E9
:101060000E949F1181E090E0909361018093600164
:1010700060916C0180910001909101010E948E00AD
:1010800060916C0170916D016115710531F4809171
:10109000600190916101019761F44AE050E083E9B9
:1010A00091E00E949F1181E090E090936101809314
:1010B0006001809100019091010160916E010196A3
:1010C0000E948E0060916E0170916F016115710533
:1010D00031F48091600190916101019761F44AE0DF
:1010E00050E083E991E00E949F1181E090E09093AD
:1010F00061018093600180910001909101016091F4
:10110000700102960E948E006091700170917101D1
:101110006115710531F48091600190916101019731
:1011200061F44AE050E083E991E00E949F1181E080
:1011300090E0909361018093600180910001909113
:1011400001016091720103960E948E00609172010C
:10115000709173016115710531F480916001909176
:101160006101019761F44AE050E083E991E00E9457
:101170009F1181E090E090936101809360018091E4
:101180000001909101016091740104960E948E000B
:1011900060917401709175014AE050E083E991E03B
:1011A0000E949F116FE171E083E991E00E94F410C9
:1011B00081E090E09093630180936201809100014F
:1011C0009091010161E007960E948E0010926101EA
:1011D000109260019ACB20E030E040E251E4C5017A
:1011E000B4010E945C1520E030EC4EE854E40E940B
:1011F000FD134B015C01B701FF0C880B990B0E949A
:10120000A71420E030E04AE754E40E945C152B016B
:101210003C01B801110F880B990B0E94A71420E024
:1012200030E048EC52E40E945C159B01AC01C30124
:10123000B2010E948C132B013C012D813E81B9012A
:10124000330F880B990B0E94A71420E030E040E296
:1012500051E40E945C159B01AC01C301B2010E94E4
:101260008C132B013C01B101330C880B990B0E94AC
:10127000A7149B01AC01C301B2010E948C132B0186
:101280003C0149815A81BA01550F880B990B0E9484
:10129000A71420E030E040E251E40E94FD139B01DE
:1012A000AC01C301B2010E948C132B013C012B81C4
:1012B0003C81B901330F880B990B0E94A71420E0E1
:1012C00030E048EC52E40E94FD139B01AC01C301E5
:1012D000B2010E948C139B01AC01C501B4010E94B4
:1012E0008B13C5CD80915E0190915F0160E0892BE9
:1012F00009F061E084E00E94B60E60E083E00E94A5
:10130000B60E8091620190916301019709F048C087
:1013100020E030EC4EE854E4609164017091650186
:1013200080916601909167010E945C156093800135
:1013300070938101809382019093830120E030E0DB
:10134000A901609180017091810180918201909149
:1013500083010E94571518161CF561E082E00E9477
:10136000B60E80917601909177010E94000E60E0A8
:1013700082E00E94B60E80917601909177010E94E2
:10138000000E20E030E040E85FE360918001709162
:10139000810180918201909183010E948B13C6CFBD
:1013A0008091860190918701A0918801B091890177
:1013B0009C01AD0166277727CB01621B730B840B61
:1013C000950B0E94A7146093800170938101809314
:1013D000820190938301812C912C540120E030E014
:1013E000A9016091800170918101809182019091A9
:1013F00083010E94571518160CF043C061E082E08B
:101400000E94B60E80917601909177010E94000EA5
:1014100060E082E00E94B60E8091760190917701A3
:101420000E94000E83E991E00E94FE0E9A83898358
:1014300020E030E040E85FE3C501B4010E948B1377
:101440004B015C0149815A814A30510519F04F3FE7
:101450005F4FB9F420E030E040E85FE36091800145
:101460007091810180918201909183010E948B1380
:101470006093800170938101809382019093830136
:10148000ADCF61E083E00E94B60E20E030EC4EE884
:1014900054E4C501B4010E94FD13AB01BC0122E07C
:1014A00030E083E991E00E94AF126FE171E083E9DF
:1014B00091E00E94E11068EE73E080E090E00E940D
:1014C000C70DC0900001D090010195E0C90ED11C5C
:1014D000C6010E948C00E0906A01F0906B010091BF
:1014E0006C0110916D0120916E0130916F013E836E
:1014F0002D832090700130907101409172015091C4
:1015000073015A83498320917401309175013C83A2
:101510002B83813009F039C2B701FF0C880B990B7E
:101520000E94A71420E030E04AE754E40E945C15D2
:101530002B013C01B801110F880B990B0E94A714D5
:1015400020E030E048EC52E40E945C159B01AC01C5
:10155000C301B2010E948C132B013C014D815E81BD
:10156000BA01550F880B990B0E94A71420E030E0B8
:1015700040E251E40E945C159B01AC01C301B20141
:101580000E948C132B013C01B101330C880B990B89
:101590000E94A7149B01AC01C301B2010E948C13ED
:1015A0002B013C0129813A81B901330F880B990B3A
:1015B0000E94A71420E030E040E251E40E94FD13B5
:1015C0009B01AC01C301B2010E948C132B013C01B1
:1015D0004B815C81BA01550F880B990B0E94A714AF
:1015E00020E030E048EC52E40E94FD139B01AC0186
:1015F000C301B2010E948C132B013C0120E030E0BA
:1016000040E251E4C501B4010E945C1520E030ECD9
:101610004EE854E40E94FD139B01AC01C301B201EA
:101620000E948C134B015C0120E030E0A9010E9474
:10163000F81387FF04C060E0C6010E948E0020E01E
:1016400030E0A901C501B4010E94571587FD08C00B
:10165000809100019091010161E005960E948E0049
:1016600020E030E0A901C501B4010E945715181609
:1016700024F0B7FAB094B7F8B09420E030E04AE72D
:1016800054E4C501B4010E94FD130E946F146B0164
:1016900070936B0160936A01072E000C880B990B05
:1016A0000E94A71420E030E04AE754E40E945C1551
:1016B0009B01AC01C501B4010E948B134B015C017D
:1016C00020E030E048EC52E40E94FD130E946F14C9
:1016D00070936D0160936C01072E000C880B990BC1
:1016E0000E94A71420E030E048EC52E40E945C1510
:1016F0009B01AC01C501B4010E948B134B015C013D
:1017000020E030E040E251E40E94FD130E946F149B
:1017100070936F0160936E01072E000C880B990B7C
:101720000E94A71420E030E040E251E40E945C15E2
:101730009B01AC01C501B4010E948B134B015C01FC
:101740000E946F147093710160937001072E000C5A
:10175000880B990B0E94A7149B01AC01C501B40131
:101760000E948B134B015C0120E030E040E251E429
:101770000E945C150E946F14709373016093720154
:10178000072E000C880B990B0E94A71420E030E074
:1017900040E251E40E94FD139B01AC01C501B4017C
:1017A0000E948B1320E030E048EC52E40E945C156C
:1017B0000E946F1470937501609374018091000111
:1017C000909101016C2D01970E948E008091000183
:1017D0009091010105960E948C0090E09093690120
:1017E00080936801892B31F461E271E083E991E033
:1017F0000E94E11060916A0170916B0161157105A1
:1018000031F48091600190916101019761F44AE0A7
:1018100050E083E991E00E949F1181E090E0909375
:1018200061018093600160916C0180910001909151
:1018300001010E948E0060916C0170916D01611533
:10184000710531F48091600190916101019761F41B
:101850004AE050E083E991E00E949F1181E090E02E
:10186000909361018093600180910001909101014A
:1018700060916E0101960E948E0060916E017091E0
:101880006F016115710531F48091600190916101E2
:10189000019761F44AE050E083E991E00E949F11D2
:1018A00081E090E09093610180936001809100015C
:1018B000909101016091700102960E948E006091EA
:1018C0007001709171016115710531F480916001B1
:1018D00090916101019761F44AE050E083E991E061
:1018E0000E949F1181E090E09093610180936001DC
:1018F00080910001909101016091720103960E9414
:101900008E0060917201709173016115710531F45F
:101910008091600190916101019761F44AE050E08B
:1019200083E991E00E949F1181E090E09093610132
:101930008093600180910001909101016091740198
:1019400004960E948E0060917401709175014AE0C6
:1019500050E083E991E00E949F116FE171E083E91B
:1019600091E00E94F4101092630110926201809144
:1019700000019091010160E007960E948E00109294
:101980006101109260010C94A80420E030E040E274
:1019900051E4C501B4010E945C1520E030EC4EE832
:1019A00054E40E94FD134B015C01B701FF0C880B4E
:1019B000990B0E94A71420E030E04AE754E40E940B
:1019C0005C152B013C01B801110F880B990B0E948B
:1019D000A71420E030E048EC52E40E945C159B0123
:1019E000AC01C301B2010E948C132B013C012D817B
:1019F0003E81B901330F880B990B0E94A71420E098
:101A000030E040E251E40E945C159B01AC01C3014F
:101A1000B2010E948C132B013C01B101330C880BE5
:101A2000990B0E94A7149B01AC01C301B2010E9453
:101A30008C132B013C0149815A81BA01550F880B47
:101A4000990B0E94A71420E030E040E251E40E948C
:101A5000FD139B01AC01C301B2010E948C132B0149
:101A60003C012B813C81B901330F880B990B0E94FB
:101A7000A71420E030E048EC52E40E94FD139B01E3
:101A8000AC01C301B2010E948C139B01AC01C501E2
:101A9000B4010E948B13C6CD1F920F920FB60F9206
:101AA00011242F933F938F939F93AF93BF93809174
:101AB0008F0190919001A0919101B091920130918C
:101AC0008E0123E0230F2D3768F126E8230F0296BD
:101AD000A11DB11D20938E0180938F0190939001E1
:101AE000A0939101B093920180918A0190918B0112
:101AF000A0918C01B0918D010196A11DB11D809323
:101B00008A0190938B01A0938C01B0938D01BF91BA
:101B1000AF919F918F913F912F910F900FBE0F909A
:101B20001F9018950196A11DB11DD4CF2FB7F89421
:101B300060918F017091900180919101909192013B
:101B40002FBF08953FB7F89480918A0190918B013F
:101B5000A0918C01B0918D0126B5A89B05C02F3FA7
:101B600019F00196A11DB11D3FBFBA2FA92F982FC3
:101B70008827BC01CD01620F711D811D911D42E0BE
:101B8000660F771F881F991F4A95D1F708958F9286
:101B90009F92AF92BF92CF92DF92EF92FF926B0132
:101BA0007C010E94A20D4B015C01C114D104E1042F
:101BB000F104E9F00E948A130E94A20D68197909C4
:101BC0008A099B09683E73408105910570F321E005
:101BD000C21AD108E108F10888EE880E83E0981E49
:101BE000A11CB11CC114D104E104F10429F7FF9038
:101BF000EF90DF90CF90BF90AF909F908F9008951F
:101C00008230910538F0880F991F880F991F05972A
:101C10000197F1F70895789484B5836084BD85B504
:101C2000836085BDEEE6F0E0808181608083E1E83D
:101C3000F0E082E08083808181608083E0E8F0E0F2
:101C4000808181608083E1EBF0E08081846080832B
:101C5000E0EBF0E080818160808387E880937A0008
:101C60001092C1000895883020F08D3008F48DE086
:101C70008E502091020190E4299F900111248770D9
:101C8000822B80937C0080917A00806480937A001C
:101C900080917A0086FDFCCF809178009091790048
:101CA0000895843081F028F48230E9F08330F9F02F
:101CB0000895883071F0893091F08530B9F48091C1
:101CC00080008F7D03C0809180008F77809380009B
:101CD00008958091B0008F778093B000089580912F
:101CE000B0008F7DF9CF84B58F7784BD089584B51A
:101CF0008F7DFBCFCF93DF9390E0FC01E158FF4F46
:101D000024918A569F4FFC0184918823C9F090E06A
:101D1000880F991FFC01E954FF4FA591B491FC0174
:101D2000E355FF4FC591D49161110DC09FB7F89451
:101D30008C91209582238C938881282328839FBFB0
:101D4000DF91CF910895623051F49FB7F8943C91A0
:101D5000822F809583238C93E8812E2BEFCF8FB732
:101D6000F894EC912E2B2C938FBFEACF1F93CF9337
:101D7000DF93282F30E0F901E859FF4F8491F901F2
:101D8000E158FF4FD491F901EA56FF4FC491CC239B
:101D9000A9F0162F81110E94510EEC2FF0E0EE0FEA
:101DA000FF1FE355FF4FA591B4918FB7F894EC91C5
:101DB000111108C0D095DE23DC938FBFDF91CF9146
:101DC0001F910895DE2BF8CFFC01918D228D892F74
:101DD00090E0805C9F4F821B91098F739927089533
:101DE000FC01918D828D981731F0828DE80FF11DE5
:101DF000858D90E008958FEF9FEF0895FC01918D00
:101E0000828D981761F0A28DAE0FBF2FB11D5D9628
:101E10008C91928D9F5F9F73928F90E008958FEFCA
:101E20009FEF0895FC01538D448D252F30E0842FC2
:101E300090E0821B930B541710F0CF9608950197F2
:101E400008958EE690E1892B49F080E090E0892B9F
:101E500029F00E946E1081110C9400000895FC017D
:101E6000A48DA80FB92FB11DA35ABF4F2C91848DFB
:101E700090E001968F739927848FA689B7892C9358
:101E8000A089B1898C91837080648C93938D848DAB
:101E9000981306C00288F389E02D80818F7D8083AE
:101EA0000895CF93DF93EC01888D8823B9F0AA8938
:101EB000BB89E889F9898C9185FD03C0808186FD05
:101EC0000DC00FB607FCF7CF8C9185FFF2CF808154
:101ED00085FFEDCFCE010E942F0FE9CFDF91CF918B
:101EE0000895EF92FF920F931F93CF93DF93EC012E
:101EF00081E0888F9B8D8C8D98131AC0E889F989B1
:101F0000808185FF15C09FB7F894EE89FF896083B3
:101F1000E889F98980818370806480839FBF81E034
:101F200090E0DF91CF911F910F91FF90EF90089576
:101F3000F62E0B8D10E00F5F1F4F0F731127E02E51
:101F40008C8D8E110CC00FB607FCFACFE889F98989
:101F5000808185FFF5CFCE010E942F0FF1CFEB8D51
:101F6000EC0FFD2FF11DE35AFF4FF0829FB7F8945D
:101F70000B8FEA89FB8980818062CFCFCF92DF927D
:101F8000EF92FF921F93CF93DF93EC016A017B01E5
:101F9000122FE889F98982E08083C11481EED80686
:101FA000E104F104A1F060E079E08DE390E0A701A5
:101FB00096010E94DA1521503109410951095695BF
:101FC000479537952795211580E1380798F0E889DE
:101FD000F989108260E874E88EE190E0A70196012B
:101FE0000E94DA152150310941095109569547954A
:101FF00037952795EC85FD853083EE85FF85208319
:10200000188EEC89FD891083EA89FB8980818869B3
:102010008083EA89FB8980818F7D8083DF91CF91E6
:102020001F91FF90EF90DF90CF9008951F920F9235
:102030000FB60F9211242F938F939F93EF93FF93DB
:10204000E091A301F091A4018081E091A901F091B8
:10205000AA0182FD1BC090818091AC018F5F8F73BC
:102060002091AD01821741F0E091AC01F0E0ED5616
:10207000FE4F958F8093AC01FF91EF919F918F91CF
:102080002F910F900FBE0F901F9018958081F4CF65
:102090001F920F920FB60F9211242F933F934F93DD
:1020A0005F936F937F938F939F93AF93BF93EF93C0
:1020B000FF9383E991E00E942F0FFF91EF91BF9171
:1020C000AF919F918F917F916F915F914F913F91D0
:1020D0002F910F900FBE0F901F90189583E991E0FC
:1020E0000E94E40E21E0892B09F420E0822F08955C
:1020F000E3E9F1E01382128288EE93E0A0E0B0E021
:1021000084839583A683B78380E491E09183808361
:1021100085EC90E09587848784EC90E097878687AC
:1021200080EC90E0918B808B81EC90E0938B828BA4
:1021300082EC90E0958B848B86EC90E0978B868B7D
:10214000118E128E138E148E0895AF92BF92CF927D
:10215000DF92EF92FF920F931F93CF93DF936C0167
:102160007B018B01040F151FEB015E01AE18BF0848
:10217000C017D10759F06991D601ED91FC910190FA
:10218000F081E02DC6010995892B79F7C501DF9112
:10219000CF911F910F91FF90EF90DF90CF90BF9064
:1021A000AF900895FB0101900020E9F73197AF014E
:1021B000461B570BDC01ED91FC910280F381E02D71
:1021C00009946115710511F00C94D21090E080E033
:1021D0000895DC01ED91FC910190F081E02D0994CE
:1021E0006EE471E00C94D2100F931F93CF93DF93A2
:1021F0008C01D0E0C0E06115710519F00E94D21089
:10220000EC01C8010E94F0108C0F9D1FDF91CF914F
:102210001F910F9108958F929F92AF92BF92EF926C
:10222000FF920F931F93CF93DF93CDB7DEB7A197A4
:102230000FB6F894DEBF0FBECDBF7C01FA01CB0113
:1022400019A2223008F42AE08E010F5D1F4F822E62
:10225000912CB12CA12CBF01A50194010E94DA158B
:10226000F901CA016A300CF5605DD8016E938D01E9
:10227000232B242B252B79F790E080E0109721F079
:10228000BD01C7010E94D210A1960FB6F894DEBF1F
:102290000FBECDBFDF91CF911F910F91FF90EF90B7
:1022A000BF90AF909F908F900895695CDECFCF92E2
:1022B000DF92EF92FF920F931F93CF93DF9321153D
:1022C000310581F4DC01ED91FC910190F081E02D6C
:1022D000642FDF91CF911F910F91FF90EF90DF90CE
:1022E000CF9009942A30310501F52AE077FF1DC00F
:1022F0006A017B01EC016DE20E94E9108C01442728
:102300005527BA014C195D096E097F092AE0CE01F3
:102310000E940B11800F911FDF91CF911F910F91A0
:10232000FF90EF90DF90CF900895DF91CF911F91B4
:102330000F91FF90EF90DF90CF900C940B119A01CA
:10234000AB01770F660B770B0C9457110F931F930C
:10235000CF93DF93EC010E9457118C01CE010E94B4
:10236000F010800F911FDF91CF911F910F91089571
:102370002115310541F4DC01ED91FC910190F081D2
:10238000E02D642F09940C940B119A01AB0170E0BD
:1023900060E00C94B8112F923F924F925F926F922F
:1023A0007F928F929F92AF92BF92CF92DF92EF92E5
:1023B000FF921F93CF93DF93EC016A017B01722E92
:1023C000AB019601CB01B6010E94C91561E571E030
:1023D000811126C046015701E894B7F82FEF3FEF6F
:1023E0004FE75FE7C501B4010E94C91581110CC018
:1023F0002FEF3FEF4FE75FE7C501B4010E94F813ED
:1024000065E571E0181664F02FEF3FEF4FE75FE4EA
:10241000C701B6010E9457151816B4F469E571E0BA
:10242000CE01DF91CF911F91FF90EF90DF90CF9081
:10243000BF90AF909F908F907F906F905F904F90E4
:102440003F902F900C94D2102FEF3FEF4FE75FECAF
:10245000C701B6010E94F81387FDE0CF20E030E00D
:10246000A901C701B6010E94F813312C212C87FF66
:1024700009C06DE2CE010E94E9101C01F7FAF09448
:10248000F7F8F09410E060E070E080E09FE37116F0
:1024900041F020E030E040E251E40E94FD131F5F74
:1024A000F6CFA70196010E948C132B013C010E94DC
:1024B00076144B015C012AE0BC01A401CE010E940C
:1024C0000B117C01E20CF31C1123B1F1C501B40125
:1024D0000E94A5149B01AC01C301B2010E948B13A1
:1024E0004B015C016EE2CE010E94E910E80EF91E7C
:1024F000115010F120E030E040E251E4C501B40198
:102500000E945C152B013C010E9476144B014AE0AD
:1025100050E0CE010E94C511E80EF91EB40190E012
:1025200080E00E94A5149B01AC01C301B2010E948E
:102530008B134B015C01DCCFC701DF91CF911F9161
:10254000FF90EF90DF90CF90BF90AF909F908F90D3
:102550007F906F905F904F903F902F9008950C94D4
:10256000CB110F931F93CF93DF93EC010E94960D35
:10257000688779878A879B87E881F9810484F58554
:10258000E02DCE01099597FF15C00E94960D088594
:1025900019852A853B85601B710B820B930B0C817F
:1025A0001D812E813F81601771078207930720F3F9
:1025B0008FEF9FEFDF91CF911F910F910895FF92C1
:1025C0000F931F93CF93DF93EC018B01F42ECE0179
:1025D0000E94B11297FD1DC08D329105D1F09C0172
:1025E000205331092A303105A0F0FF2019F08E3236
:1025F000910579F00130110551F00230110589F48F
:102600008D30910571F05CF40997029750F08FEFCF
:102610009FEFDF91CF911F910F91FF9008958097C9
:10262000B1F7E881F9810284F385E02DCE010995A7
:10263000CECFBF92CF92DF92EF92FF920F931F9374
:10264000CF93DF938C01C42F40E00E94DF12FC0186
:10265000C12CD12C760197FD3EC0B12C0C2E000C64
:10266000DD0BCE17DF07D9F0ED32F10509F43FC0DD
:10267000CF01C0970A9798F4AAE0B0E0A7019601AD
:102680000E9421166F01FF0FEE08FF08C60ED71E2D
:10269000E81EF91E80E3C81AD108E108F108D80144
:1026A000ED91FC910284F385E02DC8010995C801E4
:1026B0000E94B112FC01C0970A9798F2CE17DF076B
:1026C00081F2BB2041F0F094E094D094C094C11CFE
:1026D000D11CE11CF11CC701B601DF91CF911F9104
:1026E0000F91FF90EF90DF90CF90BF900895BB24A3
:1026F000B394D5CF08950E940B0E0E947A130E94C6
:102700009000C1E2DFE00E9475012097E1F30E9492
:10271000210FF9CF08955058BB27AA270E94A31371
:102720000C941D150E940F1538F00E94161520F00C
:1027300039F49F3F19F426F40C940C150EF4E0952F
:10274000E7FB0C940615E92F0E942E1558F3BA17D3
:10275000620773078407950720F079F4A6F50C94B7
:1027600050150EF4E0950B2EBA2FA02D0B01B901D8
:1027700090010C01CA01A0011124FF27591B99F0F7
:10278000593F50F4503E68F11A16F040A22F232F03
:10279000342F4427585FF3CF469537952795A79553
:1027A000F0405395C9F77EF41F16BA0B620B730BFA
:1027B000840BBAF09150A1F0FF0FBB1F661F771F6B
:1027C000881FC2F70EC0BA0F621F731F841F48F420
:1027D000879577956795B795F7959E3F08F0B0CFA9
:1027E0009395880F08F09927EE0F97958795089590
:1027F0000E94E21408F481E008950E9411140C94E0
:102800001D150E94161558F00E940F1540F029F46E
:102810005F3F29F00C94061551110C9451150C943E
:102820000C150E942E1568F39923B1F3552391F3EB
:10283000951B550BBB27AA2762177307840738F02F
:102840009F5F5F4F220F331F441FAA1FA9F335D08C
:102850000E2E3AF0E0E832D091505040E695001C40
:10286000CAF72BD0FE2F29D0660F771F881FBB1FFA
:10287000261737074807AB07B0E809F0BB0B802DD8
:10288000BF01FF2793585F4F3AF09E3F510578F004
:102890000C9406150C9451155F3FE4F3983ED4F365
:1028A000869577956795B795F7959F5FC9F7880FD8
:1028B000911D9695879597F90895E1E0660F771F2A
:1028C000881FBB1F621773078407BA0720F0621BBB
:1028D000730B840BBA0BEE1F88F7E09508950E94E6
:1028E00076146894B1110C94511508950E94361510
:1028F00088F09F5798F0B92F9927B751B0F0E1F0C1
:10290000660F771F881F991F1AF0BA95C9F714C070
:10291000B13091F00E945015B1E008950C9450151B
:10292000672F782F8827B85F39F0B93FCCF38695A9
:1029300077956795B395D9F73EF490958095709506
:1029400061957F4F8F4F9F4F0895E89409C097FB83
:102950003EF490958095709561957F4F8F4F9F4F76
:102960009923A9F0F92F96E9BB279395F6958795BA
:1029700077956795B795F111F8CFFAF4BB0F11F47D
:1029800060FF1BC06F5F7F4F8F4F9F4F16C0882324
:1029900011F096E911C0772321F09EE8872F762F5A
:1029A00005C0662371F096E8862F70E060E02AF09B
:1029B0009A95660F771F881FDAF7880F9695879587
:1029C00097F90895990F0008550FAA0BE0E8FEEF5C
:1029D00016161706E807F907C0F012161306E407E3
:1029E000F50798F0621B730B840B950B39F40A26DC
:1029F00061F0232B242B252B21F408950A2609F4BA
:102A0000A140A6958FEF811D811D089597F99F67BD
:102A100080E870E060E008959FEF80EC0895002466
:102A20000A941616170618060906089500240A9433
:102A300012161306140605060895092E0394000CB9
:102A400011F4882352F0BB0F40F4BF2B11F460FF48
:102A500004C06F5F7F4F8F4F9F4F089557FD905871
:102A6000440F551F59F05F3F71F04795880F97FB52
:102A7000991F61F09F3F79F087950895121613060C
:102A80001406551FF2CF4695F1DF08C0161617063B
:102A90001806991FF1CF8695710561050894089570
:102AA000E894BB2766277727CB0197F908950E9402
:102AB000E21408F48FEF08950E946F150C941D1511
:102AC0000E940F1538F00E94161520F0952311F082
:102AD0000C9406150C940C1511240C9451150E949D
:102AE0002E1570F3959FC1F3950F50E0551F629F0F
:102AF000F001729FBB27F00DB11D639FAA27F00D57
:102B0000B11DAA1F649F6627B00DA11D661F829F7D
:102B10002227B00DA11D621F739FB00DA11D621F62
:102B2000839FA00D611D221F749F3327A00D611D7F
:102B3000231F849F600D211D822F762F6A2F112461
:102B40009F5750409AF0F1F088234AF0EE0FFF1F94
:102B5000BB1F661F771F881F91505040A9F79E3FEB
:102B6000510580F00C9406150C9451155F3FE4F369
:102B7000983ED4F3869577956795B795F795E79541
:102B80009F5FC1F7FE2B880F911D9695879597F94A
:102B900008950E94E214880B990B0895991B79E01F
:102BA00004C0991F961708F0961B881F7A95C9F7DD
:102BB00080950895A1E21A2EAA1BBB1BFD010DC032
:102BC000AA1FBB1FEE1FFF1FA217B307E407F507DD
:102BD00020F0A21BB30BE40BF50B661F771F881FB9
:102BE000991F1A9469F760957095809590959B014F
:102BF000AC01BD01CF010895052E97FB1EF4009492
:102C00000E94131657FD07D00E94DA1507FC03D067
:102C10004EF40C94131650954095309521953F4FE6
:102C20004F4F5F4F089590958095709561957F4FB8
:102C30008F4F9F4F0895EE0FFF1F0590F491E02DE9
:102C400009940E942C16A59F900DB49F900DA49FEF
:102C5000800D911D11240895A29FB001B39FC00162
:102C6000A39F700D811D1124911DB29F700D811DB8
:102C70001124911D0895F999FECF92BD81BDF89A56
:102C8000992780B50895262FF999FECF1FBA92BDD6
:102C900081BD20BD0FB6F894FA9AF99A0FBE01963D
:062CA0000895F894FFCF37
:102CA60001000157616E6465726572526F746174DA
:102CB6006F724D696E69413230323530323232418F
:102CC600002D004E657720506F736974696F6E2012
:102CD60053746F7265643A20004E50000000000085
:102CE600710FA510120F510FE40EFE0EF00E0D0A15
:0E2CF600006E616E00696E66006F766600000B
:00000001FF
