:100000000C9462000C948A000C948A000C948A0070
:100010000C948A000C948A000C948A000C948A0038
:100020000C948A000C948A000C948A000C948A0028
:100030000C948A000C948A000C948A000C948A0018
:100040000C9454130C948A000C9417160C944916B3
:100050000C948A000C948A000C948A000C948A00F8
:100060000C948A000C948A0000000009000302002E
:10007000000405080000000000000000000000016E
:10008000020408102040800102040810200102042C
:100090000810204080400404040404040404020204
:1000A000020202020303030303030202030000002F
:1000B00000250028002B0000000000240027002A53
:1000C0000000791611241FBECFEFD4E0DEBFCDBFF4
:1000D00012E0A0E0B1E0EEEDF8E302C005900D9271
:1000E000AA39B107D9F723E0AAE9B2E001C01D920D
:1000F000AA37B207E1F710E0C2E6D0E004C02197CA
:10010000FE010E94371CC136D107C9F70E94C219EF
:100110000C946D1C0C940000CF92DF92EF92FF9232
:100120000F931F93CF93DF93EB017B0124E0E20E4B
:10013000F11C8B016C01C61AD70AC601800F911FF2
:100140000E94571CF80181938F01EE15FF05A9F756
:10015000CE01DF91CF911F910F91FF90EF90DF9033
:10016000CF9008950F931F93CF93DF938C01EB01F2
:100170000E94571C8883C80101960E94571C8983DE
:10018000CE01DF91CF911F910F910895FF920F93B0
:100190001F93CF93DF93EC01F62E08811981C801DC
:1001A0000E94571CF81621F06F2DC8010E945F1C99
:1001B000CE01DF91CF911F910F91FF900895AF92E3
:1001C000BF92CF92DF92EF92FF920F931F93CF9344
:1001D000DF9300D0CDB7DEB78B016B0124E0C20EF8
:1001E000D11C7B015C01A61AB70AC5018E0D9F1DAB
:1001F0009A838983F70161917F01CE0101960E9464
:10020000C600EC14FD0489F7C8010F900F90DF9130
:10021000CF911F910F91FF90EF90DF90CF90BF9003
:10022000AF900895EF92FF920F931F93CF93DF93B8
:1002300000D0CDB7DEB78C017B019A838983FB01A7
:100240006081CE0101960E94C6000F5F1F4F1A8386
:100250000983F7016181CE0101960E94C600C701A2
:100260000F900F90DF91CF911F910F91FF90EF9022
:100270000895CF92DF92EF92FF9261E08AE00E94B0
:10028000821461E089E00E94821461E088E00E94AB
:10029000821461E08AE00E94BE1461E085E00E9461
:1002A000821461E084E00E94821461E082E00E9496
:1002B000821461E085E00E94BE1461E087E00E9444
:1002C000821461E086E00E94821461E083E00E9473
:1002D000821461E087E00E94BE1461E082E10E9426
:1002E000BE1482E390E09093A7028093A60264EC90
:1002F00072E090E080E00E948C006091C4027091F6
:10030000C5028091C6029091C7029B01AC010E9478
:10031000101C882371F01092C4021092C502109232
:10032000C6021092C70264EC72E090E080E00E9486
:10033000DF0060EC72E084E090E00E948C0060914D
:10034000C0027091C1028091C2029091C3029B01D0
:10035000AC010E94101C882371F01092C002109210
:10036000C1021092C2021092C30260EC72E084E0FB
:1003700090E00E94DF006CEB72E088E090E00E9469
:100380008C006091BC027091BD028091BE02909180
:10039000BF029B01AC010E94101C882371F01092D7
:1003A000BC021092BD021092BE021092BF026CEB12
:1003B00072E088E090E00E94DF0066E171E08CE08E
:1003C00090E00E94B2008091160190911701019671
:1003D00051F4109217011092160166E171E08CE061
:1003E00090E00E94120164EA72E08EE090E00E94C8
:1003F000B2008091A4029091A502019661F48FEF62
:1004000093E09093A5028093A40264EA72E08EE0E8
:1004100090E00E94120164E171E080E190E00E94AE
:10042000B2008091140190911501019651F410923F
:1004300015011092140164E171E080E190E00E94E6
:10044000120162EA72E082E190E00E94B2008091C3
:10045000A2029091A302019661F48FEF93E0909332
:10046000A3028093A20262EA72E082E190E00E941D
:10047000120162E171E084E190E00E94B20080919B
:10048000120190911301019651F4109213011092F0
:10049000120162E171E084E190E00E94120160EAE1
:1004A00072E086E190E00E94B2008091A0029091FB
:1004B000A102019661F48FEF93E09093A1028093E3
:1004C000A00260EA72E086E190E00E94120126E05C
:1004D00040E05BE460E070E08DED92E00E94BF15CB
:1004E0006BE972E084E690E00E948C0029E739EE27
:1004F00046EF52E460919B0270919C0280919D02B4
:1005000090919E020E94D2196B017C0120E030E0A4
:10051000A9010E949E1B181624F0F7FAF094F7F830
:10052000F0942FE632E143E05BE3C701B6010E949D
:100530003F1A87FF08C081E080939A02FF90EF90F6
:10054000DF90CF90089510929A02F8CF2F923F92A9
:100550004F925F926F927F928F929F92AF92BF92D3
:10056000CF92DF92EF92FF920F931F93CF93DF937F
:10057000182FD62FC42F590160E00E94BE142A2CD8
:100580008A2D0E943B14BC01990F880B990B0E9485
:10059000EE1A9B01AC0160E070E88DE694E40E94E5
:1005A000D2196B017C0120E030E0A9010E949E1B62
:1005B00018160CF448C0C701B601905820E030E08E
:1005C00040E05FE30E94A31B20E030E048E454E4F5
:1005D0000E94A31B2B013C0181E0302E382620E035
:1005E00030E0A901C701B6010E949E1B602F1816BA
:1005F0000CF0632D8D2F0E94BE14C12CD12C7601DE
:10060000A3019201C701B6010E943F1A87FF1EC0D5
:1006100061E08C2F0E94BE1482E390E00E940814D7
:1006200060E08C2F0E94BE1482E390E00E940814C8
:1006300020E030E040E85FE3C701B6010E94D31933
:100640006B017C01DDCFC701B601B8CFD12CC12C25
:10065000EE24EA9433E0F32E602F8D2F0E94BE1417
:1006600028EC822E912C61E08C2F0E94BE1482E334
:1006700090E00E94081460E08C2F0E94BE1482E378
:1006800090E00E94081481E0881A910861F79AE0CE
:10069000892E912C412C512C3201822D0E943B1429
:1006A000BC01990F880B990B0E94EE1A9B01AC01BB
:1006B000C301B2010E94D3192B013C0162E070E03A
:1006C00080E090E00E94CF1381E0881A910829F71A
:1006D00020E030E040E251E4C301B2010E94441A3C
:1006E0002B013C0181E1A816B10409F068C0B601F4
:1006F0000D2C000C880B990B0E94EE1AA30192019D
:100700000E943F1A87FF09C0C301B2010E94B61AB6
:100710006B017093A5026093A402B7010F2C000C2B
:10072000880B990B0E94EE1AA30192010E949E1B56
:1007300018164CF4C301B2010E94B61A7B017093E3
:1007400017016093160120E030E040EA51E4C30154
:10075000B2010E943F1A87FF7FCF632D8D2F0E9429
:10076000BE1488E8E82E83E1F82E61E08C2F0E9409
:10077000BE1482E390E00E94081460E08C2F0E9477
:10078000BE1482E390E00E94081481E0E81AF108A8
:1007900061F761E0812FDF91CF911F910F91FF9061
:1007A000EF90DF90CF90BF90AF909F908F907F9011
:1007B0006F905F904F903F902F900C94BE1480E10B
:1007C000A816B10471F5B6010D2C000C880B990B1D
:1007D0000E94EE1AA30192010E943F1A87FF09C0EE
:1007E000C301B2010E94B61A6B017093A302609319
:1007F000A202B7010F2C000C880B990B0E94EE1A75
:10080000A30192010E949E1B18160CF09CCFC301FD
:10081000B2010E94B61A7B01709315016093140116
:1008200092CF8FE0A816B10409F08DCFB6010D2C40
:10083000000C880B990B0E94EE1AA30192010E94F2
:100840003F1A87FF09C0C301B2010E94B61A6B01AB
:100850007093A1026093A002B7010F2C000C880BCB
:10086000990B0E94EE1AA30192010E949E1B18167A
:100870000CF069CFC301B2010E94B61A7B017093DC
:100880001301609312015FCF4F925F926F927F923C
:100890008F929F92AF92BF92CF92DF92EF92FF9290
:1008A0000F931F93CF93DF93CDB7DEB7A0970FB60B
:1008B000F894DEBF0FBECDBF182F61E371E08DED60
:1008C00092E00E94F51686E0E9E1F1E0DE01539640
:1008D00001900D928A95E1F786E0EFE1F1E0DE010B
:1008E0001D9601900D928A95E1F786E0E5E2F1E030
:1008F000DE01179601900D928A95E1F786E0EBE212
:10090000F1E0DE01119601900D928A95E1F7CE019A
:1009100001962C015E0197E0A90EB11C4E01EDE09D
:100920008E0E911C3E01F3E16F0E711C8CE0E82EDF
:10093000F12CF201C190D1902F01F501419151911B
:100940005F01F401619171914F01012F9601F30153
:10095000819191913F010E94A6021D8E1E8E1F8ED5
:1009600018A2198E1A8E1B8E1C8EF1E1CF16D1049F
:1009700009F08BC06091160170911701072E000CD1
:10098000880B990B0E94EE1A6D8F7E8F8F8F98A324
:100990006091A4027091A502072E000C880B990BA0
:1009A0000E94EE1A698F7A8F8B8F9C8F6AE471E0B8
:1009B0008DED92E00E94E2164D8D5E8D6F8D78A1D7
:1009C00022E030E08DED92E00E94B01866E671E022
:1009D0008DED92E00E94E216498D5A8D6B8D7C8DD3
:1009E00022E030E08DED92E00E94B21820E030E08D
:1009F00040E251E46D8D7E8D8F8D98A10E943F1A4B
:100A000018160CF489C020E030E04AE754E4698D00
:100A10007A8D8B8D9C8D0E949E1B18160CF07CC0CD
:100A20006CEA71E08DED92E00E94F516BE01635E06
:100A30007F4FC7010E94DF00BE01675E7F4FC70185
:100A400002960E94DF00E4E0EE0EF11CF8E1EF16E2
:100A5000F10409F06ECF81E080939F02A0960FB65B
:100A6000F894DEBF0FBECDBFDF91CF911F910F91E4
:100A7000FF90EF90DF90CF90BF90AF909F908F90BE
:100A80007F906F905F904F90089580E1C816D104D9
:100A9000F9F46091140170911501072E000C880B78
:100AA000990B0E94EE1A6D8F7E8F8F8F98A36091A5
:100AB000A2027091A302072E000C880B990B0E94D2
:100AC000EE1A698F7A8F8B8F9C8F64E771E070CFFD
:100AD0009FE0C916D10409F089CF6091120170918D
:100AE0001301072E000C880B990B0E94EE1A6D8FD4
:100AF0007E8F8F8F98A36091A0027091A102072E24
:100B0000000C880B990B0E94EE1A698F7A8F8B8FDD
:100B10009C8F60E971E04CCF69EB71E08DED92E064
:100B20000E94F51690CF8F929F92AF92BF92CF9274
:100B3000DF92EF92FF920F931F93CF93DF93C82F13
:100B4000062F142F60E08AE00E94BE1460E08C2F14
:100B50000E94BE14CAE0D0E0C12CD12C7601812FB6
:100B60000E943B14BC01990F880B990B0E94EE1A4E
:100B70009B01AC01C701B6010E94D3196B017C0136
:100B800062E070E080E090E00E94CF13219739F797
:100B900020E030E040E251E4C701B6010E94441A6F
:100BA0004B015C01C0E4DFE161E0802F0E94BE14D4
:100BB00082E390E00E94081460E0802F0E94BE143F
:100BC00082E390E00E940814219771F761E08AE0C7
:100BD0000E94BE14CAE0D0E0C12CD12C7601812F36
:100BE0000E943B14BC01990F880B990B0E94EE1ACE
:100BF0009B01AC01C701B6010E94D3196B017C01B6
:100C000062E070E080E090E00E94CF13219739F716
:100C100020E030E040E251E4C701B6010E94441AEE
:100C2000A50194010E94D2196B017C0120E030E003
:100C300040EC50E40E949E1B181664F420E030E063
:100C400040E252E4C701B6010E943F1A69EC71E02C
:100C500087FD4AC020E030E040EC50ECC701B6010F
:100C60000E943F1A87FF0CC020E030E040E252ECC7
:100C7000C701B6010E949E1B67ED71E01816D4F003
:100C800020E030E04AEF53ECC701B6010E943F1A62
:100C900065EE71E087FD28C020E030E04AEF53E4C4
:100CA000C701B6010E949E1B61E072E01816E4F4D1
:100CB00063EF71E08DED92E00E94F51622E030E0E6
:100CC000B701A6018DED92E00E94B21881E0DF919C
:100CD000CF911F910F91FF90EF90DF90CF90BF9039
:100CE000AF909F908F9008958DED92E00E94F51641
:100CF00022E030E0B701A6018DED92E00E94B2182B
:100D000080E0E5CF4F925F926F927F928F929F9299
:100D1000AF92BF92CF92DF92EF92FF924B015C01B4
:100D200069017A010E943F1A87FD19C0A701960147
:100D3000C501B4010E94D2192B013C0120E030E032
:100D4000A9010E949E1B87FD29C020E030E040E2FF
:100D500051E4C301B2010E943F1A87FF1FC0A501E1
:100D60009401C701B6010E94D21922EA3EEF4DE874
:100D70005BE30E94A31B2CEF39EA41E95FE30E9489
:100D8000A31BFF90EF90DF90CF90BF90AF909F900C
:100D90008F907F906F905F904F900895A501940180
:100DA00060E070E084EB93E40E94D219A701960101
:100DB0000E94D319DACF3F924F925F926F927F9247
:100DC0008F929F92AF92BF92CF92DF92EF92FF925B
:100DD0000F931F93CF93DF93382EEB010AE010E0BF
:100DE000812C912C54016A01C61AD70A0D2C000CD3
:100DF000EE08FF08832D0E943B148C1B9D0BBC0149
:100E0000990F880B990B0E94EE1A20E030E044EB1A
:100E100053E40E94A31B2B013C01C701B6010E94B1
:100E2000EE1A9B01AC01C301B2010E94441A9B015E
:100E3000AC01C501B4010E94D3194B015C0162E011
:100E400070E080E090E00E94CF130150110991F60C
:100E500020E030E040E251E4C501B4010E94441AB0
:100E60006B017C0120E030E0A9010E949E1B181656
:100E700024F0F7FAF094F7F8F094C701B601DF9187
:100E8000CF911F910F91FF90EF90DF90CF90BF9087
:100E9000AF909F908F907F906F905F904F903F901A
:100EA00008954F925F926F927F928F929F92AF922E
:100EB000BF92CF92DF92EF92FF920F931F93CF9347
:100EC000DF93CDB7DEB728970FB6F894DEBF0FBE1D
:100ED000CDBF6D837E838F83988729833A834B832D
:100EE0005C83270138016C2D80910E010E94BE1495
:100EF0006A2D809108010E94BE14682D8091020124
:100F00000E94BE1460E080910C010E94BE1460E05B
:100F1000809106010E94BE1460E0809100010E9451
:100F2000BE1439812A819B818C8149815A816B81D0
:100F30007C81441555056605770524F43E2D252D45
:100F4000902F872D832E922EA92EB82E6D817E8113
:100F50008F81988586169706A806B90614F44B016A
:100F60005C01C12CD12C7601C814D904EA04FB041D
:100F70000CF050C08D819E81AF81B885C816D9060E
:100F8000EA06FB062CF461E0809110010E94BE1479
:100F900049815A816B817C81C416D506E606F70625
:100FA0002CF461E080910A010E94BE14C414D5049F
:100FB000E604F7042CF461E0809104010E94BE1461
:100FC0008091A6029091A7020E94081460E080918F
:100FD00010010E94BE1460E080910A010E94BE14BC
:100FE00060E0809104010E94BE148091A60290915D
:100FF000A7020E9408148DED92E00E9406158A3027
:10100000910511F0019631F46FEFC61AD60AE60A7F
:10101000F60AAACF61E080910C010E94BE1461E043
:10102000809106010E94BE1461E080910001289623
:101030000FB6F894DEBF0FBECDBFDF91CF911F91E9
:101040000F91FF90EF90DF90CF90BF90AF909F9067
:101050008F907F906F905F904F900C94BE142F9262
:101060003F924F925F926F927F928F929F92AF9238
:10107000BF92CF92DF92EF92FF920F931F93CF9385
:10108000DF93CDB7DEB767970FB6F894DEBF0FBE1C
:10109000CDBF1C014A8B5B8B6C8B7D8B0F831887BC
:1010A00029873A8726013701AE8A888A2CA5298BA1
:1010B0008EA58F8BE0901601F0901701C090A402CE
:1010C000D090A50291E02916310409F0F8C0B701CB
:1010D0000F2C000C880B990B0E94EE1A69837A83FF
:1010E0008B839C83B6010D2C000C880B990B0E94FE
:1010F000EE1A6B877C878D879E871092B8021092BC
:10110000B9021092BA021092BB021092B40210926D
:10111000B5021092B6021092B7021092B00210926D
:10112000B1021092B2021092B302A601B70181E19E
:1011300090E00E94DB066093B8027093B90280933E
:10114000BA029093BB024091A2025091A302609117
:1011500014017091150180E190E00E94DB0660931C
:10116000B4027093B5028093B6029093B702409197
:10117000A0025091A10260911201709113018FE0C1
:1011800090E00E94DB066B017C01C092B002D0921D
:10119000B102E092B202F092B3022091C402309107
:1011A000C5024091C6025091C7026091B802709189
:1011B000B9028091BA029091BB020E9482066093AC
:1011C000D0027093D1028093D2029093D3022091E7
:1011D000C0023091C1024091C2025091C30260919D
:1011E000B4027091B5028091B6029091B7020E944C
:1011F00082066093CC027093CD028093CE029093CE
:10120000CF022091BC023091BD024091BE025091AC
:10121000BF02C701B6010E9482066093C8027093A4
:10122000C9028093CA029093CB021E821D828D81D7
:101230009E8101969E838D832F81388549855A85AD
:101240006A897B898C899D890E94D2194B015C0136
:1012500020E030E0A9010E949E1B18160CF462C029
:10126000C501B40190582AE037ED43EA5BE30E94E0
:101270003F1A87FF5AC06DE272E08DED92E00E9446
:10128000F5168D819E81059709F47CC167960FB68E
:10129000F894DEBF0FBECDBFDF91CF911F910F91AC
:1012A000FF90EF90DF90CF90BF90AF909F908F9086
:1012B0007F906F905F904F903F902F90089522E025
:1012C00022163104B9F46091140170911501072EB2
:1012D000000C880B990B0E94EE1A69837A838B832A
:1012E0009C836091A2027091A302072E000C880BD0
:1012F000990BFDCE83E02816310409F0FECE6091F3
:10130000120170911301072E000C880B990B0E949B
:10131000EE1A69837A838B839C836091A00270911B
:10132000A102E3CFC501B4019ECF20E030E041E04F
:1013300055E4C501B4010E94A31B6B017C0191E03F
:101340002916310409F06CC020E030E543EC57E485
:10135000C701B6010E94D31920E030E048EC52E406
:101360000E94A31B20E836E948E15BE40E94D21901
:101370006B017C0111E020E030E0A901C501B4015E
:101380000E949E1B18160CF010E080919A0261E0FA
:101390006127811101C0612F8E890E94BE1460E017
:1013A00088890E94BE1420E030E0A901C701B6017F
:1013B0000E949E1B181624F0F7FAF094F7F8F094A8
:1013C000C701B6010E94B61A6B017C011C141D04F2
:1013D0001E041F040CF053C061E089890E94BE14F2
:1013E0008091A6029091A7020E94081460E089896A
:1013F0000E94BE148091A6029091A7020E94081438
:101400008DED92E00E9406158A30910519F0019643
:1014100009F0D6C081E0C81AD108E108F108D6CF9A
:1014200022E02216310499F420E030E543E458E448
:10143000C701B6010E94D31920E030E048EC52E425
:101440000E94A31B20E836E948E95BE48FCF83E0E4
:101450002816310409F08ECF20E03CE742E958E439
:10146000C701B6010E94D31920E030E048EC52E4F5
:101470000E94A31B20EC31EE44EE5BE477CF1F8685
:1014800061E088890E94BE1468EE73E080E090E01D
:101490000E94CF130AE010E0C12CD12C76018F8975
:1014A0000E943B14BC01990F880B990B0E94EE1A05
:1014B00029813A814B815C810E94D21920E030E081
:1014C00044EB53E40E94A31B4B015C0129813A8148
:1014D0004B815C816B857C858D859E850E94D219B0
:1014E0009B01AC01C501B4010E94441A9B01AC01EF
:1014F000C701B6010E94D3196B017C0162E070E064
:1015000080E090E00E94CF130150110941F620E0E5
:1015100030E040E251E4C701B6010E94441A6B0179
:101520007C0120E030E0A9010E949E1B181624F0E7
:10153000F7FAF094F7F8F094A3019201C701B6010D
:101540000E943F1A87FF3FC0A7019601C301B20165
:101550000E94D21922EA3EEF4DE85BE30E94A31BF2
:101560002CEF39EA41E95FE30E94A31B6F83788780
:1015700089879A879F85911184CE8D819E81059759
:1015800009F055CE6FE072E08DED92E067960FB6F0
:10159000F894DEBF0FBECDBFDF91CF911F910F91A9
:1015A000FF90EF90DF90CF90BF90AF909F908F9083
:1015B0007F906F905F904F903F902F900C94F51616
:1015C00091E09F875DCFA3019201C701B6010E9400
:1015D0009E1B87FD0EC0A3019201C701B6010E94A8
:1015E000D21920E030E040E251E40E943F1A87FD2A
:1015F000ABCFA701960160E070E084EB93E40E941A
:10160000D219A30192010E94D319A4CF4F925F92E5
:101610006F927F928F929F92AF92BF92CF92DF9202
:10162000EF92FF920F931F934B015C0120E03CE986
:1016300040EE57E40E943F1A1816E4F120E030E52E
:1016400043EC57E4C501B4010E949E1B181694F5A3
:10165000C0909A0281E0C826D12C20E030E543EC0E
:1016600057E4C501B4010E94D21920E030E048ECF3
:1016700052E40E94A31B0E94B61A88248394912CE2
:10168000AA24A394B12CE12CF12C870120E030E0B6
:10169000A9010E9451071F910F91FF90EF90DF90D9
:1016A000CF90BF90AF909F908F907F906F905F9002
:1016B0004F90089520E03CE940EE57ECC501B4019D
:1016C0000E949E1B87FD1AC020E030E543EC57ECDA
:1016D000C501B4010E943F1A87FF10C0C0909A0252
:1016E000D12C20E030E543EC57E4C501B4010E9461
:1016F000D31920E030E048EC52ECBBCF20E036EFCD
:1017000041E558E4C501B4010E943F1A18167CF166
:1017100020E030E543E458E4C501B4010E949E1B7B
:1017200018162CF5E0909A0281E0E826F12C20E0D2
:1017300030E543E458E4C501B4010E94D21920E029
:1017400030E048EC52E40E94A31B0E94B61A9B01B1
:10175000AC0188248394912C5701CC24C394D12CC0
:10176000E12CF12C870160E070E0CB0192CF20E00A
:1017700036EF41E558ECC501B4010E949E1B87FD80
:101780001AC020E030E543E458ECC501B4010E94E2
:101790003F1A87FF10C0E0909A02F12C20E030E55C
:1017A00043E458E4C501B4010E94D31920E030E0BD
:1017B00048EC52ECC8CF20E03FEC49E958E4C501C1
:1017C000B4010E943F1A181664F120E03CE742E998
:1017D00058E4C501B4010E949E1B181614F5C09070
:1017E0009A0281E0C826D12C20E03CE742E958E487
:1017F000C501B4010E94D21920E030E048EC52E467
:101800000E94A31B0E94B61A4601AA24A394B12CDD
:10181000CC24C394D12C7B018C0120E030E0A901C1
:10182000A2CF20E03FEC49E958ECC501B4010E9489
:101830009E1B87FD1AC020E03CE742E958ECC50139
:10184000B4010E943F1A87FF10C0C0909A02D12CA9
:1018500020E03CE742E958E4C501B4010E94D319F5
:1018600020E030E048EC52ECCBCF20E033EA4AEC09
:1018700058E4C501B4010E943F1A181634F120E063
:1018800030E543EC58E4C501B4010E949E1B1816D4
:10189000E4F420E030E543EC58E4C501B4010E94D3
:1018A000D21920E030E048EC52E40E94A31B0E94D1
:1018B000B61AC0909A0221E0C226D12C46015601E8
:1018C0007B018C019B01AC01E4CE20E033EA4AECC1
:1018D00058ECC501B4010E949E1B87FD1DC020E08D
:1018E00030E543EC58ECC501B4010E943F1A87FF74
:1018F00013C020E030E543EC58E4C501B4010E9478
:10190000D31920E030E048EC52EC0E94A31B0E9467
:10191000B61AC0909A02D1CF20E030E040E251E404
:10192000C501B4010E949E1B87FD3BC020E030E052
:1019300048E351E4C501B4010E943F1A18168CF126
:10194000C090C402D090C502E090C602F090C702D9
:101950004090D0025090D1026090D2027090D30299
:1019600020E030E040E251E4C501B4010E94D21908
:10197000AB01BC011F9281E18F931F9289E08F938D
:10198000EAE08E2E912CF8E0AF2EB12C930182016B
:1019900081E090E00E942F080F900F900F900F9021
:1019A0007ACE20E030E040EA51E4C501B4010E9463
:1019B0009E1B87FD35C020E030E04CEA51E4C501B4
:1019C000B4010E943F1A18165CF1C090C002D0907A
:1019D000C102E090C202F090C3024090CC0250904D
:1019E000CD026090CE027090CF0220E030E040EA5D
:1019F00051E4C501B4010E94D219AB01BC011F9290
:101A000080E18F931F9284E08F9325E0822E912CAA
:101A100032E0A32EB12C9301820182E090E0BACF94
:101A200020E030E040EF51E4C501B4010E949E1B6C
:101A300087FD31CE20E030E04CEF51E4C501B40128
:101A40000E943F1A18160CF426CEC090BC02D0900B
:101A5000BD02E090BE02F090BF024090C8025090DC
:101A6000C9026090CA027090CB0220E030E040EFE3
:101A700051E4C501B4010E94D219AB01BC011F920F
:101A80008FE08F931F9286E08F9387E0882E912CB2
:101A900093E0A92EB12C9301820183E090E07ACFEC
:101AA0002F923F924F925F926F927F928F929F926E
:101AB000AF92BF92CF92DF92EF92FF920F931F935C
:101AC000CF93DF9300D000D0CDB7DEB78DED92E09D
:101AD0000E94EC14892B79F041E070E060E08DED1C
:101AE00092E00E942C196093AC027093AD02809337
:101AF000AE029093AF026091AC027091AD02809102
:101B0000AE029091AF020E94060B1092B8021092A2
:101B1000B9021092BA021092BB021092B402109253
:101B2000B5021092B6021092B7021092B002109253
:101B3000B1021092B2021092B3021092A802109257
:101B4000A9021092AA021092AB0220E030E040E21B
:101B500051E46091A8027091A9028091AA0290912B
:101B6000AB020E943F1A87FF5AC081E10E943B14DA
:101B70000091160110911701801B910BBC01990F68
:101B8000880B990B0E94EE1A20E030E044EB53E4FE
:101B90000E94A31B6B017C016091A4027091A502BD
:101BA000601B710B072E000C880B990B0E94EE1A1C
:101BB0009B01AC01C701B6010E94441A9B01AC0114
:101BC0006091B8027091B9028091BA029091BB0203
:101BD0000E94D3196093B8027093B9028093BA023D
:101BE0009093BB0262E070E080E090E00E94CF132F
:101BF00020E030E040E85FE36091A8027091A90224
:101C00008091AA029091AB020E94D3196093A8021E
:101C10007093A9028093AA029093AB0296CF20E022
:101C200030E040E251E46091B8027091B9028091D5
:101C3000BA029091BB020E94441A6B017C0120E021
:101C400030E0A9010E949E1B181624F0F7FAF094C8
:101C5000F7F8F094C092B802D092B902E092BA02BA
:101C6000F092BB021092A8021092A9021092AA024E
:101C70001092AB0220E030E040E251E46091A80213
:101C80007091A9028091AA029091AB020E943F1A22
:101C900087FF5AC080E10E943B140091140110910B
:101CA0001501801B910BBC01990F880B990B0E94A9
:101CB000EE1A20E030E044EB53E40E94A31B6B01DA
:101CC0007C016091A2027091A302601B710B072E30
:101CD000000C880B990B0E94EE1A9B01AC01C70106
:101CE000B6010E94441A9B01AC016091B40270914C
:101CF000B5028091B6029091B7020E94D319609309
:101D0000B4027093B5028093B6029093B70262E07A
:101D100070E080E090E00E94CF1320E030E040E8E7
:101D20005FE36091A8027091A9028091AA0290914C
:101D3000AB020E94D3196093A8027093A90280930A
:101D4000AA029093AB0296CF20E030E040E251E44B
:101D50006091B4027091B5028091B6029091B70281
:101D60000E94441A6B017C0120E030E0A9010E942E
:101D70009E1B181624F0F7FAF094F7F8F094C0922E
:101D8000B402D092B502E092B602F092B70210927D
:101D9000A8021092A9021092AA021092AB0220E0AF
:101DA00030E040E251E46091A8027091A902809174
:101DB000AA029091AB020E943F1A87FF5AC08FE09F
:101DC0000E943B140091120110911301801B910B92
:101DD000BC01990F880B990B0E94EE1A20E030E0AD
:101DE00044EB53E40E94A31B6B017C016091A002B1
:101DF0007091A102601B710B072E000C880B990BD0
:101E00000E94EE1A9B01AC01C701B6010E94441A60
:101E10009B01AC016091B0027091B1028091B2025D
:101E20009091B3020E94D3196093B0027093B102F3
:101E30008093B2029093B30262E070E080E090E0A1
:101E40000E94CF1320E030E040E85FE36091A802F9
:101E50007091A9028091AA029091AB020E94D319BD
:101E60006093A8027093A9028093AA029093AB0298
:101E700096CF20E030E040E251E46091B0027091F2
:101E8000B1028091B2029091B3020E94441A6B0198
:101E90007C0120E030E0A9010E949E1B181624F06E
:101EA000F7FAF094F7F8F094C092B002D092B10231
:101EB000E092B202F092B3022AE332EE44E65BE42F
:101EC0006091AC027091AD028091AE029091AF0230
:101ED0000E943F1A811187C0C090B802D090B90209
:101EE000E090BA02F090BB022AE939E142EA53E4F9
:101EF000C701B6010E94D3194B015C0120E030E01C
:101F000044EB53E40E943F1A87FF22C389829A82DE
:101F1000AB82BC82BE016F5F7F4F90E080E00E9489
:101F2000DF00C090B402D090B502E090B602F0900D
:101F3000B7022AE939E142EA53E4C701B6010E9437
:101F4000D3194B015C0120E030E044EB53E40E94E4
:101F50003F1A87FF0AC389829A82AB82BC82BE0184
:101F60006F5F7F4F84E090E00E94DF00C090B0027E
:101F7000D090B102E090B202F090B3022AE939E1C8
:101F800042EA53E4C701B6010E94D3194B015C0138
:101F900020E030E044EB53E40E943F1A87FFF2C296
:101FA00089829A82AB82BC82BE016F5F7F4F88E0DC
:101FB00090E00E94DF006EE372E08DED92E00E94FF
:101FC000F51664EC72E090E080E00E948C0060EC1A
:101FD00072E084E090E00E948C006CEB72E088E09C
:101FE00090E00E948C0020E63BE147EB59E46091D1
:101FF000AC027091AD028091AE029091AF020E944E
:102000003F1A81112AC068EB72E090E080E00E94E4
:10201000DF0064EB72E084E090E00E94DF0060EBA0
:1020200072E088E090E00E94DF006EE372E08DEDE8
:1020300092E00E94F51664EC72E090E080E00E946D
:102040008C0060EC72E084E090E00E948C006CEB0D
:1020500072E088E090E00E948C0020E73BE147EBD3
:1020600059E46091AC027091AD028091AE02909102
:10207000AF020E943F1A811162C01A821982BE010A
:102080006F5F7F4F8CE090E00E9412010FEF13E032
:102090001A830983BE016F5F7F4F8EE090E00E943C
:1020A00012011A821982BE016F5F7F4F80E190E0BA
:1020B0000E9412011A830983BE016F5F7F4F82E184
:1020C00090E00E9412011A821982BE016F5F7F4F59
:1020D00084E190E00E9412011A830983BE016F5FC0
:1020E0007F4F86E190E00E94120162E472E08DED84
:1020F00092E00E94F51666E171E08CE090E00E94AB
:10210000B20064EA72E08EE090E00E94B20064E106
:1021100071E080E190E00E94B20062EA72E082E148
:1021200090E00E94B20062E171E084E190E00E94E0
:10213000B20060EA72E086E190E00E94B2002BE516
:1021400032EE44E65BE46091AC027091AD028091A6
:10215000AE029091AF020E943F1A81111DC041E171
:1021600050E069E070E088E090E00E9493058823E9
:1021700009F415C289E799EEA6EFB2E489839A8340
:10218000AB83BC83BE016F5F7F4F84E690E00E940B
:10219000DF0081E080939A0228E73BE147EB59E4B6
:1021A0006091AC027091AD028091AE029091AF024D
:1021B0000E943F1A811121C041E150E069E070E0C6
:1021C00088E090E00E949305882309F4F6C189E72E
:1021D00099EEA6EFB2E489839A83AB83BC83BE01F8
:1021E0006F5F7F4F84E690E00E94DF0081E0809384
:1021F0009A0280919A020E94440428E63BE147EB50
:1022000059E46091AC027091AD028091AE02909160
:10221000AF020E943F1A8111A0C0712C612C6FE0A7
:10222000262E76E0372EE1E14E2EF9E05F2EC090AB
:10223000BC02D090BD02E090BE02F090BF020091BF
:10224000C8021091C9022091CA023091CB021F929C
:102250002F921F923F9287E0882E912C93E0A92E17
:10226000B12C4AE959E969E97FE383E090E00E94F3
:102270002F08C090BC02D090BD02E090BE02F0904A
:10228000BF020091C8021091C9022091CA02309188
:10229000CB021F922F921F923F924DEC5CEC6CE4AC
:1022A0007EE383E090E00E942F08C090C402D090AB
:1022B000C502E090C602F090C7020091D0021091D2
:1022C000D1022091D2023091D3021F924F921F92DD
:1022D0005F924AE0842E912C58E0A52EB12C4AE959
:1022E00059E969E97FE381E090E00E942F08C090FE
:1022F000C402D090C502E090C602F090C7020091DF
:10230000D0021091D1022091D2023091D3021F92BB
:102310004F921F925F924DEC5CEC6CE47EE381E0A7
:1023200090E00E942F0865E572E08DED92E00E943A
:10233000E2168FEF681A780A4AE050E0B3018DED9B
:1023400092E00E94A7170FB6F894DEBF0FBECDBF74
:1023500094E66916710409F06ACF8090B8029090F3
:10236000B902A090BA02B090BB02C090C402D09053
:10237000C502E090C602F090C702A7019601C50110
:10238000B4010E943F1A87FF26C1A5019401C7012D
:10239000B6010E94D21922EA3EEF4DE85BE30E94AB
:1023A000A31B2CEF39EA41E95FE30E94A31B609372
:1023B000D0027093D1028093D2029093D302809086
:1023C000B4029090B502A090B602B090B702C0904F
:1023D000C002D090C102E090C202F090C302A701F7
:1023E0009601C501B4010E943F1A87FF17C1A501DC
:1023F0009401C701B6010E94D21922EA3EEF4DE8CE
:102400005BE30E94A31B2CEF39EA41E95FE30E94E2
:10241000A31B6093CC027093CD028093CE02909365
:10242000CF028090B0029090B102A090B202B09022
:10243000B302C090BC02D090BD02E090BE02F0900A
:10244000BF02A7019601C501B4010E943F1A87FF90
:1024500008C1A5019401C701B6010E94D21922EA60
:102460003EEF4DE85BE30E94A31B2CEF39EA41E904
:102470005FE30E94A31B6093C8027093C90280931C
:10248000CA029093CB026CE572E08DED92E00E945F
:10249000E2164091D0025091D1026091D202709127
:1024A000D30223E030E08DED92E00E94B01866E7A1
:1024B00072E08DED92E00E94E2164091CC025091C4
:1024C000CD026091CE027091CF0223E030E08DED1D
:1024D00092E00E94B01866E772E08DED92E00E94F3
:1024E000E2164091C8025091C9026091CA027091EF
:1024F000CB0223E030E08DED92E00E94B01866E759
:1025000072E08DED92E00E94F5161092AC021092EE
:10251000AD021092AE021092AF028DED92E00E94D9
:1025200058150F900F900F900F90DF91CF911F9142
:102530000F91FF90EF90DF90CF90BF90AF909F9062
:102540008F907F906F905F904F903F902F90089565
:1025500023E333E34FE052E4C701B6010E94D219EE
:1025600069837A838B839C83D5CC23E333E34FE069
:1025700052E4C701B6010E94D21969837A838B8322
:102580009C83EDCC23E333E34FE052E4C701B60173
:102590000E94D21969837A838B839C8305CD19822B
:1025A0001A821B821C82BE016F5F7F4F84E690E01F
:1025B0000E94DF0010929A02EFCD19821A821B82CC
:1025C0001C82BE016F5F7F4F84E690E00E94DF00B7
:1025D00010929A020ECEA7019601C501B4010E9485
:1025E0009E1B87FD0EC0A7019601C501B4010E9484
:1025F000D21920E030E040E251E40E943F1A87FD0A
:10260000C4CEA501940160E070E084EB93E40E94E5
:10261000D219A70196010E94D319BDCEA701960138
:10262000C501B4010E949E1B87FD0EC0A701960143
:10263000C501B4010E94D21920E030E040E251E42B
:102640000E943F1A87FDD3CEA501940160E070E09F
:1026500084EB93E40E94D219A70196010E94D3193A
:10266000CCCEA7019601C501B4010E949E1B87FD37
:102670000EC0A7019601C501B4010E94D21920E045
:1026800030E040E251E40E943F1A87FDE2CEA5010E
:10269000940160E070E084EB93E40E94D219A701FA
:1026A00096010E94D319DBCE1F920F920FB60F92A4
:1026B00011242F933F938F939F93AF93BF93809158
:1026C000D9029091DA02A091DB02B091DC02309144
:1026D000D80223E0230F2D3768F126E8230F029656
:1026E000A11DB11D2093D8028093D9029093DA02E4
:1026F000A093DB02B093DC028091D4029091D502CA
:10270000A091D602B091D7020196A11DB11D809370
:10271000D4029093D502A093D602B093D702BF9172
:10272000AF919F918F913F912F910F900FBE0F907E
:102730001F9018950196A11DB11DD4CF2FB7F89405
:102740006091D9027091DA028091DB029091DC02F3
:102750002FBF08953FB7F8948091D4029091D5028D
:10276000A091D602B091D70226B5A89B05C02F3FF5
:1027700019F00196A11DB11D3FBFBA2FA92F982FA7
:102780008827BC01CD01620F711D811D911D42E0A2
:10279000660F771F881F991F4A95D1F708958F926A
:1027A0009F92AF92BF92CF92DF92EF92FF926B0116
:1027B0007C010E94AA134B015C01C114D104E10405
:1027C000F104E9F00E94D1190E94AA13681979094D
:1027D0008A099B09683E73408105910570F321E0E9
:1027E000C21AD108E108F10888EE880E83E0981E2D
:1027F000A11CB11CC114D104E104F10429F7FF901C
:10280000EF90DF90CF90BF90AF909F908F90089502
:102810008230910538F0880F991F880F991F05970E
:102820000197F1F70895789484B5836084BD85B5E8
:10283000836085BDEEE6F0E0808181608083E1E821
:10284000F0E082E08083808181608083E0E8F0E0D6
:10285000808181608083E1EBF0E08081846080830F
:10286000E0EBF0E080818160808387E880937A00EC
:102870001092C1000895883020F08D3008F48DE06A
:102880008E502091180190E4299F900111248770A7
:10289000822B80937C0080917A00806480937A0000
:1028A00080917A0086FDFCCF80917800909179002C
:1028B0000895843081F028F48230E9F08330F9F013
:1028C0000895883071F0893091F08530B9F48091A5
:1028D00080008F7D03C0809180008F77809380007F
:1028E00008958091B0008F778093B0000895809113
:1028F000B0008F7DF9CF84B58F7784BD089584B5FE
:102900008F7DFBCFCF93DF9390E0FC01E158FF4F29
:1029100024918A569F4FFC0184918823C9F090E04E
:10292000880F991FFC01E954FF4FA591B491FC0158
:10293000E355FF4FC591D49161110DC09FB7F89435
:102940008C91209582238C938881282328839FBF94
:10295000DF91CF910895623051F49FB7F8943C9184
:10296000822F809583238C93E8812E2BEFCF8FB716
:10297000F894EC912E2B2C938FBFEACF1F93CF931B
:10298000DF93282F30E0F901E859FF4F8491F901D6
:10299000E158FF4FD491F901EA56FF4FC491CC237F
:1029A000A9F0162F81110E945914EC2FF0E0EE0FC0
:1029B000FF1FE355FF4FA591B4918FB7F894EC91A9
:1029C000111108C0D095DE23DC938FBFDF91CF912A
:1029D0001F910895DE2BF8CFFC01918D228D892F58
:1029E00090E0805C9F4F821B91098F739927089517
:1029F000FC01918D828D981731F0828DE80FF11DC9
:102A0000858D90E008958FEF9FEF0895FC01918DE3
:102A1000828D981761F0A28DAE0FBF2FB11D5D960C
:102A20008C91928D9F5F9F73928F90E008958FEFAE
:102A30009FEF0895FC01538D448D252F30E0842FA6
:102A400090E0821B930B541710F0CF9608950197D6
:102A500008958FE696E1892B49F080E090E0892B7C
:102A600029F00E946F1681110C9400000895FC015A
:102A7000A48DA80FB92FB11DA35ABF4F2C91848DDF
:102A800090E001968F739927848FA689B7892C933C
:102A9000A089B1898C9180648C93938D848D9813D7
:102AA00006C00288F389E02D80818F7D80830895A0
:102AB000CF93DF93EC01888D8823B9F0AA89BB8975
:102AC000E889F9898C9185FD03C0808186FD0DC060
:102AD0000FB607FCF7CF8C9185FFF2CF808185FF81
:102AE000EDCFCE010E943715E9CFDF91CF91089548
:102AF000EF92FF920F931F93CF93DF93EC0181E04E
:102B0000888F9B8D8C8D981316C0E889F9898081F8
:102B100085FF11C0EE89FF896083E889F98980818A
:102B20008064808381E090E0DF91CF911F910F91CD
:102B3000FF90EF900895F62E0B8D10E00F5F1F4F62
:102B40000F731127E02E8C8D8E110CC00FB607FC71
:102B5000FACFE889F989808185FFF5CFCE010E94FF
:102B60003715F1CFEB8DEC0FFD2FF11DE35AFF4F21
:102B7000F0820B8FEA89FB8980818062D2CFCF926D
:102B8000DF92EF92FF921F93CF93DF93EC016A01E4
:102B90007B01122FE889F98982E08083C11481EEDC
:102BA000D806E104F104A1F060E079E08DE390E063
:102BB000A70196010E94151C2150310941095109B4
:102BC0005695479537952795211580E1380798F058
:102BD000E889F989108260E874E88EE190E0A70145
:102BE00096010E94151C2150310941095109569541
:102BF000479537952795EC85FD853083EE85FF85D4
:102C00002083188EEC89FD891083EA89FB898081F5
:102C100088698083EA89FB8980818F7D8083DF9149
:102C2000CF911F91FF90EF90DF90CF9008951F926A
:102C30000F920FB60F9211242F938F939F93EF93C0
:102C4000FF93E091ED02F091EE028081E091F302BA
:102C5000F091F40282FD1BC090818091F6028F5F9B
:102C60008F732091F702821741F0E091F602F0E0B5
:102C7000E352FD4F958F8093F602FF91EF919F9164
:102C80008F912F910F900FBE0F901F9018958081FC
:102C9000F4CF1F920F920FB60F9211242F933F93F0
:102CA0004F935F936F937F938F939F93AF93BF9354
:102CB000EF93FF938DED92E00E943715FF91EF9116
:102CC000BF91AF919F918F917F916F915F914F9144
:102CD0003F912F910F900FBE0F901F9018958DED83
:102CE00092E00E94EC1421E0892B09F420E0822F6D
:102CF0000895EDEDF2E01382128288EE93E0A0E0F9
:102D0000B0E084839583A683B7838CE792E09183B8
:102D1000808385EC90E09587848784EC90E09787AA
:102D2000868780EC90E0918B808B81EC90E0938B98
:102D3000828B82EC90E0958B848B86EC90E0978B75
:102D4000868B118E128E138E148E0895AF92BF92C1
:102D5000CF92DF92EF92FF920F931F93CF93DF9367
:102D60006C017B018B01040F151FEB015E01AE1896
:102D7000BF08C017D10759F06991D601ED91FC91B8
:102D80000190F081E02DC6010995892B79F7C501E5
:102D9000DF91CF911F910F91FF90EF90DF90CF9037
:102DA000BF90AF900895FB0101900020E9F73197A3
:102DB000AF01461B570BDC01ED91FC910280F381C2
:102DC000E02D09946115710511F00C94D31690E073
:102DD00080E00895DC01ED91FC910190F081E02DFF
:102DE00009946AE872E00C94D3160F931F93CF9363
:102DF000DF938C01D0E0C0E06115710519F00E94ED
:102E0000D316EC01C8010E94F1168C0F9D1FDF91B3
:102E1000CF911F910F9108958F929F92AF92BF9281
:102E2000EF92FF920F931F93CF93DF93CDB7DEB74F
:102E3000A1970FB6F894DEBF0FBECDBF7C01FA019B
:102E4000CB0119A2223008F42AE08E010F5D1F4F3A
:102E5000822E912CB12CA12CBF01A50194010E94BE
:102E6000151CF901CA016A300CF5605DD8016E933A
:102E70008D01232B242B252B79F790E080E01097F0
:102E800021F0BD01C7010E94D316A1960FB6F89498
:102E9000DEBF0FBECDBFDF91CF911F910F91FF908D
:102EA000EF90BF90AF909F908F900895695CDECFB8
:102EB000CF92DF92EF92FF920F931F93CF93DF9306
:102EC0002115310581F4DC01ED91FC910190F08137
:102ED000E02D642FDF91CF911F910F91FF90EF9024
:102EE000DF90CF9009942A30310501F52AE077FF71
:102EF0001DC06A017B01EC016DE20E94EA168C01A3
:102F000044275527BA014C195D096E097F092AE04B
:102F1000CE010E940C17800F911FDF91CF911F915E
:102F20000F91FF90EF90DF90CF900895DF91CF91B8
:102F30001F910F91FF90EF90DF90CF900C940C17A2
:102F40009A01AB01770F660B770B0C9458170F9310
:102F50001F93CF93DF93EC010E94A0178C01CE0149
:102F60000E94F116800F911FDF91CF911F910F9159
:102F700008952115310541F4DC01ED91FC9101909A
:102F8000F081E02D642F09940C940C179A01AB0189
:102F900070E060E00C94B9172F923F924F925F92CD
:102FA0006F927F928F929F92AF92BF92CF92DF9259
:102FB000EF92FF921F93CF93DF93EC016A017B01A5
:102FC000722EAB019601CB01B6010E94101C6DE878
:102FD00072E0811126C046015701E894B7F82FEF3F
:102FE0003FEF4FE75FE7C501B4010E94101C81115C
:102FF0000CC02FEF3FEF4FE75FE7C501B4010E9420
:103000003F1A61E972E0181664F02FEF3FEF4FE7C7
:103010005FE4C701B6010E949E1B1816B4F465E96F
:1030200072E0CE01DF91CF911F91FF90EF90DF9082
:10303000CF90BF90AF909F908F907F906F905F9058
:103040004F903F902F900C94D3162FEF3FEF4FE708
:103050005FECC701B6010E943F1A87FDE0CF20E078
:1030600030E0A901C701B6010E943F1A312C212C82
:1030700087FF09C06DE2CE010E94EA161C01F7FA33
:10308000F094F7F8F09410E060E070E080E09FE3E7
:10309000711641F020E030E040E251E40E94441A11
:1030A0001F5FF6CFA70196010E94D3192B013C01A7
:1030B0000E94BD1A4B015C012AE0BC01A401CE01B3
:1030C0000E940C177C01E20CF31C1123B1F1C50125
:1030D000B4010E94EC1A9B01AC01C301B2010E9431
:1030E000D2194B015C016EE2CE010E94EA16E80E95
:1030F000F91E115010F120E030E040E251E4C5012A
:10310000B4010E94A31B2B013C010E94BD1A4B017C
:103110004AE050E0CE010E94C617E80EF91EB40145
:1031200090E080E00E94EC1A9B01AC01C301B20167
:103130000E94D2194B015C01DCCFC701DF91CF9116
:103140001F91FF90EF90DF90CF90BF90AF909F9036
:103150008F907F906F905F904F903F902F90089549
:103160000C94CC170F931F93CF93DF93EC010E9425
:10317000CC178C01CE010E94F116800F911FDF91B8
:10318000CF911F910F9108950F931F93CF93DF93CA
:10319000EC010E949E13688779878A879B87E88164
:1031A000F9810484F585E02DCE01099597FF15C0BE
:1031B0000E949E13088519852A853B85601B710B2B
:1031C000820B930B0C811D812E813F81601771074B
:1031D0008207930720F38FEF9FEFDF91CF911F912D
:1031E0000F910895FF920F931F93CF93DF93EC01FC
:1031F0008B01F42ECE010E94C41897FD1DC08D32A4
:103200009105D1F09C01205331092A303105A0F0FD
:10321000FF2019F08E32910579F00130110551F03F
:103220000230110589F48D30910571F05CF4099735
:10323000029750F08FEF9FEFDF91CF911F910F9189
:10324000FF9008958097B1F7E881F9810284F385B2
:10325000E02DCE010995CECF4F925F926F927F9273
:10326000AF92BF92CF92DF92EF92FF920F931F9394
:10327000CF93DF935C01042F41E00E94F218FC0120
:1032800060E070E0CB01F7FD69C0412C512C80E873
:10329000682E8FE3782EC12CD12C7601C0E0D0E0CF
:1032A000002E000C110B0E171F0759F1ED32F1051E
:1032B00009F463C0EE32F10509F461C0CF01C09793
:1032C0000A97F8F4AAE0B0E0A70196010E943D1C1D
:1032D0006F01FF0FEE08FF08C60ED71EE81EF91E8D
:1032E00080E3C81AD108E108F108CC2351F02DEC95
:1032F0003CEC4CEC5DE3C301B2010E94A31B2B012B
:103300003C01D501ED91FC910284F385E02DC501CE
:103310000995C5010E94C418FC01C0970A9718F2CC
:10332000EE32F10519F4CC2309F4BDCF0E171F07B7
:1033300009F4B9CFDD2341F0F094E094D094C09427
:10334000C11CD11CE11CF11CC701B6010E94EE1A80
:10335000CC2321F0A30192010E94A31BDF91CF9106
:103360001F910F91FF90EF90DF90CF90BF90AF90A3
:103370007F906F905F904F900895D1E0C2CFC1E0F1
:10338000C0CF08950E9413140E94C1190E943901F0
:10339000C9E2D5E10E94500D2097E1F30E94291562
:1033A000F9CF08955058BB27AA270E94EA190C9418
:1033B000641B0E94561B38F00E945D1B20F039F4FC
:1033C0009F3F19F426F40C94531B0EF4E095E7FB91
:1033D0000C944D1BE92F0E94751B58F3BA17620716
:1033E00073078407950720F079F4A6F50C94971BD2
:1033F0000EF4E0950B2EBA2FA02D0B01B901900110
:103400000C01CA01A0011124FF27591B99F0593F53
:1034100050F4503E68F11A16F040A22F232F342F9B
:103420004427585FF3CF469537952795A795F040E9
:103430005395C9F77EF41F16BA0B620B730B840BFE
:10344000BAF09150A1F0FF0FBB1F661F771F881FB6
:10345000C2F70EC0BA0F621F731F841F48F487950E
:1034600077956795B795F7959E3F08F0B0CF939500
:10347000880F08F09927EE0F9795879508950E9479
:10348000291B08F481E008950E94581A0C94641BCB
:103490000E945D1B58F00E94561B40F029F45F3FCC
:1034A00029F00C944D1B51110C94981B0C94531B38
:1034B0000E94751B68F39923B1F3552391F3951B73
:1034C000550BBB27AA2762177307840738F09F5F45
:1034D0005F4F220F331F441FAA1FA9F335D00E2EB2
:1034E0003AF0E0E832D091505040E695001CCAF71F
:1034F0002BD0FE2F29D0660F771F881FBB1F2617E2
:1035000037074807AB07B0E809F0BB0B802DBF01B8
:10351000FF2793585F4F3AF09E3F510578F00C9487
:103520004D1B0C94981B5F3FE4F3983ED4F38695B3
:1035300077956795B795F7959F5FC9F7880F911DA8
:103540009695879597F90895E1E0660F771F881F94
:10355000BB1F621773078407BA0720F0621B730B47
:10356000840BBA0BEE1F88F7E09508950E94BD1AF0
:103570006894B1110C94981B08950E947D1B88F0EB
:103580009F5798F0B92F9927B751B0F0E1F0660F27
:10359000771F881F991F1AF0BA95C9F714C0B13068
:1035A00091F00E94971BB1E008950C94971B672F30
:1035B000782F8827B85F39F0B93FCCF38695779597
:1035C0006795B395D9F73EF4909580957095619580
:1035D0007F4F8F4F9F4F0895E89409C097FB3EF4AB
:1035E00090958095709561957F4F8F4F9F4F992350
:1035F000A9F0F92F96E9BB279395F69587957795CE
:103600006795B795F111F8CFFAF4BB0F11F460FF8D
:103610001BC06F5F7F4F8F4F9F4F16C0882311F0E5
:1036200096E911C0772321F09EE8872F762F05C0F9
:10363000662371F096E8862F70E060E02AF09A9594
:10364000660F771F881FDAF7880F9695879597F989
:103650000895990F0008550FAA0BE0E8FEEF161623
:103660001706E807F907C0F012161306E407F50776
:1036700098F0621B730B840B950B39F40A2661F0EA
:10368000232B242B252B21F408950A2609F4A1408D
:10369000A6958FEF811D811D089597F99F6780E89A
:1036A00070E060E008959FEF80EC089500240A9494
:1036B0001616170618060906089500240A9412160D
:1036C0001306140605060895092E0394000C11F440
:1036D000882352F0BB0F40F4BF2B11F460FF04C0ED
:1036E0006F5F7F4F8F4F9F4F089557FD9058440F46
:1036F000551F59F05F3F71F04795880F97FB991F51
:1037000061F09F3F79F0879508951216130614060D
:10371000551FF2CF4695F1DF08C01616170618069A
:10372000991FF1CF86957105610508940895E89475
:10373000BB2766277727CB0197F908950E94291B9D
:1037400008F48FEF08950E94B61B0C94641B0E942E
:10375000561B38F00E945D1B20F0952311F00C944D
:103760004D1B0C94531B11240C94981B0E94751B29
:1037700070F3959FC1F3950F50E0551F629FF001C4
:10378000729FBB27F00DB11D639FAA27F00DB11DDD
:10379000AA1F649F6627B00DA11D661F829F222766
:1037A000B00DA11D621F739FB00DA11D621F839FED
:1037B000A00D611D221F749F3327A00D611D231FC3
:1037C000849F600D211D822F762F6A2F11249F5711
:1037D00050409AF0F1F088234AF0EE0FFF1FBB1F14
:1037E000661F771F881F91505040A9F79E3F5105D3
:1037F00080F00C944D1B0C94981B5F3FE4F3983EB3
:10380000D4F3869577956795B795F795E7959F5F7C
:10381000C1F7FE2B880F911D9695879597F908950E
:103820000E94291B880B990B0895A1E21A2EAA1B4E
:10383000BB1BFD010DC0AA1FBB1FEE1FFF1FA21760
:10384000B307E407F50720F0A21BB30BE40BF50B5D
:10385000661F771F881F991F1A9469F760957095E6
:10386000809590959B01AC01BD01CF010895EE0FAD
:10387000FF1F0590F491E02D09940E94481CA59F1C
:10388000900DB49F900DA49F800D911D112408955B
:10389000A29FB001B39FC001A39F700D811D112491
:1038A000911DB29F700D811D1124911D0895F999EC
:1038B000FECF92BD81BDF89A992780B50895262F35
:1038C000F999FECF1FBA92BD81BD20BD0FB6F89405
:0E38D000FA9AF99A0FBE01960895F894FFCF68
:1038DE000700030006000500020004000A000800AD
:1038EE000900FF03FF03FF03010A0005000700089C
:1038FE000002000300090004000600110010000F72
:10390E0000E6ADA3E59CA8E6A0A1E58786E7BC96F8
:10391E00E7A081E599A82E2E2E0031E58FB7E7BCE2
:10392E0096E7A081E599A8202D20E69C80E5B08F32
:10393E00E580BC3A20002C20E69C80E5A4A7E5801B
:10394E00BC3A200032E58FB7E7BC96E7A081E59937
:10395E00A8202D20E69C80E5B08FE580BC3A2000A3
:10396E0033E58FB7E7BC96E7A081E599A8202D2017
:10397E00E69C80E5B08FE580BC3A2000E6A0A1E58C
:10398E008786E68890E58A9F00E6A0A1E58786E512
:10399E00A4B1E8B4A5EFBC8100E58F8DE59091E56B
:1039AE0085B3E997AD3100E58F8DE59091E689936A
:1039BE00E5BC803200E58F8DE59091E585B3E99702
:1039CE00AD3300E58F8DE59091E68993E5BC8034AB
:1039DE0000E58F8DE59091E585B3E997AD35004D06
:1039EE00617820617474656D7074732072656163A3
:1039FE006865642C2065786974696E6700506F7312
:103A0E006974696F6E2072656163686564005053F6
:103A1E004500456E636F646572204D696E2F4D6172
:103A2E0078205345004C6F6F703A200057616E64DA
:103A3E006572657254696C7465724D3534413230FD
:103A4E003235303631334100000000007815A616AD
:103A5E001A155815EC140615F8140D0A006E616E41
:0A3A6E0000696E66006F76660000C6
:00000001FF
