:100000000C9462000C948A000C948A000C948A0070
:100010000C948A000C948A000C948A000C948A0038
:100020000C948A000C948A000C948A000C948A0028
:100030000C948A000C948A000C948A000C948A0018
:100040000C94DB090C948A000C94020D0C94340D72
:100050000C948A000C948A000C948A000C948A00F8
:100060000C948A000C948A0000000009000302002E
:10007000000405080000000000000000000000016E
:10008000020408102040800102040810200102042C
:100090000810204080400404040404040404020204
:1000A000020202020303030303030202030000002F
:1000B00000250028002B0000000000240027002A53
:1000C0000000640D11241FBECFEFD4E0DEBFCDBF12
:1000D00011E0A0E0B1E0EAE8F5E202C005900D927F
:1000E000A636B107D9F722E0A6E6B1E001C01D921D
:1000F000A235B207E1F710E0C2E6D0E004C02197D4
:10010000FE010E948D12C136D107C9F70E94181056
:100110000C94C3120C9400000C94AD120C94B51204
:10012000CF92DF92EF92FF92CF93DF9361E087E06F
:100130000E94660B61E086E00E94660B61E083E04E
:100140000E94660B61E087E00E94A20B60E083E101
:100150000E94660B61E085E00E94660B26E040E0AD
:100160005BE460E070E085EB91E00E94AA0C1092E5
:10017000A5011092A40185B5887F816085BDC091DD
:100180008601D0918701CE010E948C00682F70E01B
:1001900090E080E00E94421160937A0170937B01AD
:1001A00080937C0190937D01CE0101960E948C008A
:1001B000682F70E090E080E00E944211609372012D
:1001C000709373018093740190937501CE01029630
:1001D0000E948C00682F70E06C597F4F072E000C36
:1001E000880B990B0E9444116093760170937701FC
:1001F0008093780190937901CE0103960E948C0040
:10020000682F70E090E080E00E94421160936E01E0
:1002100070936F0180937001909371012496CE01C9
:100220000E948C00682F70E090E080E00E944211F4
:1002300020E030E048EC52E40E9495108111D8C0D3
:1002400080E090E0A8ECB2E480936A0190936B01A7
:10025000A0936C01B0936D0120E030E048EC52E4D3
:100260006091720170917301809174019091750198
:100270000E949A1020917A0130917B0140917C017B
:1002800050917D010E9429106B017C01C092820176
:10029000D0928301E0928401F092850120E030E069
:1002A00048EC52E460916E0170916F018091700191
:1002B000909171010E949A102091760130917701FE
:1002C00040917801509179010E94291060937E013C
:1002D00070937F01809380019093810120E030E052
:1002E00044EB52E4C701B6010E94F4111816A4F5BC
:1002F00080E090E0A0EAB1E48093820190938301D2
:10030000A0938401B093850180937A0190937B013F
:10031000A0937C01B0937D01109272011092730141
:10032000109274011092750164E1809186019091A0
:1003300087010E948E00609172017091730180911B
:100340007401909175010E94131180918601909122
:10035000870101960E948E0020E030E046E953E4D8
:1003600060917E0170917F01809180019091810167
:100370000E94F41118160CF048C080E090E0ACED3B
:10038000B2E480937E0190937F01A0938001B093AB
:1003900081018093760190937701A0937801B093C7
:1003A000790110926E0110926F01109270011092FB
:1003B000710180918601909187016AE002960E9406
:1003C0008E0060916E0170916F018091700190912B
:1003D00071010E941311809186019091870103960B
:1003E000DF91CF91FF90EF90DF90CF900C948E0033
:1003F00010926A0110926B0110926C0110926D01C3
:1004000060E0CE010E948E0027CFDF91CF91FF9058
:10041000EF90DF90CF9008954F925F926F927F920E
:100420008F929F92AF92BF92CF92DF92EF92FF9204
:10043000CF93DF9300D000D0CDB7DEB7E090860138
:10044000F090870124E0E20EF11CC7010E948C00AD
:10045000682F70E090E080E00E94421160936A0192
:1004600070936B0180936C0190936D0120E030E0FC
:1004700048EC52E40E949510882309F492C010922F
:100480006A0110926B0110926C0110926D0180E074
:1004900094E0A6EAB7E48093660190936701A09385
:1004A0006801B093690160E0C7010E948E0080E599
:1004B00090E09093A7018093A60110928C01109276
:1004C0008D0110928E0110928F011092880110926E
:1004D000890110928A0110928B011092A001109252
:1004E000A1011092A2011092A30120E030E040EAA5
:1004F00051E46091A0017091A1018091A2019091BD
:10050000A3010E94951087FF5BC083E10E94C20A8D
:10051000BC01990F880B990B0E94441120E030E038
:1005200040EA50E40E94F91120E030E040E85AE34C
:100530000E94F91129E831E440E450E40E94F911E5
:100540009B01AC0160918C0170918D0180918E01B5
:1005500090918F010E94291060938C0170938D01FE
:1005600080938E0190938F0160E471E080E090E0D1
:100570000E94560A20E030E040E85FE36091A0016D
:100580007091A1018091A2019091A3010E94291074
:100590006093A0017093A1018093A2019093A301A5
:1005A000A4CF80E094E0A6E2B8E480936601909343
:1005B0006701A0936801B093690185E090E079CF6D
:1005C00020E030E040EA51E460918C0170918D01AF
:1005D00080918E0190918F010E949A106B017C0195
:1005E00020E030E0A9010E94F411181624F0F7FA77
:1005F000F094F7F8F094C0929401D0929501E092B3
:100600009601F092970185EB91E00E94D00B892B27
:1006100079F041E070E060E085EB91E00E94B60F78
:100620006093A8017093A9018093AA019093AB01F4
:100630008091A8019091A901A091AA01B091AB016C
:10064000873C9E40A741B105A1F480E090E0A8EC72
:10065000B2E480936A0190936B01A0936C01B09314
:100660006D01809186019091870164E604960E9455
:100670008E008091A8019091A901A091AA01B0914A
:10068000AB01863C9E40A741B10581F410926A01FE
:1006900010926B0110926C0110926D018091860195
:1006A0009091870160E004960E948E008091A801DD
:1006B0009091A901A091AA01B091AB018136934E0E
:1006C000A641B10509F0D4C0E0908601F090870101
:1006D000C7010E948C00682F70E090E080E00E94CB
:1006E00042114B015C0180927A0190927B01A092B1
:1006F0007C01B0927D01C70101960E948C00682F99
:1007000070E090E080E00E9442112B013C01409299
:100710007201509273016092740170927501C70169
:1007200002960E948C00682F70E06C597F4F072E54
:10073000000C880B990B0E94441169837A838B8388
:100740009C836093760170937701809378019093F6
:100750007901C70103960E948C00682F70E090E039
:1007600080E00E9442116B017C01C0926E01D09228
:100770006F01E0927001F092710120E030E048ECEE
:1007800052E4C301B2010E949A10A50194010E9493
:100790002910609382017093830180938401909368
:1007A000850120E030E048EC52E4C701B6010E9428
:1007B0009A1029813A814B815C810E9429106093B3
:1007C0007E0170937F01809380019093810161E0AD
:1007D00071E085EB91E00E94CD0D40918201509136
:1007E0008301609184017091850122E030E085EB06
:1007F00091E00E943A0F6CE171E085EB91E00E947C
:10080000CD0D40917E0150917F01609180017091EA
:10081000810122E030E085EB91E00E943A0F6CE12B
:1008200071E085EB91E00E94CD0D80E10E94C20A4B
:10083000BC01990F880B990B0E9444112DEC3CECE4
:100840004CE453E40E949A1020E030E040E952E486
:100850000E94F911AB01BC0122E030E085EB91E090
:100860000E943A0F6CE171E085EB91E00E94E00D8F
:100870008091A8019091A901A091AA01B091AB012A
:100880000197A109B1098F3F9105A105B10598F420
:1008900085B5887F816085BD6091A8017091A901AF
:1008A00085E00E94E00A8091A8019091A9019093AF
:1008B000A5018093A4018091A8019091A901A09124
:1008C000AA01B091AB018F309742A105B10549F45F
:1008D00070E060E085E00E94E00A1092A5011092AD
:1008E000A4016091A8017091A9018091AA01909141
:1008F000AB016B017C01A0E1CA1AA7E2DA0AE108A8
:10090000F108B0E3CB16B5E7DB06E104F10408F02B
:1009100069C00E94441120E030E44CE156E40E949A
:10092000281020E030E048EC52E40E949A106B015D
:100930007C01C0928201D0928301E0928401F09206
:1009400085010E940C114B01072E000C880B990B9E
:100950000E9444119B01AC0120937A0130937B01EA
:1009600040937C0150937D01C701B6010E9428107D
:1009700020E030E048EC52E40E94F91160937201EB
:10098000709373018093740190937501682D809129
:100990008601909187010E948E0060917201709192
:1009A000730180917401909175010E9413118091DF
:1009B00086019091870101960E948E006EE171E0A0
:1009C00085EB91E00E94CD0D409182015091830111
:1009D000609184017091850122E030E085EB91E027
:1009E0000E943C0F6091A8017091A9018091AA0119
:1009F0009091AB016B017C0120E4C21A2CE9D20A70
:100A0000E108F108A8EBCA16A8E8DA06E104F10447
:100A100008F074C00E94441120E030E44CE157E437
:100A20000E94281020E030E048EC52E40E949A1026
:100A30004B015C0180927E0190927F01A092800127
:100A4000B09281010E940C11072E000C880B990BAB
:100A50000E9444116B017C01C0927601D092770113
:100A6000E0927801F0927901AC019B01C501B401DB
:100A70000E94281020E030E048EC52E40E94F91176
:100A800060936E0170936F01809370019093710178
:100A900020E030E048EC52E4C701B6010E94281083
:100AA0000E941311809186019091870102960E9405
:100AB0008E0060916E0170916F0180917001909134
:100AC00071010E9413118091860190918701039614
:100AD0000E948E006FE271E085EB91E00E94CD0DE7
:100AE00040917E0150917F01609180017091810160
:100AF00022E030E085EB91E00E943C0F8091A8015C
:100B00009091A901A091AA01B091AB01893E9340B7
:100B1000A105B10509F0A0C170E060E085E00E9488
:100B2000E00A85B5887F836085BD60E083E00E9430
:100B3000A20B60E087E00E94A20B10929C01109231
:100B40009D0110929E0110929F0180E090E0AAE723
:100B5000B5E48093A0019093A101A093A201B0936A
:100B6000A30120E030E0A9016091A0017091A101F2
:100B70008091A2019091A3010E94F41118160CF02B
:100B8000B7C080E10E94C20ABC01990F880B990B83
:100B90000E9444112DEC3CEC4CE453E40E949A106A
:100BA00020E030E040E952E40E94F91120917E01FA
:100BB00030917F0140918001509181010E94F41198
:100BC00018160CF495C061E086E00E94A20B20E0AC
:100BD00030E040EA51E46091A0017091A101809160
:100BE000A2019091A3010E949A106B017C01609177
:100BF000A6017091A701072E000C880B990B0E948B
:100C000044119B01AC01C701B6010E9429100E944A
:100C10001311CB010E948F0A60E086E00E94A20BB4
:100C200020E030E040EA51E46091A0017091A10120
:100C30008091A2019091A3010E949A106B017C0106
:100C40006091A6017091A701072E000C880B990BEB
:100C50000E9444119B01AC01C701B6010E942910FA
:100C60000E941311CB010E948F0A20E030E040E87F
:100C70005FE36091A0017091A1018091A201909128
:100C8000A3010E9428106093A0017093A10180939A
:100C9000A2019093A30120E030E040E85FE360917F
:100CA0009C0170919D0180919E0190919F010E94F5
:100CB000291060939C0170939D0180939E019093F5
:100CC0009F0120E030E040E85FE36091980170917F
:100CD000990180919A0190919B010E942910609343
:100CE00098017093990180939A0190939B0139CF59
:100CF0008091660190916701A0916801B0916901AE
:100D00008093A0019093A101A093A201B093A301AD
:100D100020E030E0A9016091A0017091A1018091D3
:100D2000A2019091A3010E94F41118160CF079C051
:100D300080E10E94C20ABC01990F880B990B0E94A6
:100D400044112DEC3CEC4CE453E40E949A1020E05A
:100D500030E040E952E40E94F91120917E01309187
:100D60007F0140918001509181010E94F411181679
:100D70000CF457C061E086E00E94A20B8091A601AE
:100D80009091A7010E948F0A60E086E00E94A20B6A
:100D90008091A6019091A7010E948F0A20E030E087
:100DA00040E85FE36091A0017091A1018091A201F0
:100DB0009091A3010E9428106093A0017093A1015B
:100DC0008093A2019093A30120E030E040E85FE32C
:100DD00060919C0170919D0180919E0190919F0175
:100DE0000E94291060939C0170939D0180939E0145
:100DF00090939F0120E030E040E85FE3609198012C
:100E00007091990180919A0190919B010E94291003
:100E1000609398017093990180939A0190939B013C
:100E200077CF68EE73E080E090E00E94560A61E0C0
:100E300087E00E94A20B6FE371E085EB91E00E94D6
:100E4000E00D85B5887F816085BD6091A4017091BA
:100E5000A50185E00E94E00A8091A8019091A90176
:100E6000A091AA01B091AB01883E9340A105B105C4
:100E700009F09EC170E060E085E00E94E00A85B55F
:100E8000887F836085BD61E083E00E94A20B60E003
:100E900087E00E94A20B10929C0110929D0110927B
:100EA0009E0110929F0180E090E0AAE7B5E4809354
:100EB000A0019093A101A093A201B093A30120E00F
:100EC00030E0A9016091A0017091A1018091A2017F
:100ED0009091A3010E94F41118160CF0B6C080E1A5
:100EE0000E94C20ABC01990F880B990B0E94441101
:100EF0002DEC3CEC4CE453E40E949A1020E030E0EE
:100F000040E952E40E94F91120918201309183015D
:100F100040918401509185010E94951087FD95C0F4
:100F200061E086E00E94A20B20E030E040EA51E45C
:100F30006091A0017091A1018091A2019091A30103
:100F40000E949A106B017C016091A6017091A7012B
:100F5000072E000C880B990B0E9444119B01AC01D9
:100F6000C701B6010E9429100E941311CB010E94F3
:100F70008F0A60E086E00E94A20B20E030E040EAA9
:100F800051E46091A0017091A1018091A201909122
:100F9000A3010E949A106B017C016091A6017091DF
:100FA000A701072E000C880B990B0E9444119B018E
:100FB000AC01C701B6010E9429100E941311CB0198
:100FC0000E948F0A20E030E040E85FE36091A001DA
:100FD0007091A1018091A2019091A3010E9428101B
:100FE0006093A0017093A1018093A2019093A3014B
:100FF00020E030E040E85FE360919C0170919D014A
:1010000080919E0190919F010E94291060939C0104
:1010100070939D0180939E0190939F0120E030E0AA
:1010200040E85FE3609198017091990180919A0185
:1010300090919B010E9429106093980170939901EF
:1010400080939A0190939B013ACF80916601909191
:101050006701A0916801B09169018093A00190930C
:10106000A101A093A201B093A30120E030E0A90167
:101070006091A0017091A1018091A2019091A301C2
:101080000E94F41118160CF078C080E10E94C20A88
:10109000BC01990F880B990B0E9444112DEC3CEC7C
:1010A0004CE453E40E949A1020E030E040E952E41E
:1010B0000E94F911209182013091830140918401B5
:1010C000509185010E94951087FD57C061E086E030
:1010D0000E94A20B8091A6019091A7010E948F0A05
:1010E00060E086E00E94A20B8091A6019091A7018A
:1010F0000E948F0A20E030E040E85FE36091A001A9
:101100007091A1018091A2019091A3010E942810E9
:101110006093A0017093A1018093A2019093A30119
:1011200020E030E040E85FE360919C0170919D0118
:1011300080919E0190919F010E94291060939C01D3
:1011400070939D0180939E0190939F0120E030E079
:1011500040E85FE3609198017091990180919A0154
:1011600090919B010E9429106093980170939901BE
:1011700080939A0190939B0178CF68EE73E080E0B2
:1011800090E00E94560A61E087E00E94A20B6FE3A4
:1011900071E085EB91E00E94E00D85B5887F81606C
:1011A00085BD6091A4017091A50185E00E94E00ACF
:1011B0001092A8011092A9011092AA011092AB01FD
:1011C000109290011092910110929201109293014D
:1011D0001092A0011092A1011092A2011092A301FD
:1011E00020E030E040EA51E46091A0017091A1015B
:1011F0008091A2019091A3010E94951087FF46C0A3
:1012000080E10E94C20ABC01990F880B990B0E94D1
:1012100044112DEC3CEC4CE453E40E949A1020E085
:1012200030E040E952E40E94F9119B01AC01609169
:1012300090017091910180919201909193010E948F
:101240002910609390017093910180939201909383
:10125000930160E87CE080E090E00E94560A20E084
:1012600030E040E85FE36091A0017091A1018091BE
:10127000A2019091A3010E9429106093A001709394
:10128000A1018093A2019093A301AACF20E030E0B6
:1012900040EA51E460919001709191018091920136
:1012A000909193010E949A106B017C0120E030E044
:1012B000A9010E94F411181624F0F7FAF094F7F837
:1012C000F094C0929001D0929101E0929201F0923C
:1012D000930161E071E085EB91E00E94CD0D4091BA
:1012E000820150918301609184017091850122E017
:1012F00030E085EB91E00E943A0F6CE171E085EB04
:1013000091E00E94CD0D40917E0150917F0160914E
:1013100080017091810122E030E085EB91E00E9434
:101320003A0F6CE171E085EB91E00E94CD0D4091A8
:10133000900150919101609192017091930122E08E
:1013400030E085EB91E00E943A0F6CE171E085EBB3
:1013500091E00E94CD0D40919401509195016091D2
:1013600096017091970122E030E085EB91E00E94B8
:101370003A0F6CE171E085EB91E00E94E00D85EBA6
:1013800091E00E943D0C60E079E180E090E00F90F8
:101390000F900F900F90DF91CF91FF90EF90DF9023
:1013A000CF90BF90AF909F908F907F906F905F9005
:1013B0004F900C94560A1F920F920FB60F92112461
:1013C0002F933F938F939F93AF93BF938091B101DE
:1013D0009091B201A091B301B091B4013091B001EC
:1013E00023E0230F2D3768F126E8230F0296A11D75
:1013F000B11D2093B0018093B1019093B201A093ED
:10140000B301B093B4018091AC019091AD01A09172
:10141000AE01B091AF010196A11DB11D8093AC0149
:101420009093AD01A093AE01B093AF01BF91AF9186
:101430009F918F913F912F910F900FBE0F901F9012
:1014400018950196A11DB11DD4CF2FB7F8946091C6
:10145000B1017091B2018091B3019091B4012FBF9D
:1014600008953FB7F8948091AC019091AD01A0919F
:10147000AE01B091AF0126B5A89B05C02F3F19F072
:101480000196A11DB11D3FBFBA2FA92F982F882704
:10149000BC01CD01620F711D811D911D42E0660FDF
:1014A000771F881F991F4A95D1F708958F929F92B1
:1014B000AF92BF92CF92DF92EF92FF926B017C01CD
:1014C0000E94310A4B015C01C114D104E104F10412
:1014D000E9F00E9427100E94310A681979098A09E7
:1014E0009B09683E73408105910570F321E0C21AA3
:1014F000D108E108F10888EE880E83E0981EA11C4F
:10150000B11CC114D104E104F10429F7FF90EF905C
:10151000DF90CF90BF90AF909F908F9008958230D2
:10152000910538F0880F991F880F991F059701972B
:10153000F1F70895789484B5836084BD85B58360A0
:1015400085BDEEE6F0E0808181608083E1E8F0E037
:1015500082E08083808181608083E0E8F0E08081A8
:1015600081608083E1EBF0E0808184608083E0EB48
:10157000F0E080818160808387E880937A00109218
:10158000C1000895883020F08D3008F48DE08E5031
:101590002091000190E4299F900111248770822BF3
:1015A00080937C0080917A00806480937A0080919F
:1015B0007A0086FDFCCF80917800909179000895A3
:1015C0001F93CF93DF93182FEB0161E00E94660B0E
:1015D000209739F460E0812FDF91CF911F910C9417
:1015E000A20BCF3FD10511F461E0F5CFE12FF0E080
:1015F000E859FF4FE491E43031F140F4E230B1F0CA
:10160000E330E1F0C038D1057CF7E4CFE83029F1D0
:10161000E93059F1E530B1F7809180008062809324
:101620008000D0938B00C0938A0004C084B580688A
:1016300084BDC7BDDF91CF911F91089584B58062AD
:1016400084BDC8BDF7CF8091800080688093800002
:10165000D0938900C0938800EDCF8091B00080685E
:101660008093B000C093B300E5CF8091B00080625A
:101670008093B000C093B400DDCF843081F028F4B3
:101680008230E9F08330F9F00895883071F08930C4
:1016900091F08530B9F4809180008F7D03C08091F6
:1016A00080008F778093800008958091B0008F77BD
:1016B0008093B00008958091B0008F7DF9CF84B5FC
:1016C0008F7784BD089584B58F7DFBCFCF93DF9353
:1016D00090E0FC01E158FF4F24918A569F4FFC0196
:1016E00084918823C9F090E0880F991FFC01E95488
:1016F000FF4FA591B491FC01E355FF4FC591D491E3
:1017000061110DC09FB7F8948C91209582238C9322
:101710008881282328839FBFDF91CF91089562306D
:1017200051F49FB7F8943C91822F809583238C933A
:10173000E8812E2BEFCF8FB7F894EC912E2B2C93C2
:101740008FBFEACF1F93CF93DF93282F30E0F901AB
:10175000E859FF4F8491F901E158FF4FD491F90105
:10176000EA56FF4FC491CC23A9F0162F81110E9495
:101770003D0BEC2FF0E0EE0FFF1FE355FF4FA5915F
:10178000B4918FB7F894EC91111108C0D095DE2375
:10179000DC938FBFDF91CF911F910895DE2BF8CF9F
:1017A000FC01918D228D892F90E0805C9F4F821BE0
:1017B00091098F7399270895FC01918D828D981757
:1017C00031F0828DE80FF11D858D90E008958FEF47
:1017D0009FEF0895FC01918D828D981761F0A28D85
:1017E000AE0FBF2FB11D5D968C91928D9F5F9F7341
:1017F000928F90E008958FEF9FEF0895FC01538D35
:10180000448D252F30E0842F90E0821B930B5417DA
:1018100010F0CF960895019708958AE59DE0892BF1
:1018200049F080E090E0892B29F00E945A0D811147
:101830000C9400000895FC01A48DA80FB92FB11DD0
:10184000A35ABF4F2C91848D90E001968F739927F6
:10185000848FA689B7892C93A089B1898C918370D4
:1018600080648C93938D848D981306C00288F389CD
:10187000E02D80818F7D80830895CF93DF93EC01ED
:10188000888D8823B9F0AA89BB89E889F9898C9168
:1018900085FD03C0808186FD0DC00FB607FCF7CF24
:1018A0008C9185FFF2CF808185FFEDCFCE010E9424
:1018B0001B0CE9CFDF91CF910895EF92FF920F9328
:1018C0001F93CF93DF93EC0181E0888F9B8D8C8DEC
:1018D00098131AC0E889F989808185FF15C09FB7E0
:1018E000F894EE89FF896083E889F98980818370A3
:1018F000806480839FBF81E090E0DF91CF911F9152
:101900000F91FF90EF900895F62E0B8D10E00F5F72
:101910001F4F0F731127E02E8C8D8E110CC00FB648
:1019200007FCFACFE889F989808185FFF5CFCE01E0
:101930000E941B0CF1CFEB8DEC0FFD2FF11DE35A34
:10194000FF4FF0829FB7F8940B8FEA89FB89808163
:101950008062CFCFCF92DF92EF92FF921F93CF930F
:10196000DF93EC016A017B01122FE889F98982E09B
:101970008083C11481EED806E104F104A1F060E097
:1019800079E08DE390E0A70196010E946B1221504F
:1019900031094109510956954795379527952115E4
:1019A00080E1380798F0E889F989108260E874E8E6
:1019B0008EE190E0A70196010E946B12215031093F
:1019C000410951095695479537952795EC85FD8531
:1019D0003083EE85FF852083188EEC89FD89108386
:1019E000EA89FB89808188698083EA89FB89808113
:1019F0008F7D8083DF91CF911F91FF90EF90DF90DB
:101A0000CF9008951F920F920FB60F9211242F932B
:101A10008F939F93EF93FF93E091C501F091C601DF
:101A20008081E091CB01F091CC0182FD1BC09081BF
:101A30008091CE018F5F8F732091CF01821741F08B
:101A4000E091CE01F0E0EB54FE4F958F8093CE01F4
:101A5000FF91EF919F918F912F910F900FBE0F905B
:101A60001F9018958081F4CF1F920F920FB60F929E
:101A700011242F933F934F935F936F937F938F9393
:101A80009F93AF93BF93EF93FF9385EB91E00E94F9
:101A90001B0CFF91EF91BF91AF919F918F917F911F
:101AA0006F915F914F913F912F910F900FBE0F90CB
:101AB0001F90189585EB91E00E94D00B21E0892BB7
:101AC00009F420E0822F0895E5EBF1E01382128201
:101AD00088EE93E0A0E0B0E084839583A683B7838B
:101AE00088E491E09183808385EC90E095878487FA
:101AF00084EC90E09787868780EC90E0918B808BD8
:101B000081EC90E0938B828B82EC90E0958B848BC0
:101B100086EC90E0978B868B118E128E138E148E2E
:101B20000895AF92BF92CF92DF92EF92FF920F9300
:101B30001F93CF93DF936C017B018B01040F151F63
:101B4000EB015E01AE18BF08C017D10759F06991CB
:101B5000D601ED91FC910190F081E02DC60109952F
:101B6000892B79F7C501DF91CF911F910F91FF90DC
:101B7000EF90DF90CF90BF90AF900895FB01019060
:101B80000020E9F73197AF01461B570BDC01ED91BF
:101B9000FC910280F381E02D09946115710511F02B
:101BA0000C94BE0D90E080E00895DC01ED91FC9175
:101BB0000190F081E02D099466E571E00C94BE0D72
:101BC0000F931F93CF93DF938C01D0E0C0E061159A
:101BD000710519F00E94BE0DEC01C8010E94DC0DD8
:101BE0008C0F9D1FDF91CF911F910F9108958F92C0
:101BF0009F92AF92BF92EF92FF920F931F93CF935A
:101C0000DF93CDB7DEB7A1970FB6F894DEBF0FBE56
:101C1000CDBF7C01FA01CB0119A2223008F42AE0E1
:101C20008E010F5D1F4F822E912CB12CA12CBF0174
:101C3000A50194010E946B12F901CA016A300CF5EA
:101C4000605DD8016E938D01232B242B252B79F712
:101C500090E080E0109721F0BD01C7010E94BE0D09
:101C6000A1960FB6F894DEBF0FBECDBFDF91CF9126
:101C70001F910F91FF90EF90BF90AF909F908F902A
:101C80000895695CDECF2115310541F4DC01ED9149
:101C9000FC910190F081E02D642F09940C94F70DD4
:101CA0009A01AB0170E060E00C94430E2F923F92DA
:101CB0004F925F926F927F928F929F92AF92BF925C
:101CC000CF92DF92EF92FF921F93CF93DF93EC01BD
:101CD0006A017B01722EAB019601CB01B6010E9415
:101CE000661269E571E0811126C046015701E8944A
:101CF000B7F82FEF3FEF4FE75FE7C501B4010E9450
:101D0000661281110CC02FEF3FEF4FE75FE7C5016F
:101D1000B4010E9495106DE571E0181664F02FEF84
:101D20003FEF4FE75FE4C701B6010E94F4111816B8
:101D3000B4F461E671E0CE01DF91CF911F91FF9085
:101D4000EF90DF90CF90BF90AF909F908F907F905B
:101D50006F905F904F903F902F900C94BE0D2FEF9F
:101D60003FEF4FE75FECC701B6010E94951087FD7A
:101D7000E0CF20E030E0A901C701B6010E94951034
:101D8000312C212C87FF09C06DE2CE010E94D50DB8
:101D90001C01F7FAF094F7F8F09410E060E070E0BE
:101DA00080E09FE3711641F020E030E040E251E432
:101DB0000E949A101F5FF6CFA70196010E9429107A
:101DC0002B013C010E9413114B015C012AE0BC0174
:101DD000A401CE010E94F70D7C01E20CF31C11233B
:101DE000B1F1C501B4010E9442119B01AC01C301D4
:101DF000B2010E9428104B015C016EE2CE010E94EC
:101E0000D50DE80EF91E115010F120E030E040E24F
:101E100051E4C501B4010E94F9112B013C010E945B
:101E200013114B014AE050E0CE010E94500EE80E23
:101E3000F91EB40190E080E00E9442119B01AC01C8
:101E4000C301B2010E9428104B015C01DCCFC70125
:101E5000DF91CF911F91FF90EF90DF90CF90BF90D7
:101E6000AF909F908F907F906F905F904F903F903A
:101E70002F9008950C94560E0F931F93CF93DF93DA
:101E8000EC010E94560E8C01CE010E94DC0D800FE9
:101E9000911FDF91CF911F910F9108950F931F9381
:101EA000CF93DF93EC010E94250A688779878A87A0
:101EB0009B87E881F9810484F585E02DCE010995A1
:101EC00097FF15C00E94250A088519852A853B853C
:101ED000601B710B820B930B0C811D812E813F8146
:101EE000601771078207930720F38FEF9FEFDF9151
:101EF000CF911F910F910895FF920F931F93CF934E
:101F0000DF93EC018B01F42ECE010E944E0F97FD62
:101F10001DC08D329105D1F09C01205331092A302A
:101F20003105A0F0FF2019F08E32910579F00130D3
:101F3000110551F00230110589F48D30910571F0D1
:101F40005CF40997029750F08FEF9FEFDF91CF91EC
:101F50001F910F91FF9008958097B1F7E881F98163
:101F60000284F385E02DCE010995CECFBF92CF92AA
:101F7000DF92EF92FF920F931F93CF93DF938C0129
:101F8000C42F40E00E947C0FFC01C12CD12C7601B3
:101F900097FD3EC0B12C0C2E000CDD0BCE17DF07D9
:101FA000D9F0ED32F10509F43FC0CF01C0970A978F
:101FB00098F4AAE0B0E0A70196010E9493126F0185
:101FC000FF0FEE08FF08C60ED71EE81EF91E80E3BD
:101FD000C81AD108E108F108D801ED91FC910284FA
:101FE000F385E02DC8010995C8010E944E0FFC0140
:101FF000C0970A9798F2CE17DF0781F2BB2041F015
:10200000F094E094D094C094C11CD11CE11CF11C4C
:10201000C701B601DF91CF911F910F91FF90EF9013
:10202000DF90CF90BF900895BB24B394D5CF08958F
:102030000E949A0A0E9417100E949000CDE0DCE0F6
:102040000E940C022097E1F30E940D0CF9CF089535
:102050005058BB27AA270E9440100C94BA110E9426
:10206000AC1138F00E94B31120F039F49F3F19F4FD
:1020700026F40C94A9110EF4E095E7FB0C94A3113F
:10208000E92F0E94CB1158F3BA1762077307840730
:10209000950720F079F4A6F50C94ED110EF4E09577
:1020A0000B2EBA2FA02D0B01B90190010C01CA0112
:1020B000A0011124FF27591B99F0593F50F4503EBD
:1020C00068F11A16F040A22F232F342F4427585FAF
:1020D000F3CF469537952795A795F0405395C9F7C7
:1020E0007EF41F16BA0B620B730B840BBAF091507F
:1020F000A1F0FF0FBB1F661F771F881FC2F70EC01E
:10210000BA0F621F731F841F48F4879577956795F0
:10211000B795F7959E3F08F0B0CF9395880F08F0DC
:102120009927EE0F9795879508950E947F1108F4DF
:1021300081E008950E94AE100C94BA110E94B31170
:1021400058F00E94AC1140F029F45F3F29F00C9444
:10215000A31151110C94EE110C94A9110E94CB11F2
:1021600068F39923B1F3552391F3951B550BBB27C6
:10217000AA2762177307840738F09F5F5F4F220F0B
:10218000331F441FAA1FA9F335D00E2E3AF0E0E802
:1021900032D091505040E695001CCAF72BD0FE2F4C
:1021A00029D0660F771F881FBB1F261737074807E0
:1021B000AB07B0E809F0BB0B802DBF01FF27935898
:1021C0005F4F3AF09E3F510578F00C94A3110C94A8
:1021D000EE115F3FE4F3983ED4F3869577956795CB
:1021E000B795F7959F5FC9F7880F911D96958795CD
:1021F00097F90895E1E0660F771F881FBB1F6217EC
:1022000073078407BA0720F0621B730B840BBA0BA9
:10221000EE1F88F7E09508950E9413116894B1119C
:102220000C94EE1108950E94D31188F09F5798F0F6
:10223000B92F9927B751B0F0E1F0660F771F881FCB
:10224000991F1AF0BA95C9F714C0B13091F00E94E5
:10225000ED11B1E008950C94ED11672F782F8827C8
:10226000B85F39F0B93FCCF3869577956795B3950C
:10227000D9F73EF490958095709561957F4F8F4F7B
:102280009F4F0895E89409C097FB3EF49095809580
:10229000709561957F4F8F4F9F4F9923A9F0F92F2C
:1022A00096E9BB279395F695879577956795B795AA
:1022B000F111F8CFFAF4BB0F11F460FF1BC06F5F90
:1022C0007F4F8F4F9F4F16C0882311F096E911C0A2
:1022D000772321F09EE8872F762F05C0662371F0C3
:1022E00096E8862F70E060E02AF09A95660F771FD7
:1022F000881FDAF7880F9695879597F90895990FB3
:102300000008550FAA0BE0E8FEEF16161706E807BF
:10231000F907C0F012161306E407F50798F0621BE0
:10232000730B840B950B39F40A2661F0232B242BB5
:10233000252B21F408950A2609F4A140A6958FEFD4
:10234000811D811D089597F99F6780E870E060E026
:1023500008959FEF80EC089500240A94161617063E
:1023600018060906089500240A9412161306140686
:1023700005060895092E0394000C11F4882352F0E9
:10238000BB0F40F4BF2B11F460FF04C06F5F7F4FA1
:102390008F4F9F4F089557FD9058440F551F59F088
:1023A0005F3F71F04795880F97FB991F61F09F3F42
:1023B00079F087950895121613061406551FF2CF6B
:1023C0004695F1DF08C0161617061806991FF1CFBB
:1023D00086957105610508940895E894BB276627E2
:1023E0007727CB0197F908950E947F1108F48FEFAA
:1023F00008950E940C120C94BA110E94AC1138F08E
:102400000E94B31120F0952311F00C94A3110C94A9
:10241000A91111240C94EE110E94CB1170F3959F19
:10242000C1F3950F50E0551F629FF001729FBB27CB
:10243000F00DB11D639FAA27F00DB11DAA1F649F67
:102440006627B00DA11D661F829F2227B00DA11D1A
:10245000621F739FB00DA11D621F839FA00D611DA0
:10246000221F749F3327A00D611D231F849F600DC1
:10247000211D822F762F6A2F11249F5750409AF0EA
:10248000F1F088234AF0EE0FFF1FBB1F661F771F76
:10249000881F91505040A9F79E3F510580F00C9441
:1024A000A3110C94EE115F3FE4F3983ED4F38695AC
:1024B00077956795B795F795E7959F5FC1F7FE2BE1
:1024C000880F911D9695879597F908950E947F1121
:1024D000880B990B0895A1E21A2EAA1BBB1BFD01C4
:1024E0000DC0AA1FBB1FEE1FFF1FA217B307E407F3
:1024F000F50720F0A21BB30BE40BF50B661F771F4B
:10250000881F991F1A9469F760957095809590952A
:102510009B01AC01BD01CF010895EE0FFF1F059097
:10252000F491E02D09940E949E12A59F900DB49FF6
:10253000900DA49F800D911D11240895A29FB001BC
:10254000B39FC001A39F700D811D1124911DB29FE7
:10255000700D811D1124911D0895F999FECF92BD32
:1025600081BDF89A992780B50895262FF999FECF55
:102570001FBA92BD81BD20BD0FB6F894FA9AF99AA0
:0A2580000FBE01960895F894FFCFF6
:10258A000157616E6465726572436F76657256347F
:10259A0050726F4132303234313131314100436C43
:1025AA006F7365506F736974696F6E536574004F0A
:1025BA0070656E506F736974696F6E5365740064E9
:1025CA006F6E6500000000005D0C910DFE0B3D0C66
:1025DA00D00BEA0BDC0B0D0A006E616E00696E66A9
:0625EA00006F76660000A0
:00000001FF
