:100000000C9478000C94A0000C94A0000C94A00018
:100010000C94A0000C94A0000C94A0000C94A000E0
:100020000C94A0000C94A0000C94A0000C94A000D0
:100030000C94A0000C94A0000C94A0000C94A000C0
:100040000C940F130C94A0000C942F160C946116B2
:100050000C94A0000C94A0000C94A0000C94A000A0
:100060000C94A0000C94A000005EBCE2613FDD8314
:10007000C29C7E20A3FD1F41009D23BE46DB65F888
:100080008C11AF32CA57E974000000090003020066
:10009000000405080000000000000000000000014E
:1000A000020408102040800102040810200102040C
:1000B00008102040804004040404040404040202E4
:1000C000020202020303030303030202030000000F
:1000D0000023002600290000000000250028002B36
:1000E0000000000000240027002A00000A039116E7
:1000F00011241FBECFEFD4E0DEBFCDBF11E0A0E0E2
:10010000B1E0EEEAF8E302C005900D92AE33B1071C
:10011000D9F722E0AEE3B1E001C01D92A33CB207E3
:10012000E1F710E0C8E7D0E004C02197FE010E948B
:100130000B1CC637D107C9F70E9482190C94551CB5
:100140000C9400000C943F1C0C94471CCF9380919E
:100150008100887F8160809381008AE090E09093A5
:100160005D0180935C0186E090E090935B01809359
:100170005A0185E090E0909359018093580183E003
:1001800090E090935701809356018CE090E090931B
:1001900055018093540188E090E09093530180933F
:1001A000520187E090E0909351018093500167E302
:1001B0008AE092E00E94E4108CEC91E00E946D0EC7
:1001C00088EB91E00E946D0E84EA91E00E946D0E32
:1001D00062E086E00E949A1462E087E00E949A142E
:1001E00080915C0190915D010E94A20090E090934B
:1001F00075018093740180915A0190915B010E9476
:10020000A20090E090937301809372018091580155
:10021000909159010E94A20090E090937101809307
:10022000700180915601909157010E94A20090E0C8
:1002300090936F0180936E018091540190915501CC
:100240000E94A20090E090936D0180936C018091D8
:100250005201909153010E94A20090E090936B0193
:1002600080936A0183E190E00E94A20090E0909365
:1002700069018093680182E190E00E94A20090E011
:10028000909367018093660181E190E00E94A20053
:1002900090E090936501809364018FE090E00E946C
:1002A000A20090E0909363018093620180915001DD
:1002B000909151010E94A20090E09093610180937F
:1002C00060018BE090E00E94A20090E085389105EB
:1002D0000CF094C190935F0180935E018091740152
:1002E00090917501029768F081E090E0909375011C
:1002F0008093740161E080915C0190915D010E94A6
:10030000A40080916C0190916D01029768F081E0EA
:1003100090E090936D0180936C0161E080915401B5
:10032000909155010E94A40080916A0190916B0107
:10033000029768F081E090E090936B0180936A01EE
:1003400061E080915201909153010E94A40080913C
:10035000680190916901029758F081E090E09093D4
:1003600069018093680161E083E190E00E94A4004C
:100370008091660190916701029758F081E090E0CA
:10038000909367018093660161E082E190E00E94B2
:10039000A4008091640190916501029758F081E07A
:1003A00090E0909365018093640161E081E190E0C9
:1003B0000E94A4008091620190916301029758F01D
:1003C00081E090E0909363018093620161E08FE0AF
:1003D00090E00E94A40080916001909161010297D9
:1003E00068F081E090E0909361018093600161E0AA
:1003F00080915001909151010E94A40084E190E00D
:100400000E94A20090E0909343018093420185E115
:1004100090E00E94A20090E09093410180934001FF
:1004200086E190E00E94A20090E090933F018093CB
:100430003E0161E08AE00E949A14809174019091DB
:10044000750160915E0170915F01019711F070E09C
:1004500060E080915C010E94141462E370E080E02F
:1004600090E00E948A1361E080915A010E949A14E0
:10047000609172017091730180915A010E9414146D
:1004800062E370E080E090E00E948A1361E0809176
:1004900058010E949A1460917001709171018091CD
:1004A00058010E94141462E370E080E090E00E9422
:1004B0008A1361E0809156010E949A1460916E0146
:1004C00070916F01809156010E94141462E370E0F4
:1004D00080E090E00E948A1361E0809154010E94C4
:1004E0009A1460916C01809154010E94D61462E3C9
:1004F00070E080E090E00E948A1361E080915201F8
:100500000E949A1460916A01809152010E94D6144F
:1005100062E370E080E090E00E948A1361E083E192
:100520000E949A14C1E0809168016C2F681B83E1DE
:100530000E94D61462E370E080E090E00E948A138B
:1005400061E082E10E949A14809166016C2F681B21
:1005500082E10E94D61462E370E080E090E00E94A5
:100560008A1361E081E10E949A14809164016C2FEA
:10057000681B81E10E94D61462E370E080E090E0A5
:100580000E948A1361E08FE00E949A1480916201B8
:100590006C2F681B8FE00E94D61462E370E080E04D
:1005A00090E00E948A1361E0809150010E949A14A9
:1005B000809160016C2F681B809150010E94D614BD
:1005C00062E370E080E090E00E948A1361E089E0DD
:1005D0000E949A1460E089E00E94D61462E370E001
:1005E00080E090E00E948A1326E040E05BE460E057
:1005F00070E086E292E0CF910C94D71584E890E009
:1006000090935F0180935E0164E88BE090E00E942C
:10061000A40064CE26E046E164E08AE092E00E9415
:10062000C3106BE08CEF91E00E944E0C62E08EEE06
:1006300091E00E944E0C6DE080EE91E00E944E0C25
:100640006CEF71E08CEC91E00E94290D6EEE71E090
:1006500088EB91E00E94290D60EE71E084EA91E060
:100660000C94290D4F925F926F927F928F929F927E
:10067000AF92BF92CF92DF92EF92FF92CF93DF9330
:1006800086E292E00E940415892B79F041E070E047
:1006900060E086E292E00E94201960939E017093D0
:1006A0009F018093A0019093A10110929601109256
:1006B0009701109298011092990110928E01109258
:1006C0008F01109290011092910110928601109268
:1006D0008701109288011092890110929A0110925C
:1006E0009B0110929C0110929D0180919E0190911E
:1006F0009F01A091A001B091A10188349B4AA34F12
:10070000B34009F092C061E083E190E00E94A40050
:1007100061E082E190E00E94A40061E081E190E06C
:100720000E94A40061E08FE090E00E94A40061E0DC
:1007300080915001909151010E94A40061E080914C
:100740005C0190915D010E94A4006FEF80915A01BD
:1007500090915B010E94A4006FEF809158019091ED
:1007600059010E94A4006FEF8091560190915701AA
:100770000E94A40061E080915401909155010E9473
:10078000A40061E080915201909153010E94A40065
:1007900060E784E190E00E94A400C0E7D0E0D0933D
:1007A0004301C093420160E785E190E00E94A4000C
:1007B000D0934101C093400160E786E190E00E9440
:1007C000A400D0933F01C0933E0181E090E090935C
:1007D000690180936801909367018093660190930B
:1007E000650180936401909363018093620190930B
:1007F00061018093600190937501809374012FEFE4
:1008000030E0309373012093720130937101209393
:10081000700130936F0120936E0190936D0180936E
:100820006C0190936B0180936A0180919E0190917D
:100830009F01A091A001B091A10183389105A1056C
:10084000B10509F4CDC1B4F58F369105A105B10507
:1008500009F4ACC1C4F485369105A105B10509F4CC
:10086000EBC18E369105A105B10509F4A9C1843605
:100870009105A105B10509F049C0109275011092CA
:10088000740160E0E0C189379105A105B10509F463
:100890009DC182389105A105B10509F4ABC1883726
:1008A0009105A105B10591F51092670110926601BD
:1008B00060E093C187399105A105B10509F4AAC18A
:1008C000BCF48D389105A105B10509F499C18639AB
:1008D0009105A105B10509F4A9C18C389105A105BF
:1008E000B105A1F4109263011092620160E08FC122
:1008F000893C9105A105B10509F43EC10CF025C163
:10090000883C9105A105B10509F444C180919E017F
:1009100090919F01A091A001B091A101AC01BD01F6
:1009200048585341610971094F3F510561057105EF
:1009300009F068F488589341909373018093720191
:10094000682F80915A0190915B010E94A4008091D0
:100950009E0190919F01A091A001B091A101AC01D5
:10096000BD0140575741610971094F3F510561056C
:10097000710509F068F48057974190937101809355
:100980007001682F80915801909159010E94A40034
:1009900080919E0190919F01A091A001B091A10131
:1009A000AC01BD0148555B41610971094F3F5105DB
:1009B0006105710509F068F488559B4190936F01BA
:1009C00080936E01682F80915601909157010E948B
:1009D000A40080919E0190919F01A091A001B091EF
:1009E000A101AC01BD0141525E4461097109443865
:1009F00051056105710558F480529E4490935F0142
:100A000080935E01682F8BE090E00E94A4008091AB
:100A100074019091750170E060E0019791F460912C
:100A20005E0170915F01072E000C880B990B0E94EC
:100A3000AE1A29E335E447EF5FE30E94631B0E948F
:100A4000761A8AE00E941414609172017091730109
:100A500080915A010E94141460917001709171018B
:100A6000809158010E94141460916E0170916F0181
:100A7000809156010E94141460916C018091540180
:100A80000E94D61460916A01809152010E94D6148E
:100A9000C1E0809168016C2F681B83E10E94D6142D
:100AA000809166016C2F681B82E10E94D6148091B0
:100AB00064016C2F681B81E10E94D6148091620151
:100AC0006C2F681B8FE00E94D614809160016C2F00
:100AD000681B809150010E94D6141092A3011092BD
:100AE000A2018091A2019091A30144970CF0B0C0A3
:100AF00086E00E94F613BC01990F880B990B0E94A7
:100B0000AE1A9B01AC0160919601709197018091A2
:100B10009801909199010E949319609396017093A6
:100B2000970180939801909399016AE070E080E0CA
:100B300090E00E948A138091A2019091A3010196F6
:100B40009093A3018093A201CCCF823D9105A10592
:100B5000B10531F1833D9105A105B10509F0D6CE6E
:100B600081E090E090936B0180936A0161E0809155
:100B70005201909153010BC081E090E090936D0180
:100B800080936C0161E080915401909155010E9425
:100B9000A400BCCE10926D0110926C0160E0F3CF06
:100BA00010926B0110926A0160E0E1CF81E090E069
:100BB000909369018093680161E083E190E0E7CF61
:100BC000109269011092680160E0F7CF81E090E037
:100BD000909367018093660161E082E190E0D7CF56
:100BE00081E090E0909365018093640161E081E190
:100BF00090E0CDCF109265011092640160E0F7CFD4
:100C000081E090E0909363018093620161E08FE066
:100C100090E0BDCF81E090E090936101809360010E
:100C200061E08091500190915101B1CF109261012A
:100C30001092600160E0F5CF81E090E09093750143
:100C40008093740161E080915C0190915D019FCF80
:100C500020E030E040EA51E4609196017091970104
:100C600080919801909199010E94041A6B017C0176
:100C7000C0929601D0929701E0929801F09299016A
:100C8000609142017091430160577E4F072E000C26
:100C9000880B990B0E94AE1A9B01AC01C701B601EB
:100CA0000E94FF1987FF1CC020E030E041EE53E4B2
:100CB000C701B6010E945E1B181694F420E030E0D4
:100CC00048EC53E4C701B6010E9492190E94761ABB
:100CD000609342017093430184E190E00E94A4007C
:100CE0001092A3011092A2018091A2019091A30100
:100CF00044976CF580E10E94F613BC01990F880BB4
:100D0000990B0E94AE1A9B01AC0160918E0170910B
:100D10008F0180919001909191010E9493196093AD
:100D20008E0170938F0180939001909391016AE0FE
:100D300070E080E090E00E948A138091A20190917F
:100D4000A30101969093A3018093A201CDCF20E04F
:100D500030E040EA51E460918E0170918F01809102
:100D60009001909191010E94041A6B017C01C09244
:100D70008E01D0928F01E0929001F09291016091EA
:100D800040017091410160577E4F072E000C880B87
:100D9000990B0E94AE1A9B01AC01C701B6010E94DB
:100DA000FF1987FF1CC020E030E041EE53E4C7018B
:100DB000B6010E945E1B181694F420E030E048EC67
:100DC00053E4C701B6010E9492190E94761A6093FB
:100DD00040017093410185E190E00E94A4001092CF
:100DE000A3011092A2018091A2019091A3014497C6
:100DF0006CF58EE00E94F613BC01990F880B990BDD
:100E00000E94AE1A9B01AC0160918601709187012E
:100E100080918801909189010E94931960938601C5
:100E20007093870180938801909389016AE070E054
:100E300080E090E00E948A138091A2019091A3012A
:100E400001969093A3018093A201CDCF20E030E0E2
:100E500040EA51E460918601709187018091880198
:100E6000909189010E94041A6B017C01C092860155
:100E7000D0928701E0928801F092890160913E0151
:100E800070913F0160577E4F072E000C880B990B25
:100E90000E94AE1A9B01AC01C701B6010E94FF1966
:100EA00087FF1CC020E030E041EE53E4C701B601EB
:100EB0000E945E1B181694F420E030E048EC53E4E6
:100EC000C701B6010E9492190E94761A60933E01F2
:100ED00070933F0186E190E00E94A4001092960179
:100EE00010929701109298011092990110928E0120
:100EF00010928F0110929001109291011092860130
:100F000010928701109288011092890160E08AE0B6
:100F100092E00E94C61260937A0170937B018093E5
:100F20007C0190937D0140E060E08AE092E00E94C5
:100F300036126093760170937701809378019093D5
:100F400079016CE08CEC91E00E94650F8CEC91E0F3
:100F50000E9408106CE088EB91E00E94650F88EB1E
:100F600091E00E9408106CE084EA91E00E94650F15
:100F700084EA91E00E94081060E08CEC91E00E940D
:100F8000981060934C0170934D0180934E019093A3
:100F90004F0160E088EB91E00E9498106093480157
:100FA0007093490180934A0190934B0160E084EA79
:100FB00091E00E94981060934401709345018093E2
:100FC0004601909347011092A3011092A2018091D3
:100FD000A2019091A301843691050CF0C0C086E077
:100FE0000E94F613209142013091430120573E4F59
:100FF000821B930BBC01990F880B990B0E94AE1AB0
:101000002AE037ED43EA51E40E94041A9B01AC0147
:10101000609196017091970180919801909199014A
:101020000E949319609396017093970180939801A1
:101030009093990180E10E94F61320914001309134
:10104000410120573E4F821B930BBC01990F880B27
:10105000990B0E94AE1A2AE037ED43EA51E40E9450
:10106000041A9B01AC0160918E0170918F018091F7
:101070009001909191010E94931960938E01709359
:101080008F0180939001909391018EE00E94F6135E
:1010900020913E0130913F0120573E4F821B930B20
:1010A000BC01990F880B990B0E94AE1A2AE037ED0C
:1010B00043EA51E40E94041A9B01AC01609186014D
:1010C0007091870180918801909189010E94931904
:1010D00060938601709387018093880190938901C2
:1010E00087E00E94F613BC01990F880B990B0E94B0
:1010F000AE1A20E030E040EA50E40E94631B20E09A
:1011000030E040E85AE30E94631B29E831E440E400
:1011100050E40E94631B9B01AC0160919A017091A5
:101120009B0180919C0190919D010E949319609375
:101130009A0170939B0180939C0190939D0162E0C2
:1011400070E080E090E00E948A138091A20190916B
:10115000A30101969093A3018093A20138CF20E0D0
:1011600030E040E050EC60919601709197018091E1
:101170009801909199010E94FF1987FF08C0109271
:10118000960110929701109298011092990120E017
:1011900030E040E050EC60918E0170918F018091C1
:1011A0009001909191010E94FF1987FF08C0109251
:1011B0008E0110928F01109290011092910120E007
:1011C00030E040E050EC60918601709187018091A1
:1011D0008801909189010E94FF1987FF08C0109231
:1011E000860110928701109288011092890120E0F7
:1011F00030E048EC52E46091960170919701809143
:101200009801909199010E94041A2B013C0120E061
:1012100030E0A9010E945E1B181624F077FA709442
:1012200077F87094409292015092930160929401E9
:101230007092950120E030E048EC52E460918E011C
:1012400070918F0180919001909191010E94041AF8
:101250004B015C0120E030E0A9010E945E1B1816E2
:1012600024F0B7FAB094B7F8B09480928A019092C3
:101270008B01A0928C01B0928D0120E030E048EC0F
:1012800052E460918601709187018091880190916C
:1012900089010E94041A6B017C0120E030E0A90161
:1012A0000E945E1B181624F0F7FAF094F7F8F094F9
:1012B000C0928201D0928301E0928401F092850174
:1012C00020E030E048EC52E460919A0170919B017B
:1012D00080919C0190919D010E94041A60937E016F
:1012E00070937F01809380019093810120E030E032
:1012F00040E251E4C301B2010E945E1B1816ACF03B
:1013000020E030E040E450E4C501B4010E945E1BDF
:1013100018165CF020E030E040E450E4C701B6016C
:101320000E945E1B60E018160CF461E089E00E94E8
:10133000D61461E071E086E292E00E94FA1664E061
:1013400071E086E292E00E94FA1640914C015091C1
:101350004D0160914E0170914F0122E030E086E234
:1013600092E00E94B61864E171E086E292E00E9489
:10137000FA16409148015091490160914A017091DB
:101380004B0122E030E086E292E00E94B61864E170
:1013900071E086E292E00E94FA1640914401509179
:1013A0004501609146017091470122E030E086E2FC
:1013B00092E00E94B61864E171E086E292E00E9439
:1013C000FA1640917A0150917B0160917C017091F5
:1013D0007D0122E030E086E292E00E94B61864E1EE
:1013E00071E086E292E00E94FA16409176015091F7
:1013F0007701609178017091790122E030E086E216
:1014000092E00E94B61864E171E086E292E00E94E8
:10141000FA1640919201509193016091940170915C
:10142000950122E030E086E292E00E94B61864E185
:1014300071E086E292E00E94FA1640918A01509192
:101440008B0160918C0170918D0122E030E086E289
:1014500092E00E94B61864E171E086E292E00E9498
:10146000FA1640918201509183016091840170913C
:10147000850122E030E086E292E00E94B61864E145
:1014800071E086E292E00E94FA1640917E0150914E
:101490007F01609180017091810122E030E086E25D
:1014A00092E00E94B61864E171E086E292E00E9448
:1014B000FA1660916801709169014AE050E086E295
:1014C00092E00E94B81764E171E086E292E00E9427
:1014D000FA1660916601709167014AE050E086E279
:1014E00092E00E94B81764E171E086E292E00E9407
:1014F000FA1660916401709165014AE050E086E25D
:1015000092E00E94B81764E171E086E292E00E94E6
:10151000FA1660916201709163014AE050E086E240
:1015200092E00E94B81764E171E086E292E00E94C6
:10153000FA1660916001709161014AE050E086E224
:1015400092E00E94B81764E171E086E292E00E94A6
:10155000FA1660917401709175014AE050E086E2DC
:1015600092E00E94B81764E171E086E292E00E9486
:10157000FA1660917201709173014AE050E086E2C0
:1015800092E00E94B81764E171E086E292E00E9466
:10159000FA1660917001709171014AE050E086E2A4
:1015A00092E00E94B81764E171E086E292E00E9446
:1015B000FA1660916E0170916F014AE050E086E288
:1015C00092E00E94B81764E171E086E292E00E9426
:1015D000FA1660916C0170916D014AE050E086E26C
:1015E00092E00E94B81764E171E086E292E00E9406
:1015F000FA1660916A0170916B014AE050E086E250
:1016000092E00E94B81764E171E086E292E00E94E5
:10161000FA1660915E0170915F014AE050E086E247
:1016200092E00E94B81764E171E086E292E00E94C5
:101630000D1762E370E080E090E0DF91CF91FF90C2
:10164000EF90DF90CF90BF90AF909F908F907F9062
:101650006F905F904F900C948A13FF920F931F939B
:10166000CF93DF93FC011081C181D281F8948981ED
:10167000012F00958023898378948DE7F82EFA94C2
:10168000FF2061F182E090E00E94C31388818123F2
:10169000B1F3F8948A8180238A838981812B89839D
:1016A000789480EE91E00E94C313F894898180239E
:1016B000898386E490E00E94C31388811823C1E0E7
:1016C00009F0C0E078948AE991E00E94C3138C2F5E
:1016D000DF91CF911F910F91FF900895C0E0F7CF58
:1016E0001F93CF93DF93FC011081C181D281912F91
:1016F000909560FF16C0F8948A8189238A83898136
:10170000812B89838AE090E00E94C3138A81182B81
:101710001A83789487E390E0DF91CF911F910C9426
:10172000C313F8948A8189238A838981812B8983D1
:1017300081E490E00E94C3138A81182B1A83789465
:1017400085E090E0E9CF0F931F93CF93DF93FC01E7
:101750001081C181D281F8948981812B89838A810A
:10176000012F009580238A8383E090E00E94C313B9
:101770008981802389838AE090E00E94C313C88115
:10178000789485E390E00E94C3131C2381E009F460
:1017900080E0DF91CF911F910F910895DF92EF923A
:1017A000FF920F931F93CF93DF93EC01D62EE42E7D
:1017B00008E010E0FF24F39461E08D2D8F2109F4FF
:1017C00060E0CE010E94700BFF0C01501109A1F7DF
:1017D000E11010C0F894E981FA81918188818095A7
:1017E00089238183E981FA81928188818095892387
:1017F00082837894DF91CF911F910F91FF90EF90AA
:10180000DF900895EF92FF920F931F93CF93DF9392
:101810007C0108E010E0C0E0D1E0C7010E94A30B0A
:101820008111CD2BDD0F01501109B9F78C2FDF91FC
:10183000CF911F910F91FF90EF900895EF92FF923B
:101840000F931F93CF93DF938C017B0140E065E5FD
:101850000E94CE0BE70188E0E80EF11C699140E0A0
:10186000C8010E94CE0BCE15DF05C1F7DF91CF91E5
:101870001F910F91FF90EF90089540E06CEC0C9455
:10188000CE0BFC01138615861486128611861086EF
:101890001782168215821482138208951F93CF93A4
:1018A000DF93EC01162F60E0812F0E949A14612FC4
:1018B00070E0FB01E156FF4FE491E883FB01EA543D
:1018C000FF4FE491F0E0EE0FFF1FE353FF4F8591D0
:1018D00094919A838983CE01DF91CF911F910C94CB
:1018E000410CBF92CF92DF92EF92FF920F931F9322
:1018F000CF93DF93EC01B62EC72E142F8D85811167
:1019000005C0CE010E942D0B81110EC01B861D86C5
:101910001C8680E0DF91CF911F910F91FF90EF9097
:10192000DF90CF90BF90089540E060EF111101C0AB
:101930006CEECE010E94CE0B01E0E12CD12C11E027
:10194000CE010E94A30BF82ECE010E94A30B91E0C2
:10195000F91218C0813099F51134C0F2DB86D1102C
:1019600002C081E08D878B81882381F22396EB2D45
:10197000FC2DCF01089629912193E817F907D9F793
:1019800081E0C8CFEE2DF0E0F8120FC08B8518175C
:10199000A0F4DE01AE0FBF1F13968C91802379F463
:1019A000F12C193008F41C87D12EEC0FFD1F838118
:1019B000902F9095892383830AC08113F1CFFE0174
:1019C000EE0DF11D8381802B8383FF24F3946F2D13
:1019D000CE010E94700B1F5F000F11F4E39401E031
:1019E00087E08E1508F0ACCFB7CFDC0180E0615006
:1019F00090F09D919827E92FEF70F0E0E859FF4FA4
:101A00002491E92FE295EF70F0E0E858FF4FE49160
:101A1000822F8E27ECCF0895FB018081883229F038
:101A200030F4803111F0823231F481E008958B334B
:101A3000E1F38234D1F380E00895FC01778366837B
:101A400014821582108289E0818381E082838383FE
:101A50000895CF93DF93EC010E941D0D1B8A1A8A13
:101A6000DF91CF910895CF93DF93EB0167E0CE0133
:101A70000E94F50C91E02F81281390E0892FDF91CF
:101A8000CF910895EF92FF920F931F93CF93DF931F
:101A90008C017B01D42FFC01868197810E94410C2F
:101AA000C0E041E0B701F801868197810E94710C86
:101AB000882329F0DC1729F0CF5FDC1790F780E04E
:101AC00006C0B701C8010E94330D8823A9F3DF9136
:101AD000CF911F910F91FF90EF900895EF92FF9299
:101AE0000F931F93CF93DF938C01EB017A01FC01DD
:101AF000868197810E942D0B882311F1BE01F80188
:101B0000868197810E941E0C40E06EEBF801868171
:101B100097810E94CE0BE701F9E0EF0EF11CF8016E
:101B2000868197810E94020C8993CE15DF05B9F753
:101B3000F801868197810E942D0B91E0813009F098
:101B400090E0892FDF91CF911F910F91FF90EF903F
:101B50000895CF93DF93EA010E946E0D982F88239A
:101B600041F068E0CE010E94F50C91E02885281331
:101B700090E0892FDF91CF910895EF92FF920F931C
:101B80001F93CF93DF93EC018B017A018E819F81AC
:101B90000E942D0BB8018E819F810E941E0C40E097
:101BA0006EE48E819F810E94CE0B40E0F70162813E
:101BB0008E819F810E94CE0B40E0F70163818E8170
:101BC0009F810E94CE0BF8018081803139F040E086
:101BD000F70164818E819F810E94CE0B8E819F814F
:101BE0000E942D0BB8018E819F810E941E0C48819E
:101BF00068E48E819F810E94CE0B64E170E080E0FA
:101C000090E00E948A138881882331F06AE070E0B6
:101C100080E090E00E948A138E819F81DF91CF91B6
:101C20001F910F91FF90EF900C942D0B0F931F932A
:101C3000CF93DF93EC018B018E819F810E942D0B4E
:101C4000B8018E819F810E941E0C40E064EB8E8162
:101C50009F810E94CE0B8E819F810E94A30B182F23
:101C60008E819F810E942D0B81E0111180E0DF9118
:101C7000CF911F910F910895CF93DF93CDB7DEB72A
:101C800029970FB6F894DEBF0FBECDBFFB012081B0
:101C9000203199F0AE014F5F5F4F0E94A90D88235C
:101CA00031F08D818F33A9F020F48F31A1F080E0E5
:101CB00007C08F3521F08F37D1F78CE001C08BE062
:101CC00029960FB6F894DEBF0FBECDBFDF91CF913E
:101CD00008958AE0F5CF89E0F3CFFF920F931F9329
:101CE000CF93DF93CDB7DEB728970FB6F894DEBF5A
:101CF0000FBECDBF8C01FC01868197810E94410CF3
:101D0000F8011482158241E0BE016F5F7F4FF80138
:101D1000868197810E94710C8823A9F1BE016F5FB3
:101D20007F4FC8010E94330D882369F3F801808139
:101D300081110BC0BE016F5F7F4FC8010E94160E5C
:101D4000882319F081E0F8018083F801F180BE0159
:101D50006F5F7F4FC8010E943C0E9F2DF81608F45C
:101D6000982FF801918384818F5F8483BE016F5F18
:101D70007F4FC8010E940C0D882329F2F80185814C
:101D80008F5F8583C0CF28960FB6F894DEBF0FBE55
:101D9000CDBFDF91CF911F910F91FF9008959F923A
:101DA000AF92BF92CF92DF92EF92FF920F931F9369
:101DB000CF93DF93CDB7DEB761970FB6F894DEBF50
:101DC0000FBECDBF8C015B01C22E89E0E82EF12C45
:101DD000493048F0E42EF12C8DE0E816F1041CF0B7
:101DE0009CE0E92EF12CDE2CB501C8010E943C0ECE
:101DF000E81215C099249394892D61960FB6F89432
:101E0000DEBF0FBECDBFDF91CF911F910F91FF902D
:101E1000EF90DF90CF90BF90AF909F900895AE016C
:101E20004F5F5F4FB501C8010E94A90D982E88230E
:101E300019F3F50180818031E9F28FE5FBE0EF16BF
:101E4000F10461F08CE0E816F10439F08FE1EAE08A
:101E5000EE16F10419F48FE301C08FE78D83AE0114
:101E60004F5F5F4FB501C8010E94BD0DF801818130
:101E70008D1508F48D2DF8018183C110BBCFD816C4
:101E800008F0B8CFD182D12CC12CF80184818C15F7
:101E90001D0409F00CF4B0CF4C2DBE01665F7F4FDE
:101EA000C8010E94420DF801F180BE01665F7F4FBC
:101EB000C8010E943C0E9F2DF81608F4982FF801D7
:101EC0009183FFEFCF1ADF0AE0CFEF92FF920F93DB
:101ED0001F93CF93DF93CDB7DEB728970FB6F89453
:101EE000DEBF0FBECDBF8C01693020F170E06D30D8
:101EF000710514F06CE070E0F8016183F12CE12CC5
:101F0000F80184818E151F04C1F0BCF04E2DBE0176
:101F10006F5F7F4FC8010E94420D21E0F8014181AF
:101F2000BE016F5F7F4FC8010E94CF0EFFEFEF1A17
:101F3000FF0AE6CF69E070E0DFCF28960FB6F8948D
:101F4000DEBF0FBECDBFDF91CF911F910F91FF90EC
:101F5000EF900895FC01868197810E94A30B91E088
:101F6000813009F090E0892F08958F929F92AF926F
:101F7000BF92CF92DF92EF92FF92CF93DF93EC016B
:101F800069508EEEC82E82E0D82E633040F4E62FE2
:101F9000F0E0EE0FFF1FEA5EFE4FC080D1808B8124
:101FA000882331F18881811123C00E9459134B018C
:101FB0005C010D2C000CEE08FF08CE010E94AA0F58
:101FC00081110BC00E9459136C197D098E099F095C
:101FD000681579058A059B0580F3DF91CF91FF9005
:101FE000EF90DF90CF90BF90AF909F908F9008952B
:101FF000B601DD0C880B990BDF91CF91FF90EF902C
:10200000DF90CF90BF90AF909F908F900C948A13E9
:10201000CF93DF93EC018E819F810E942D0B8E81E7
:102020009F810E943D0C488164E48E819F810E94C3
:10203000CE0B8A81882331F06981CE01DF91CF9167
:102040000C94B50FDF91CF910895FA01218130E012
:10205000322F2227330F330F330F808148E0849FC4
:10206000C0011124282B392BDB018C918031C1F464
:10207000678170E08681AB01481B5109CA019695C2
:10208000982F8827979587950E94D51B60517109D5
:1020900053E0220F331F5A95E1F72078260F371FA0
:1020A000C9010895EF92FF920F931F93CF93DF938F
:1020B000CDB7DEB729970FB6F894DEBF0FBECDBF00
:1020C0008C017B01AE014F5F5F4F0E94A90D8823F9
:1020D000A1F0AE014F5F5F4FB701C8010E9425100C
:1020E00029960FB6F894DEBF0FBECDBFDF91CF911A
:1020F0001F910F91FF90EF90089580E894EEF0CF3C
:102100000E945210813824EE92076CF0BC01990FA6
:10211000880B990B0E94AE1A20E030E040E05CE3AF
:102120000E94631B089560E070E08EEF92EC0895CA
:102130000F931F93CF93DF93CDB7DEB728970FB6DA
:10214000F894DEBF0FBECDBF8C01462FBE016F5F7E
:102150007F4F0E94420D882389F0BE016F5F7F4F41
:10216000C8010E94801028960FB6F894DEBF0FBEFB
:10217000CDBFDF91CF911F910F91089560E070E086
:102180008EEF92ECF0CFDC0115966C9315971696B6
:102190004C93169770E0FB01E156FF4FE4911796C0
:1021A000EC9317976A547F4FFB01649118966C93D8
:1021B000189740E85EE360E070E01D964D935D93F4
:1021C0006D937C93509708951F93CF93DF93EC0109
:1021D000162F62E08D810E949A140E945913605D4F
:1021E00077408109910969877A878B879C871A8B49
:1021F000DF91CF911F910895CF92DF92EF92FF92DE
:10220000CF93DF93DC011796CC911797D0E0611143
:10221000DC2F18962C91189730E0220F331F235390
:102220003F4F50E040E0F90185919491FC01F0802E
:10223000BA0190E080E0EF2DEC23ED1310C04F5F6A
:102240005F4F1D96CD90DD90ED90FC9050976C15F2
:102250007D058E059F0538F36FEF7FEFCB01DF9192
:10226000CF91FF90EF90DF90CF9008958F929F9243
:10227000AF92BF92CF92DF92EF92FF920F931F9394
:10228000CF93DF93CDB7DEB7C054D1400FB6F894EB
:10229000DEBF0FBECDBF8C01F62E0E945913F11088
:1022A00029C0F801C184D284E384F4849B01AC0189
:1022B0002C193D094E095F0969017A0130EDC316F9
:1022C00037E0D306E104F104A8F48189C05CDE4F55
:1022D0000FB6F894DEBF0FBECDBFDF91CF911F9137
:1022E0000F91FF90EF90DF90CF90BF90AF909F90B5
:1022F0008F900895F801618772878387948714828D
:10230000138212821182108262E085810E949A14E7
:1023100061E070E080E090E00E948A1361E0F801E3
:1023200085810E949A1460E0F80185810E94D6148C
:10233000F801868185518230E8F48CE494E00E94B3
:10234000C31362E0F80185810E949A14F801828922
:1023500090E00E94C313F89460E0C8010E94FC1052
:102360006F3F7F4F8F4F9F4F61F4F801118A789430
:1023700080E0ACCF64E170E080E090E00E948A13DE
:10238000E0CF61E0C8010E94FC106F3F7F4F8F4F8C
:102390009F4F59F39E012F5F3F4F79015E013FEB45
:1023A000A31A3EEFB30A670160E0C8010E94FC1067
:1023B000F601608371838283938361E0C8010E9488
:1023C000FC10F6016483758386839783F8E0CF0E53
:1023D000D11CCA14DB0441F7789430E020E0F70107
:1023E00080809180A280B38044815581668177810D
:1023F000FFEF8F169F06AF06BF0631F04F3F8FEFFE
:1024000058076807780719F4F801118AB1CFF90164
:1024100083E0F595E7958A95E1F7E00FF11F80815C
:10242000880F84169506A606B706F0F080832F5F06
:102430003F4FF8E0EF0EF11C2832310581F6F8012C
:10244000448120818181280F3327331F8281280F07
:10245000311D8381820F932F911D992748171906EB
:1024600099F681E0818B32CF8160E0CFCF92DF920D
:10247000EF92FF920F931F93CF93DF938C01C62FA0
:10248000642F0E943611882341F0F80186818C3038
:1024900009F45DC038F48B30E1F060E070E080EC6E
:1024A0009FE74CC085518230C0F7D2816D2F70E01C
:1024B000762F662766277F778381682B90E080E000
:1024C0000E94AC1A2DEC3CEC4CEC5DE30E94631BCB
:1024D00059C0628170E090E080E00E94AC1A6B010C
:1024E0007C01F801D381D7FF0AC0AC019B0160E0F9
:1024F00070E080E89FEB0E9492196B017C01DF7015
:102500006D2F70E090E080E00E94AE1A2DEC3CEC64
:102510004CEC5DE30E94631BA70196010E94931996
:10252000CC2361F026E636E646EE5FE30E94631BAD
:1025300020E030E040E052E40E949319DF91CF9117
:102540001F910F91FF90EF90DF90CF900895D2816F
:102550006D2F70E090E080E00E94AC1A6B017C016E
:10256000F80163816F7070E090E080E00E94AE1A25
:102570002DEC3CEC4CEC5DE30E94631BA701960143
:102580000E949319D7FFCCCF9058CACFCF92DF9239
:10259000EF92FF92CF93DF93EC010E9436118823D4
:1025A00041F08E818B3028F08D3040F085518230A3
:1025B00030F160E070E080EC9FE71AC0698170E064
:1025C00090E080E00E94AE1A2DEC3CEC4CEC5DE318
:1025D0000E94631B6B017C01688170E090E080E0E9
:1025E0000E94AE1A9B01AC01C701B6010E9493196B
:1025F000DF91CF91FF90EF90DF90CF9008956881A9
:10260000798176276727762790E080E00E94AC1AD0
:102610002DEC3CEC4CEC5DE30E94631BE9CF1F9278
:102620000F920FB60F9211242F933F938F939F9386
:10263000AF93BF938091220290912302A091240234
:10264000B09125023091210223E0230F2D3768F14C
:1026500026E8230F0296A11DB11D2093210280932D
:10266000220290932302A0932402B093250280912A
:102670001D0290911E02A0911F02B09120020196AE
:10268000A11DB11D80931D0290931E02A0931F02F5
:10269000B0932002BF91AF919F918F913F912F9165
:1026A0000F900FBE0F901F9018950196A11DB11DA0
:1026B000D4CF2FB7F89460912202709123028091B9
:1026C0002402909125022FBF08953FB7F89480917E
:1026D0001D0290911E02A0911F02B091200226B50A
:1026E000A89B05C02F3F19F00196A11DB11D3FBF4A
:1026F000BA2FA92F982F8827BC01CD01620F711D19
:10270000811D911D42E0660F771F881F991F4A9512
:10271000D1F708958F929F92AF92BF92CF92DF929E
:10272000EF92FF926B017C010E9465134B015C01EB
:10273000C114D104E104F104E9F00E9491190E944E
:102740006513681979098A099B09683E73408105F8
:10275000910570F321E0C21AD108E108F10888EE72
:10276000880E83E0981EA11CB11CC114D104E104A1
:10277000F10429F7FF90EF90DF90CF90BF90AF90DA
:102780009F908F9008958230910538F0880F991F9F
:10279000880F991F05970197F1F70895789484B5EC
:1027A000836084BD85B5836085BDEEE6F0E0808101
:1027B00081608083E1E8F0E082E080838081816055
:1027C0008083E0E8F0E0808181608083E1EBF0E0ED
:1027D000808184608083E0EBF0E080818160808391
:1027E00087E880937A001092C1000895883020F025
:1027F0008D3008F48DE08E502091000190E4299FE7
:10280000900111248770822B80937C0080917A0044
:10281000806480937A0080917A0086FDFCCF80915D
:1028200078009091790008951F93CF93DF93182F2C
:10283000EB0161E00E949A14209739F460E0812F47
:10284000DF91CF911F910C94D614CF3FD10511F495
:1028500061E0F5CFE12FF0E0E857FF4FE491E4307D
:1028600031F140F4E230B1F0E330E1F0C038D105AD
:102870007CF7E4CFE83029F1E93059F1E530B1F7E0
:1028800080918000806280938000D0938B00C09301
:102890008A0004C084B5806884BDC7BDDF91CF9134
:1028A0001F91089584B5806284BDC8BDF7CF809123
:1028B0008000806880938000D0938900C093880056
:1028C000EDCF8091B00080688093B000C093B300DA
:1028D000E5CF8091B00080628093B000C093B400D7
:1028E000DDCF843081F028F48230E9F08330F9F0D4
:1028F0000895883071F0893091F08530B9F4809175
:1029000080008F7D03C0809180008F77809380004E
:1029100008958091B0008F778093B00008958091E2
:10292000B0008F7DF9CF84B58F7784BD089584B5CD
:102930008F7DFBCFCF93DF9390E0FC01E156FF4FFB
:1029400024918A549F4FFC0184918823C9F090E020
:10295000880F991FFC01EF51FF4FA591B491FC0125
:10296000E952FF4FC591D49161110DC09FB7F89402
:102970008C91209582238C938881282328839FBF64
:10298000DF91CF910895623051F49FB7F8943C9154
:10299000822F809583238C93E8812E2BEFCF8FB7E6
:1029A000F894EC912E2B2C938FBFEACF1F93CF93EB
:1029B000DF93282F30E0F901E857FF4F8491F901A8
:1029C000E156FF4FD491F901EA54FF4FC491CC2353
:1029D000A9F0162F81110E947114EC2FF0E0EE0F78
:1029E000FF1FE952FF4FA591B4918FB7F894EC9176
:1029F000111108C0D095DE23DC938FBFDF91CF91FA
:102A00001F910895DE2BF8CFFC01918D228D892F27
:102A100090E0805C9F4F821B91098F7399270895E6
:102A2000FC01918D828D981731F0828DE80FF11D98
:102A3000858D90E008958FEF9FEF0895FC01918DB3
:102A4000828D981761F0A28DAE0FBF2FB11D5D96DC
:102A50008C91928D9F5F9F73928F90E008958FEF7E
:102A60009FEF0895FC01538D448D252F30E0842F76
:102A700090E0821B930B541710F0CF9608950197A6
:102A8000089587E896E1892B49F080E090E0892B52
:102A900029F00E94871681110C9400000895FC0112
:102AA000A48DA80FB92FB11DA35ABF4F2C91848DAF
:102AB00090E001968F739927848FA689B7892C930C
:102AC000A089B1898C9180648C93938D848D9813A7
:102AD00006C00288F389E02D80818F7D8083089570
:102AE000CF93DF93EC01888D8823B9F0AA89BB8945
:102AF000E889F9898C9185FD03C0808186FD0DC030
:102B00000FB607FCF7CF8C9185FFF2CF808185FF50
:102B1000EDCFCE010E944F15E9CFDF91CF910895FF
:102B2000EF92FF920F931F93CF93DF93EC0181E01D
:102B3000888F9B8D8C8D981316C0E889F9898081C8
:102B400085FF11C0EE89FF896083E889F98980815A
:102B50008064808381E090E0DF91CF911F910F919D
:102B6000FF90EF900895F62E0B8D10E00F5F1F4F32
:102B70000F731127E02E8C8D8E110CC00FB607FC41
:102B8000FACFE889F989808185FFF5CFCE010E94CF
:102B90004F15F1CFEB8DEC0FFD2FF11DE35AFF4FD9
:102BA000F0820B8FEA89FB8980818062D2CFCF923D
:102BB000DF92EF92FF921F93CF93DF93EC016A01B4
:102BC0007B01122FE889F98982E08083C11481EEAC
:102BD000D806E104F104A1F060E079E08DE390E033
:102BE000A70196010E94E91B2150310941095109B1
:102BF0005695479537952795211580E1380798F028
:102C0000E889F989108260E874E88EE190E0A70114
:102C100096010E94E91B215031094109510956953D
:102C2000479537952795EC85FD853083EE85FF85A3
:102C30002083188EEC89FD891083EA89FB898081C5
:102C400088698083EA89FB8980818F7D8083DF9119
:102C5000CF911F91FF90EF90DF90CF9008951F923A
:102C60000F920FB60F9211242F938F939F93EF9390
:102C7000FF93E0913602F09137028081E0913C02AF
:102C8000F0913D0282FD1BC0908180913F028F5FD9
:102C90008F7320914002821741F0E0913F02F0E0F3
:102CA000EA5DFD4F958F80933F02FF91EF919F91D9
:102CB0008F912F910F900FBE0F901F9018958081CC
:102CC000F4CF1F920F920FB60F9211242F933F93C0
:102CD0004F935F936F937F938F939F93AF93BF9324
:102CE000EF93FF9386E292E00E944F15FF91EF91E0
:102CF000BF91AF919F918F917F916F915F914F9114
:102D00003F912F910F900FBE0F901F90189586E264
:102D100092E00E94041521E0892B09F420E0822F23
:102D20000895E6E2F2E01382128288EE93E0A0E0DA
:102D3000B0E084839583A683B78380E291E091839A
:102D4000808385EC90E09587848784EC90E097877A
:102D5000868780EC90E0918B808B81EC90E0938B68
:102D6000828B82EC90E0958B848B86EC90E0978B45
:102D7000868B118E128E138E148E0895AF92BF9291
:102D8000CF92DF92EF92FF920F931F93CF93DF9337
:102D90006C017B018B01040F151FEB015E01AE1866
:102DA000BF08C017D10759F06991D601ED91FC9188
:102DB0000190F081E02DC6010995892B79F7C501B5
:102DC000DF91CF911F910F91FF90EF90DF90CF9007
:102DD000BF90AF900895FB0101900020E9F7319773
:102DE000AF01461B570BDC01ED91FC910280F38192
:102DF000E02D09946115710511F00C94EB1690E02B
:102E000080E00895DC01ED91FC910190F081E02DCE
:102E100009946EE271E00C94EB160F931F93CF931D
:102E2000DF938C01D0E0C0E06115710519F00E94BC
:102E3000EB16EC01C8010E9409178C0F9D1FDF9152
:102E4000CF911F910F9108958F929F92AF92BF9251
:102E5000EF92FF920F931F93CF93DF93CDB7DEB71F
:102E6000A1970FB6F894DEBF0FBECDBF7C01FA016B
:102E7000CB0119A2223008F42AE08E010F5D1F4F0A
:102E8000822E912CB12CA12CBF01A50194010E948E
:102E9000E91BF901CA016A300CF5605DD8016E9337
:102EA0008D01232B242B252B79F790E080E01097C0
:102EB00021F0BD01C7010E94EB16A1960FB6F89450
:102EC000DEBF0FBECDBFDF91CF911F910F91FF905D
:102ED000EF90BF90AF909F908F900895695CDECF88
:102EE000CF92DF92EF92FF920F931F93CF93DF93D6
:102EF0002115310581F4DC01ED91FC910190F08107
:102F0000E02D642FDF91CF911F910F91FF90EF90F3
:102F1000DF90CF9009942A30310501F52AE077FF40
:102F20001DC06A017B01EC016DE20E9402178C0159
:102F300044275527BA014C195D096E097F092AE01B
:102F4000CE010E942417800F911FDF91CF911F9116
:102F50000F91FF90EF90DF90CF900895DF91CF9188
:102F60001F910F91FF90EF90DF90CF900C9424175A
:102F70009A01AB01770F660B770B0C947017211534
:102F8000310541F4DC01ED91FC910190F081E02DDF
:102F9000642F09940C9424179A01AB0170E060E04F
:102FA0000C94BF172F923F924F925F926F927F9235
:102FB0008F929F92AF92BF92CF92DF92EF92FF9249
:102FC0001F93CF93DF93EC016A017B01722EAB015B
:102FD0009601CB01B6010E94D01B61E371E0811123
:102FE00026C046015701E894B7F82FEF3FEF4FE7AF
:102FF0005FE7C501B4010E94D01B81110CC02FEF07
:103000003FEF4FE75FE7C501B4010E94FF1965E399
:1030100071E0181664F02FEF3FEF4FE75FE4C70150
:10302000B6010E945E1B1816B4F469E371E0CE018C
:10303000DF91CF911F91FF90EF90DF90CF90BF90E5
:10304000AF909F908F907F906F905F904F903F9048
:103050002F900C94EB162FEF3FEF4FE75FECC7017B
:10306000B6010E94FF1987FDE0CF20E030E0A90102
:10307000C701B6010E94FF19312C212C87FF09C01E
:103080006DE2CE010E9402171C01F7FAF094F7F8E6
:10309000F09410E060E070E080E09FE3711641F092
:1030A00020E030E040E251E40E94041A1F5FF6CFB6
:1030B000A70196010E9493192B013C010E947D1AE1
:1030C0004B015C012AE0BC01A401CE010E9424173F
:1030D0007C01E20CF31C1123B1F1C501B4010E9483
:1030E000AC1A9B01AC01C301B2010E9492194B01C1
:1030F0005C016EE2CE010E940217E80EF91E11502B
:1031000010F120E030E040E251E4C501B4010E943A
:10311000631B2B013C010E947D1A4B014AE050E0E9
:10312000CE010E94CC17E80EF91EB40190E080E0B9
:103130000E94AC1A9B01AC01C301B2010E9492191A
:103140004B015C01DCCFC701DF91CF911F91FF9054
:10315000EF90DF90CF90BF90AF909F908F907F9037
:103160006F905F904F903F902F9008950C94D217DE
:103170000F931F93CF93DF93EC010E94591368873D
:1031800079878A879B87E881F9810484F585E02D1A
:10319000CE01099597FF15C00E945913088519851E
:1031A0002A853B85601B710B820B930B0C811D8163
:1031B0002E813F81601771078207930720F38FEFFD
:1031C0009FEFDF91CF911F910F910895FF920F9381
:1031D0001F93CF93DF93EC018B01F42ECE010E945D
:1031E000B81897FD1DC08D329105D1F09C01205378
:1031F00031092A303105A0F0FF2019F08E329105F7
:1032000079F00130110551F00230110589F48D304B
:10321000910571F05CF40997029750F08FEF9FEFE2
:10322000DF91CF911F910F91FF9008958097B1F793
:10323000E881F9810284F385E02DCE010995CECF96
:10324000BF92CF92DF92EF92FF920F931F93CF9393
:10325000DF938C01C42F40E00E94E618FC01C12CD2
:10326000D12C760197FD3EC0B12C0C2E000CDD0B4D
:10327000CE17DF07D9F0ED32F10509F43FC0CF01D9
:10328000C0970A9798F4AAE0B0E0A70196010E94BF
:10329000111C6F01FF0FEE08FF08C60ED71EE81EB7
:1032A000F91E80E3C81AD108E108F108D801ED91B0
:1032B000FC910284F385E02DC8010995C8010E94A4
:1032C000B818FC01C0970A9798F2CE17DF0781F271
:1032D000BB2041F0F094E094D094C094C11CD11C68
:1032E000E11CF11CC701B601DF91CF911F910F9135
:1032F000FF90EF90DF90CF90BF900895BB24B394E0
:10330000D5CF08950E94CE130E9481190E94A60075
:10331000C1E4D5E10E9432032097E1F30E944115F8
:10332000F9CF08955058BB27AA270E94AA190C94D8
:10333000241B0E94161B38F00E941D1B20F039F43C
:103340009F3F19F426F40C94131B0EF4E095E7FB51
:103350000C940D1BE92F0E94351B58F3BA17620716
:1033600073078407950720F079F4A6F50C94571B92
:103370000EF4E0950B2EBA2FA02D0B01B901900190
:103380000C01CA01A0011124FF27591B99F0593FD4
:1033900050F4503E68F11A16F040A22F232F342F1C
:1033A0004427585FF3CF469537952795A795F0406A
:1033B0005395C9F77EF41F16BA0B620B730B840B7F
:1033C000BAF09150A1F0FF0FBB1F661F771F881F37
:1033D000C2F70EC0BA0F621F731F841F48F487958F
:1033E00077956795B795F7959E3F08F0B0CF939581
:1033F000880F08F09927EE0F9795879508950E94FA
:10340000E91A08F481E008950E94181A0C94241B0C
:103410000E941D1B58F00E94161B40F029F45F3FCC
:1034200029F00C940D1B51110C94581B0C94131B78
:103430000E94351B68F39923B1F3552391F3951B33
:10344000550BBB27AA2762177307840738F09F5FC5
:103450005F4F220F331F441FAA1FA9F335D00E2E32
:103460003AF0E0E832D091505040E695001CCAF79F
:103470002BD0FE2F29D0660F771F881FBB1F261762
:1034800037074807AB07B0E809F0BB0B802DBF0139
:10349000FF2793585F4F3AF09E3F510578F00C9408
:1034A0000D1B0C94581B5F3FE4F3983ED4F38695B4
:1034B00077956795B795F7959F5FC9F7880F911D29
:1034C0009695879597F90895E1E0660F771F881F15
:1034D000BB1F621773078407BA0720F0621B730BC8
:1034E000840BBA0BEE1F88F7E09508950E947D1AB1
:1034F0006894B1110C94581B08950E943D1B88F0EC
:103500009F5798F0B92F9927B751B0F0E1F0660FA7
:10351000771F881F991F1AF0BA95C9F714C0B130E8
:1035200091F00E94571BB1E008950C94571B672F30
:10353000782F8827B85F39F0B93FCCF38695779517
:103540006795B395D9F73EF4909580957095619500
:103550007F4F8F4F9F4F0895E89409C097FB3EF42B
:1035600090958095709561957F4F8F4F9F4F9923D0
:10357000A9F0F92F96E9BB279395F695879577954E
:103580006795B795F111F8CFFAF4BB0F11F460FF0E
:103590001BC06F5F7F4F8F4F9F4F16C0882311F066
:1035A00096E911C0772321F09EE8872F762F05C07A
:1035B000662371F096E8862F70E060E02AF09A9515
:1035C000660F771F881FDAF7880F9695879597F90A
:1035D0000895990F0008550FAA0BE0E8FEEF1616A4
:1035E0001706E807F907C0F012161306E407F507F7
:1035F00098F0621B730B840B950B39F40A2661F06B
:10360000232B242B252B21F408950A2609F4A1400D
:10361000A6958FEF811D811D089597F99F6780E81A
:1036200070E060E008959FEF80EC089500240A9414
:103630001616170618060906089500240A9412168D
:103640001306140605060895092E0394000C11F4C0
:10365000882352F0BB0F40F4BF2B11F460FF04C06D
:103660006F5F7F4F8F4F9F4F089557FD9058440FC6
:10367000551F59F05F3F71F04795880F97FB991FD1
:1036800061F09F3F79F0879508951216130614068E
:10369000551FF2CF4695F1DF08C01616170618061B
:1036A000991FF1CF86957105610508940895E894F6
:1036B000BB2766277727CB0197F908950E94E91A5F
:1036C00008F48FEF08950E94761B0C94241B0E942F
:1036D000161B38F00E941D1B20F0952311F00C944E
:1036E0000D1B0C94131B11240C94581B0E94351BAA
:1036F00070F3959FC1F3950F50E0551F629FF00145
:10370000729FBB27F00DB11D639FAA27F00DB11D5D
:10371000AA1F649F6627B00DA11D661F829F2227E6
:10372000B00DA11D621F739FB00DA11D621F839F6D
:10373000A00D611D221F749F3327A00D611D231F43
:10374000849F600D211D822F762F6A2F11249F5791
:1037500050409AF0F1F088234AF0EE0FFF1FBB1F94
:10376000661F771F881F91505040A9F79E3F510553
:1037700080F00C940D1B0C94581B5F3FE4F3983EB3
:10378000D4F3869577956795B795F795E7959F5FFD
:10379000C1F7FE2B880F911D9695879597F908958F
:1037A0000E94E91A880B990B089597FB072E16F4CF
:1037B000009407D077FD09D00E941C1C07FC05D09F
:1037C0003EF4909581959F4F0895709561957F4F38
:1037D0000895A1E21A2EAA1BBB1BFD010DC0AA1F52
:1037E000BB1FEE1FFF1FA217B307E407F50720F06A
:1037F000A21BB30BE40BF50B661F771F881F991FE5
:103800001A9469F760957095809590959B01AC012D
:10381000BD01CF010895EE0FFF1F0590F491E02D3B
:1038200009940E94301CA59F900DB49F900DA49FF9
:10383000800D911D11240895AA1BBB1B51E107C0E7
:10384000AA1FBB1FA617B70710F0A61BB70B881F30
:10385000991F5A95A9F780959095BC01CD010895BF
:10386000A29FB001B39FC001A39F700D811D1124C1
:10387000911DB29F700D811D1124911D0895F9991C
:10388000FECF92BD81BDF89A992780B50895262F65
:10389000F999FECF1FBA92BD81BD20BD0FB6F89435
:0E38A000FA9AF99A0FBE01960895F894FFCF98
:1038AE00015A5800574250726F56334132303234FB
:1038BE003032313641005E00BC007701000000005E
:1038CE009015BE163215701504151E1510150D0A1D
:0E38DE00006E616E00696E66006F7666000017
:00000001FF
