:100000000C9462000C948A000C948A000C948A0070
:100010000C948A000C948A000C948A000C948A0038
:100020000C948A000C948A000C948A000C948A0028
:100030000C948A000C948A000C948A000C948A0018
:100040000C946D0A0C948A000C94940D0C94C60DBB
:100050000C948A000C948A000C948A000C948A00F8
:100060000C948A000C948A0000000009000302002E
:10007000000405080000000000000000000000016E
:10008000020408102040800102040810200102042C
:100090000810204080400404040404040404020204
:1000A000020202020303030303030202030000002F
:1000B00000250028002B0000000000240027002A53
:1000C0000000F60D11241FBECFEFD4E0DEBFCDBF80
:1000D00011E0A0E0B1E0EEEAF6E202C005900D9278
:1000E000A038B107D9F722E0A0E8B1E001C01D9225
:1000F000A437B207E1F710E0C2E6D0E004C02197D0
:10010000FE010E941F13C136D107C9F70E94AA1031
:100110000C9455130C9400000C9447130C943F134B
:10012000CF92DF92EF92FF920F931F93CF93DF93C3
:1001300061E087E00E94F80B61E086E00E94F80B26
:1001400061E083E00E94F80B61E087E00E94340CDC
:1001500060E083E10E94F80B61E085E00E94F80B0B
:1001600026E040E05BE460E070E087ED91E00E9413
:100170003C0D1092C7011092C60185B5887F816041
:1001800085BDC091A801D091A901CE010E948E0029
:10019000682F70E090E080E00E94D41160939C0191
:1001A00070939D0180939E0190939F01CE010196D3
:1001B0000E948E00682F70E090E080E00E94D411D1
:1001C00060939401709395018093960190939701A9
:1001D000CE0102960E948E00682F70E06C597F4F0E
:1001E000072E000C880B990B0E94D6116093980182
:1001F0007093990180939A0190939B01CE0103968D
:100200000E948E00682F70E090E080E00E94D41180
:100210006093900170939101809392019093930168
:100220002496CE010E948E00682F70E090E080E05E
:100230000E94D41120E030E048EC52E40E942711E3
:10024000811106C180E090E0A8ECB2E480938C01BB
:1002500090938D01A0938E01B0938F0120E030E048
:1002600048EC52E46091940170919501809196015F
:10027000909197010E942C1120919C0130919D0139
:1002800040919E0150919F010E94BB106B017C0127
:10029000C092A401D092A501E092A601F092A7011C
:1002A00020E030E048EC52E46091900170919101BF
:1002B00080919201909193010E942C1120919801BC
:1002C0003091990140919A0150919B010E94BB107D
:1002D0006093A0017093A1018093A2019093A30168
:1002E00020E030E044EB52E4C701B6010E948612E0
:1002F0001816A4F58091A8019091A90140E050E062
:1003000060EA71E44093A4015093A5016093A601B3
:100310007093A70140939C0150939D0160939E01AF
:1003200070939F0110929401109295011092960182
:100330001092970164E10E948C0060919401709189
:10034000950180919601909197010E94A51180914D
:10035000A8019091A90101960E948C0020E030E054
:1003600046E953E46091A0017091A1018091A2013E
:100370009091A3010E9486121816ACF58091A801F5
:100380009091A90140E050E06CED72E44093A0012F
:100390005093A1016093A2017093A301409398012F
:1003A0005093990160939A0170939B011092900170
:1003B0001092910110929201109293016AE00296BC
:1003C0000E948C0060919001709191018091920146
:1003D000909193010E94A5118091A8019091A9018B
:1003E00003960E948C000091A8011091A901E801D8
:1003F000269680E8E82E81E0F82E065F1F4FCE019A
:100400000E943F13F70181937F0121960C171D076E
:10041000B1F760918001709181018091820190918A
:1004200083019B01AC010E94F812882341F01092D5
:100430008001109281011092820110928301DF915C
:10044000CF911F910F91FF90EF90DF90CF90089583
:1004500010928C0110928D0110928E0110928F01DA
:1004600060E0CE010E948C00F9CE8F929F92AF92F5
:10047000BF92CF92DF92EF92FF92CF93DF93E09003
:10048000A801F090A90124E0E20EF11CC7010E942E
:100490008E00682F70E090E080E00E94D41160939D
:1004A0008C0170938D0180938E0190938F0120E0D9
:1004B00030E048EC52E40E942711882309F492C0EE
:1004C00010928C0110928D0110928E0110928F016A
:1004D00080E094E0A6EAB7E48093880190938901D4
:1004E000A0938A01B0938B0160E0C7010E948C0049
:1004F00080E590E09093C9018093C8011092AE010D
:100500001092AF011092B0011092B1011092AA01A5
:100510001092AB011092AC011092AD011092C20189
:100520001092C3011092C4011092C50120E030E086
:1005300040EA51E46091C2017091C3018091C4010D
:100540009091C5010E94271187FF5BC083E10E9443
:10055000540BBC01990F880B990B0E94D61120E017
:1005600030E040EA50E40E948B1220E030E040E8A6
:100570005AE30E948B1229E831E440E450E40E94DF
:100580008B129B01AC016091AE017091AF01809123
:10059000B0019091B1010E94BB106093AE017093C5
:1005A000AF018093B0019093B10160E471E080E00D
:1005B00090E00E94E80A20E030E040E85FE36091CC
:1005C000C2017091C3018091C4019091C5010E9444
:1005D000BB106093C2017093C3018093C4019093D8
:1005E000C501A4CF80E094E0A6E2B8E4809388013E
:1005F00090938901A0938A01B0938B0185E090E0EC
:1006000079CF20E030E040EA51E46091AE01709192
:10061000AF018091B0019091B1010E942C116B014A
:100620007C0120E030E0A9010E948612181624F017
:10063000F7FAF094F7F8F094C092B601D092B701AF
:10064000E092B801F092B90187ED91E00E94620C4E
:10065000892B79F041E070E060E087ED91E00E9445
:1006600048106093CA017093CB018093CC019093A2
:10067000CD018091CA019091CB01A091CC01B091A4
:10068000CD01873C9E40A741B105A1F480E090E0F8
:10069000A8ECB2E480938C0190938D01A0938E011D
:1006A000B0938F018091A8019091A90164E604960E
:1006B0000E948C008091CA019091CB01A091CC0145
:1006C000B091CD01863C9E40A741B10581F41092C6
:1006D0008C0110928D0110928E0110928F018091E9
:1006E000A8019091A90160E004960E948C0080917D
:1006F000CA019091CB01A091CC01B091CD0101979D
:10070000A109B1098F3F9105A105B10598F485B5FF
:10071000887F816085BD6091CA017091CB0185E0C1
:100720000E94720B8091CA019091CB019093C701F6
:100730008093C6018091CA019091CB01A091CC0118
:10074000B091CD018F309742A105B10549F470E019
:1007500060E085E00E94720B1092C7011092C60102
:100760006091CA017091CB018091CC019091CD0133
:100770006B017C0120E1C21A27E2D20AE108F108EC
:1007800020E3C21625E7D206E104F10408F069C0AF
:100790000E94D61120E030E44CE156E40E94BA10E9
:1007A00020E030E048EC52E40E942C116B017C0107
:1007B000C092A401D092A501E092A601F092A701F7
:1007C0000E949E114B01072E000C880B990B0E9472
:1007D000D6119B01AC0120939C0130939D01409365
:1007E0009E0150939F01C701B6010E94BA1020E0FC
:1007F00030E048EC52E40E948B12609394017093B5
:1008000095018093960190939701682D8091A8019E
:100810009091A9010E948C006091940170919501C2
:1008200080919601909197010E94A5118091A80155
:100830009091A90101960E948C0061E071E087ED22
:1008400091E00E945F0E4091A4015091A50160913A
:10085000A6017091A70122E030E087ED91E00E94AF
:10086000CE0F6091CA017091CB018091CC01909123
:10087000CD016B017C0120E4C21A2CE9D20AE10807
:10088000F10828EBC21628E8D206E104F10408F0CA
:1008900074C00E94D61120E030E44CE157E40E947D
:1008A000BA1020E030E048EC52E40E942C114B01D9
:1008B0005C018092A0019092A101A092A201B0924D
:1008C000A3010E949E11072E000C880B990B0E9419
:1008D000D6116B017C01C0929801D0929901E092EF
:1008E0009A01F0929B01AC019B01C501B4010E94E9
:1008F000BA1020E030E048EC52E40E948B12609382
:10090000900170939101809392019093930120E064
:1009100030E048EC52E4C701B6010E94BA100E94D0
:10092000A5118091A8019091A90102960E948C00C6
:100930006091900170919101809192019091930149
:100940000E94A5118091A8019091A90103960E948F
:100950008C0062E171E087ED91E00E945F0E4091B2
:10096000A0015091A1016091A2017091A30122E028
:1009700030E087ED91E00E94CE0F8091CA01909106
:10098000CB01A091CC01B091CD01893E9340A1054E
:10099000B10509F003C270E060E085E00E94720BCF
:1009A00085B5887F836085BD60E083E00E94340C5C
:1009B00060E087E00E94340C1092BE011092BF01EB
:1009C0001092C0011092C10180E090E0AAE7B5E466
:1009D0008093C2019093C301A093C401B093C50159
:1009E00020E030E0A9016091C2017091C3018091C3
:1009F000C4019091C5010E94861218160CF0E9C03E
:100A000080E10E94540BBC01990F880B990B0E9446
:100A1000D6112DEC3CEC4CE453E40E942C1120E068
:100A200030E040E952E40E948B120E949E11072E92
:100A3000000C880B990B0E94D6116B017C018090F1
:100A4000800190908101A0908201B0908301A50166
:100A500094010E948612A501940118160CF0AEC0F4
:100A6000C701B6010E94BA100E949E11072E000C09
:100A7000880B990B0E94D6112091A0013091A10101
:100A80004091A2015091A3010E94861218160CF405
:100A9000A0C061E086E00E94340C20E030E040EA33
:100AA00051E46091C2017091C3018091C4019091A1
:100AB000C5010E942C116B017C016091C8017091ED
:100AC000C901072E000C880B990B0E94D6119B01BF
:100AD000AC01C701B6010E94BB100E94A511CB0159
:100AE0000E94210B60E086E00E94340C20E030E0A0
:100AF00040EA51E46091C2017091C3018091C40148
:100B00009091C5010E942C116B017C016091C8017C
:100B10007091C901072E000C880B990B0E94D61109
:100B20009B01AC01C701B6010E94BB100E94A51138
:100B3000CB010E94210B20E030E040E85FE36091B0
:100B4000C2017091C3018091C4019091C5010E94BE
:100B5000BA106093C2017093C3018093C401909353
:100B6000C50120E030E040E85FE36091BE01709194
:100B7000BF018091C0019091C1010E94BB106093A0
:100B8000BE017093BF018093C0019093C10120E02A
:100B900030E040E85FE36091BA017091BB01809161
:100BA000BC019091BD010E94BB106093BA0170938B
:100BB000BB018093BC019093BD0112CF60E070E057
:100BC00084EB93E40E94BA10A70196010E94BB1027
:100BD0004BCF8091880190918901A0918A01B091B9
:100BE0008B018093C2019093C301A093C401B09381
:100BF000C50120E030E0A9016091C2017091C301FC
:100C00008091C4019091C5010E94861218160CF0C3
:100C1000AAC080E10E94540BBC01990F880B990B6C
:100C20000E94D6112DEC3CEC4CE453E40E942C11B4
:100C300020E030E040E952E40E948B120E949E11B5
:100C4000072E000C880B990B0E94D6116B017C01BA
:100C50008090800190908101A0908201B0908301EA
:100C6000A50194010E948612A501940118160CF0AA
:100C70006FC0C701B6010E94BA100E949E11072ED4
:100C8000000C880B990B0E94D6112091A001309185
:100C9000A1014091A2015091A3010E94861287FFF9
:100CA00062C061E086E00E94340C8091C80190919E
:100CB000C9010E94210B60E086E00E94340C809103
:100CC000C8019091C9010E94210B20E030E040E86A
:100CD0005FE36091C2017091C3018091C401909162
:100CE000C5010E94BA106093C2017093C301809342
:100CF000C4019093C50120E030E040E85FE36091DB
:100D0000BE017091BF018091C0019091C1010E940C
:100D1000BB106093BE017093BF018093C00190939C
:100D2000C10120E030E040E85FE36091BA017091DA
:100D3000BB018091BC019091BD010E94BB106093EA
:100D4000BA017093BB018093BC019093BD0151CF58
:100D500060E070E084EB93E40E94BA10A701960172
:100D60000E94BB108ACF68EE73E080E090E00E94A2
:100D7000E80A61E087E00E94340C62E271E087EDEE
:100D800091E00E94720E85B5887F816085BD60917B
:100D9000C6017091C70185E00E94720B8091CA0163
:100DA0009091CB01A091CC01B091CD01883E9340B0
:100DB000A105B10509F002C270E060E085E00E9483
:100DC000720B85B5887F836085BD61E083E00E94FA
:100DD000340C60E087E00E94340C1092BE01109247
:100DE000BF011092C0011092C10180E090E0AAE71B
:100DF000B5E48093C2019093C301A093C401B09362
:100E0000C50120E030E0A9016091C2017091C301E9
:100E10008091C4019091C5010E94861218160CF0B1
:100E2000E8C080E10E94540BBC01990F880B990B1C
:100E30000E94D6112DEC3CEC4CE453E40E942C11A2
:100E400020E030E040E952E40E948B120E949E11A3
:100E5000072E000C880B990B0E94D6116B017C01A8
:100E60008090800190908101A0908201B0908301D8
:100E7000A50194010E948612A501940118160CF098
:100E8000ADC0C701B6010E94BA100E949E11072E84
:100E9000000C880B990B0E94D6112091A40130916F
:100EA000A5014091A6015091A7010E94271187FD3D
:100EB000A0C061E086E00E94340C20E030E040EA0F
:100EC00051E46091C2017091C3018091C40190917D
:100ED000C5010E942C116B017C016091C8017091C9
:100EE000C901072E000C880B990B0E94D6119B019B
:100EF000AC01C701B6010E94BB100E94A511CB0135
:100F00000E94210B60E086E00E94340C20E030E07B
:100F100040EA51E46091C2017091C3018091C40123
:100F20009091C5010E942C116B017C016091C80158
:100F30007091C901072E000C880B990B0E94D611E5
:100F40009B01AC01C701B6010E94BB100E94A51114
:100F5000CB010E94210B20E030E040E85FE360918C
:100F6000C2017091C3018091C4019091C5010E949A
:100F7000BA106093C2017093C3018093C40190932F
:100F8000C50120E030E040E85FE36091BE01709170
:100F9000BF018091C0019091C1010E94BB1060937C
:100FA000BE017093BF018093C0019093C10120E006
:100FB00030E040E85FE36091BA017091BB0180913D
:100FC000BC019091BD010E94BB106093BA01709367
:100FD000BB018093BC019093BD0113CF60E070E032
:100FE00084EB93E40E94BA10A70196010E94BB1003
:100FF0004CCF8091880190918901A0918A01B09194
:101000008B018093C2019093C301A093C401B0935C
:10101000C50120E030E0A9016091C2017091C301D7
:101020008091C4019091C5010E94861218160CF09F
:10103000AAC080E10E94540BBC01990F880B990B48
:101040000E94D6112DEC3CEC4CE453E40E942C1190
:1010500020E030E040E952E40E948B120E949E1191
:10106000072E000C880B990B0E94D6116B017C0196
:101070008090800190908101A0908201B0908301C6
:10108000A50194010E948612A501940118160CF086
:101090006FC0C701B6010E94BA100E949E11072EB0
:1010A000000C880B990B0E94D6112091A40130915D
:1010B000A5014091A6015091A7010E94271187FD2B
:1010C00062C061E086E00E94340C8091C80190917A
:1010D000C9010E94210B60E086E00E94340C8091DF
:1010E000C8019091C9010E94210B20E030E040E846
:1010F0005FE36091C2017091C3018091C40190913E
:10110000C5010E94BA106093C2017093C30180931D
:10111000C4019093C50120E030E040E85FE36091B6
:10112000BE017091BF018091C0019091C1010E94E8
:10113000BB106093BE017093BF018093C001909378
:10114000C10120E030E040E85FE36091BA017091B6
:10115000BB018091BC019091BD010E94BB106093C6
:10116000BA017093BB018093BC019093BD0151CF34
:1011700060E070E084EB93E40E94BA10A70196014E
:101180000E94BB108ACF68EE73E080E090E00E947E
:10119000E80A61E087E00E94340C62E271E087EDCA
:1011A00091E00E94720E85B5887F816085BD609157
:1011B000C6017091C70185E00E94720B8091CA013F
:1011C0009091CB01A091CC01B091CD018236934E8C
:1011D000A641B10509F054C08090B2019090B301CE
:1011E000A090B401B090B50120E030E040EA51E4B5
:1011F000C501B4010E94BA106B017C0120E030E00F
:10120000A9010E94271187FFA9C0A501940160E0F0
:1012100070E080EA91E40E94BA109B01AC0160E0AA
:1012200070E084EB93E40E94BA10609380017093A5
:1012300081018093820190938301C090A801D09096
:10124000A901760186E0E80EF11CC0E8D1E02AE0B1
:10125000C20ED11CB990C7010E943F13B81621F0ED
:101260006B2DC7010E9447138FEFE81AF80AEC14A0
:10127000FD0481F767E271E087ED91E00E94720E54
:101280001092CA011092CB011092CC011092CD01A4
:101290001092B2011092B3011092B4011092B501F4
:1012A0001092C2011092C3011092C4011092C501A4
:1012B00020E030E040EA51E46091C2017091C30146
:1012C0008091C4019091C5010E94271187FF4FC0F2
:1012D00080E10E94540BBC01990F880B990B0E946E
:1012E000D6112DEC3CEC4CE453E40E942C1120E090
:1012F00030E040E952E40E948B129B01AC01609106
:10130000B2017091B3018091B4019091B5010E9436
:10131000BB106093B2017093B3018093B4019093BA
:10132000B50160E87CE080E090E00E94E80A20E0FF
:1013300030E040E85FE36091C2017091C3018091A9
:10134000C4019091C5010E94BB106093C2017093CB
:10135000C3018093C4019093C501AACFC0928001BC
:10136000D0928101E0928201F092830166CF20E069
:1013700030E040EA51E46091B2017091B301809194
:10138000B4019091B5010E942C116B017C0120E009
:1013900030E0A9010E948612181624F0F7FAF094A2
:1013A000F7F8F094C092B201D092B301E092B40188
:1013B000F092B5018090800190908101A09082010F
:1013C000B0908301A7019601C501B4010E942711C5
:1013D000A501940187FF76C0C701B6010E94BA102B
:1013E00060938401709385018093860190938701B7
:1013F00061E471E087ED91E00E945F0E4091A401ED
:101400005091A5016091A6017091A70122E030E002
:1014100087ED91E00E94CC0F6CE571E087ED91E0E3
:101420000E945F0E4091A0015091A1016091A20124
:101430007091A30122E030E087ED91E00E94CC0F93
:101440006CE571E087ED91E00E945F0E40918401B0
:1014500050918501609186017091870122E030E012
:1014600087ED91E00E94CC0F6CE571E087ED91E093
:101470000E945F0E4091B6015091B7016091B80192
:101480007091B90122E030E087ED91E00E94CC0F2D
:101490006CE571E087ED91E00E94720E87ED91E0BE
:1014A0000E94CF0C60E079E180E090E0DF91CF9185
:1014B000FF90EF90DF90CF90BF90AF909F908F9074
:1014C0000C94E80A60E070E084EB93E40E94BA10A8
:1014D000A70196010E94BB1083CF1F920F920FB6F7
:1014E0000F9211242F933F938F939F93AF93BF93AA
:1014F0008091D3019091D401A091D501B091D601F2
:101500003091D20123E0230F2D3768F126E8230F15
:101510000296A11DB11D2093D2018093D301909317
:10152000D401A093D501B093D6018091CE019091C2
:10153000CF01A091D001B091D1010196A11DB11DA3
:101540008093CE019093CF01A093D001B093D101AD
:10155000BF91AF919F918F913F912F910F900FBEAF
:101560000F901F9018950196A11DB11DD4CF2FB7D4
:10157000F8946091D3017091D4018091D50190913C
:10158000D6012FBF08953FB7F8948091CE01909176
:10159000CF01A091D001B091D10126B5A89B05C083
:1015A0002F3F19F00196A11DB11D3FBFBA2FA92FE2
:1015B000982F8827BC01CD01620F711D811D911DDF
:1015C00042E0660F771F881F991F4A95D1F708954B
:1015D0008F929F92AF92BF92CF92DF92EF92FF9243
:1015E0006B017C010E94C30A4B015C01C114D10450
:1015F000E104F104E9F00E94B9100E94C30A6819DD
:1016000079098A099B09683E73408105910570F349
:1016100021E0C21AD108E108F10888EE880E83E0C3
:10162000981EA11CB11CC114D104E104F10429F7D6
:10163000FF90EF90DF90CF90BF90AF909F908F90F2
:1016400008958230910538F0880F991F880F991FEF
:1016500005970197F1F70895789484B5836084BD68
:1016600085B5836085BDEEE6F0E080818160808392
:10167000E1E8F0E082E08083808181608083E0E8BF
:10168000F0E0808181608083E1EBF0E08081846024
:101690008083E0EBF0E080818160808387E8809345
:1016A0007A001092C1000895883020F08D3008F43F
:1016B0008DE08E502091000190E4299F900111242B
:1016C0008770822B80937C0080917A008064809365
:1016D0007A0080917A0086FDFCCF8091780090910D
:1016E000790008951F93CF93DF93182FEB0161E0EA
:1016F0000E94F80B209739F460E0812FDF91CF91A1
:101700001F910C94340CCF3FD10511F461E0F5CF5B
:10171000E12FF0E0E859FF4FE491E43031F140F47B
:10172000E230B1F0E330E1F0C038D1057CF7E4CF2E
:10173000E83029F1E93059F1E530B1F780918000C6
:10174000806280938000D0938B00C0938A0004C095
:1017500084B5806884BDC7BDDF91CF911F91089586
:1017600084B5806284BDC8BDF7CF80918000806859
:1017700080938000D0938900C0938800EDCF809142
:10178000B00080688093B000C093B300E5CF809133
:10179000B00080628093B000C093B400DDCF84308D
:1017A00081F028F48230E9F08330F9F00895883030
:1017B00071F0893091F08530B9F4809180008F7D8F
:1017C00003C0809180008F7780938000089580917E
:1017D000B0008F778093B00008958091B0008F7D26
:1017E000F9CF84B58F7784BD089584B58F7DFBCF05
:1017F000CF93DF9390E0FC01E158FF4F24918A568C
:101800009F4FFC0184918823C9F090E0880F991FB5
:10181000FC01E954FF4FA591B491FC01E355FF4F42
:10182000C591D49161110DC09FB7F8948C9120950A
:1018300082238C938881282328839FBFDF91CF91B7
:101840000895623051F49FB7F8943C91822F8095AF
:1018500083238C93E8812E2BEFCF8FB7F894EC91F4
:101860002E2B2C938FBFEACF1F93CF93DF93282F7C
:1018700030E0F901E859FF4F8491F901E158FF4F39
:10188000D491F901EA56FF4FC491CC23A9F0162F49
:1018900081110E94CF0BEC2FF0E0EE0FFF1FE355FC
:1018A000FF4FA591B4918FB7F894EC91111108C036
:1018B000D095DE23DC938FBFDF91CF911F910895E8
:1018C000DE2BF8CFFC01918D228D892F90E0805C7A
:1018D0009F4F821B91098F7399270895FC01918D69
:1018E000828D981731F0828DE80FF11D858D90E083
:1018F00008958FEF9FEF0895FC01918D828D9817C9
:1019000061F0A28DAE0FBF2FB11D5D968C91928DAF
:101910009F5F9F73928F90E008958FEF9FEF0895E0
:10192000FC01538D448D252F30E0842F90E0821BE5
:10193000930B541710F0CF960895019708958CEEED
:101940009DE0892B49F080E090E0892B29F00E94EE
:10195000EC0D81110C9400000895FC01A48DA80FDA
:10196000B92FB11DA35ABF4F2C91848D90E00196E1
:101970008F739927848FA689B7892C93A089B18901
:101980008C91837080648C93938D848D981306C0A2
:101990000288F389E02D80818F7D80830895CF9325
:1019A000DF93EC01888D8823B9F0AA89BB89E88987
:1019B000F9898C9185FD03C0808186FD0DC00FB62D
:1019C00007FCF7CF8C9185FFF2CF808185FFEDCFAB
:1019D000CE010E94AD0CE9CFDF91CF910895EF9237
:1019E000FF920F931F93CF93DF93EC0181E0888FD9
:1019F0009B8D8C8D98131AC0E889F989808185FFA9
:101A000015C09FB7F894EE89FF896083E889F9894A
:101A100080818370806480839FBF81E090E0DF914C
:101A2000CF911F910F91FF90EF900895F62E0B8D9F
:101A300010E00F5F1F4F0F731127E02E8C8D8E115A
:101A40000CC00FB607FCFACFE889F989808185FFC1
:101A5000F5CFCE010E94AD0CF1CFEB8DEC0FFD2F39
:101A6000F11DE35AFF4FF0829FB7F8940B8FEA897C
:101A7000FB8980818062CFCFCF92DF92EF92FF927D
:101A80001F93CF93DF93EC016A017B01122FE8894A
:101A9000F98982E08083C11481EED806E104F10463
:101AA000A1F060E079E08DE390E0A70196010E944B
:101AB000FD12215031094109510956954795379535
:101AC0002795211580E1380798F0E889F989108277
:101AD00060E874E88EE190E0A70196010E94FD1293
:101AE0002150310941095109569547953795279558
:101AF000EC85FD853083EE85FF852083188EEC898B
:101B0000FD891083EA89FB89808188698083EA895D
:101B1000FB8980818F7D8083DF91CF911F91FF9022
:101B2000EF90DF90CF9008951F920F920FB60F9213
:101B300011242F938F939F93EF93FF93E091E701ED
:101B4000F091E8018081E091ED01F091EE0182FDDC
:101B50001BC090818091F0018F5F8F732091F10104
:101B6000821741F0E091F001F0E0E952FE4F958FCD
:101B70008093F001FF91EF919F918F912F910F90A2
:101B80000FBE0F901F9018958081F4CF1F920F9277
:101B90000FB60F9211242F933F934F935F936F9340
:101BA0007F938F939F93AF93BF93EF93FF9387EDB3
:101BB00091E00E94AD0CFF91EF91BF91AF919F9189
:101BC0008F917F916F915F914F913F912F910F90E6
:101BD0000FBE0F901F90189587ED91E00E94620C48
:101BE00021E0892B09F420E0822F0895E7EDF1E050
:101BF0001382128288EE93E0A0E0B0E084839583A4
:101C0000A683B78382E691E09183808385EC90E0A0
:101C10009587848784EC90E09787868780EC90E0B6
:101C2000918B808B81EC90E0938B828B82EC90E0A7
:101C3000958B848B86EC90E0978B868B118E128E21
:101C4000138E148E0895AF92BF92CF92DF92EF92CF
:101C5000FF920F931F93CF93DF936C017B018B0156
:101C6000040F151FEB015E01AE18BF08C017D107A6
:101C700059F06991D601ED91FC910190F081E02D30
:101C8000C6010995892B79F7C501DF91CF911F9185
:101C90000F91FF90EF90DF90CF90BF90AF9008959D
:101CA000FB0101900020E9F73197AF01461B570B6C
:101CB000DC01ED91FC910280F381E02D0994611526
:101CC000710511F00C94500E90E080E00895DC0155
:101CD000ED91FC910190F081E02D099460E771E0B5
:101CE0000C94500E0F931F93CF93DF938C01D0E091
:101CF000C0E06115710519F00E94500EEC01C80199
:101D00000E946E0E8C0F9D1FDF91CF911F910F913E
:101D100008958F929F92AF92BF92EF92FF920F938E
:101D20001F93CF93DF93CDB7DEB7A1970FB6F8948B
:101D3000DEBF0FBECDBF7C01FA01CB0119A222305C
:101D400008F42AE08E010F5D1F4F822E912CB12CDA
:101D5000A12CBF01A50194010E94FD12F901CA0145
:101D60006A300CF5605DD8016E938D01232B242B16
:101D7000252B79F790E080E0109721F0BD01C70195
:101D80000E94500EA1960FB6F894DEBF0FBECDBFD5
:101D9000DF91CF911F910F91FF90EF90BF90AF9087
:101DA0009F908F900895695CDECF2115310541F435
:101DB000DC01ED91FC910190F081E02D642F0994FC
:101DC0000C94890E9A01AB0170E060E00C94D50E82
:101DD0002F923F924F925F926F927F928F929F923B
:101DE000AF92BF92CF92DF92EF92FF921F93CF9369
:101DF000DF93EC016A017B01722EAB019601CB01EE
:101E0000B6010E94F81263E771E0811126C0460115
:101E10005701E894B7F82FEF3FEF4FE75FE7C501B1
:101E2000B4010E94F81281110CC02FEF3FEF4FE771
:101E30005FE7C501B4010E94271167E771E018163A
:101E400064F02FEF3FEF4FE75FE4C701B6010E9458
:101E500086121816B4F46BE771E0CE01DF91CF91D2
:101E60001F91FF90EF90DF90CF90BF90AF909F9029
:101E70008F907F906F905F904F903F902F900C9439
:101E8000500E2FEF3FEF4FE75FECC701B6010E9406
:101E9000271187FDE0CF20E030E0A901C701B6019E
:101EA0000E942711312C212C87FF09C06DE2CE0141
:101EB0000E94670E1C01F7FAF094F7F8F09410E016
:101EC00060E070E080E09FE3711641F020E030E0D8
:101ED00040E251E40E942C111F5FF6CFA70196014A
:101EE0000E94BB102B013C010E94A5114B015C011B
:101EF0002AE0BC01A401CE010E94890E7C01E20C03
:101F0000F31C1123B1F1C501B4010E94D4119B014E
:101F1000AC01C301B2010E94BA104B015C016EE238
:101F2000CE010E94670EE80EF91E115010F120E05C
:101F300030E040E251E4C501B4010E948B122B0154
:101F40003C010E94A5114B014AE050E0CE010E94E5
:101F5000E20EE80EF91EB40190E080E00E94D41178
:101F60009B01AC01C301B2010E94BA104B015C019C
:101F7000DCCFC701DF91CF911F91FF90EF90DF90F1
:101F8000CF90BF90AF909F908F907F906F905F9019
:101F90004F903F902F9008950C94E80E0F931F934D
:101FA000CF93DF93EC010E94E80E8C01CE010E94DA
:101FB0006E0E800F911FDF91CF911F910F910895A9
:101FC0000F931F93CF93DF93EC010E94B70A6887AA
:101FD00079878A879B87E881F9810484F585E02DDC
:101FE000CE01099597FF15C00E94B70A088519858B
:101FF0002A853B85601B710B820B930B0C811D8125
:102000002E813F81601771078207930720F38FEFBE
:102010009FEFDF91CF911F910F910895FF920F9342
:102020001F93CF93DF93EC018B01F42ECE010E941E
:10203000E00F97FD1DC08D329105D1F09C0120531A
:1020400031092A303105A0F0FF2019F08E329105B8
:1020500079F00130110551F00230110589F48D300D
:10206000910571F05CF40997029750F08FEF9FEFA4
:10207000DF91CF911F910F91FF9008958097B1F755
:10208000E881F9810284F385E02DCE010995CECF58
:10209000BF92CF92DF92EF92FF920F931F93CF9355
:1020A000DF938C01C42F40E00E940E10FC01C12C74
:1020B000D12C760197FD3EC0B12C0C2E000CDD0B0F
:1020C000CE17DF07D9F0ED32F10509F43FC0CF019B
:1020D000C0970A9798F4AAE0B0E0A70196010E9481
:1020E00025136F01FF0FEE08FF08C60ED71EE81E6E
:1020F000F91E80E3C81AD108E108F108D801ED9172
:10210000FC910284F385E02DC8010995C8010E9465
:10211000E00FFC01C0970A9798F2CE17DF0781F213
:10212000BB2041F0F094E094D094C094C11CD11C29
:10213000E11CF11CC701B601DF91CF911F910F91F6
:10214000FF90EF90DF90CF90BF900895BB24B394A1
:10215000D5CF08950E942C0B0E94A9100E949000D8
:10216000CFE9DCE00E9435022097E1F30E949F0C4A
:10217000F9CF08955058BB27AA270E94D2100C947B
:102180004C120E943E1238F00E94451220F039F4A1
:102190009F3F19F426F40C943B120EF4E095E7FBF4
:1021A0000C943512E92F0E945D1258F3BA1762079A
:1021B00073078407950720F079F4A6F50C947F1235
:1021C0000EF4E0950B2EBA2FA02D0B01B901900152
:1021D0000C01CA01A0011124FF27591B99F0593F96
:1021E00050F4503E68F11A16F040A22F232F342FDE
:1021F0004427585FF3CF469537952795A795F0402C
:102200005395C9F77EF41F16BA0B620B730B840B40
:10221000BAF09150A1F0FF0FBB1F661F771F881FF8
:10222000C2F70EC0BA0F621F731F841F48F4879550
:1022300077956795B795F7959E3F08F0B0CF939542
:10224000880F08F09927EE0F9795879508950E94BB
:10225000111208F481E008950E9440110C944C1270
:102260000E94451258F00E943E1240F029F45F3F50
:1022700029F00C94351251110C9480120C943B12DD
:102280000E945D1268F39923B1F3552391F3951BD6
:10229000550BBB27AA2762177307840738F09F5F87
:1022A0005F4F220F331F441FAA1FA9F335D00E2EF4
:1022B0003AF0E0E832D091505040E695001CCAF761
:1022C0002BD0FE2F29D0660F771F881FBB1F261724
:1022D00037074807AB07B0E809F0BB0B802DBF01FB
:1022E000FF2793585F4F3AF09E3F510578F00C94CA
:1022F00035120C9480125F3FE4F3983ED4F3869538
:1023000077956795B795F7959F5FC9F7880F911DEA
:102310009695879597F90895E1E0660F771F881FD6
:10232000BB1F621773078407BA0720F0621B730B89
:10233000840BBA0BEE1F88F7E09508950E94A51153
:102340006894B1110C94801208950E94651288F06F
:102350009F5798F0B92F9927B751B0F0E1F0660F69
:10236000771F881F991F1AF0BA95C9F714C0B130AA
:1023700091F00E947F12B1E008950C947F12672FB4
:10238000782F8827B85F39F0B93FCCF386957795D9
:102390006795B395D9F73EF49095809570956195C2
:1023A0007F4F8F4F9F4F0895E89409C097FB3EF4ED
:1023B00090958095709561957F4F8F4F9F4F992392
:1023C000A9F0F92F96E9BB279395F6958795779510
:1023D0006795B795F111F8CFFAF4BB0F11F460FFD0
:1023E0001BC06F5F7F4F8F4F9F4F16C0882311F028
:1023F00096E911C0772321F09EE8872F762F05C03C
:10240000662371F096E8862F70E060E02AF09A95D6
:10241000660F771F881FDAF7880F9695879597F9CB
:102420000895990F0008550FAA0BE0E8FEEF161665
:102430001706E807F907C0F012161306E407F507B8
:1024400098F0621B730B840B950B39F40A2661F02C
:10245000232B242B252B21F408950A2609F4A140CF
:10246000A6958FEF811D811D089597F99F6780E8DC
:1024700070E060E008959FEF80EC089500240A94D6
:102480001616170618060906089500240A9412164F
:102490001306140605060895092E0394000C11F482
:1024A000882352F0BB0F40F4BF2B11F460FF04C02F
:1024B0006F5F7F4F8F4F9F4F089557FD9058440F88
:1024C000551F59F05F3F71F04795880F97FB991F93
:1024D00061F09F3F79F08795089512161306140650
:1024E000551FF2CF4695F1DF08C0161617061806DD
:1024F000991FF1CF86957105610508940895E894B8
:10250000BB2766277727CB0197F908950E94111200
:1025100008F48FEF08950E949E120C944C120E94B2
:102520003E1238F00E94451220F0952311F00C94D1
:1025300035120C943B1211240C9480120E945D12EF
:1025400070F3959FC1F3950F50E0551F629FF00106
:10255000729FBB27F00DB11D639FAA27F00DB11D1F
:10256000AA1F649F6627B00DA11D661F829F2227A8
:10257000B00DA11D621F739FB00DA11D621F839F2F
:10258000A00D611D221F749F3327A00D611D231F05
:10259000849F600D211D822F762F6A2F11249F5753
:1025A00050409AF0F1F088234AF0EE0FFF1FBB1F56
:1025B000661F771F881F91505040A9F79E3F510515
:1025C00080F00C9435120C9480125F3FE4F3983E37
:1025D000D4F3869577956795B795F795E7959F5FBF
:1025E000C1F7FE2B880F911D9695879597F9089551
:1025F0000E941112880B990B0895A1E21A2EAA1BB2
:10260000BB1BFD010DC0AA1FBB1FEE1FFF1FA217A2
:10261000B307E407F50720F0A21BB30BE40BF50B9F
:10262000661F771F881F991F1A9469F76095709528
:10263000809590959B01AC01BD01CF010895EE0FEF
:10264000FF1F0590F491E02D09940E943013A59F7F
:10265000900DB49F900DA49F800D911D112408959D
:10266000A29FB001B39FC001A39F700D811D1124D3
:10267000911DB29F700D811D1124911D0895F9992E
:10268000FECF92BD81BDF89A992780B50895262F77
:10269000F999FECF1FBA92BD81BD20BD0FB6F89447
:0E26A000FA9AF99A0FBE01960895F894FFCFAA
:1026AE0001436C6F7365506F736974696F6E536518
:1026BE0074004F70656E506F736974696F6E5365F9
:1026CE007400646F6E6500506F736974696F6E206D
:1026DE00736176656420746F20454550524F4D2EC0
:1026EE000057616E6465726572436F76657256341B
:1026FE0050726F413230323530323033410000008B
:10270E000000EF0C230E900CCF0C620C7C0C6E0CA8
:10271E000D0A006E616E00696E66006F76660000CF
:00000001FF
