:100000000C9467000C948F000C948F000C948F005C
:100010000C948F000C948F000C948F000C948F0024
:100020000C948F000C948F000C948F000C948F0014
:100030000C948F000C948F000C948F000C948F0004
:100040000C9479140C948F000C94C9170C94FB1722
:100050000C948F000C948F000C948F000C948F00E4
:100060000C948F000C948F00000000090003020024
:10007000000405080000000000000000000000016E
:10008000020408102040800102040810200102042C
:100090000810204080400404040404040404020204
:1000A000020202020303030303030202030000002F
:1000B0000023002600290000000000250028002B56
:1000C0000000000000240027002A00002B18112443
:1000D0001FBECFEFD4E0DEBFCDBF11E0A0E0B1E0A6
:1000E000E6E0FCE302C005900D92AE38B107D9F707
:1000F00022E0AEE8B1E001C01D92A039B207E1F7FD
:1001000010E0C7E6D0E004C02197FE010E94B71DB1
:10011000C636D107C9F70E942E1B0C94011E0C9401
:1001200000000C94F31D0C94EB1DCF92DF92EF9224
:10013000FF920F931F93CF93DF9361E087E00E94BC
:10014000041661E086E00E94041661E083E00E94EC
:10015000041661E087E00E94401660E083E10E949F
:10016000041660E080E10E94041661E083E00E94D2
:10017000041661E089E00E94041626E040E05BE49A
:1001800060E070E083EF91E00E9471171092E3014C
:100190001092E2018091B2019091B30160E0049667
:1001A0000E94910080918100887F8160809381000E
:1001B00085B5887F816085BDC091B201D091B301C2
:1001C000CE010E949300682F70E090E080E00E94D2
:1001D000581C6093A6017093A7018093A801909387
:1001E000A901CE0101960E949300682F70E090E073
:1001F00080E00E94581C60939E0170939F01809341
:10020000A0019093A101CE0102960E949300682F55
:1002100070E06C597F4F072E000C880B990B0E94E1
:100220005A1C6093A2017093A3018093A401909340
:10023000A501CE0103960E949300682F70E090E024
:1002400080E00E94581C60939A0170939B018093F8
:100250009C0190939D012596CE010E94930090E011
:10026000873991050CF001C19093E1018093E00181
:1002700020E030E048EC52E460919E0170919F01D3
:100280008091A0019091A1010E94B01B2091A60134
:100290003091A7014091A8015091A9010E943F1BF4
:1002A0006B017C01C092AE01D092AF01E092B0012F
:1002B000F092B10120E030E048EC52E460919A0104
:1002C00070919B0180919C0190919D010E94B01BB7
:1002D0002091A2013091A3014091A4015091A50168
:1002E0000E943F1B6093AA017093AB018093AC0105
:1002F0009093AD0120E030E044EB52E4C701B60139
:100300000E940A1D1816A4F58091B2019091B301C4
:1003100040E050E060EA71E44093AE015093AF01D9
:100320006093B0017093B1014093A6015093A7016F
:100330006093A8017093A90110929E0110929F01F1
:100340001092A0011092A10164E10E9491006091BD
:100350009E0170919F018091A0019091A1010E9446
:10036000291C8091B2019091B30101960E949100E5
:1003700020E030E046E953E46091AA017091AB01BE
:100380008091AC019091AD010E940A1D1816ACF548
:100390008091B2019091B30140E050E06CED72E4C5
:1003A0004093AA015093AB016093AC017093AD01EF
:1003B0004093A2015093A3016093A4017093A501FF
:1003C00010929A0110929B0110929C0110929D0133
:1003D0006AE002960E94910060919A0170919B01DF
:1003E00080919C0190919D010E94291C8091B201F5
:1003F0009091B30103960E9491000091B201109177
:10040000B301E80126968EE8E82E81E0F82E065F1B
:100410001F4FCE010E94EB1DF70181937F012196B2
:100420000C171D07B1F760918E0170918F018091BB
:100430009001909191019B01AC010E947C1D882349
:1004400041F010928E0110928F0110929001109243
:10045000910160E084E0DF91CF911F910F91FF90B7
:10046000EF90DF90CF900C9404161092E10110925F
:10047000E00160E0CE010E949100FACEFC012081F3
:10048000318124533142293E334048F4FC0122811A
:100490003381205A3F4081E0293E334008F080E01C
:1004A0000895FC019C0120583F4F60E070E0CB01B3
:1004B000660F771F881F991F46815781493E534019
:1004C00008F061603496E217F30791F708954F92B0
:1004D0005F926F927F92AF92BF92CF92DF92EF9234
:1004E000FF920F931F93CF93DF93CDB7DEB7C8581A
:1004F000D1090FB6F894DEBF0FBECDBF0E94CF1456
:100500006B017C0184E00E946E16019709F45FC0C4
:10051000CE0101967C0110E000E06C010E94CF1436
:100520002B013C01580191E0A922BB2484E00E94E8
:100530006E168A159B0569F40E94CF14641975091B
:1005400086099709613070448D40934078F310E03C
:1005500027C00E94CF14641975098609970926E0FF
:1005600096958795779567952A95D1F7F7016193C9
:1005700071937F010F5F1F4F0434110579F6C60197
:100580000E943E02182F882311F3C6010E945102D7
:1005900060939601709397018093980190939901CD
:1005A000812FC857DF4F0FB6F894DEBF0FBECDBF07
:1005B000DF91CF911F910F91FF90EF90DF90CF903F
:1005C000BF90AF907F906F905F904F9008950E9482
:1005D000CF146C197D098E099F09613070448D40DC
:1005E000934008F48FCFB3CF8F929F92AF92BF9278
:1005F000CF92DF92EF92FF920F931F93CF93DF93EF
:100600000091B2011091B301C80104960E949300B9
:10061000C82FD0E0D093E301C093E201C801059652
:100620000E94930090E09093E1018093E001BE016D
:1006300085E00E947E156091E0017091E10189E002
:100640000E947E1580ED97E09093E5018093E40190
:100650001092B8011092B9011092BA011092BB0128
:100660001092B4011092B5011092B6011092B70128
:100670000E946702882309F441C0809196019091FD
:100680009701A0919801B09199018F3520EA9207C6
:100690002DEFA207B10509F09AC02091AA0130916F
:1006A000AB014091AC015091AD016091AE017091F0
:1006B000AF018091B0019091B1010E943F1B20E0F9
:1006C00030E040E05FE30E940F1D209192013091E5
:1006D000930140919401509195010E940A1D1816B2
:1006E0000CF070C089EE93E0A0E0B0E08093E601EA
:1006F0009093E701A093E801B093E9011092DC0127
:100700001092DD011092DE011092DF0120E030E056
:1007100040EA50E46091DC017091DD018091DE01DE
:100720009091DF010E94AB1B87FFA4C083E10E9470
:100730006015BC01990F880B990B0E945A1C20E090
:1007400030E040EA50E40E940F1D20E030E040E835
:100750005AE30E940F1D29E831E440E450E40E946E
:100760000F1D9B01AC016091B8017091B90180919E
:10077000BA019091BB010E943F1B6093B801709336
:10078000B9018093BA019093BB0160E870E080E00A
:1007900090E00E94F41420E030E040E85FE36091D4
:1007A000DC017091DD018091DE019091DF010E94FA
:1007B0003F1B6093DC017093DD018093DE01909319
:1007C000DF01A4CF88EE93E0A0E0B0E08FCF8F34BC
:1007D00040EB94074DEFA407B105D9F48091E201F5
:1007E0009091E3019C01265031092C37310558F4D2
:1007F0000A968338910514F082E890E0092E000CE7
:10080000AA0BBB0B73CF863091050CF077CF019606
:10081000F5CF87379848AD4FB10509F06FCF80917C
:10082000E2019091E30186309105A4F0AC014A50B9
:1008300051094530510514F445E050E0052E000CF7
:10084000660B770B4093E6015093E7016093E80154
:100850007093E9019C01225031092430310510F4D4
:100860000197CCCF019709F049CF8FE097E2A0E044
:10087000B0E03CCF20E030E040EA50E46091B801C5
:100880007091B9018091BA019091BB010E94B01B97
:100890006B017C0120E030E0A9010E940A1D1816BE
:1008A00024F0F7FAF094F7F8F094C092D001D092C7
:1008B000D101E092D201F092D30183EF91E00E9446
:1008C0009716892B79F041E070E060E083EF91E0CA
:1008D0000E94CC1A6093E6017093E7018093E801CF
:1008E0009093E9018091E6019091E701A091E801E0
:1008F000B091E9010197A109B1098F3F9105A105C7
:10090000B105A0F485B5887F816085BD9091E60131
:10091000692F8091E7019093E2018093E301809138
:10092000B2019091B30104960E9491008091E6017A
:100930009091E701A091E801B091E9018F309742D1
:10094000A105B10589F470E060E085E00E947E15A4
:100950001092E3011092E2018091B2019091B301F3
:1009600060E004960E9491008091E6019091E70179
:10097000A091E801B091E901AC01BD01405D574093
:1009800061097109473951056105710578F4805D88
:1009900097409093E1018093E0012091B201309162
:1009A000B301682FC90105960E9491006091E6018C
:1009B0007091E7018091E8019091E9018B019C0120
:1009C000005117422109310900331547210531052E
:1009D00008F069C00E945A1C20E030E44CE156E463
:1009E0000E943E1B20E030E048EC52E40E94B01B25
:1009F0006B017C01C092AE01D092AF01E092B001D8
:100A0000F092B1010E94221C4B01072E000C880BB2
:100A1000990B0E945A1C9B01AC012093A6013093B4
:100A2000A7014093A8015093A901C701B6010E94F4
:100A30003E1B20E030E048EC52E40E940F1D609322
:100A40009E0170939F018093A0019093A101682D56
:100A50008091B2019091B3010E94910060919E013A
:100A600070919F018091A0019091A1010E94291C89
:100A70008091B2019091B30101960E94910061E0D2
:100A800071E083EF91E00E9494184091AE01509183
:100A9000AF016091B0017091B10122E030E083EFCD
:100AA00091E00E94521A6091E6017091E7018091F5
:100AB000E8019091E9018B019C0100541C49210936
:100AC0003109083B18482105310508F074C00E941F
:100AD0005A1C20E030E44CE157E40E943E1B20E029
:100AE00030E048EC52E40E94B01B4B015C01809264
:100AF000AA019092AB01A092AC01B092AD010E940C
:100B0000221C072E000C880B990B0E945A1C6B01AB
:100B10007C01C092A201D092A301E092A401F092C4
:100B2000A501AC019B01C501B4010E943E1B20E060
:100B300030E048EC52E40E940F1D60939A017093DC
:100B40009B0180939C0190939D0120E030E048EC54
:100B500052E4C701B6010E943E1B0E94291C8091ED
:100B6000B2019091B30102960E94910060919A01A6
:100B700070919B0180919C0190919D010E94291C84
:100B80008091B2019091B30103960E94910062E1BD
:100B900071E083EF91E00E9494184091AA01509176
:100BA000AB016091AC017091AD0122E030E083EFC8
:100BB00091E00E94521A8091E6019091E701A09184
:100BC000E801B091E901883E9340A105B10509F023
:100BD000EAC170E060E085E00E947E1585B5887FFF
:100BE000836085BD60E083E00E94401660E087E09E
:100BF0000E9440161092D8011092D9011092DA0189
:100C00001092DB0180E090E8ABEBB4E48093DC0170
:100C10009093DD01A093DE01B093DF0120E030E08E
:100C2000A9016091DC017091DD018091DE0190915C
:100C3000DF010E940A1D18160CF0D0C080E10E944E
:100C40006015BC01990F880B990B0E945A1C2DEC62
:100C50003CEC4CE453E40E94B01B20E030E040E95F
:100C600052E40E940F1D0E94221C072E000C880BCC
:100C7000990B0E945A1C6B017C0180908E01909010
:100C80008F01A0909001B0909101A50194010E9464
:100C90000A1DA501940118160CF095C0C701B601F4
:100CA0000E943E1B0E94221C072E000C880B990BF1
:100CB0000E945A1C2091AE013091AF014091B001C9
:100CC0005091B1010E94AB1B87FD88C061E086E0B6
:100CD0000E94401620E030E040E05FE36091DC01DC
:100CE0007091DD018091DE019091DF010E940F1D66
:100CF00020E030E04AEF53E40E943F1B0E94291C91
:100D0000CB010E942D1560E086E00E94401620E095
:100D100030E040E05FE36091DC017091DD018091A3
:100D2000DE019091DF010E940F1D20E030E04AEFCC
:100D300053E40E943F1B0E94291CCB010E942D15E9
:100D400020E030E040E85FE36091DC017091DD017C
:100D50008091DE019091DF010E943E1B6093DC01D7
:100D60007093DD018093DE019093DF0120E030E09D
:100D700040E85FE36091D8017091D9018091DA0178
:100D80009091DB010E943F1B6093D8017093D901C1
:100D90008093DA019093DB0120E030E040E85FE3EC
:100DA0006091D4017091D5018091D6019091D701C5
:100DB0000E943F1B6093D4017093D5018093D601AC
:100DC0009093D7012BCF60E070E084EB93E40E9416
:100DD0003E1BA70196010E943F1B64CF80E090E676
:100DE000AAE6B6E48093DC019093DD01A093DE01D6
:100DF000B093DF0120E030E0A9016091DC01709147
:100E0000DD018091DE019091DF010E940A1D18161C
:100E10000CF0AEC080E10E946015BC01990F880BF8
:100E2000990B0E945A1C2DEC3CEC4CE453E40E94BC
:100E3000B01B20E030E040E952E40E940F1D0E9408
:100E4000221C072E000C880B990B0E945A1C6B0168
:100E50007C0180908E0190908F01A0909001B090C5
:100E60009101A50194010E940A1DA5019401181683
:100E70000CF073C0C701B6010E943E1B0E94221CE9
:100E8000072E000C880B990B0E945A1C2091AE0172
:100E90003091AF014091B0015091B1010E94AB1B64
:100EA00087FD66C061E086E00E9440168091E40103
:100EB0009091E5018C5D95400E942D1560E086E0E3
:100EC0000E9440168091E4019091E501845A964079
:100ED0000E942D1520E030E040E85FE36091DC01E6
:100EE0007091DD018091DE019091DF010E943E1B37
:100EF0006093DC017093DD018093DE019093DF014C
:100F000020E030E040E85FE36091D8017091D901C2
:100F10008091DA019091DB010E943F1B6093D80120
:100F20007093D9018093DA019093DB0120E030E0E7
:100F300040E85FE36091D4017091D5018091D601C2
:100F40009091D7010E943F1B6093D4017093D5010B
:100F50008093D6019093D7014DCF60E070E084EB91
:100F600093E40E943E1BA70196010E943F1B86CF7F
:100F700068EE73E080E090E00E94F41461E087E0A6
:100F80000E94401662E271E083EF91E00E94A71890
:100F900085B5887F816085BD6091E2017091E30134
:100FA00085E00E947E158091E6019091E701A09175
:100FB000E801B091E901893E9340A105B10509F02E
:100FC000EBC170E060E085E00E947E1585B5887F0A
:100FD000836085BD61E083E00E94401660E087E0A9
:100FE0000E9440161092D8011092D9011092DA0195
:100FF0001092DB0180E090E8ABEBB4E48093DC017D
:101000009093DD01A093DE01B093DF0120E030E09A
:10101000A9016091DC017091DD018091DE01909168
:10102000DF010E940A1D18160CF0D1C080E10E9459
:101030006015BC01990F880B990B0E945A1C2DEC6E
:101040003CEC4CE453E40E94B01B20E030E040E96B
:1010500052E40E940F1D0E94221C072E000C880BD8
:10106000990B0E945A1C6B017C0180908E0190901C
:101070008F01A0909001B0909101A50194010E9470
:101080000A1DA501940118160CF096C0C701B601FF
:101090000E943E1B0E94221C072E000C880B990BFD
:1010A0000E945A1C2091AA013091AB014091AC01E1
:1010B0005091AD010E940A1D18160CF488C061E021
:1010C00086E00E94401620E030E040E05FE360915F
:1010D000DC017091DD018091DE019091DF010E94C1
:1010E0000F1D20E030E04AEF53E40E943F1B0E94B6
:1010F000291CCB010E942D1560E086E00E9440165D
:1011000020E030E040E05FE36091DC017091DD01C0
:101110008091DE019091DF010E940F1D20E030E000
:101120004AEF53E40E943F1B0E94291CCB010E94FE
:101130002D1520E030E040E85FE36091DC01709124
:10114000DD018091DE019091DF010E943E1B6093E2
:10115000DC017093DD018093DE019093DF0120E0DC
:1011600030E040E85FE36091D8017091D90180914F
:10117000DA019091DB010E943F1B6093D8017093CC
:10118000D9018093DA019093DB0120E030E040E860
:101190005FE36091D4017091D5018091D601909167
:1011A000D7010E943F1B6093D4017093D5018093B7
:1011B000D6019093D7012ACF60E070E084EB93E4EE
:1011C0000E943E1BA70196010E943F1B63CF80E057
:1011D00090E6AAE6B6E48093DC019093DD01A0934B
:1011E000DE01B093DF0120E030E0A9016091DC0175
:1011F0007091DD018091DE019091DF010E940A1D56
:1012000018160CF0AEC080E10E946015BC01990F69
:10121000880B990B0E945A1C2DEC3CEC4CE453E4D7
:101220000E94B01B20E030E040E952E40E940F1D14
:101230000E94221C072E000C880B990B0E945A1C3E
:101240006B017C0180908E0190908F01A0909001A5
:10125000B0909101A50194010E940A1DA50194017D
:1012600018160CF073C0C701B6010E943E1B0E9405
:10127000221C072E000C880B990B0E945A1C2091EF
:10128000AA013091AB014091AC015091AD010E9497
:101290000A1D87FF66C061E086E00E9440168091CB
:1012A000E4019091E5018C5D95400E942D1560E070
:1012B00086E00E9440168091E4019091E501845AF5
:1012C00096400E942D1520E030E040E85FE36091F9
:1012D000DC017091DD018091DE019091DF010E94BF
:1012E0003E1B6093DC017093DD018093DE019093DF
:1012F000DF0120E030E040E85FE36091D8017091C9
:10130000D9018091DA019091DB010E943F1B60932B
:10131000D8017093D9018093DA019093DB0120E02A
:1013200030E040E85FE36091D4017091D501809195
:10133000D6019091D7010E943F1B6093D401709316
:10134000D5018093D6019093D7014DCF60E070E036
:1013500084EB93E40E943E1BA70196010E943F1B71
:1013600086CF68EE73E080E090E00E94F41461E0C4
:1013700087E00E94401662E271E083EF91E00E94F4
:10138000A71885B5887F816085BD6091E201709165
:10139000E30185E00E947E158091E6019091E701CE
:1013A000A091E801B091E901813A9648A140B105C8
:1013B00009F049C470E060E085E00E947E1585B5C3
:1013C000887F836085BD61E083E00E94401660E015
:1013D00087E00E94401680E10E946015BC01990FD1
:1013E000880B990B0E945A1C2DEC3CEC4CE453E406
:1013F0000E94B01B20E030E040E952E40E940F1D43
:101400000E94221C072E000C880B990B0E945A1C6C
:101410006B017C0180908E0190908F01A0909001D3
:10142000B0909101A50194010E940A1DA5019401AB
:1014300018160CF095C0C701B6010E943E1B0E9411
:10144000221C6A3571050CF0A1C080E090E5A3EC88
:10145000B6E48093DC019093DD01A093DE01B093AC
:10146000DF01C3E0D0E020E030E0A9016091DC01C1
:101470007091DD018091DE019091DF010E940A1DD3
:1014800018160CF01BC180E10E946015BC01990F79
:10149000880B990B0E945A1C2DEC3CEC4CE453E455
:1014A0000E94B01B20E030E040E952E40E940F1D92
:1014B0000E94221C072E000C880B990B0E945A1CBC
:1014C0006B017C0180908E0190908F01A090900123
:1014D000B0909101A50194010E940A1DA5019401FB
:1014E00018160CF048C0C701B6010E943E1B0E94AE
:1014F000221C6B3571050CF0E1C061E086E00E94B2
:1015000040168091E4019091E501BE010E94811D89
:10151000CB010E942D1560E086E00E94401680916C
:10152000E4019091E501BE010E94811DCB010E9462
:101530002D1520E030E040E85FE36091DC01709120
:10154000DD018091DE019091DF010E943E1B6093DE
:10155000DC017093DD018093DE019093DF0183CF86
:1015600060E070E084EB93E40E943E1BA7019601CB
:101570000E943F1B64CF60E070E084EB93E40E9424
:101580003E1BA70196010E943F1BB1CF60E083E0A4
:101590000E94401680E090E5A3ECB6E48093DC0165
:1015A0009093DD01A093DE01B093DF01C3E0D0E0B2
:1015B00020E030E0A9016091DC017091DD018091B3
:1015C000DE019091DF010E940A1D18160CF076C012
:1015D00080E10E946015BC01990F880B990B0E9455
:1015E0005A1C2DEC3CEC4CE453E40E94B01B20E070
:1015F00030E040E952E40E940F1D0E94221C072E99
:10160000000C880B990B0E945A1C6B017C01809086
:101610008E0190908F01A0909001B0909101A50152
:1016200094010E940A1DA50194011816E4F5C70152
:10163000B6010E943E1B0E94221C6A357105F4F11E
:1016400061E086E00E9440168091E4019091E501FE
:10165000BE010E94811DCB010E942D1560E086E035
:101660000E9440168091E4019091E501BE010E9424
:10167000811DCB010E942D1520E030E040E85FE3A2
:101680006091DC017091DD018091DE019091DF01BC
:101690000E943E1B6093DC017093DD018093DE01AC
:1016A0009093DF0185CF60E070E084EB93E40E94CB
:1016B0003E1BA70196010E943F1BBDCF68EE73E061
:1016C00080E090E00E94F41461E083E00E94401604
:1016D0001092D8011092D9011092DA011092DB0118
:1016E0001092D4011092D5011092D6011092D70118
:1016F00080E090E5A3ECB6E48093DC019093DD01FB
:10170000A093DE01B093DF0120E030E0A9016091F9
:10171000DC017091DD018091DE019091DF010E947A
:101720000A1D18160CF075C120E030E040E85FE3B8
:101730006091D8017091D9018091DA019091DB011B
:101740000E94AB1B811146C00E94C3146093CC0160
:101750007093CD018093CE019093CF0180E10E94E0
:101760006015BC01990F880B990B0E945A1C2DEC37
:101770003CEC4CE453E40E94B01B20E030E040E934
:1017800052E40E940F1D0E94221C072E000C880BA1
:10179000990B0E945A1C6B017C0180908E019090E5
:1017A0008F01A0909001B0909101A50194010E9439
:1017B0000A1DA501940118160CF07CC1C701B601E1
:1017C0000E943E1B6093C0017093C1018093C201CF
:1017D0009093C30120E030E046E153E46091D801EA
:1017E0007091D9018091DA019091DB010E940A1D6C
:1017F00018160CF080C10E94C3140091CC01109106
:10180000CD012091CE013091CF01601B710B820B75
:10181000930B6093C8017093C9018093CA019093A0
:10182000CB0180E10E946015BC01990F880B990BD8
:101830000E945A1C2DEC3CEC4CE453E40E94B01B7B
:1018400020E030E040E952E40E940F1D0E94221C7B
:10185000072E000C880B990B0E945A1C6B017C010F
:1018600080908E0190908F01A0909001B090910196
:10187000A50194010E940A1DA501940118160CF0FF
:1018800024C1C701B6010E943E1B2091C0013091C6
:10189000C1014091C2015091C3010E943E1B6B01E6
:1018A0007C016091C8017091C9018091CA01909139
:1018B000CB010E94581C9B01AC01C701B6010E94DC
:1018C000B01B20E030E048EC52E40E940F1D6B0199
:1018D0007C0120E030E0A9010E940A1D181624F0C6
:1018E000F7FAF094F7F8F094C092C401D092C501D1
:1018F000E092C601F092C7011092D8011092D9016E
:101900001092DA011092DB012DEC3CEC4CEC5DE323
:10191000C701B6010E94AB1B87FFEDC020E030E09D
:101920004AEF53E46091D4017091D5018091D601C2
:101930009091D7010E940A1D18160CF0DCC080E1BE
:101940000E946015BC01990F880B990B0E945A1CCC
:101950002DEC3CEC4CE453E40E94B01B20E030E062
:1019600040E952E40E940F1D0E94221C072E000C29
:10197000880B990B0E945A1C6B017C0180908E0190
:1019800090908F01A0909001B0909101A5019401D9
:101990000E940A1DA501940118160CF0A1C0C701F0
:1019A000B6010E943E1B6093AA017093AB01809325
:1019B000AC019093AD01C090AA01D090AB01E09032
:1019C000AC01F090AD01C701B6010E94221C072EA8
:1019D000000C880B990B0E945A1C9B01AC012093B0
:1019E000A2013093A3014093A4015093A501C70124
:1019F000B6010E943E1B20E030E048EC52E40E9419
:101A00000F1D60939A0170939B0180939C019093AA
:101A10009D0168EC70E080E090E00E94F41480E0AA
:101A200090E0A8E4B3E48093DC019093DD01A093FF
:101A3000DE01B093DF0120E030E0A9016091DC011C
:101A40007091DD018091DE019091DF010E940A1DFD
:101A500018160CF0A7C060E083E00E94401661E019
:101A600086E00E9440168091E4019091E5010E9479
:101A70002D1560E086E00E9440168091E40190916F
:101A8000E5010E942D1520E030E040E85FE3609121
:101A9000DC017091DD018091DE019091DF010E94F7
:101AA0003E1B6093DC017093DD018093DE01909317
:101AB000DF01C1CF60E070E084EB93E40E943E1B45
:101AC000A70196010E943F1B7DCE60E070E084EB91
:101AD00093E40E943E1BA70196010E943F1BD5CEB6
:101AE00060E070E084EB93E40E943E1BA701960146
:101AF0000E943F1B58CF61E086E00E944016809113
:101B0000E4019091E5010E942D1560E086E00E94BD
:101B100040168091E4019091E5010E942D1520E08E
:101B200030E040E85FE36091DC017091DD0180917D
:101B3000DE019091DF010E943E1B6093DC017093F7
:101B4000DD018093DE019093DF0120E030E040E88A
:101B50005FE36091D8017091D9018091DA01909191
:101B6000DB010E943F1B6093D8017093D9018093E1
:101B7000DA019093DB0120E030E040E85FE3609120
:101B8000D4017091D5018091D6019091D7010E9426
:101B90003F1B6093D4017093D5018093D60190933D
:101BA000D701B2CD61E087E00E94401620E030E02E
:101BB00048EC52E46091A2017091A3018091A401CC
:101BC0009091A5010E943E1B0E94291C8091B201A8
:101BD0009091B30102960E94910060919A017091D8
:101BE0009B0180919C0190919D010E94291C8091F4
:101BF000B2019091B30103960E94910067E271E0F7
:101C000083EF91E00E9494184091AA015091AB019A
:101C10006091AC017091AD0122E030E083EF91E082
:101C20000E94501A6AE671E083EF91E00E94A718C3
:101C300085B5887F816085BD6091E2017091E30187
:101C400085E00E947E158091E6019091E701A091C8
:101C5000E801B091E901803A9648A140B10509F048
:101C60009FC470E060E085E00E947E1585B5887FA6
:101C7000836085BD60E083E00E94401660E087E0FD
:101C80000E94401680E10E946015BC01990F880BEC
:101C9000990B0E945A1C2DEC3CEC4CE453E40E943E
:101CA000B01B20E030E040E952E40E940F1D0E948A
:101CB000221C072E000C880B990B0E945A1C6B01EA
:101CC0007C0180908E0190908F01A0909001B09047
:101CD0009101A50194010E940A1DA5019401181605
:101CE0000CF0C5C0C701B6010E943E1B0E94221C19
:101CF0006A3571050CF0D1C061E083E00E944016A6
:101D000080E090E5A3ECB6E48093DC019093DD01E4
:101D1000A093DE01B093DF01C3E0D0E020E030E02B
:101D2000A9016091DC017091DD018091DE0190914B
:101D3000DF010E940A1D18160CF075C180E10E9497
:101D40006015BC01990F880B990B0E945A1C2DEC51
:101D50003CEC4CE453E40E94B01B20E030E040E94E
:101D600052E40E940F1D0E94221C072E000C880BBB
:101D7000990B0E945A1C6B017C0180908E019090FF
:101D80008F01A0909001B0909101A50194010E9453
:101D90000A1DA501940118160CF074C0C701B60104
:101DA0000E943E1B0E94221C6B3571050CF03BC14A
:101DB00061E086E00E9440168091E4019091E50187
:101DC000BE010E94811DCB010E942D1560E086E0BE
:101DD0000E9440168091E4019091E501BE010E94AD
:101DE000811DCB010E942D1520E030E040E85FE32B
:101DF0006091DC017091DD018091DE019091DF0145
:101E00000E943E1B6093DC017093DD018093DE0134
:101E10009093DF0120E030E040E85FE36091D8017B
:101E20007091D9018091DA019091DB010E943F1BF2
:101E30006093D8017093D9018093DA019093DB010C
:101E400020E030E040E85FE36091D4017091D5017B
:101E50008091D6019091D7010E943F1B6093D401DD
:101E60007093D5018093D6019093D70157CF60E04E
:101E700070E084EB93E40E943E1BA70196010E9450
:101E80003F1B34CF60E070E084EB93E40E943E1B84
:101E9000A70196010E943F1B85CF60E083E00E946E
:101EA000401680E090E5A3ECB6E48093DC019093CB
:101EB000DD01A093DE01B093DF01C3E0D0E020E0BC
:101EC00030E0A9016091DC017091DD018091DE01BB
:101ED0009091DF010E940A1D18160CF0A4C080E149
:101EE0000E946015BC01990F880B990B0E945A1C27
:101EF0002DEC3CEC4CE453E40E94B01B20E030E0BD
:101F000040E952E40E940F1D0E94221C072E000C83
:101F1000880B990B0E945A1C6B017C0180908E01EA
:101F200090908F01A0909001B0909101A501940133
:101F30000E940A1DA501940118160CF069C0C70182
:101F4000B6010E943E1B0E94221C6A3571050CF4EA
:101F50006AC061E086E00E9440168091E4019091A1
:101F6000E501BE010E94811DCB010E942D1560E09C
:101F700086E00E9440168091E4019091E501BE0147
:101F80000E94811DCB010E942D1520E030E040E829
:101F90005FE36091DC017091DD018091DE01909141
:101FA000DF010E943E1B6093DC017093DD01809392
:101FB000DE019093DF0120E030E040E85FE36091D4
:101FC000D8017091D9018091DA019091DB010E94D2
:101FD0003F1B6093D8017093D9018093DA019093ED
:101FE000DB0120E030E040E85FE36091D4017091D4
:101FF000D5018091D6019091D7010E943F1B60933B
:10200000D4017093D5018093D6019093D70157CF17
:1020100060E070E084EB93E40E943E1BA701960110
:102020000E943F1B90CF68EE73E080E090E00E943A
:10203000F41460E083E00E9440161092D8011092E0
:10204000D9011092DA011092DB011092D4011092A2
:10205000D5011092D6011092D70180E090E5A3EC53
:10206000B6E48093DC019093DD01A093DE01B09390
:10207000DF0120E030E0A9016091DC017091DD0119
:102080008091DE019091DF010E940A1D18160CF06C
:1020900075C120E030E040E85FE36091D8017091C5
:1020A000D9018091DA019091DB010E94AB1B811173
:1020B00046C00E94C3146093CC017093CD018093FD
:1020C000CE019093CF0180E10E946015BC01990F71
:1020D000880B990B0E945A1C2DEC3CEC4CE453E409
:1020E0000E94B01B20E030E040E952E40E940F1D46
:1020F0000E94221C072E000C880B990B0E945A1C70
:102100006B017C0180908E0190908F01A0909001D6
:10211000B0909101A50194010E940A1DA5019401AE
:1021200018160CF07CC1C701B6010E943E1B6093DB
:10213000C0017093C1018093C2019093C30120E05C
:1021400030E046E153E46091D8017091D90180916B
:10215000DA019091DB010E940A1D18160CF080C173
:102160000E94C3140091CC011091CD012091CE01A9
:102170003091CF01601B710B820B930B6093C801F0
:102180007093C9018093CA019093CB0180E10E94B2
:102190006015BC01990F880B990B0E945A1C2DECFD
:1021A0003CEC4CE453E40E94B01B20E030E040E9FA
:1021B00052E40E940F1D0E94221C072E000C880B67
:1021C000990B0E945A1C6B017C0180908E019090AB
:1021D0008F01A0909001B0909101A50194010E94FF
:1021E0000A1DA501940118160CF024C1C701B601FF
:1021F0000E943E1B2091C0013091C1014091C2015B
:102200005091C3010E943E1B6B017C016091C8018B
:102210007091C9018091CA019091CB010E94581C14
:102220009B01AC01C701B6010E94B01B20E030E069
:1022300048EC52E40E940F1D6B017C0120E030E06D
:10224000A9010E940A1D181624F0F7FAF094F7F875
:10225000F094C092C401D092C501E092C601F09200
:10226000C7011092D8011092D9011092DA01109290
:10227000DB012DEC3CEC4CEC5DE3C701B6010E94A8
:10228000AB1B87FFEDC020E030E04AEF53E46091E4
:10229000D4017091D5018091D6019091D7010E940F
:1022A0000A1D18160CF0DCC080E10E946015BC010C
:1022B000990F880B990B0E945A1C2DEC3CEC4CE4B6
:1022C00053E40E94B01B20E030E040E952E40E9459
:1022D0000F1D0E94221C072E000C880B990B0E94D8
:1022E0005A1C6B017C0180908E0190908F01A09010
:1022F0009001B0909101A50194010E940A1DA501D1
:10230000940118160CF0A1C0C701B6010E943E1B33
:102310006093AE017093AF018093B0019093B101CF
:10232000C090AE01D090AF01E090B001F090B1014B
:10233000C701B6010E94221C072E000C880B990BC6
:102340000E945A1C9B01AC012093A6013093A70167
:102350004093A8015093A901C701B6010E943E1BFA
:1023600020E030E048EC52E40E940F1D60939E0193
:1023700070939F018093A0019093A10168EC70E09D
:1023800080E090E00E94F41480E090E0A8E4B3E4E0
:102390008093DC019093DD01A093DE01B093DF0117
:1023A00020E030E0A9016091DC017091DD018091B5
:1023B000DE019091DF010E940A1D61E018160CF009
:1023C000A6C083E00E94401661E086E00E944016AD
:1023D0008091E4019091E5010E942D1560E086E076
:1023E0000E9440168091E4019091E5010E942D1514
:1023F00020E030E040E85FE36091DC017091DD01B6
:102400008091DE019091DF010E943E1B6093DC0110
:102410007093DD018093DE019093DF01C1CF60E016
:1024200070E084EB93E40E943E1BA70196010E949A
:102430003F1B7DCE60E070E084EB93E40E943E1B86
:10244000A70196010E943F1BD5CE60E070E084EBAF
:1024500093E40E943E1BA70196010E943F1B58CFA8
:1024600061E086E00E9440168091E4019091E501D0
:102470000E942D1560E086E00E9440168091E401E4
:102480009091E5010E942D1520E030E040E85FE3E7
:102490006091DC017091DD018091DE019091DF019E
:1024A0000E943E1B6093DC017093DD018093DE018E
:1024B0009093DF0120E030E040E85FE36091D801D5
:1024C0007091D9018091DA019091DB010E943F1B4C
:1024D0006093D8017093D9018093DA019093DB0166
:1024E00020E030E040E85FE36091D4017091D501D5
:1024F0008091D6019091D7010E943F1B6093D40137
:102500007093D5018093D6019093D701B2CD87E027
:102510000E9440166091A6017091A7018091A801C8
:102520009091A9010E94291C8091B2019091B30160
:102530000E94910060919E0170919F018091A00185
:102540009091A1010E94291C8091B2019091B30148
:1025500001960E9491006FE271E083EF91E00E948A
:1025600094184091AE015091AF016091B00170910B
:10257000B10122E030E083EF91E00E94501A6AE658
:1025800071E083EF91E00E94A71885B5887F816094
:1025900085BD6091E2017091E30185E00E947E15A6
:1025A0008091E6019091E701A091E801B091E901E5
:1025B0008236934EA641B10509F052C08090BC010D
:1025C0009090BD01A090BE01B090BF0120E030E02E
:1025D00040EA51E4C501B4010E943E1B6B017C013D
:1025E00020E030E0A9010E94AB1B87FFA7C0A50136
:1025F000940160E070E080EA91E40E943E1B9B0140
:10260000AC0160E070E084EB93E40E943E1B6093B9
:102610008E0170938F018093900190939101E090CF
:10262000B201F090B301E70126960EE811E02AE02E
:10263000E20EF11CF801D1908F01CE010E94EB1D3A
:10264000D81621F06D2DCE010E94F31D2196CE15D6
:10265000DF0581F768E371E083EF91E00E94A7183E
:102660001092E6011092E7011092E8011092E90140
:102670001092BC011092BD011092BE011092BF01D8
:102680001092DC011092DD011092DE011092DF0148
:1026900020E030E040E251E46091DC017091DD0126
:1026A0008091DE019091DF010E94AB1B87FF4FC03C
:1026B00080E10E946015BC01990F880B990B0E9464
:1026C0005A1C2DEC3CEC4CE453E40E94B01B20E07F
:1026D00030E040E952E40E940F1D9B01AC01609183
:1026E000BC017091BD018091BE019091BF010E941B
:1026F0003F1B6093BC017093BD018093BE0190931A
:10270000BF0160E471E080E090E00E94F41420E0FA
:1027100030E040E85FE36091DC017091DD01809181
:10272000DE019091DF010E943F1B6093DC017093FA
:10273000DD018093DE019093DF01AACFC0928E016C
:10274000D0928F01E0929001F092910168CF20E049
:1027500030E040E251E46091BC017091BD01809194
:10276000BE019091BF010E94B01B6B017C0120E073
:1027700030E0A9010E940A1D181624F0F7FAF0941F
:10278000F7F8F094C092BC01D092BD01E092BE0176
:10279000F092BF0180908E0190908F01A0909001E7
:1027A000B0909101A7019601C501B4010E94AB1B35
:1027B000A501940187FF92C0C701B6010E943E1B8C
:1027C000609392017093930180939401909395018B
:1027D00062E571E083EF91E00E9494184091AE01B0
:1027E0005091AF016091B0017091B10122E030E0F1
:1027F00083EF91E00E94501A6AE671E083EF91E066
:102800000E9494184091AA015091AB016091AC01D3
:102810007091AD0122E030E083EF91E00E94501A08
:102820006AE671E083EF91E00E9494184091920172
:1028300050919301609194017091950122E030E0F4
:1028400083EF91E00E94501A6AE671E083EF91E015
:102850000E9494184091D0015091D1016091D20111
:102860007091D30122E030E083EF91E00E94501A92
:102870006AE671E083EF91E00E9494186091E201B2
:102880007091E3014AE050E083EF91E00E94521919
:102890006AE671E083EF91E00E9494186091E00194
:1028A0007091E1014AE050E083EF91E00E945219FB
:1028B0006AE671E083EF91E00E94A71883EF91E050
:1028C000DF91CF911F910F91FF90EF90DF90CF900C
:1028D000BF90AF909F908F900C94041760E070E0D1
:1028E00084EB93E40E943E1BA70196010E943F1BCC
:1028F00067CF1F920F920FB60F9211242F933F9321
:102900008F939F93AF93BF938091EF019091F001CC
:10291000A091F101B091F2013091EE0123E0230F7B
:102920002D3768F126E8230F0296A11DB11D2093D3
:10293000EE018093EF019093F001A093F101B09329
:10294000F2018091EA019091EB01A091EC01B0912C
:10295000ED010196A11DB11D8093EA019093EB0159
:10296000A093EC01B093ED01BF91AF919F918F9136
:102970003F912F910F900FBE0F901F9018950196C9
:10298000A11DB11DD4CF2FB7F8946091EF017091C4
:10299000F0018091F1019091F2012FBF08953FB7AE
:1029A000F8948091EA019091EB01A091EC01B09133
:1029B000ED0126B5A89B05C02F3F19F00196A11D7A
:1029C000B11D3FBFBA2FA92F982F8827BC01CD0179
:1029D000620F711D811D911D42E0660F771F881FD8
:1029E000991F4A95D1F708958F929F92AF92BF9207
:1029F000CF92DF92EF92FF926B017C010E94CF1485
:102A00004B015C01C114D104E104F104E9F00E941E
:102A10003D1B0E94CF14681979098A099B09683EF9
:102A200073408105910570F321E0C21AD108E108D5
:102A3000F10888EE880E83E0981EA11CB11CC11419
:102A4000D104E104F10429F7FF90EF90DF90CF90DB
:102A5000BF90AF909F908F9008958230910538F08D
:102A6000880F991F880F991F05970197F1F708950F
:102A7000789484B5836084BD85B5836085BDEEE6BA
:102A8000F0E0808181608083E1E8F0E082E0808393
:102A9000808181608083E0E8F0E0808181608083D4
:102AA000E1EBF0E0808184608083E0EBF0E0808106
:102AB0008160808387E880937A001092C100089536
:102AC000883020F08D3008F48DE08E502091000188
:102AD00090E4299F900111248770822B80937C00C1
:102AE00080917A00806480937A0080917A0086FDDC
:102AF000FCCF809178009091790008951F93CF9337
:102B0000DF93182FEB0161E00E940416209739F43F
:102B100060E0812FDF91CF911F910C944016CF3F41
:102B2000D10511F461E0F5CFE12FF0E0E859FF4F56
:102B3000E491E43031F140F4E230B1F0E330E1F01F
:102B4000C038D1057CF7E4CFE83029F1E93059F1FC
:102B5000E530B1F780918000806280938000D0934F
:102B60008B00C0938A0004C084B5806884BDC7BD53
:102B7000DF91CF911F91089584B5806284BDC8BD57
:102B8000F7CF80918000806880938000D093890087
:102B9000C0938800EDCF8091B00080688093B00032
:102BA000C093B300E5CF8091B00080628093B00005
:102BB000C093B400DDCF843081F028F48230E9F096
:102BC0008330F9F00895883071F0893091F08530C4
:102BD000B9F4809180008F7D03C0809180008F7751
:102BE0008093800008958091B0008F778093B0002B
:102BF00008958091B0008F7DF9CF84B58F7784BD23
:102C0000089584B58F7DFBCFCF93DF9390E0FC01D7
:102C1000E158FF4F24918A569F4FFC0184918823ED
:102C2000C9F090E0880F991FFC01EF53FF4FA59169
:102C3000B491FC01E954FF4FC591D49161110DC0CD
:102C40009FB7F8948C91209582238C9388812823B8
:102C500028839FBFDF91CF910895623051F49FB7D1
:102C6000F8943C91822F809583238C93E8812E2BBE
:102C7000EFCF8FB7F894EC912E2B2C938FBFEACF28
:102C80001F93CF93DF93282F30E0F901E859FF4FCE
:102C90008491F901E158FF4FD491F901EA56FF4FB1
:102CA000C491CC23A9F0162F81110E94DB15EC2FC3
:102CB000F0E0EE0FFF1FE954FF4FA591B4918FB7DD
:102CC000F894EC91111108C0D095DE23DC938FBFEE
:102CD000DF91CF911F910895DE2BF8CFCF93DF9333
:102CE000282F30E0F901E859FF4F8491F901E158AC
:102CF000FF4FD491F901EA56FF4FC491CC23A1F0C4
:102D000081110E94DB15EC2FF0E0EE0FFF1FE35561
:102D1000FF4FA591B491EC91ED2381E090E009F48F
:102D200080E0DF91CF91089580E090E0FACFFC0140
:102D3000918D228D892F90E0805C9F4F821B91099D
:102D40008F7399270895FC01918D828D981731F02A
:102D5000828DE80FF11D858D90E008958FEF9FEF34
:102D60000895FC01918D828D981761F0A28DAE0FB0
:102D7000BF2FB11D5D968C91928D9F5F9F73928F37
:102D800090E008958FEF9FEF0895FC01538D448DDF
:102D9000252F30E0842F90E0821B930B541710F006
:102DA000CF9608950197089581E298E1892B49F023
:102DB00080E090E0892B29F00E94211881110C9469
:102DC00000000895FC01A48DA80FB92FB11DA35ACE
:102DD000BF4F2C91848D90E001968F739927848F3B
:102DE000A689B7892C93A089B1898C91837080645E
:102DF0008C93938D848D981306C00288F389E02DFF
:102E000080818F7D80830895CF93DF93EC01888D3F
:102E10008823B9F0AA89BB89E889F9898C9185FD55
:102E200003C0808186FD0DC00FB607FCF7CF8C91E3
:102E300085FFF2CF808185FFEDCFCE010E94E216A3
:102E4000E9CFDF91CF910895EF92FF920F931F93F7
:102E5000CF93DF93EC0181E0888F9B8D8C8D98134D
:102E60001AC0E889F989808185FF15C09FB7F89459
:102E7000EE89FF896083E889F989808183708064A5
:102E800080839FBF81E090E0DF91CF911F910F91F0
:102E9000FF90EF900895F62E0B8D10E00F5F1F4FFF
:102EA0000F731127E02E8C8D8E110CC00FB607FC0E
:102EB000FACFE889F989808185FFF5CFCE010E949C
:102EC000E216F1CFEB8DEC0FFD2FF11DE35AFF4F12
:102ED000F0829FB7F8940B8FEA89FB89808180622A
:102EE000CFCFCF92DF92EF92FF921F93CF93DF93DA
:102EF000EC016A017B01122FE889F98982E0808365
:102F0000C11481EED806E104F104A1F060E079E09B
:102F10008DE390E0A70196010E94951D2150310993
:102F2000410951095695479537952795211580E117
:102F3000380798F0E889F989108260E874E88EE132
:102F400090E0A70196010E94951D21503109410989
:102F500051095695479537952795EC85FD85308322
:102F6000EE85FF852083188EEC89FD891083EA8920
:102F7000FB89808188698083EA89FB8980818F7DD4
:102F80008083DF91CF911F91FF90EF90DF90CF90E2
:102F900008951F920F920FB60F9211242F938F93C3
:102FA0009F93EF93FF93E0910302F09104028081DD
:102FB000E0910902F0910A0282FD1BC0908180918C
:102FC0000C028F5F8F7320910D02821741F0E09108
:102FD0000C02F0E0ED50FE4F958F80930C02FF91B4
:102FE000EF919F918F912F910F900FBE0F901F9097
:102FF00018958081F4CF1F920F920FB60F92112473
:103000002F933F934F935F936F937F938F939F93F0
:10301000AF93BF93EF93FF9383EF91E00E94E2168B
:10302000FF91EF91BF91AF919F918F917F916F91A0
:103030005F914F913F912F910F900FBE0F901F9076
:10304000189583EF91E00E94971621E0892B09F4EF
:1030500020E0822F0895E3EFF1E01382128288EEE0
:1030600093E0A0E0B0E084839583A683B78380E7F4
:1030700091E09183808385EC90E09587848784EC50
:1030800090E09787868780EC90E0918B808B81EC35
:1030900090E0938B828B82EC90E0958B848B86EC16
:1030A00090E0978B868B118E128E138E148E08955E
:1030B000AF92BF92CF92DF92EF92FF920F931F9346
:1030C000CF93DF936C017B018B01040F151FEB0184
:1030D0005E01AE18BF08C017D10759F06991D6013B
:1030E000ED91FC910190F081E02DC6010995892BAD
:1030F00079F7C501DF91CF911F910F91FF90EF906C
:10310000DF90CF90BF90AF900895FB010190002019
:10311000E9F73197AF01461B570BDC01ED91FC91AC
:103120000280F381E02D09946115710511F00C9472
:10313000851890E080E00895DC01ED91FC9101900C
:10314000F081E02D09946EE771E00C9485180F93DF
:103150001F93CF93DF938C01D0E0C0E06115710520
:1031600019F00E948518EC01C8010E94A3188C0F69
:103170009D1FDF91CF911F910F9108958F929F9284
:10318000AF92BF92EF92FF920F931F93CF93DF9373
:10319000CDB7DEB7A1970FB6F894DEBF0FBECDBF97
:1031A0007C01FA01CB0119A2223008F42AE08E0139
:1031B0000F5D1F4F822E912CB12CA12CBF01A501B8
:1031C00094010E94951DF901CA016A300CF5605DF9
:1031D000D8016E938D01232B242B252B79F790E0BA
:1031E00080E0109721F0BD01C7010E948518A196CB
:1031F0000FB6F894DEBF0FBECDBFDF91CF911F9108
:103200000F91FF90EF90BF90AF909F908F90089597
:10321000695CDECFCF92DF92EF92FF920F931F9304
:10322000CF93DF932115310581F4DC01ED91FC9101
:103230000190F081E02D642FDF91CF911F910F91CC
:10324000FF90EF90DF90CF9009942A30310501F57F
:103250002AE077FF1DC06A017B01EC016DE20E944C
:103260009C188C0144275527BA014C195D096E0939
:103270007F092AE0CE010E94BE18800F911FDF91C6
:10328000CF911F910F91FF90EF90DF90CF90089515
:10329000DF91CF911F910F91FF90EF90DF90CF9032
:1032A0000C94BE189A01AB01770F660B770B0C9448
:1032B0000A192115310541F4DC01ED91FC910190D1
:1032C000F081E02D642F09940C94BE189A01AB0193
:1032D00070E060E00C9459192F923F924F925F92E8
:1032E0006F927F928F929F92AF92BF92CF92DF9216
:1032F000EF92FF921F93CF93DF93EC016A017B0162
:10330000722EAB019601CB01B6010E947C1D61E8D3
:1033100071E0811126C046015701E894B7F82FEFFC
:103320003FEF4FE75FE7C501B4010E947C1D8111AB
:103330000CC02FEF3FEF4FE75FE7C501B4010E94DC
:10334000AB1B65E871E0181664F02FEF3FEF4FE715
:103350005FE4C701B6010E940A1D1816B4F469E8BB
:1033600071E0CE01DF91CF911F91FF90EF90DF9040
:10337000CF90BF90AF909F908F907F906F905F9015
:103380004F903F902F900C9485182FEF3FEF4FE711
:103390005FECC701B6010E94AB1B87FDE0CF20E0C8
:1033A00030E0A901C701B6010E94AB1B312C212CD2
:1033B00087FF09C06DE2CE010E949C181C01F7FA3C
:1033C000F094F7F8F09410E060E070E080E09FE3A4
:1033D000711641F020E030E040E251E40E94B01B61
:1033E0001F5FF6CFA70196010E943F1B2B013C01F6
:1033F0000E94291C4B015C012AE0BC01A401CE0102
:103400000E94BE187C01E20CF31C1123B1F1C5012E
:10341000B4010E94581C9B01AC01C301B2010E947F
:103420003E1B4B015C016EE2CE010E949C18E80E2F
:10343000F91E115010F120E030E040E251E4C501E6
:10344000B4010E940F1D2B013C010E94291C4B015D
:103450004AE050E0CE010E946619E80EF91EB40160
:1034600090E080E00E94581C9B01AC01C301B201B6
:103470000E943E1B4B015C01DCCFC701DF91CF9165
:103480001F91FF90EF90DF90CF90BF90AF909F90F3
:103490008F907F906F905F904F903F902F90089506
:1034A0000C946C190F931F93CF93DF93EC010E9440
:1034B0006C198C01CE010E94A318800F911FDF911F
:1034C000CF911F910F9108950F931F93CF93DF9387
:1034D000EC010E94C314688779878A879B87E881FB
:1034E000F9810484F585E02DCE01099597FF15C07B
:1034F0000E94C314088519852A853B85601B710BC2
:10350000820B930B0C811D812E813F816017710707
:103510008207930720F38FEF9FEFDF91CF911F91E9
:103520000F910895FF920F931F93CF93DF93EC01B8
:103530008B01F42ECE010E94641A97FD1DC08D32BE
:103540009105D1F09C01205331092A303105A0F0BA
:10355000FF2019F08E32910579F00130110551F0FC
:103560000230110589F48D30910571F05CF40997F2
:10357000029750F08FEF9FEFDF91CF911F910F9146
:10358000FF9008958097B1F7E881F9810284F3856F
:10359000E02DCE010995CECFBF92CF92DF92EF9270
:1035A000FF920F931F93CF93DF938C01C42F40E0C2
:1035B0000E94921AFC01C12CD12C760197FD3EC0CD
:1035C000B12C0C2E000CDD0BCE17DF07D9F0ED323D
:1035D000F10509F43FC0CF01C0970A9798F4AAE01B
:1035E000B0E0A70196010E94BD1D6F01FF0FEE081C
:1035F000FF08C60ED71EE81EF91E80E3C81AD108C0
:10360000E108F108D801ED91FC910284F385E02DE9
:10361000C8010995C8010E94641AFC01C0970A9765
:1036200098F2CE17DF0781F2BB2041F0F094E094CE
:10363000D094C094C11CD11CE11CF11CC701B6017F
:10364000DF91CF911F910F91FF90EF90DF90CF907E
:10365000BF900895BB24B394D5CF08950E94381528
:103660000E942D1B0E949500C4EDD6E10E94F40239
:103670002097E1F30E94D416F9CF08955058BB2744
:10368000AA270E94561B0C94D01C0E94C21C38F022
:103690000E94C91C20F039F49F3F19F426F40C94C1
:1036A000BF1C0EF4E095E7FB0C94B91CE92F0E94B7
:1036B000E11C58F3BA17620773078407950720F0D7
:1036C00079F4A6F50C94031D0EF4E0950B2EBA2F99
:1036D000A02D0B01B90190010C01CA01A001112418
:1036E000FF27591B99F0593F50F4503E68F11A16C4
:1036F000F040A22F232F342F4427585FF3CF469555
:1037000037952795A795F0405395C9F77EF41F1676
:10371000BA0B620B730B840BBAF09150A1F0FF0F40
:10372000BB1F661F771F881FC2F70EC0BA0F621F2C
:10373000731F841F48F4879577956795B795F7951C
:103740009E3F08F0B0CF9395880F08F09927EE0FB1
:103750009795879508950E94951C08F481E0089537
:103760000E94C41B0C94D01C0E94C91C58F00E94DB
:10377000C21C40F029F45F3F29F00C94B91C511190
:103780000C94041D0C94BF1C0E94E11C68F3992347
:10379000B1F3552391F3951B550BBB27AA2762174D
:1037A0007307840738F09F5F5F4F220F331F441F5A
:1037B000AA1FA9F335D00E2E3AF0E0E832D091508E
:1037C0005040E695001CCAF72BD0FE2F29D0660F7B
:1037D000771F881FBB1F261737074807AB07B0E8BE
:1037E00009F0BB0B802DBF01FF2793585F4F3AF0C4
:1037F0009E3F510578F00C94B91C0C94041D5F3F5A
:10380000E4F3983ED4F3869577956795B795F79549
:103810009F5FC9F7880F911D9695879597F9089531
:10382000E1E0660F771F881FBB1F621773078407CD
:10383000BA0720F0621B730B840BBA0BEE1F88F7DC
:10384000E09508950E94291C6894B1110C94041D00
:1038500008950E94E91C88F09F5798F0B92F992786
:10386000B751B0F0E1F0660F771F881F991F1AF06B
:10387000BA95C9F714C0B13091F00E94031DB1E0B0
:1038800008950C94031D672F782F8827B85F39F0AF
:10389000B93FCCF3869577956795B395D9F73EF404
:1038A00090958095709561957F4F8F4F9F4F0895AC
:1038B000E89409C097FB3EF49095809570956195CA
:1038C0007F4F8F4F9F4F9923A9F0F92F96E9BB2780
:1038D0009395F695879577956795B795F111F8CFFC
:1038E000FAF4BB0F11F460FF1BC06F5F7F4F8F4F67
:1038F0009F4F16C0882311F096E911C0772321F05D
:103900009EE8872F762F05C0662371F096E8862FF4
:1039100070E060E02AF09A95660F771F881FDAF74B
:10392000880F9695879597F90895990F0008550F78
:10393000AA0BE0E8FEEF16161706E807F907C0F035
:1039400012161306E407F50798F0621B730B840B3D
:10395000950B39F40A2661F0232B242B252B21F417
:1039600008950A2609F4A140A6958FEF811D811DB7
:10397000089597F99F6780E870E060E008959FEFF1
:1039800080EC089500240A941616170618060906F6
:10399000089500240A9412161306140605060895C5
:1039A000092E0394000C11F4882352F0BB0F40F44D
:1039B000BF2B11F460FF04C06F5F7F4F8F4F9F4F8D
:1039C000089557FD9058440F551F59F05F3F71F00F
:1039D0004795880F97FB991F61F09F3F79F0879576
:1039E0000895121613061406551FF2CF4695F1DFFF
:1039F00008C0161617061806991FF1CF869571058F
:103A0000610508940895E894BB2766277727CB01C2
:103A100097F908950E94951C08F48FEF08950E946D
:103A2000221D0C94D01C0E94C21C38F00E94C91C9C
:103A300020F0952311F00C94B91C0C94BF1C112498
:103A40000C94041D0E94E11C70F3959FC1F3950F27
:103A500050E0551F629FF001729FBB27F00DB11D12
:103A6000639FAA27F00DB11DAA1F649F6627B00DA2
:103A7000A11D661F829F2227B00DA11D621F739F8B
:103A8000B00DA11D621F839FA00D611D221F749F99
:103A90003327A00D611D231F849F600D211D822FE0
:103AA000762F6A2F11249F5750409AF0F1F0882307
:103AB0004AF0EE0FFF1FBB1F661F771F881F915034
:103AC0005040A9F79E3F510580F00C94B91C0C940E
:103AD000041D5F3FE4F3983ED4F386957795679590
:103AE000B795F795E7959F5FC1F7FE2B880F911D5E
:103AF0009695879597F908950E94951C880B990BC8
:103B0000089597FB072E16F4009407D077FD09D08F
:103B10000E94C81D07FC05D03EF4909581959F4FEB
:103B20000895709561957F4F0895A1E21A2EAA1B02
:103B3000BB1BFD010DC0AA1FBB1FEE1FFF1FA2175D
:103B4000B307E407F50720F0A21BB30BE40BF50B5A
:103B5000661F771F881F991F1A9469F760957095E3
:103B6000809590959B01AC01BD01CF010895EE0FAA
:103B7000FF1F0590F491E02D09940E94DC1DA59F84
:103B8000900DB49F900DA49F800D911D1124089558
:103B9000AA1BBB1B51E107C0AA1FBB1FA617B70773
:103BA00010F0A61BB70B881F991F5A95A9F780958F
:103BB0009095BC01CD010895A29FB001B39FC001B3
:103BC000A39F700D811D1124911DB29F700D811D49
:103BD0001124911D0895F999FECF92BD81BDF89AE7
:103BE000992780B50895262FF999FECF1FBA92BD67
:103BF00081BD20BD0FB6F894FA9AF99A0FBE0196CE
:063C00000895F894FFCFC7
:103C060001436C6F7365506F736974696F6E5365AA
:103C160074004F70656E506F736974696F6E53658B
:103C26007400646F6E65004F70656E536574004373
:103C36006C6F736553657400506F736974696F6E4A
:103C460020736176656420746F20454550524F4D50
:103C56002E0057616E6465726572436F76657256A3
:103C6600344132303235303231314100000000000B
:103C760024175818C51604179716B116A3160D0A59
:0E3C8600006E616E00696E66006F766600006B
:00000001FF
