:100000000C945D000C9485000C9485000C94850084
:100010000C9485000C9485000C9485000C9485004C
:100020000C9485000C9485000C9485000C9485003C
:100030000C9485000C9485000C9485000C9485002C
:100040000C942A040C9485000C94F8030C94D203AD
:100050000C9485000C9485000C9485000C9485000C
:100060000C9485000C94850000000008000201003B
:100070000003040700000000000000000000000072
:10008000250028002B0000000000240027002A0083
:10009000040404040404040402020202020203032E
:1000A0000303030301020408102040800102040836
:1000B0001020010204081020310F11241FBECFEFC1
:1000C000D8E0DEBFCDBF11E0A0E0B1E0EEE0F4E2A9
:1000D00002C005900D92A234B107D9F722E0A2E444
:1000E000B1E001C01D92AA30B207E1F710E0CDE502
:1000F000D0E004C02197FE010E94FF11CC35D1074A
:10010000C9F70E9474040C9405120C94000090E04E
:10011000FC01EC55FF4F249180579F4FFC018491C7
:10012000882399F090E0880F991FFC01EA57FF4F50
:10013000A591B491FC01E458FF4F859194918FB73C
:10014000F894EC91E22BEC938FBF0895AF92BF929D
:10015000CF92DF92EF92FF920F931F93CF93DF9393
:100160006C017B018B01040F151FEB015E01AE18C2
:10017000BF08C017D10759F06991D601ED91FC91E4
:100180000190F081E02DC6010995892B79F7C50111
:10019000DF91CF911F910F91FF90EF90DF90CF9063
:1001A000BF90AF900895FC01538D448D252F30E012
:1001B000842F90E0821B930B541710F0CF96089574
:1001C00001970895FC01918D828D981761F0A28DA1
:1001D000AE0FBF2FB11D5D968C91928D9F5F9F7367
:1001E000928F90E008958FEF9FEF0895FC01918D1D
:1001F000828D981731F0828DE80FF11D858D90E08A
:1002000008958FEF9FEF08952FB7F89480916901BB
:1002100090916A01A0916B01B0916C012FBF809306
:10022000750190937601A0937701B09378018DE6E4
:1002300091E00E94F60097FF26C02FB7F8948091B6
:10024000690190916A01A0916B01B0916C012FBF7F
:10025000409175015091760160917701709178011C
:10026000841B950BA60BB70B409171015091720145
:10027000609173017091740184179507A607B70701
:10028000B0F28FEF9FEF0895FC01918D228D892FA1
:1002900090E0805C9F4F821B91098F73992708958E
:1002A0008DE691E00E94440121E0892B09F420E0D1
:1002B000822F089580E090E0892B29F00E94500160
:1002C00081110C9400000895FC01A48DA80FB92F92
:1002D000B11DA35ABF4F2C91848D90E001968F736E
:1002E0009927848FA689B7892C93A089B1898C918D
:1002F000837080648C93938D848D981306C00288DC
:10030000F389E02D80818F7D80830895EF92FF92A5
:100310000F931F93CF93DF93EC0181E0888F9B8D28
:100320008C8D98131AC0E889F989808185FF15C0E2
:100330009FB7F894EE89FF896083E889F989808105
:100340008370806480839FBF81E090E0DF91CF91D4
:100350001F910F91FF90EF900895F62E0B8D10E0F6
:100360000F5F1F4F0F731127E02E8C8D8E110CC065
:100370000FB607FCFACFE889F989808185FFF5CFB0
:10038000CE010E946401F1CFEB8DEC0FFD2FF11D2A
:10039000E35AFF4FF0829FB7F8940B8FEA89FB89ED
:1003A00080818062CFCFCF93DF93EC01888D88234B
:1003B000B9F0AA89BB89E889F9898C9185FD03C0C8
:1003C000808186FD0DC00FB607FCF7CF8C9185FFAD
:1003D000F2CF808185FFEDCFCE010E946401E9CF8D
:1003E000DF91CF91089590E0FC01E859FF4F2491EF
:1003F000FC01EC55FF4F3491FC01E057FF4FE491B5
:10040000EE23C9F0222339F0233001F1A8F4213082
:1004100019F1223029F1F0E0EE0FFF1FE458FF4FF1
:10042000A591B4918FB7F894EC91611126C03095E5
:100430003E233C938FBF08952730A9F02830C9F0A0
:10044000243049F7809180008F7D03C08091800027
:100450008F7780938000DFCF84B58F7784BDDBCF2B
:1004600084B58F7DFBCF8091B0008F778093B000F3
:10047000D2CF8091B0008F7DF9CF3E2BDACF823082
:10048000910538F0880F991F880F991F05970197DC
:10049000F1F708953FB7F89480914301909144019A
:1004A000A0914501B091460126B5A89B05C02F3FFC
:1004B00019F00196A11DB11D3FBFBA2FA92F982F8A
:1004C0008827BC01CD01620F711D811D911D42E085
:1004D000660F771F881F991F4A95D1F70895FC0171
:1004E00001900020E9F73197AF01481B590BBC017F
:1004F0008DE691E00C94A6008F929F92AF92BF92EE
:100500000F931F93CF93DF93CDB7DEB7A1970FB6AD
:10051000F894DEBF0FBECDBF19A2423008F44AE006
:100520008E010F5D1F4F842E912CB12CA12CA501A3
:1005300094010E94A310E62FB901CA01EA30F4F435
:10054000E05DD801EE938D01232B242B252B79F729
:1005500090E080E0109719F0CD010E946F02A19603
:100560000FB6F894DEBF0FBECDBFDF91CF911F91C4
:100570000F91BF90AF909F908F900895E95CE1CF6D
:10058000CF93DF938DE391E00E946F02EC0182E153
:1005900091E00E946F028C0F9D1FDF91CF91089513
:1005A000CF92DF92EF92FF92CF93DF936C01990F7E
:1005B000EE08FF08F7FE19C06DE28DE691E00E949B
:1005C0008601EC0166277727CB016C197D098E091E
:1005D0009F094AE00E947C028C0F9D1FDF91CF9102
:1005E000FF90EF90DF90CF9008954AE0C701B601E9
:1005F000DF91CF91FF90EF90DF90CF900C947C0231
:100600004F925F926F927F928F929F92AF92BF9222
:10061000CF92DF92EF92FF926B017C01AC019B01C4
:100620000E94EE11882381F085E191E0FF90EF9028
:10063000DF90CF90BF90AF909F908F907F906F9002
:100640005F904F900C946F0246015701E894B7F801
:100650002FEF3FEF4FE75FE7C501B4010E94EE11B6
:1006600081110DC02FEF3FEF4FE75FE7C501B401E8
:100670000E945E0F18161CF489E191E0D7CF2FEF8E
:100680003FEF4FE75FE4C701B6010E94E91118167A
:100690001CF48DE191E0CACF2FEF3FEF4FE75FEC05
:1006A000C701B6010E945E0F87FDF3CF20E030E066
:1006B000A901C701B6010E945E0FB12CA12C87FFD2
:1006C0000AC06DE28DE691E00E9486015C01F7FAB6
:1006D000F094F7F8F0942AE037ED43EA5BE3C701C2
:1006E000B6010E94D5102B013C010E94BA116B018A
:1006F0007C010E94630F9B01AC01C301B2010E9407
:10070000D4102B013C014AE0C701B6010E947C02D3
:100710007C01EA0CFB1C6EE28DE691E00E948601F2
:10072000E80EF91E20E030E040E251E4C301B201DE
:100730000E94C40F2B013C010E94BA114B01B12C45
:10074000A12C4AE0C501B4010E947C02E80EF91E0A
:10075000C501B4010E94630F9B01AC01C301B2014A
:100760000E94D41020E030E040E251E40E94C40F27
:100770000E94BA1190E080E04AE00E947C028E0D57
:100780009F1DFF90EF90DF90CF90BF90AF909F9014
:100790008F907F906F905F904F9008950C948A1087
:1007A0000C9482101F920F920FB60F9211242F9368
:1007B0003F934F935F936F937F938F939F93AF93E9
:1007C000BF93EF93FF938DE691E00E946401FF9148
:1007D000EF91BF91AF919F918F917F916F915F91B9
:1007E0004F913F912F910F900FBE0F901F90189532
:1007F0001F920F920FB60F9211242F938F939F93F6
:10080000EF93FF93E0917D01F0917E018081E09173
:100810008301F091840182FD1BC09081809186014B
:100820008F5F8F7320918701821741F0E0918601DD
:10083000F0E0E359FE4F958F80938601FF91EF9191
:100840009F918F912F910F900FBE0F901F90189531
:100850008081F4CF1F920F920FB60F9211242F9325
:100860003F938F939F93AF93BF9380916901909132
:100870006A01A0916B01B0916C013091420123E0BB
:10088000230F2D3758F50196A11DB11D209342016C
:100890008093690190936A01A0936B01B0936C01FE
:1008A0008091430190914401A0914501B09146018E
:1008B0000196A11DB11D8093430190934401A09323
:1008C0004501B0934601BF91AF919F918F913F91A8
:1008D0002F910F900FBE0F901F90189526E8230FB1
:1008E0000296A11DB11DD2CFCF93DF9300D000D0CF
:1008F000CDB7DEB7789484B5826084BD84B581605D
:1009000084BD85B5826085BD85B5816085BD8091DA
:100910006E00816080936E00109281008091810052
:10092000826080938100809181008160809381004A
:10093000809180008160809380008091B10084600C
:100940008093B1008091B00081608093B00080916D
:100950007A00846080937A0080917A00826080932C
:100960007A0080917A00816080937A0080917A0089
:10097000806880937A001092C10083E00E94870013
:1009800082E00E94870084E00E94870061E083E0AB
:100990000E94F301E0917D01F0917E0182E080836D
:1009A000E0917901F0917A011082E0917B01F09160
:1009B0007C0187E6808310928501E0918101F091AE
:1009C000820186E08083E0917F01F0918001808147
:1009D00080618083E0917F01F09180018081886057
:1009E0008083E0917F01F091800180818068808325
:1009F000E0917F01F091800180818F7D808390E084
:100A000080E00E94D00390E090936601809365019E
:100A100081E090E00E94D00390E090936401809385
:100A2000630182E090E00E94D00390E09093620125
:100A30008093610183E090E00E94D00390E0909366
:100A4000600180935F0184E090E00E94D00390E019
:100A500090935E0180935D0185E090E00E94D00359
:100A600090E090935C0180935B0186E090E00E94AF
:100A7000D00390E090935A018093590187E090E071
:100A80000E94D0036AE00E94F311682F70E090E0AA
:100A900080E00E94650F6B017C01C0925501D092ED
:100AA0005601E0925701F092580189E090E00E94CF
:100AB000D00390E0909352018093510120E030E008
:100AC00040E450E4C701B6010E94E91118168CF405
:100AD00080E090E0A0E0BFE3809355019093560141
:100AE000A0935701B093580165E087E090E00E9421
:100AF000CE0388E090E00E94D00390E090935401F0
:100B00008093530102975CF081E090E09093540150
:100B10008093530161E088E090E00E94CE038091D1
:100B200051019091520102974CF010925201109293
:100B3000510160E089E090E00E94CE0310926801CC
:100B40001092670190E080E00E94D00390E09093C3
:100B500066018093650181E090E00E94D00390E0FF
:100B6000909364018093630182E090E00E94D0033F
:100B700090E0909362018093610183E090E00E9495
:100B8000D00390E09093600180935F0184E090E057
:100B90000E94D00390E090935E0180935D0185E018
:100BA00090E00E94D00390E090935C0180935B0101
:100BB00086E090E00E94D00390E090935A018093E9
:100BC000590187E090E00E94D003682F70E090E028
:100BD00080E00E94650F20E030E040E251E40E9496
:100BE0004111609355017093560180935701909382
:100BF000580188E090E00E94D00390E09093540167
:100C00008093530189E090E00E94D00390E090939C
:100C10005201809351018DE691E00E944401892B9D
:100C200009F44EC00E940401FC0197FDA4C18D325D
:100C3000910521F0C0970A9708F095C1C12CD12CDD
:100C400076011982E130F105D9F0ED32F10509F4B0
:100C50008FC1CF01C0970A9798F4AAE0B0E0A7012E
:100C600096010E9498106F01FF0FEE08FF08C60E54
:100C7000D71EE81EF91E20E3C21AD108E108F108C8
:100C80008DE691E00E94E2000E940401FC01C09701
:100C90000A97C0F2E130F105A9F28981882341F079
:100CA000F094E094D094C094C11CD11CE11CF11CC0
:100CB000C0924D01D0924E01E0924F01F09250014E
:100CC00061E084E00E94F30180914D0190914E011A
:100CD000A0914F01B0915001803221EA920727E0A4
:100CE000A207B1050CF04BC182E390E090934C0158
:100CF00080934B0180914D0190914E01A0914F0145
:100D0000B0915001AC01BD014052514A6740710998
:100D1000413452446F40710590F424E630E0309342
:100D20004C0120934B0180549244AF40B109809311
:100D30004D0190934E01A0934F01B09350018091CB
:100D40004D0190914E01A0914F01B091500182361A
:100D5000934EA641B105B9F560E090E080E00E94B5
:100D6000CE0360E081E090E00E94CE0360E082E08C
:100D700090E00E94CE0360E083E090E00E94CE030A
:100D800060E084E090E00E94CE0360E085E090E0C7
:100D90000E94CE0361E086E090E00E94CE031092B4
:100DA000640110926301109262011092610110922D
:100DB000600110925F0110925E0110925D0110922D
:100DC0005C0110925B0160914D0170914E01809128
:100DD0004F01909150018B019C011A562841310915
:100DE0000F3111052105310510F50E94650F20E036
:100DF00030E543EC59E40E94D41020E030E040E2BA
:100E000051E40E9441116093550170935601809303
:100E100057019093580120E030E040E251E40E94F5
:100E2000C40F0E94BA1187E090E00E94CE03809127
:100E30004D0190914E01A0914F01B0915001813A26
:100E4000904FA941B10559F481E090E0909352018F
:100E50008093510161E089E090E00E94CE0380918F
:100E60004D0190914E01A0914F01B0915001803AF7
:100E7000904FA941B10549F41092520110925101CD
:100E800060E089E090E00E94CE03C0904D01D090D8
:100E90004E01E0904F01F0905001D701C60101973B
:100EA000A109B1098032914AA740B10508F08FC36A
:100EB000809151019091520161E0892B09F060E02D
:100EC00084E00E94F30160E083E00E94F3018091DE
:100ED000530190915401892B09F0F3C020E030E6D2
:100EE00040E954E460915501709156018091570199
:100EF000909158010E94C40F60934701709348017C
:100F00008093490190934A01809047019090480155
:100F1000A0904901B0904A0120E030E0A901C5014C
:100F2000B4010E94E91118160CF0CBC061E082E018
:100F30000E94F30180914B0190914C019A83898327
:100F40000E943F0260E082E00E94F30189819A8161
:100F50000E943F0220E030E040E85FE3C501B401B9
:100F60000E94D410C9CF8DE691E00E94E2005ACED3
:100F700031E0398385CEC12CD12C760199CE8136D2
:100F8000934EA641B10509F0B5CE81E291E00E94F1
:100F90006F028091590190915A01892B21F48FE3BE
:100FA00091E00E946F028091650190916601009727
:100FB00039F420916701309168012130310541F405
:100FC0000E94D00281E090E09093680180936701D5
:100FD0008091630190916401009739F42091670139
:100FE000309168012130310541F40E94D00281E046
:100FF00090E09093680180936701809161019091E6
:101000006201009739F42091670130916801213025
:10101000310541F40E94D00281E090E09093680194
:101020008093670180915F0190916001009739F48E
:1010300020916701309168012130310541F40E940F
:10104000D00281E090E090936801809367018091E5
:101050005D0190915E01009739F420916701309114
:1010600068012130310541F40E94D00281E090E016
:10107000909368018093670180915B0190915C017E
:101080000E94D0028DE391E00E946F0260915501B1
:101090007091560180915701909158010E94000370
:1010A0008DE391E00E946F02809151019091520175
:1010B0000E94D0020E94C002109268011092670143
:1010C00019CEC701B6010E94650F60934701709366
:1010D00048018093490190934A01812C912C54013D
:1010E000C0904701D0904801E0904901F0904A013A
:1010F00020E030E0A901C701B6010E94E9111816ED
:10110000ECF561E082E00E94F30120914B01309107
:101110004C013A832983C9010E943F0260E082E0CA
:101120000E94F30189819A810E943F028DE691E03D
:101130000E94E2009A83898320E030E040E85FE388
:10114000C501B4010E94D5104B015C0189819A81CF
:101150008A30910511F0019689F420E030E040E8F2
:101160005FE3C701B6010E94D410609347017093FA
:1011700048018093490190934A01B2CF20E030E6C4
:1011800040E954E4C501B4010E9441110E940003EA
:101190008DE391E00E946F0261E083E00E94F30121
:1011A00086E090E00E94D003C0906501D090660177
:1011B000E0906301F090640100916101109162017F
:1011C00020915F01309160013C832B8320905D0171
:1011D00030905E0120915B0130915C013A8329835C
:1011E000813009F061C2B601DD0C880B990B0E94B9
:1011F000650F20E030E04AE754E40E94C40F2B0161
:101200003C01B701FF0C880B990B0E94650F20E091
:1012100030E048EC52E40E94C40F9B01AC01C301D2
:10122000B2010E94D5106B017C01B801110F880B2F
:10123000990B0E94650F20E030E040E251E40E94EB
:10124000C40F9B01AC01C701B6010E94D5106B0110
:101250007C012B813C81B901330F880B990B0E94D3
:10126000650F9B01AC01C701B6010E94D5106B014F
:101270007C01B101330C880B990B0E94650F20E0B3
:1012800030E040E251E40E9441119B01AC01C701F2
:10129000B6010E94D5106B017C0129813A81B90108
:1012A000330F880B990B0E94650F20E030E048EC6B
:1012B00052E40E9441119B01AC01C701B6010E949A
:1012C000D5106B017C0120E030E040E251E4C50123
:1012D000B4010E94C40F20E030E640E954E40E94CB
:1012E00041119B01AC01C701B6010E94D5104B0111
:1012F0005C0120E030E0A9010E945E0F87FF05C07D
:1013000060E086E090E00E94CE0320E030E0A9019A
:10131000C501B4010E94E91118160CF04AC261E03F
:1013200086E090E00E94CE0320E030E04AE754E4FB
:10133000C501B4010E9441110E94B3116B01709369
:10134000660160936501072E000C880B990B0E94C3
:10135000650F20E030E04AE754E40E94C40F9B018F
:10136000AC01C501B4010E94D4104B015C0120E026
:1013700030E048EC52E40E9441110E94B311709396
:10138000640160936301072E000C880B990B0E9487
:10139000650F20E030E048EC52E40E94C40F9B014E
:1013A000AC01C501B4010E94D4104B015C0120E0E6
:1013B00030E040E251E40E9441110E94B311709369
:1013C000620160936101072E000C880B990B0E944B
:1013D000650F20E030E040E251E40E94C40F9B0121
:1013E000AC01C501B4010E94D4104B015C010E9404
:1013F000B3117093600160935F01072E000C880B9E
:10140000990B0E94650F9B01AC01C501B4010E94BC
:10141000D4104B015C0120E030E040E251E40E9436
:10142000C40F0E94B31170935E0160935D01072E9B
:10143000000C880B990B0E94650F20E030E040E221
:1014400051E40E9441119B01AC01C501B4010E940D
:10145000D41020E030E048EC52E40E94C40F0E9417
:10146000B31170935C0160935B016C2D90E080E0A0
:101470000E94CE0386E090E00E94D00390E090931B
:101480005A0180935901892B21F48FE391E00E9446
:101490006F028091650190916601009739F4209167
:1014A0006701309168012130310541F40E94D0027A
:1014B00081E090E0909368018093670160916301FF
:1014C00081E090E00E94CE038091630190916401DD
:1014D000009739F42091670130916801213031057E
:1014E00041F40E94D00281E090E0909368018093E3
:1014F00067016091610182E090E00E94CE038091DB
:10150000610190916201009739F420916701309157
:1015100068012130310541F40E94D00281E090E061
:10152000909368018093670160915F0183E090E090
:101530000E94CE0380915F0190916001009739F481
:1015400020916701309168012130310541F40E94FA
:10155000D00281E090E090936801809367016091F0
:101560005D0184E090E00E94CE0380915D01909146
:101570005E01009739F420916701309168012130B4
:10158000310541F40E94D00281E090E0909368011F
:101590008093670160915B0185E090E00E94CE033B
:1015A00080915B0190915C010E94D0020E94C00278
:1015B00081E090E0909354018093530161E088E0D2
:1015C00090E00E94CE031092680110926701C090D3
:1015D0004D01D0904E01E0904F01F090500130EE5F
:1015E000C3163EE5D30638EFE3063FEFF30608F4F3
:1015F0006EC3809151019091520160E0892B09F0F6
:1016000061E084E00E94F30160E083E00E94F30166
:101610008091530190915401019709F0CFC020E0CF
:1016200030EC4EE854E46091550170915601809180
:101630005701909158010E94C40F60934701709325
:1016400048018093490190934A018090470190900E
:101650004801A0904901B0904A0120E030E0A90182
:10166000C501B4010E94E91118160CF0A7C061E091
:1016700082E00E94F30180914B0190914C019A838A
:1016800089830E943F0260E082E00E94F301898129
:101690009A810E943F0220E030E040E85FE3C5010C
:1016A000B4010E94D410C9CF20E030E040E251E400
:1016B000C501B4010E94C40F20E030E640E954E4C3
:1016C0000E9441114B015C01B601DD0C880B990BA6
:1016D0000E94650F20E030E04AE754E40E94C40F06
:1016E0002B013C01B701FF0C880B990B0E94650F81
:1016F00020E030E048EC52E40E94C40F9B01AC01B2
:10170000C301B2010E94D5106B017C01B801110F19
:10171000880B990B0E94650F20E030E040E251E415
:101720000E94C40F9B01AC01C701B6010E94D510F5
:101730006B017C012B813C81B901330F880B990B24
:101740000E94650F9B01AC01C701B6010E94D51034
:101750006B017C01B101330C880B990B0E94650F62
:1017600020E030E040E251E40E9441119B01AC01D5
:10177000C701B6010E94D5106B017C0129813A8115
:10178000B901330F880B990B0E94650F20E030E000
:1017900048EC52E40E9441119B01AC01C701B60123
:1017A0000E94D5109B01AC01C501B4010E94D41068
:1017B0009ECDB7FAB094B7F8B094B6CD6627772728
:1017C000CB016C197D098E099F090E94650F6093FA
:1017D0004701709348018093490190934A01812CFD
:1017E000912C5401C0904701D0904801E0904901EC
:1017F000F0904A0120E030E0A901C701B6010E9443
:10180000E9111816ECF561E082E00E94F3012091E5
:101810004B0130914C013A832983C9010E943F0258
:1018200060E082E00E94F30189819A810E943F0278
:101830008DE691E00E94E2009A83898320E030E007
:1018400040E85FE3C501B4010E94D4104B015C0184
:1018500089819A818A30910511F0019689F420E0FE
:1018600030E040E85FE3C701B6010E94D410609306
:101870004701709348018093490190934A01B2CF88
:1018800020E030E640E954E4C501B4010E94411172
:101890000E9400038DE391E00E946F0261E083E00B
:1018A0000E94F30186E090E00E94D003C0906501A1
:1018B000D0906601E0906301F090640100916101B5
:1018C0001091620120915F01309160013C832B8374
:1018D00020905D0130905E0120915B0130915C01B0
:1018E0003A832983813009F032C2B601DD0C880BBE
:1018F000990B0E94650F20E030E04AE754E40E9413
:10190000C40F2B013C01B701FF0C880B990B0E94FF
:10191000650F20E030E048EC52E40E94C40F9B01C8
:10192000AC01C301B2010E94D5106B017C01B8016A
:10193000110F880B990B0E94650F20E030E040E208
:1019400051E40E94C40F9B01AC01C701B6010E9483
:10195000D5106B017C012B813C81B901330F880BC1
:10196000990B0E94650F9B01AC01C701B6010E9453
:10197000D5106B017C01B101330C880B990B0E94CF
:10198000650F20E030E040E251E40E9441119B01EC
:10199000AC01C701B6010E94D5106B017C01298101
:1019A0003A81B901330F880B990B0E94650F20E033
:1019B00030E048EC52E40E9441119B01AC01C701A8
:1019C000B6010E94D5106B017C0120E030E040E2BE
:1019D00051E4C501B4010E94C40F20E030E640E9A3
:1019E00054E40E9441119B01AC01C701B6010E9461
:1019F000D5104B015C0120E030E0A9010E945E0F90
:101A000087FF05C060E086E090E00E94CE0320E002
:101A100030E0A901C501B4010E94E91118160CF0CB
:101A20001BC261E086E090E00E94CE0320E030E03F
:101A30004AE754E4C501B4010E9441110E94B31168
:101A40006B017093660160936501072E000C880B93
:101A5000990B0E94650F20E030E04AE754E40E94B1
:101A6000C40F9B01AC01C501B4010E94D4104B010D
:101A70005C0120E030E048EC52E40E9441110E94F9
:101A8000B3117093640160936301072E000C880BFF
:101A9000990B0E94650F20E030E048EC52E40E9470
:101AA000C40F9B01AC01C501B4010E94D4104B01CD
:101AB0005C0120E030E040E251E40E9441110E94CC
:101AC000B3117093620160936101072E000C880BC3
:101AD000990B0E94650F20E030E040E251E40E9443
:101AE000C40F9B01AC01C501B4010E94D4104B018D
:101AF0005C010E94B3117093600160935F01072E37
:101B0000000C880B990B0E94650F9B01AC01C5016D
:101B1000B4010E94D4104B015C0120E030E040E2AF
:101B200051E40E94C40F0E94B31170935E01609350
:101B30005D01072E000C880B990B0E94650F20E0B9
:101B400030E040E251E40E9441119B01AC01C5012B
:101B5000B4010E94D41020E030E048EC52E40E942E
:101B6000C40F0E94B31170935C0160935B016C2DF4
:101B700090E080E00E94CE0386E090E00E94D003D7
:101B800090E090935A0180935901892B21F48FE3BF
:101B900091E00E946F02809165019091660100972B
:101BA00039F420916701309168012130310541F409
:101BB0000E94D00281E090E09093680180936701D9
:101BC0006091630181E090E00E94CE038091630107
:101BD00090916401009739F4209167013091680178
:101BE0002130310541F40E94D00281E090E09093D1
:101BF0006801809367016091610182E090E00E943A
:101C0000CE038091610190916201009739F4209197
:101C10006701309168012130310541F40E94D00202
:101C200081E090E0909368018093670160915F018B
:101C300083E090E00E94CE0380915F01909160016B
:101C4000009739F420916701309168012130310506
:101C500041F40E94D00281E090E09093680180936B
:101C6000670160915D0184E090E00E94CE03809165
:101C70005D0190915E01009739F4209167013091E8
:101C800068012130310541F40E94D00281E090E0EA
:101C9000909368018093670160915B0185E090E01B
:101CA0000E94CE0380915B0190915C010E94D00262
:101CB0000E94C002109254011092530160E088E02B
:101CC00090E00E94CE03109268011092670110927A
:101CD0004D0110924E0110924F01109250018DE66D
:101CE00091E00E94D3010E944A024B015C0184E60C
:101CF000C82ED12CE12CF12C0E944A0268197909D6
:101D00008A099B09683E734081059105A8F331E07B
:101D1000C31AD108E108F10888EE880E83E0981E06
:101D2000A11CB11CC114D104E104F10429F780E025
:101D300090E0892B11F40C949E050E945001882399
:101D400011F40C949E050E9400000C949E0520E066
:101D500030E040E251E4C501B4010E94C40F20E02C
:101D600030E640E954E40E9441114B015C01B601A8
:101D7000DD0C880B990B0E94650F20E030E04AE7EC
:101D800054E40E94C40F2B013C01B701FF0C880BE7
:101D9000990B0E94650F20E030E048EC52E40E946D
:101DA000C40F9B01AC01C301B2010E94D5106B01AD
:101DB0007C01B801110F880B990B0E94650F20E080
:101DC00030E040E251E40E94C40F9B01AC01C70126
:101DD000B6010E94D5106B017C012B813C81B901B9
:101DE000330F880B990B0E94650F9B01AC01C70153
:101DF000B6010E94D5106B017C01B101330C880B38
:101E0000990B0E94650F20E030E040E251E40E940F
:101E100041119B01AC01C701B6010E94D5106B01B5
:101E20007C0129813A81B901330F880B990B0E94FB
:101E3000650F20E030E048EC52E40E9441119B0124
:101E4000AC01C701B6010E94D5109B01AC01C501D0
:101E5000B4010E94D410CDCDB7FAB094B7F8B094C5
:101E6000E5CDEDE6F1E01382128288EE93E0A0E08A
:101E7000B0E084839583A683B78384E091E0918367
:101E8000808385EC90E09587848784EC90E0978749
:101E9000868780EC90E0918B808B81EC90E0938B37
:101EA000828B82EC90E0958B848B86EC90E0978B14
:101EB000868B118E128E138E148E08950E94A00FA1
:101EC00008F481E00895E89409C097FB3EF49095EA
:101ED0008095709561957F4F8F4F9F4F9923A9F003
:101EE000F92F96E9BB279395F69587957795679592
:101EF000B795F111F8CFFAF4BB0F11F460FF1BC0D6
:101F00006F5F7F4F8F4F9F4F16C0882311F096E968
:101F100011C0772321F09EE8872F762F05C0662316
:101F200071F096E8862F70E060E02AF09A95660FCF
:101F3000771F881FDAF7880F9695879597F9089588
:101F4000990F0008550FAA0BE0E8FEEF16161706CA
:101F5000E807F907C0F012161306E407F50798F032
:101F6000621B730B840B950B39F40A2661F0232B4B
:101F7000242B252B21F408950A2609F4A140A695C7
:101F80008FEF811D811D08950E94D70F0C9448107A
:101F90000E943A1038F00E94411020F0952311F071
:101FA0000C9431100C94371011240C947C100E9466
:101FB000591070F3959FC1F3950F50E0551F629F24
:101FC000F001729FBB27F00DB11D639FAA27F00D92
:101FD000B11DAA1F649F6627B00DA11D661F829FB9
:101FE0002227B00DA11D621F739FB00DA11D621F9E
:101FF000839FA00D611D221F749F3327A00D611DBB
:10200000231F849F600D211D822F762F6A2F11249C
:102010009F5750409AF0F1F088234AF0EE0FFF1FCF
:10202000BB1F661F771F881F91505040A9F79E3F26
:10203000510580F00C9431100C947C105F3FE4F358
:10204000983ED4F3869577956795B795F795E7957C
:102050009F5FC1F7FE2B880F911D9695879597F985
:10206000089597F99F6780E870E060E008959FEF1A
:1020700080EC089500240A9416161706180609061F
:10208000089500240A9412161306140605060895EE
:10209000092E0394000C11F4882352F0BB0F40F476
:1020A000BF2B11F460FF04C06F5F7F4F8F4F9F4FB6
:1020B000089557FD9058440F551F59F05F3F71F038
:1020C0004795880F97FB991F61F09F3F79F087959F
:1020D0000895121613061406551FF2CF4695F1DF28
:1020E00008C0161617061806991FF1CF86957105B8
:1020F000610508940895E894BB2766277727CB01EC
:1021000097F90895F999FECF92BD81BDF89A992764
:1021100080B50895262FF999FECF1FBA92BD81BDD3
:1021200020BD0FB6F894FA9AF99A0FBE0196089559
:102130000E94C510A59F900DB49F900DA49F800D87
:10214000911D11240895A1E21A2EAA1BBB1BFD01AB
:102150000DC0AA1FBB1FEE1FFF1FA217B307E40786
:10216000F50720F0A21BB30BE40BF50B661F771FDE
:10217000881F991F1A9469F76095709580959095BE
:102180009B01AC01BD01CF010895A29FB001B39F97
:10219000C001A39F700D811D1124911DB29F700D70
:1021A000811D1124911D08955058BB27AA270E9414
:1021B000EC100C9448100E943A1038F00E94411024
:1021C00020F039F49F3F19F426F40C9437100EF4E4
:1021D000E095E7FB0C943110E92F0E94591058F359
:1021E000BA17620773078407950720F079F4A6F5FC
:1021F0000C947B100EF4E0950B2EBA2FA02D0B0142
:10220000B90190010C01CA01A0011124FF27591B3B
:1022100099F0593F50F4503E68F11A16F040A22F41
:10222000232F342F4427585FF3CF469537952795B2
:10223000A795F0405395C9F77EF41F16BA0B620BB1
:10224000730B840BBAF09150A1F0FF0FBB1F661FF8
:10225000771F881FC2F70EC0BA0F621F731F841F3B
:1022600048F4879577956795B795F7959E3F08F061
:10227000B0CF9395880F08F09927EE0F9795879523
:1022800008950E9455110C9448100E94411058F076
:102290000E943A1040F029F45F3F29F00C9431106D
:1022A00051110C947C100C9437100E94591068F353
:1022B0009923B1F3552391F3951B550BBB27AA27FF
:1022C00062177307840738F09F5F5F4F220F331F39
:1022D000441FAA1FA9F335D00E2E3AF0E0E832D001
:1022E00091505040E695001CCAF72BD0FE2F29D004
:1022F000660F771F881FBB1F261737074807AB07D6
:10230000B0E809F0BB0B802DBF01FF2793585F4F4A
:102310003AF09E3F510578F00C9431100C947C10EB
:102320005F3FE4F3983ED4F3869577956795B7952C
:10233000F7959F5FC9F7880F911D9695879597F937
:102340000895E1E0660F771F881FBB1F62177307B0
:102350008407BA0720F0621B730B840BBA0BEE1FC5
:1023600088F7E09508950E94BA116894B1110C9411
:102370007C1008950E94611088F09F5798F0B92F43
:102380009927B751B0F0E1F0660F771F881F991FAA
:102390001AF0BA95C9F714C0B13091F00E947B10C1
:1023A000B1E008950C947B10672F782F8827B85FD1
:1023B00039F0B93FCCF3869577956795B395D9F702
:1023C0003EF490958095709561957F4F8F4F9F4F0C
:1023D00008950E94A00F08F48FEF08950E94A00FA7
:1023E000880B990B0895991B79E004C0991F9617E3
:1023F00008F0961B881F7A95C9F780950895EE0F0F
:0E240000FF1F0590F491E02D0994F894FFCF92
:10240E00000000008601A600D300D3014401E200C3
:10241E00F6000D0A006E616E00696E66006F7666DC
:10242E000057616E6465726572526F7461746F727B
:10243E004C69746541323032343034303341002DC2
:02244E0000008C
:00000001FF
