:100000000C9462000C948A000C948A000C948A0070
:100010000C948A000C948A000C948A000C948A0038
:100020000C948A000C948A000C948A000C948A0028
:100030000C948A000C948A000C948A000C948A0018
:100040000C94660C0C948A000C94290F0C945B0F92
:100050000C948A000C948A000C948A000C948A00F8
:100060000C948A000C948A0000000009000302002E
:10007000000405080000000000000000000000016E
:10008000020408102040800102040810200102042C
:100090000810204080400404040404040404020204
:1000A000020202020303030303030202030000002F
:1000B00000250028002B0000000000240027002A53
:1000C00000008B0F11241FBECFEFD4E0DEBFCDBFE9
:1000D00011E0A0E0B1E0EAE6FAE202C005900D927C
:1000E000A834B107D9F722E0A8E4B1E001C01D921D
:1000F000AA31B207E1F710E0C2E6D0E004C02197D0
:10010000FE010E94FD14C136D107C9F70E947C127E
:100110000C9433150C9400000C941D150C942515AB
:10012000CF92DF92EF92FF920F931F93CF93DF93C3
:1001300061E083E00E94940D61E082E00E94940DF2
:1001400061E084E00E94940D61E083E00E94D00DA4
:1001500062E08FE00E94940D26E040E05BE460E006
:1001600070E08DE791E00E94D10E10926F01109225
:100170006E0188E790E09093610180936001C091E7
:100180000001D0910101CE0101970E948C0090E006
:100190009093550180935401CE010E948C0090E011
:1001A0009093570180935601CE0101960E948C00D6
:1001B00090E09093590180935801CE0102960E94DD
:1001C0008C0090E090935B0180935A01CE010396DE
:1001D0000E948C0090E090935D0180935C01CE01C1
:1001E00004960E948C0090E090935F0180935E01E2
:1001F000CE0105960E948C0090E09093530180936D
:1002000052018E010A5F1F4FC8010E948C006AE0F4
:100210000E94CF14682F70E090E080E00E94A81345
:100220006B017C01C0924E01D0924F01E0925001CF
:10023000F0925101CE0108960E948C0090E09093BC
:1002400049018093480120E030E040E450E4C701D8
:10025000B6010E945814181684F480E090E0A0E0E3
:10026000BFE380934E0190934F01A0935001B09350
:10027000510165E0C8010E948E00C0910001D0913B
:1002800001012796CE010E948C0090E082309105FA
:10029000F4F490934D0180934C018091480190912A
:1002A00049010297FCF01092490110924801809197
:1002B00000019091010160E00896DF91CF911F91BC
:1002C0000F91FF90EF90DF90CF900C948E0081E023
:1002D00090E090934D0180934C0161E0CE010E942B
:1002E0008E00DBCFDF91CF911F910F91FF90EF90A8
:1002F000DF90CF9008952F923F924F925F926F922E
:100300007F928F929F92AF92BF92CF92DF92EF92A5
:10031000FF920F931F93CF93DF9300D000D000D0B4
:10032000CDB7DEB710924B0110924A012091000127
:10033000309101013A832983C90101970E948C0001
:1003400090E0909355018093540189819A810E9495
:100350008C0090E0909357018093560189819A8197
:1003600001960E948C0090E090935901809358016F
:1003700089819A8102960E948C0090E090935B01A3
:1003800080935A0189819A8103960E948C0090E0A3
:1003900090935D0180935C0189819A8104960E940B
:1003A0008C0090E090935F0180935E0189819A8137
:1003B00005960E948C0090E0909353018093520127
:1003C00089819A8106960E948C00682F70E090E0E7
:1003D00080E00E94A81320E030E040E251E40E9457
:1003E000FE1260934E0170934F01809350019093E1
:1003F000510189819A8107960E948C0090E0909328
:100400004D0180934C0189819A8108960E948C004D
:1004100090E09093490180934801109262011092FC
:100420006301109264011092650110926A011092AA
:100430006B0110926C0110926D0120E030E040EAF7
:1004400051E460916A0170916B0180916C0190910F
:100450006D010E94F91287FF4AC08FE00E944D0D86
:10046000BC01990F880B990B0E94A81320E030E083
:1004700040EA50E40E945D1420E030E040E85AE396
:100480000E945D1429E831E440E450E40E945D14C8
:100490009B01AC01609162017091630180916401E4
:1004A000909165010E948D126093620170936301C7
:1004B000809364019093650184E690E00E941A0D98
:1004C00020E030E040E85FE360916A0170916B01E9
:1004D00080916C0190916D010E948D1260936A0170
:1004E00070936B0180936C0190936D01A6CF20E017
:1004F00030E040EA51E460916201709163018091C3
:100500006401909165010E94FE126B017C0120E064
:1005100030E0A9010E945814181624F0F7FAF0945C
:10052000F7F8F094C0926601D0926701E0926801FA
:10053000F09269018DE791E00E94FE0D892B79F020
:1005400041E070E060E08DE791E00E941A12609354
:100550007001709371018093720190937301809187
:10056000700190917101A0917201B0917301813677
:10057000934EA641B10509F0C7C063E071E08DE775
:1005800091E00E94F40F8091520190915301892BC8
:1005900031F462E271E08DE791E00E94F40F609126
:1005A0005401709155016115710531F480914A0132
:1005B00090914B01019761F44AE050E08DE791E0A2
:1005C0000E94B21081E090E090934B0180934A0129
:1005D00060915601709157016115710531F4809158
:1005E0004A0190914B01019761F44AE050E08DE798
:1005F00091E00E94B21081E090E090934B018093D3
:100600004A0160915801709159016115710531F4E9
:1006100080914A0190914B01019761F44AE050E0CA
:100620008DE791E00E94B21081E090E090934B0141
:1006300080934A0160915A0170915B0161157105C7
:1006400031F480914A0190914B01019761F44AE0A5
:1006500050E08DE791E00E94B21081E090E090932D
:100660004B0180934A0160915C0170915D016115BD
:10067000710531F480914A0190914B01019761F429
:100680004AE050E08DE791E00E94B21081E090E0F6
:1006900090934B0180934A0160915E0170915F01DC
:1006A0004AE050E08DE791E00E94B21060E271E014
:1006B0008DE791E00E94F40F40914E0150914F015F
:1006C000609150017091510122E030E08DE791E09E
:1006D0000E94B01160E271E08DE791E00E94F40F9A
:1006E00060914801709149014AE050E08DE791E046
:1006F0000E94B21060E271E08DE791E00E94071065
:1007000010924B0110924A018091700190917101F9
:10071000A0917201B09173018236934EA641B1054A
:1007200009F04BC0809100019091010160E00197B8
:100730000E948E0060E080910001909101010E9472
:100740008E00809100019091010160E001960E946D
:100750008E00809100019091010160E002960E945C
:100760008E00809100019091010160E003960E944B
:100770008E00809100019091010160E004960E943A
:100780008E00809100019091010161E005960E9428
:100790008E0010925701109256011092590110923A
:1007A000580110925B0110925A0110925D01109253
:1007B0005C0110925F0110925E0160917001709176
:1007C000710180917201909173018B019C011A5605
:1007D000284131090F3111052105310528F50E9405
:1007E000A81320E030E543EC59E40E948C1220E08D
:1007F00030E040E251E40E94FE1260934E0170939B
:100800004F01809350019093510120E030E040E28D
:1008100051E40E945D140E94771380910001909131
:10082000010106960E948E008091700190917101E5
:10083000A0917201B0917301813A904FA941B10525
:1008400071F481E090E09093490180934801809198
:1008500000019091010161E008960E948E00809154
:10086000700190917101A0917201B0917301803A71
:10087000904FA941B10561F41092490110924801CD
:10088000809100019091010160E008960E948E0025
:100890008091700190917101A0917201B0917301EA
:1008A0000197A109B1098032914AA740B105B0F47E
:1008B00020E030E040E351E460916601709167010F
:1008C00080916801909169010E94F91287FF53C0DD
:1008D00064E271E08DE791E00E9407108091700161
:1008E00090917101A0917201B0917301803E9E457B
:1008F000A84FBF4FB0F020E030E040E351E46091FA
:1009000066017091670180916801909169010E9470
:10091000F91287FF02C464E271E08DE791E00E9462
:1009200007101092700110927101109272011092D2
:1009300073018DE791E00E946A0E64E670E080E04A
:1009400090E026960FB6F894DEBF0FBECDBFDF91C4
:10095000CF911F910F91FF90EF90DF90CF90BF90BC
:10096000AF909F908F907F906F905F904F903F904F
:100970002F900C94E10C809148019091490161E025
:10098000892B09F060E084E00E94D00D60E083E0F4
:100990000E94D00D80914C0190914D01892B09F05E
:1009A00048C020E030EA48EA54E460914E0170917A
:1009B0004F0180915001909151010E945D1460930C
:1009C0006A0170936B0180936C0190936D0120E03C
:1009D00030E0A90160916A0170916B0180916C0116
:1009E00090916D010E94581418161CF561E082E088
:1009F0000E94D00D80916001909161010E941A0DBA
:100A000060E082E00E94D00D8091600190916101D0
:100A10000E941A0D20E030E040E85FE360916A0137
:100A200070916B0180916C0190916D010E948C120C
:100A3000C6CF6091700170917101809172019091A7
:100A400073010E94A81360936A0170936B018093F5
:100A50006C0190936D01812C912C540120E030E0C9
:100A6000A90160916A0170916B0180916C01909174
:100A70006D010E94581418160CF043C061E082E02A
:100A80000E94D00D80916001909161010E941A0D29
:100A900060E082E00E94D00D809160019091610140
:100AA0000E941A0D8DE791E00E94180E9A838983A7
:100AB00020E030E040E85FE3C501B4010E948D1200
:100AC0004B015C0149815A814A30510519F04F3F71
:100AD0005F4FB9F420E030E040E85FE360916A01E5
:100AE00070916B0180916C0190916D010E948C124C
:100AF00060936A0170936B0180936C0190936D0118
:100B0000ADCF61E083E00E94D00D20E030EA48EAFA
:100B100054E4C501B4010E94FE12AB01BC0122E005
:100B200030E08DE791E00E94B01160E271E08DE766
:100B300091E00E94F40F68EE73E080E090E00E9484
:100B4000E10CC0900001D090010195E0C90ED11CCC
:100B5000C6010E948C00E0905401F0905501009174
:100B600056011091570120915801309159013E834F
:100B70002D8320905A0130905B0140915C0150918F
:100B80005D015A83498320915E0130915F013C836E
:100B90002B83813009F03AC2B701FF0C880B990B07
:100BA0000E94A81320E030E04AE754E40E945D145C
:100BB0002B013C01B801110F880B990B0E94A8135F
:100BC00020E030E048EC52E40E945D149B01AC014F
:100BD000C301B2010E948D122B013C014D815E8147
:100BE000BA01550F880B990B0E94A81320E030E042
:100BF00040E251E40E945D149B01AC01C301B201CB
:100C00000E948D122B013C01B101330C880B990B12
:100C10000E94A8139B01AC01C301B2010E948D1276
:100C20002B013C0129813A81B901330F880B990BC3
:100C30000E94A81320E030E040E251E40E94FE123E
:100C40009B01AC01C301B2010E948D122B013C013A
:100C50004B815C81BA01550F880B990B0E94A81338
:100C600020E030E048EC52E40E94FE129B01AC010F
:100C7000C301B2010E948D122B013C0120E030E043
:100C800040E251E4C501B4010E945D1420E030EA65
:100C900048EA54E40E94FE129B01AC01C301B20178
:100CA0000E948D124B015C0120E030E0A9010E94FE
:100CB000F91287FF04C060E0C6010E948E0020E0A8
:100CC00030E0A901C501B4010E94581487FD08C095
:100CD000809100019091010161E005960E948E00D3
:100CE00020E030E0A901C501B4010E945814181693
:100CF00024F0B7FAB094B7F8B09420E030E04AE7B7
:100D000054E4C501B4010E94FE120E9470136B01ED
:100D10007093550160935401072E000C880B990BBA
:100D20000E94A81320E030E04AE754E40E945D14DA
:100D30009B01AC01C501B4010E948C124B015C0106
:100D400020E030E048EC52E40E94FE120E94701352
:100D50007093570160935601072E000C880B990B76
:100D60000E94A81320E030E048EC52E40E945D1499
:100D70009B01AC01C501B4010E948C124B015C01C6
:100D800020E030E040E251E40E94FE120E94701325
:100D90007093590160935801072E000C880B990B32
:100DA0000E94A81320E030E040E251E40E945D146C
:100DB0009B01AC01C501B4010E948C124B015C0186
:100DC0000E94701370935B0160935A01072E000C10
:100DD000880B990B0E94A8139B01AC01C501B401BB
:100DE0000E948C124B015C0120E030E040E251E4B3
:100DF0000E945D140E94701370935D0160935C010A
:100E0000072E000C880B990B0E94A81320E030E0FD
:100E100040E251E40E94FE129B01AC01C501B40105
:100E20000E948C1220E030E048EC52E40E945D14F5
:100E30000E94701370935F0160935E0180910001C6
:100E4000909101016C2D01970E948E00809100010C
:100E50009091010105960E948C0090E090935301BF
:100E600080935201892B31F462E271E08DE791E0C9
:100E70000E94F40F60915401709155016115710544
:100E800031F480914A0190914B01019761F44AE05D
:100E900050E08DE791E00E94B21081E090E09093E5
:100EA0004B0180934A01609156018091000190911D
:100EB00001010E948E0060915601709157016115E9
:100EC000710531F480914A0190914B01019761F4D1
:100ED0004AE050E08DE791E00E94B21081E090E09E
:100EE00090934B0180934A01809100019091010100
:100EF0006091580101960E948E0060915801709196
:100F000059016115710531F480914A0190914B01AD
:100F1000019761F44AE050E08DE791E00E94B21041
:100F200081E090E090934B0180934A018091000111
:100F30009091010160915A0102960E948E00609189
:100F40005A0170915B016115710531F480914A017C
:100F500090914B01019761F44AE050E08DE791E0F8
:100F60000E94B21081E090E090934B0180934A017F
:100F7000809100019091010160915C0103960E94B3
:100F80008E0060915C0170915D016115710531F415
:100F900080914A0190914B01019761F44AE050E041
:100FA0008DE791E00E94B21081E090E090934B01B8
:100FB00080934A01809100019091010160915E014E
:100FC00004960E948E0060915E0170915F014AE07C
:100FD00050E08DE791E00E94B21060E271E08DE791
:100FE00091E00E94071081E090E090934D01809382
:100FF0004C01809100019091010161E007960E94EF
:101000008E0010924B0110924A0168CC20E030E033
:1010100040E251E4C501B4010E945D1420E030EAD1
:1010200048EA54E40E94FE124B015C01B701FF0C38
:10103000880B990B0E94A81320E030E04AE754E4A3
:101040000E945D142B013C01B801110F880B990B14
:101050000E94A81320E030E048EC52E40E945D14A6
:101060009B01AC01C301B2010E948D122B013C0116
:101070002D813E81B901330F880B990B0E94A81373
:1010800020E030E040E251E40E945D149B01AC019D
:10109000C301B2010E948D122B013C01B101330C3E
:1010A000880B990B0E94A8139B01AC01C301B201EC
:1010B0000E948D122B013C0149815A81BA01550FC2
:1010C000880B990B0E94A81320E030E040E251E425
:1010D0000E94FE129B01AC01C301B2010E948D125D
:1010E0002B013C012B813C81B901330F880B990BFB
:1010F0000E94A81320E030E048EC52E40E94FE1267
:101100009B01AC01C301B2010E948D129B01AC0195
:10111000C501B4010E948C12C5CD80914801909107
:10112000490160E0892B09F061E084E00E94D00D64
:1011300060E083E00E94D00D80914C0190914D01C0
:10114000019709F048C020E030EA48EA54E4609191
:101150004E0170914F0180915001909151010E9478
:101160005D1460936A0170936B0180936C0190939E
:101170006D0120E030E0A90160916A0170916B017E
:1011800080916C0190916D010E94581418161CF505
:1011900061E082E00E94D00D809160019091610138
:1011A0000E941A0D60E082E00E94D00D80916001E3
:1011B000909161010E941A0D20E030E040E85FE369
:1011C00060916A0170916B0180916C0190916D0149
:1011D0000E948C12C6CF8091700190917101A091F4
:1011E0007201B09173019C01AD0166277727CB0195
:1011F000621B730B840B950B0E94A81360936A010A
:1012000070936B0180936C0190936D01812C912CF4
:10121000540120E030E0A90160916A0170916B01F6
:1012200080916C0190916D010E94581418160CF079
:1012300043C061E082E00E94D00D809160019091F6
:1012400061010E941A0D60E082E00E94D00D809141
:101250006001909161010E941A0D8DE791E00E945A
:10126000180E9A83898320E030E040E85FE3C501EF
:10127000B4010E948C124B015C0149815A814A30B1
:10128000510519F04F3F5F4FB9F420E030E040E8DE
:101290005FE360916A0170916B0180916C019091A4
:1012A0006D010E948C1260936A0170936B018093B0
:1012B0006C0190936D01ADCF61E083E00E94D00D91
:1012C00020E030EA48EA54E4C501B4010E94FE126D
:1012D000AB01BC0122E030E08DE791E00E94B0114B
:1012E00060E271E08DE791E00E94F40F68EE73E038
:1012F00080E090E00E94E10CC0900001D0900101DC
:1013000095E0C90ED11CC6010E948C00E0905401EA
:10131000F09055010091560110915701209158010C
:10132000309159013E832D8320905A0130905B010A
:1013300040915C0150915D015A83498320915E0187
:1013400030915F013C832B83813009F038C2B701B3
:10135000FF0C880B990B0E94A81320E030E04AE7AD
:1013600054E40E945D142B013C01B801110F880B5D
:10137000990B0E94A81320E030E048EC52E40E9450
:101380005D149B01AC01C301B2010E948D122B01BF
:101390003C014D815E81BA01550F880B990B0E946B
:1013A000A81320E030E040E251E40E945D149B016C
:1013B000AC01C301B2010E948D122B013C01B101AD
:1013C000330C880B990B0E94A8139B01AC01C3013D
:1013D000B2010E948D122B013C0129813A81B90191
:1013E000330F880B990B0E94A81320E030E040E2F5
:1013F00051E40E94FE129B01AC01C301B2010E94A4
:101400008D122B013C014B815C81BA01550F880B79
:10141000990B0E94A81320E030E048EC52E40E94AF
:10142000FE129B01AC01C301B2010E948D122B017F
:101430003C0120E030E040E251E4C501B4010E94EB
:101440005D1420E030EA48EA54E40E94FE129B0159
:10145000AC01C301B2010E948D124B015C0120E07E
:1014600030E0A9010E94F91287FF04C060E0C601C4
:101470000E948E0020E030E0A901C501B4010E9465
:10148000581487FD08C0809100019091010161E02E
:1014900005960E948E0020E030E0A901C501B4014C
:1014A0000E945814181624F0B7FAB094B7F8B09404
:1014B00020E030E04AE754E4C501B4010E94FE1286
:1014C0000E9470136B017093550160935401072EB5
:1014D000000C880B990B0E94A81320E030E04AE72B
:1014E00054E40E945D149B01AC01C501B4010E944B
:1014F0008C124B015C0120E030E048EC52E40E9489
:10150000FE120E9470137093570160935601072ECC
:10151000000C880B990B0E94A81320E030E048ECE7
:1015200052E40E945D149B01AC01C501B4010E940C
:101530008C124B015C0120E030E040E251E40E945B
:10154000FE120E9470137093590160935801072E88
:10155000000C880B990B0E94A81320E030E040E2B9
:1015600051E40E945D149B01AC01C501B4010E94CD
:101570008C124B015C010E94701370935B016093AD
:101580005A01072E000C880B990B0E94A8139B018F
:10159000AC01C501B4010E948C124B015C0120E03A
:1015A00030E040E251E40E945D140E947013709399
:1015B0005D0160935C01072E000C880B990B0E9463
:1015C000A81320E030E040E251E40E94FE129B01AB
:1015D000AC01C501B4010E948C1220E030E048EC5F
:1015E00052E40E945D140E94701370935F01609337
:1015F0005E0180910001909101016C2D01970E9484
:101600008E00809100019091010105960E948C004E
:1016100090E09093530180935201892B31F462E260
:1016200071E08DE791E00E94F40F60915401709198
:1016300055016115710531F480914A0190914B017A
:10164000019761F44AE050E08DE791E00E94B2100A
:1016500081E090E090934B0180934A0160915601A4
:1016600080910001909101010E948E0060915601CD
:10167000709157016115710531F480914A01909183
:101680004B01019761F44AE050E08DE791E00E9440
:10169000B21081E090E090934B0180934A018091D9
:1016A0000001909101016091580101960E948E0005
:1016B00060915801709159016115710531F4809163
:1016C0004A0190914B01019761F44AE050E08DE7A7
:1016D00091E00E94B21081E090E090934B018093E2
:1016E0004A01809100019091010160915A01029696
:1016F0000E948E0060915A0170915B016115710525
:1017000031F480914A0190914B01019761F44AE0D4
:1017100050E08DE791E00E94B21081E090E090935C
:101720004B0180934A0180910001909101016091E9
:101730005C0103960E948E0060915C0170915D01D6
:101740006115710531F480914A0190914B01019727
:1017500061F44AE050E08DE791E00E94B21081E030
:1017600090E090934B0180934A0180910001909109
:10177000010160915E0104960E948E0060915E01FD
:1017800070915F014AE050E08DE791E00E94B21055
:1017900060E271E08DE791E00E94071010924D0128
:1017A00010924C01809100019091010160E0079638
:1017B0000E948E0010924B0110924A01B2C820E0A4
:1017C00030E040E251E4C501B4010E945D1420E024
:1017D00030EA48EA54E40E94FE124B015C01B70172
:1017E000FF0C880B990B0E94A81320E030E04AE719
:1017F00054E40E945D142B013C01B801110F880BC9
:10180000990B0E94A81320E030E048EC52E40E94BB
:101810005D149B01AC01C301B2010E948D122B012A
:101820003C012D813E81B901330F880B990B0E9439
:10183000A81320E030E040E251E40E945D149B01D7
:10184000AC01C301B2010E948D122B013C01B10118
:10185000330C880B990B0E94A8139B01AC01C301A8
:10186000B2010E948D122B013C0149815A81BA01BB
:10187000550F880B990B0E94A81320E030E040E23E
:1018800051E40E94FE129B01AC01C301B2010E940F
:101890008D122B013C012B813C81B901330F880B48
:1018A000990B0E94A81320E030E048EC52E40E941B
:1018B000FE129B01AC01C301B2010E948D129B017B
:1018C000AC01C501B4010E948C12C7CD1F920F92CA
:1018D0000FB60F9211242F933F938F939F93AF9343
:1018E000BF938091790190917A01A0917B01B09191
:1018F0007C013091780123E0230F2D3768F126E831
:10190000230F0296A11DB11D2093780180937901C8
:1019100090937A01A0937B01B0937C018091740134
:1019200090917501A0917601B09177010196A11D6A
:10193000B11D8093740190937501A0937601B093CB
:101940007701BF91AF919F918F913F912F910F9010
:101950000FBE0F901F9018950196A11DB11DD4CFF9
:101960002FB7F8946091790170917A0180917B0191
:1019700090917C012FBF08953FB7F8948091740136
:1019800090917501A0917601B091770126B5A89B41
:1019900005C02F3F19F00196A11DB11D3FBFBA2F01
:1019A000A92F982F8827BC01CD01620F711D811DC1
:1019B000911D42E0660F771F881F991F4A95D1F746
:1019C00008958F929F92AF92BF92CF92DF92EF9243
:1019D000FF926B017C010E94BC0C4B015C01C114A5
:1019E000D104E104F104E9F00E948B120E94BC0CC6
:1019F000681979098A099B09683E73408105910538
:101A000070F321E0C21AD108E108F10888EE880ECF
:101A100083E0981EA11CB11CC114D104E104F1049F
:101A200029F7FF90EF90DF90CF90BF90AF909F90FD
:101A30008F9008958230910538F0880F991F880F94
:101A4000991F05970197F1F70895789484B58360FD
:101A500084BD85B5836085BDEEE6F0E08081816060
:101A60008083E1E8F0E082E0808380818160808390
:101A7000E0E8F0E0808181608083E1EBF0E080814C
:101A800084608083E0EBF0E080818160808387E880
:101A900080937A001092C1000895883020F08D3034
:101AA00008F48DE08E502091020190E4299F90016E
:101AB00011248770822B80937C0080917A0080644F
:101AC00080937A0080917A0086FDFCCF8091780027
:101AD000909179000895843081F028F48230E9F003
:101AE0008330F9F00895883071F0893091F08530B5
:101AF000B9F4809180008F7D03C0809180008F7742
:101B00008093800008958091B0008F778093B0001B
:101B100008958091B0008F7DF9CF84B58F7784BD13
:101B2000089584B58F7DFBCFCF93DF9390E0FC01C8
:101B3000E158FF4F24918A569F4FFC0184918823DE
:101B4000C9F090E0880F991FFC01E954FF4FA5915F
:101B5000B491FC01E355FF4FC591D49161110DC0C3
:101B60009FB7F8948C91209582238C9388812823A9
:101B700028839FBFDF91CF910895623051F49FB7C2
:101B8000F8943C91822F809583238C93E8812E2BAF
:101B9000EFCF8FB7F894EC912E2B2C938FBFEACF19
:101BA0001F93CF93DF93282F30E0F901E859FF4FBF
:101BB0008491F901E158FF4FD491F901EA56FF4FA2
:101BC000C491CC23A9F0162F81110E946B0DEC2F2C
:101BD000F0E0EE0FFF1FE355FF4FA591B4918FB7D3
:101BE000F894EC91111108C0D095DE23DC938FBFDF
:101BF000DF91CF911F910895DE2BF8CFFC01918DDD
:101C0000228D892F90E0805C9F4F821B91098F73FA
:101C100099270895FC01918D828D981731F0828D5E
:101C2000E80FF11D858D90E008958FEF9FEF0895E7
:101C3000FC01918D828D981761F0A28DAE0FBF2FA0
:101C4000B11D5D968C91928D9F5F9F73928F90E0F6
:101C500008958FEF9FEF0895FC01538D448D252F3C
:101C600030E0842F90E0821B930B541710F0CF9636
:101C700008950197089581E89FE0892B49F080E05D
:101C800090E0892B29F00E94810F81110C940000B3
:101C90000895FC01A48DA80FB92FB11DA35ABF4F01
:101CA0002C91848D90E001968F739927848FA6895B
:101CB000B7892C93A089B1898C9180648C93938D82
:101CC000848D981306C00288F389E02D80818F7D72
:101CD00080830895CF93DF93EC01888D8823B9F03A
:101CE000AA89BB89E889F9898C9185FD03C0808127
:101CF00086FD0DC00FB607FCF7CF8C9185FFF2CFA4
:101D0000808185FFEDCFCE010E94490EE9CFDF91A2
:101D1000CF910895EF92FF920F931F93CF93DF938C
:101D2000EC0181E0888F9B8D8C8D981316C0E8891B
:101D3000F989808185FF11C0EE89FF896083E88978
:101D4000F98980818064808381E090E0DF91CF9188
:101D50001F910F91FF90EF900895F62E0B8D10E0DC
:101D60000F5F1F4F0F731127E02E8C8D8E110CC04B
:101D70000FB607FCFACFE889F989808185FFF5CF96
:101D8000CE010E94490EF1CFEB8DEC0FFD2FF11D1E
:101D9000E35AFF4FF0820B8FEA89FB8980818062D2
:101DA000D2CFCF92DF92EF92FF921F93CF93DF9328
:101DB000EC016A017B01122FE889F98982E08083B6
:101DC000C11481EED806E104F104A1F060E079E0ED
:101DD0008DE390E0A70196010E94DB1421503109A8
:101DE000410951095695479537952795211580E169
:101DF000380798F0E889F989108260E874E88EE184
:101E000090E0A70196010E94DB142150310941099D
:101E100051095695479537952795EC85FD85308373
:101E2000EE85FF852083188EEC89FD891083EA8971
:101E3000FB89808188698083EA89FB8980818F7D25
:101E40008083DF91CF911F91FF90EF90DF90CF9033
:101E500008951F920F920FB60F9211242F938F9314
:101E60009F93EF93FF93E0918D01F0918E0180811C
:101E7000E0919301F091940182FD1BC090818091CB
:101E800096018F5F8F7320919701821741F0E09147
:101E90009601F0E0E358FE4F958F80939601FF91F5
:101EA000EF919F918F912F910F900FBE0F901F90E8
:101EB00018958081F4CF1F920F920FB60F921124C4
:101EC0002F933F934F935F936F937F938F939F9342
:101ED000AF93BF93EF93FF938DE791E00E94490E7C
:101EE000FF91EF91BF91AF919F918F917F916F91F2
:101EF0005F914F913F912F910F900FBE0F901F90C8
:101F000018958DE791E00E94FE0D21E0892B09F4E0
:101F100020E0822F0895EDE7F1E01382128288EE2F
:101F200093E0A0E0B0E084839583A683B7838BE23F
:101F300091E09183808385EC90E09587848784ECA1
:101F400090E09787868780EC90E0918B808B81EC86
:101F500090E0938B828B82EC90E0958B848B86EC67
:101F600090E0978B868B118E128E138E148E0895AF
:101F7000AF92BF92CF92DF92EF92FF920F931F9397
:101F8000CF93DF936C017B018B01040F151FEB01D5
:101F90005E01AE18BF08C017D10759F06991D6018C
:101FA000ED91FC910190F081E02DC6010995892BFE
:101FB00079F7C501DF91CF911F910F91FF90EF90BD
:101FC000DF90CF90BF90AF900895FB01019000206B
:101FD000E9F73197AF01461B570BDC01ED91FC91FE
:101FE0000280F381E02D09946115710511F00C94C4
:101FF000E50F90E080E00895DC01ED91FC91019007
:10200000F081E02D099469E371E00C94E50F0F93E2
:102010001F93CF93DF938C01D0E0C0E06115710571
:1020200019F00E94E50FEC01C8010E9403108C0F0B
:102030009D1FDF91CF911F910F9108958F929F92D5
:10204000AF92BF92EF92FF920F931F93CF93DF93C4
:10205000CDB7DEB7A1970FB6F894DEBF0FBECDBFE8
:102060007C01FA01CB0119A2223008F42AE08E018A
:102070000F5D1F4F822E912CB12CA12CBF01A50109
:1020800094010E94DB14F901CA016A300CF5605D0D
:10209000D8016E938D01232B242B252B79F790E00B
:1020A00080E0109721F0BD01C7010E94E50FA196C5
:1020B0000FB6F894DEBF0FBECDBFDF91CF911F9159
:1020C0000F91FF90EF90BF90AF909F908F900895E9
:1020D000695CDECFCF92DF92EF92FF920F931F9356
:1020E000CF93DF932115310581F4DC01ED91FC9153
:1020F0000190F081E02D642FDF91CF911F910F911E
:10210000FF90EF90DF90CF9009942A30310501F5D0
:102110002AE077FF1DC06A017B01EC016DE20E949D
:10212000FC0F8C0144275527BA014C195D096E0933
:102130007F092AE0CE010E941E10800F911FDF91BF
:10214000CF911F910F91FF90EF90DF90CF90089566
:10215000DF91CF911F910F91FF90EF90DF90CF9083
:102160000C941E109A01AB01770F660B770B0C9441
:102170006A102115310541F4DC01ED91FC910190CB
:10218000F081E02D642F09940C941E109A01AB018C
:1021900070E060E00C94B9102F923F924F925F92E2
:1021A0006F927F928F929F92AF92BF92CF92DF9267
:1021B000EF92FF921F93CF93DF93EC016A017B01B3
:1021C000722EAB019601CB01B6010E94CA146CE3DA
:1021D00071E0811126C046015701E894B7F82FEF4E
:1021E0003FEF4FE75FE7C501B4010E94CA148111B8
:1021F0000CC02FEF3FEF4FE75FE7C501B4010E942E
:10220000F91260E471E0181664F02FEF3FEF4FE72A
:102210005FE4C701B6010E9458141816B4F464E4D0
:1022200071E0CE01DF91CF911F91FF90EF90DF9091
:10223000CF90BF90AF909F908F907F906F905F9066
:102240004F903F902F900C94E50F2FEF3FEF4FE70B
:102250005FECC701B6010E94F91287FDE0CF20E0D4
:1022600030E0A901C701B6010E94F912312C212CDE
:1022700087FF09C06DE2CE010E94FC0F1C01F7FA36
:10228000F094F7F8F09410E060E070E080E09FE3F5
:10229000711641F020E030E040E251E40E94FE126D
:1022A0001F5FF6CFA70196010E948D122B013C0102
:1022B0000E9477134B015C012AE0BC01A401CE010E
:1022C0000E941E107C01E20CF31C1123B1F1C50128
:1022D000B4010E94A6139B01AC01C301B2010E948C
:1022E0008C124B015C016EE2CE010E94FC0FE80EE5
:1022F000F91E115010F120E030E040E251E4C50138
:10230000B4010E945D142B013C010E9477134B0124
:102310004AE050E0CE010E94C610E80EF91EB4015A
:1023200090E080E00E94A6139B01AC01C301B201C2
:102330000E948C124B015C01DCCFC701DF91CF9171
:102340001F91FF90EF90DF90CF90BF90AF909F9044
:102350008F907F906F905F904F903F902F90089557
:102360000C94CC100F931F93CF93DF93EC010E943A
:10237000B00C688779878A879B87E881F981048414
:10238000F585E02DCE01099597FF15C00E94B00C90
:10239000088519852A853B85601B710B820B930B81
:1023A0000C811D812E813F81601771078207930781
:1023B00020F38FEF9FEFDF91CF911F910F91089541
:1023C000FF920F931F93CF93DF93EC018B01F42EB9
:1023D000CE010E94B21197FD1DC08D329105D1F042
:1023E0009C01205331092A303105A0F0FF2019F05B
:1023F0008E32910579F00130110551F0023011054E
:1024000089F48D30910571F05CF40997029750F0D2
:102410008FEF9FEFDF91CF911F910F91FF90089564
:102420008097B1F7E881F9810284F385E02DCE0130
:102430000995CECFBF92CF92DF92EF92FF920F938A
:102440001F93CF93DF938C01C42F40E00E94E011D3
:10245000FC01C12CD12C760197FD3EC0B12C0C2E75
:10246000000CDD0BCE17DF07D9F0ED32F10509F4D2
:102470003FC0CF01C0970A9798F4AAE0B0E0A70147
:1024800096010E9403156F01FF0FEE08FF08C60EAC
:10249000D71EE81EF91E80E3C81AD108E108F1082A
:1024A000D801ED91FC910284F385E02DC8010995D6
:1024B000C8010E94B211FC01C0970A9798F2CE178A
:1024C000DF0781F2BB2041F0F094E094D094C094F7
:1024D000C11CD11CE11CF11CC701B601DF91CF91D9
:1024E0001F910F91FF90EF90DF90CF90BF900895D4
:1024F000BB24B394D5CF08950E94250D0E947B1272
:102500000E949000CBE3DEE00E947B012097E1F384
:102510000E943B0EF9CF08955058BB27AA270E946E
:10252000A4120C941E140E94101438F00E94171468
:1025300020F039F49F3F19F426F40C940D140EF496
:10254000E095E7FB0C940714E92F0E942F1458F331
:10255000BA17620773078407950720F079F4A6F588
:102560000C9451140EF4E0950B2EBA2FA02D0B01F4
:10257000B90190010C01CA01A0011124FF27591BC8
:1025800099F0593F50F4503E68F11A16F040A22FCE
:10259000232F342F4427585FF3CF4695379527953F
:1025A000A795F0405395C9F77EF41F16BA0B620B3E
:1025B000730B840BBAF09150A1F0FF0FBB1F661F85
:1025C000771F881FC2F70EC0BA0F621F731F841FC8
:1025D00048F4879577956795B795F7959E3F08F0EE
:1025E000B0CF9395880F08F09927EE0F97958795B0
:1025F00008950E94E31308F481E008950E941213E5
:102600000C941E140E94171458F00E94101440F0ED
:1026100029F45F3F29F00C94071451110C945214C3
:102620000C940D140E942F1468F39923B1F35523D1
:1026300091F3951B550BBB27AA27621773078407D5
:1026400038F09F5F5F4F220F331F441FAA1FA9F36B
:1026500035D00E2E3AF0E0E832D091505040E69559
:10266000001CCAF72BD0FE2F29D0660F771F881FBA
:10267000BB1F261737074807AB07B0E809F0BB0BAD
:10268000802DBF01FF2793585F4F3AF09E3F5105C1
:1026900078F00C9407140C9452145F3FE4F3983EC6
:1026A000D4F3869577956795B795F7959F5FC9F7AA
:1026B000880F911D9695879597F90895E1E0660F2B
:1026C000771F881FBB1F621773078407BA0720F0A4
:1026D000621B730B840BBA0BEE1F88F7E09508950D
:1026E0000E9477136894B1110C94521408950E94BB
:1026F000371488F09F5798F0B92F9927B751B0F049
:10270000E1F0660F771F881F991F1AF0BA95C9F775
:1027100014C0B13091F00E945114B1E008950C94AE
:102720005114672F782F8827B85F39F0B93FCCF361
:10273000869577956795B395D9F73EF490958095F2
:10274000709561957F4F8F4F9F4F0895E89409C012
:1027500097FB3EF490958095709561957F4F8F4FD4
:102760009F4F9923A9F0F92F96E9BB279395F695EA
:10277000879577956795B795F111F8CFFAF4BB0F68
:1027800011F460FF1BC06F5F7F4F8F4F9F4F16C0CC
:10279000882311F096E911C0772321F09EE8872F56
:1027A000762F05C0662371F096E8862F70E060E012
:1027B0002AF09A95660F771F881FDAF7880F96958B
:1027C000879597F90895990F0008550FAA0BE0E82F
:1027D000FEEF16161706E807F907C0F012161306E3
:1027E000E407F50798F0621B730B840B950B39F423
:1027F0000A2661F0232B242B252B21F408950A2689
:1028000009F4A140A6958FEF811D811D089597F9C8
:102810009F6780E870E060E008959FEF80EC089586
:1028200000240A94161617061806090608950024AF
:102830000A9412161306140605060895092E039429
:10284000000C11F4882352F0BB0F40F4BF2B11F49D
:1028500060FF04C06F5F7F4F8F4F9F4F089557FDFC
:102860009058440F551F59F05F3F71F04795880FFE
:1028700097FB991F61F09F3F79F087950895121695
:1028800013061406551FF2CF4695F1DF08C0161641
:1028900017061806991FF1CF8695710561050894F2
:1028A0000895E894BB2766277727CB0197F9089509
:1028B0000E94E31308F48FEF08950E9470140C94A3
:1028C0001E140E94101438F00E94171420F0952353
:1028D00011F00C9407140C940D1411240C94521440
:1028E0000E942F1470F3959FC1F3950F50E0551F70
:1028F000629FF001729FBB27F00DB11D639FAA2755
:10290000F00DB11DAA1F649F6627B00DA11D661FA3
:10291000829F2227B00DA11D621F739FB00DA11DC4
:10292000621F839FA00D611D221F749F3327A00D7E
:10293000611D231F849F600D211D822F762F6A2F1A
:1029400011249F5750409AF0F1F088234AF0EE0F7F
:10295000FF1FBB1F661F771F881F91505040A9F7AC
:102960009E3F510580F00C9407140C9452145F3F65
:10297000E4F3983ED4F3869577956795B795F795E8
:10298000E7959F5FC1F7FE2B880F911D9695879560
:1029900097F908950E94E313880B990B0895991BEA
:1029A00079E004C0991F961708F0961B881F7A9546
:1029B000C9F780950895A1E21A2EAA1BBB1BFD0141
:1029C0000DC0AA1FBB1FEE1FFF1FA217B307E4070E
:1029D000F50720F0A21BB30BE40BF50B661F771F66
:1029E000881F991F1A9469F7609570958095909546
:1029F0009B01AC01BD01CF010895EE0FFF1F0590B3
:102A0000F491E02D09940E940E15A59F900DB49F9E
:102A1000900DA49F800D911D11240895A29FB001D7
:102A2000B39FC001A39F700D811D1124911DB29F02
:102A3000700D811D1124911D0895F999FECF92BD4D
:102A400081BDF89A992780B50895262FF999FECF70
:102A50001FBA92BD81BD20BD0FB6F894FA9AF99ABB
:0A2A60000FBE01960895F894FFCF11
:102A6A0001000157616E6465726572526F74617418
:102A7A006F7250726F5632413230323430353230E2
:102A8A0041002D004E5000000000008A0EB80F2CA5
:102A9A000E6A0EFE0D180E0A0E0D0A006E616E0009
:082AAA00696E66006F7666009C
:00000001FF
