:100000000C9462000C94AD040C94D4040C948A00FB
:100010000C948A000C948A000C948A000C948A0038
:100020000C948A000C948A000C948A000C948A0028
:100030000C948A000C948A000C948A000C948A0018
:100040000C94FB040C948A000C94E9070C941B0894
:100050000C948A000C948A000C948A000C948A00F8
:100060000C948A000C948A0000000009000302002E
:10007000000405080000000000000000000000016E
:10008000020408102040800102040810200102042C
:100090000810204080400404040404040404020204
:1000A000020202020303030303030202030000002F
:1000B00000250028002B0000000000240027002A53
:1000C00000004B0811241FBECFEFD4E0DEBFCDBF30
:1000D00011E0A0E0B1E0E2ECFBE102C005900D927E
:1000E000A434B107D9F722E0A4E4B1E001C01D9225
:1000F000A931B207E1F710E0C2E6D0E004C02197D1
:10010000FE010E94B40DC136D107C9F70E943C0B15
:100110000C94DF0D0C9400000F931F9380914C0101
:1001200090914D01019690934D0180934C010E9456
:1001300051050091520110915301209154013091C9
:100140005501DC01CB01801B910BA20BB30B8093FB
:10015000480190934901A0934A01B0934B0120912B
:100160004601309147012130310509F055C04091D9
:100170004C0150914D014B3051050CF4B2C03093FD
:10018000450120934401803D9740A105B10548F405
:1001900070E060E085E00E94C70560E086E00E94B4
:1001A00089068091480190914901A0914A01B0913E
:1001B0004B01815D9740A109B109873B9B40A10597
:1001C000B10558F4609156017091570185E00E9485
:1001D000C70560E086E00E94890680914801909101
:1001E0004901A0914A01B0914B0189389341A10581
:1001F000B10590F061E085E00E94890661E086E04B
:100200000E9489066DE171E08CE791E00E94C708C9
:10021000109247011092460180914601909147014A
:10022000029709F05EC080914C0190914D010B97AF
:100230000CF457C081E090E0909345018093440115
:100240008091480190914901A0914A01B0914B01E0
:10025000803D9740A105B10548F460E085E00E942B
:10026000890670E060E086E00E94C7058091480141
:1002700090914901A0914A01B0914B01815D974055
:10028000A109B109873B9B40A105B10558F460E085
:1002900085E00E948906609156017091570186E0C1
:1002A0000E94C7058091480190914901A0914A019F
:1002B000B0914B0189389341A105B10590F061E0FF
:1002C00085E00E94890661E086E00E9489066DE172
:1002D00071E08CE791E00E94C708109247011092EC
:1002E00046010E945105609352017093530180931F
:1002F0005401909355011F910F91089590E080E073
:100300000E94C90D90E0893C910524F59093570116
:1003100080935601109245011092440161E085E0FE
:100320000E944D0661E086E00E944D0660E083E198
:100330000E944D0626E040E05BE460E070E08CE760
:1003400091E00E94910743E050E06CE870E080E0AB
:100350000C948D048EE690E09093570180935601A3
:100360006EE690E080E00E94D10DD4CFCF92DF9274
:10037000EF92FF92CF93DF9310925E0110925F0194
:10038000109260011092610110925901109258016F
:1003900080915801909159014497ECF583E10E94B6
:1003A000A905BC01990F880B990B0E94600C20E0F5
:1003B00030E040EA50E40E94150D20E030E040E8D3
:1003C0005AE30E94150D29E831E440E450E40E940C
:1003D000150D9B01AC0160915E0170915F018091F0
:1003E0006001909161010E944C0B60935E017093DB
:1003F0005F01809360019093610184E690E00E9428
:100400007605809158019091590101969093590178
:1004100080935801BDCF20E030E040EA51E4609184
:100420005E0170915F0180916001909161010E9475
:10043000BD0B6B017C0120E030E0A9010E94100D92
:10044000181624F0F7FAF094F7F8F094C0925A01D5
:10045000D0925B01E0925C01F0925D01C1E020E08E
:1004600030E040E351E4C701B6010E94100D1816B8
:100470000CF0C0E0D091660120E030E040E351E4B0
:10048000C701B6010E94100D18160CF0B6C0D111AC
:100490004CC080916B0190916C01A0916D01B09165
:1004A0006E01892B8A2B8B2B51F40E94450560939A
:1004B0006B0170936C0180936D0190936E010E94AB
:1004C0004505C0906F01D0907001E0907101F090EF
:1004D00072016C197D098E099F090E945E0C20E053
:1004E00030E04AE754E40E94BD0B6B017C0120E040
:1004F00030E040E050E40E94100D87FD65C020E030
:1005000030E040E850E4C701B6010E94B80B87FF15
:100510005BC088EE93E0A0E0B0E08093620190932E
:100520006301A0936401B09365010E944505609347
:100530006701709368018093690190936A0110923A
:100540005901109258018091580190915901803DB4
:1005500097400CF066C083E10E94A905BC01990F89
:10056000880B990B0E94600C20E030E040EA50E4D8
:100570000E94150D20E030E040E85AE30E94150D7E
:1005800029E831E440E450E40E94150D9B01AC01E0
:1005900060915E0170915F018091600190916101B5
:1005A0000E944C0B60935E0170935F018093600129
:1005B0009093610180915801909159010196909317
:1005C000590180935801BFCF20E030E040E050E473
:1005D000C701B6010E94B80B87FFA7CF2DEC3CECFA
:1005E0004CE45EE3C701B6010E94100D87FD9DCF6C
:1005F00089EE93E0A0E0B0E090CFDD2391F00E947F
:10060000450560936F017093700180937101909321
:10061000720110926B0110926C0110926D01109298
:100620006E0180916B0190916C01A0916D01B09170
:100630006E01892B8A2B8B2BD9F00E944505C09027
:100640006B01D0906C01E0906D01F0906E016C191F
:100650007D098E099F09613177428105910540F03E
:1006600010926B0110926C0110926D0110926E014C
:10067000C09366018CE791E00E94B706892B79F060
:1006800041E070E060E08CE791E00E94DA0A60935C
:10069000620170936301809364019093650180917E
:1006A000620190916301A0916401B091650181366E
:1006B000934EA641B10551F565E071E08CE791E0FC
:1006C0000E94B40860915601709157014AE050E0D1
:1006D0008CE791E00E9472096DE171E08CE791E096
:1006E0000E94B40840915A0150915B0160915C01F5
:1006F00070915D0122E030E08CE791E00E94700A89
:100700006DE171E08CE791E00E94C7088091620181
:1007100090916301A0916401B0916501883E93407E
:10072000A105B10509F043C020E030E040E351E409
:1007300060915A0170915B0180915C0190915D0123
:100740000E94B80B87FF06C06FE171E08CE791E073
:100750000E94C70810924D0110924C0181E090E078
:1007600090934701809346010E9451056093520186
:100770007093530180935401909355010E94510549
:1007800060934E0170934F018093500190935101FB
:1007900010924501109244016091560170915701E9
:1007A00085E00E94C70560E086E00E94890680918E
:1007B000620190916301A0916401B0916501893E4D
:1007C0009340A105B10509F043C020E030E040E3CB
:1007D00051E460915A0170915B0180915C019091AC
:1007E0005D010E94B80B87FF06C06FE171E08CE7E6
:1007F00091E00E94C70882E090E0909347018093C7
:10080000460110924D0110924C010E9451056093D7
:1008100052017093530180935401909355010E94AB
:10082000510560934E0170934F0180935001909356
:100830005101109245011092440160E085E00E9450
:100840008906609156017091570186E00E94C705A4
:100850008091620190916301A0916401B091650162
:10086000AC01BD0148505C4061097109493751052F
:100870006105710558F4885B9B4090935701809304
:100880005601682F90E080E00E94D10D80914601D2
:10089000909147010197029768F50E945105C09019
:1008A0004E01D0904F01E0905001F09051016C1931
:1008B0007D098E099F09653F714081059105D0F042
:1008C0008091440190914501892BA1F461E085E07C
:1008D0000E94890661E086E00E9489066DE171E070
:1008E0008CE791E00E94C70881E090E09093450179
:1008F000809344011092620110926301109264018E
:10090000109265018CE791E0DF91CF91FF90EF901D
:10091000DF90CF900C94240708958230E8F4E82FFC
:10092000F0E0EE0FFF1FE050FF4F718360838130D6
:1009300041F0809169008C7F482B40936900E89AD0
:10094000089580916900837F440F551F440F551F00
:10095000482B40936900E99A08951F920F920FB6B1
:100960000F9211242F933F934F935F936F937F9335
:100970008F939F93AF93BF93EF93FF93E091000109
:10098000F09101010995FF91EF91BF91AF919F9176
:100990008F917F916F915F914F913F912F910F9028
:1009A0000FBE0F901F9018951F920F920FB60F92C7
:1009B00011242F933F934F935F936F937F938F9364
:1009C0009F93AF93BF93EF93FF93E0910201F09158
:1009D00003010995FF91EF91BF91AF919F918F9185
:1009E0007F916F915F914F913F912F910F900FBE2B
:1009F0000F901F9018951F920F920FB60F9211240F
:100A00002F933F938F939F93AF93BF9380917801E0
:100A100090917901A0917A01B0917B013091770199
:100A200023E0230F2D3768F126E8230F0296A11D3E
:100A3000B11D209377018093780190937901A09361
:100A40007A01B0937B018091730190917401A09120
:100A50007501B09176010196A11DB11D80937301BE
:100A600090937401A0937501B0937601BF91AF91FB
:100A70009F918F913F912F910F900FBE0F901F90DC
:100A800018950196A11DB11DD4CF2FB7F894609190
:100A900078017091790180917A0190917B012FBF4B
:100AA00008953FB7F8948091730190917401A091DB
:100AB0007501B091760126B5A89B05C02F3F19F0AE
:100AC0000196A11DB11D3FBFBA2FA92F982F8827CE
:100AD000BC01CD01620F711D811D911D42E0660FA9
:100AE000771F881F991F4A95D1F708958230910585
:100AF00038F0880F991F880F991F05970197F1F714
:100B00000895789484B5836084BD85B5836085BD80
:100B1000EEE6F0E0808181608083E1E8F0E082E051
:100B20008083808181608083E0E8F0E08081816063
:100B30008083E1EBF0E0808184608083E0EBF0E093
:100B400080818160808387E880937A001092C10061
:100B50000895883020F08D3008F48DE08E5020917B
:100B6000040190E4299F900111248770822B8093C7
:100B70007C0080917A00806480937A0080917A0072
:100B800086FDFCCF809178009091790008951F93A5
:100B9000CF93DF93182FEB0161E00E944D06209761
:100BA00039F460E0812FDF91CF911F910C94890679
:100BB000CF3FD10511F461E0F5CFE12FF0E0E85926
:100BC000FF4FE491E43031F140F4E230B1F0E33032
:100BD000E1F0C038D1057CF7E4CFE83029F1E93005
:100BE00059F1E530B1F780918000806280938000F8
:100BF000D0938B00C0938A0004C084B5806884BD04
:100C0000C7BDDF91CF911F91089584B5806284BDE7
:100C1000C8BDF7CF80918000806880938000D0931A
:100C20008900C0938800EDCF8091B00080688093E8
:100C3000B000C093B300E5CF8091B0008062809394
:100C4000B000C093B400DDCF843081F028F482304E
:100C5000E9F08330F9F00895883071F0893091F02F
:100C60008530B9F4809180008F7D03C08091800031
:100C70008F778093800008958091B0008F77809364
:100C8000B00008958091B0008F7DF9CF84B58F7743
:100C900084BD089584B58F7DFBCFCF93DF9390E023
:100CA000FC01E158FF4F24918A569F4FFC0184912B
:100CB0008823C9F090E0880F991FFC01E954FF4F89
:100CC000A591B491FC01E355FF4FC591D4916111F9
:100CD0000DC09FB7F8948C91209582238C938881C6
:100CE000282328839FBFDF91CF910895623051F46C
:100CF0009FB7F8943C91822F809583238C93E88151
:100D00002E2BEFCF8FB7F894EC912E2B2C938FBF17
:100D1000EACF1F93CF93DF93282F30E0F901E859F2
:100D2000FF4F8491F901E158FF4FD491F901EA5640
:100D3000FF4FC491CC23A9F0162F81110E942406E5
:100D4000EC2FF0E0EE0FFF1FE355FF4FA591B4919C
:100D50008FB7F894EC91111108C0D095DE23DC9385
:100D60008FBFDF91CF911F910895DE2BF8CFFC014B
:100D7000918D228D892F90E0805C9F4F821B91097D
:100D80008F7399270895FC01918D828D981731F00A
:100D9000828DE80FF11D858D90E008958FEF9FEF14
:100DA0000895FC01918D828D981761F0A28DAE0F90
:100DB000BF2FB11D5D968C91928D9F5F9F73928F17
:100DC00090E008958FEF9FEF0895FC01538D448DBF
:100DD000252F30E0842F90E0821B930B541710F0E6
:100DE000CF9608950197089581E498E0892B49F002
:100DF00080E090E0892B29F00E94410881110C9439
:100E000000000895FC01A48DA80FB92FB11DA35AAD
:100E1000BF4F2C91848D90E001968F739927848F1A
:100E2000A689B7892C93A089B1898C91837080643D
:100E30008C93938D848D981306C00288F389E02DDE
:100E400080818F7D80830895CF93DF93EC01888D1F
:100E50008823B9F0AA89BB89E889F9898C9185FD35
:100E600003C0808186FD0DC00FB607FCF7CF8C91C3
:100E700085FFF2CF808185FFEDCFCE010E94020772
:100E8000E9CFDF91CF910895EF92FF920F931F93D7
:100E9000CF93DF93EC0181E0888F9B8D8C8D98132D
:100EA0001AC0E889F989808185FF15C09FB7F89439
:100EB000EE89FF896083E889F98980818370806485
:100EC00080839FBF81E090E0DF91CF911F910F91D0
:100ED000FF90EF900895F62E0B8D10E00F5F1F4FDF
:100EE0000F731127E02E8C8D8E110CC00FB607FCEE
:100EF000FACFE889F989808185FFF5CFCE010E947C
:100F00000207F1CFEB8DEC0FFD2FF11DE35AFF4FE0
:100F1000F0829FB7F8940B8FEA89FB898081806209
:100F2000CFCFCF92DF92EF92FF921F93CF93DF93B9
:100F3000EC016A017B01122FE889F98982E0808344
:100F4000C11481EED806E104F104A1F060E079E07B
:100F50008DE390E0A70196010E94870D2150310991
:100F6000410951095695479537952795211580E1F7
:100F7000380798F0E889F989108260E874E88EE112
:100F800090E0A70196010E94870D21503109410987
:100F900051095695479537952795EC85FD85308302
:100FA000EE85FF852083188EEC89FD891083EA8900
:100FB000FB89808188698083EA89FB8980818F7DB4
:100FC0008083DF91CF911F91FF90EF90DF90CF90C2
:100FD00008951F920F920FB60F9211242F938F93A3
:100FE0009F93EF93FF93E0918C01F0918D018081AD
:100FF000E0919201F091930182FD1BC0908180915C
:1010000095018F5F8F7320919601821741F0E091D7
:101010009501F0E0E458FE4F958F80939501FF9184
:10102000EF919F918F912F910F900FBE0F901F9076
:1010300018958081F4CF1F920F920FB60F92112452
:101040002F933F934F935F936F937F938F939F93D0
:10105000AF93BF93EF93FF938CE791E00E94020759
:10106000FF91EF91BF91AF919F918F917F916F9180
:101070005F914F913F912F910F900FBE0F901F9056
:1010800018958CE791E00E94B70621E0892B09F4BE
:1010900020E0822F0895ECE7F1E01382128288EEBF
:1010A00093E0A0E0B0E084839583A683B78386E2D3
:1010B00091E09183808385EC90E09587848784EC30
:1010C00090E09787868780EC90E0918B808B81EC15
:1010D00090E0938B828B82EC90E0958B848B86ECF6
:1010E00090E0978B868B118E128E138E148E08953E
:1010F000AF92BF92CF92DF92EF92FF920F931F9326
:10110000CF93DF936C017B018B01040F151FEB0163
:101110005E01AE18BF08C017D10759F06991D6011A
:10112000ED91FC910190F081E02DC6010995892B8C
:1011300079F7C501DF91CF911F910F91FF90EF904B
:10114000DF90CF90BF90AF900895FB0101900020F9
:10115000E9F73197AF01461B570BDC01ED91FC918C
:101160000280F381E02D09946115710511F00C9452
:10117000A50890E080E00895DC01ED91FC910190DC
:10118000F081E02D099464E371E00C94A5080F93BD
:101190001F93CF93DF938C01D0E0C0E06115710500
:1011A00019F00E94A508EC01C8010E94C3088C0F29
:1011B0009D1FDF91CF911F910F9108958F929F9264
:1011C000AF92BF92EF92FF920F931F93CF93DF9353
:1011D000CDB7DEB7A1970FB6F894DEBF0FBECDBF77
:1011E0007C01FA01CB0119A2223008F42AE08E0119
:1011F0000F5D1F4F822E912CB12CA12CBF01A50198
:1012000094010E94870DF901CA016A300CF5605DF6
:10121000D8016E938D01232B242B252B79F790E099
:1012200080E0109721F0BD01C7010E94A508A1969A
:101230000FB6F894DEBF0FBECDBFDF91CF911F91E7
:101240000F91FF90EF90BF90AF909F908F90089577
:10125000695CDECFCF92DF92EF92FF920F931F93E4
:10126000CF93DF932115310581F4DC01ED91FC91E1
:101270000190F081E02D642FDF91CF911F910F91AC
:10128000FF90EF90DF90CF9009942A30310501F55F
:101290002AE077FF1DC06A017B01EC016DE20E942C
:1012A000BC088C0144275527BA014C195D096E0909
:1012B0007F092AE0CE010E94DE08800F911FDF9196
:1012C000CF911F910F91FF90EF90DF90CF900895F5
:1012D000DF91CF911F910F91FF90EF90DF90CF9012
:1012E0000C94DE089A01AB01770F660B770B0C9418
:1012F0002A092115310541F4DC01ED91FC910190A1
:10130000F081E02D642F09940C94DE089A01AB0162
:1013100070E060E00C9479092F923F924F925F92B7
:101320006F927F928F929F92AF92BF92CF92DF92F5
:10133000EF92FF921F93CF93DF93EC016A017B0141
:10134000722EAB019601CB01B6010E94820D67E3BC
:1013500071E0811126C046015701E894B7F82FEFDC
:101360003FEF4FE75FE7C501B4010E94820D811195
:101370000CC02FEF3FEF4FE75FE7C501B4010E94BC
:10138000B80B6BE371E0181664F02FEF3FEF4FE7F7
:101390005FE4C701B6010E94100D1816B4F46FE3A4
:1013A00071E0CE01DF91CF911F91FF90EF90DF9020
:1013B000CF90BF90AF909F908F907F906F905F90F5
:1013C0004F903F902F900C94A5082FEF3FEF4FE7E1
:1013D0005FECC701B6010E94B80B87FDE0CF20E0AB
:1013E00030E0A901C701B6010E94B80B312C212CB5
:1013F00087FF09C06DE2CE010E94BC081C01F7FA0C
:10140000F094F7F8F09410E060E070E080E09FE383
:10141000711641F020E030E040E251E40E94BD0B43
:101420001F5FF6CFA70196010E944C0B2B013C01D8
:101430000E942F0C4B015C012AE0BC01A401CE01EB
:101440000E94DE087C01E20CF31C1123B1F1C501FE
:10145000B4010E945E0C9B01AC01C301B2010E9469
:101460004B0B4B015C016EE2CE010E94BC08E80E02
:10147000F91E115010F120E030E040E251E4C501C6
:10148000B4010E94150D2B013C010E942F0C4B0151
:101490004AE050E0CE010E948609E80EF91EB40130
:1014A00090E080E00E945E0C9B01AC01C301B201A0
:1014B0000E944B0B4B015C01DCCFC701DF91CF9148
:1014C0001F91FF90EF90DF90CF90BF90AF909F90D3
:1014D0008F907F906F905F904F903F902F900895E6
:1014E0000C948C090F931F93CF93DF93EC010E9410
:1014F0004505688779878A879B87E881F981048415
:10150000F585E02DCE01099597FF15C00E94450590
:10151000088519852A853B85601B710B820B930B0F
:101520000C811D812E813F8160177107820793070F
:1015300020F38FEF9FEFDF91CF911F910F910895CF
:10154000FF920F931F93CF93DF93EC018B01F42E47
:10155000CE010E94720A97FD1DC08D329105D1F017
:101560009C01205331092A303105A0F0FF2019F0E9
:101570008E32910579F00130110551F002301105DC
:1015800089F48D30910571F05CF40997029750F061
:101590008FEF9FEFDF91CF911F910F91FF900895F3
:1015A0008097B1F7E881F9810284F385E02DCE01BF
:1015B0000995CECFBF92CF92DF92EF92FF920F9319
:1015C0001F93CF93DF938C01C42F40E00E94A00AA9
:1015D000FC01C12CD12C760197FD3EC0B12C0C2E04
:1015E000000CDD0BCE17DF07D9F0ED32F10509F461
:1015F0003FC0CF01C0970A9798F4AAE0B0E0A701D6
:1016000096010E94A90D6F01FF0FEE08FF08C60E9C
:10161000D71EE81EF91E80E3C81AD108E108F108B8
:10162000D801ED91FC910284F385E02DC801099564
:10163000C8010E94720AFC01C0970A9798F2CE175F
:10164000DF0781F2BB2041F0F094E094D094C09485
:10165000C11CD11CE11CF11CC701B601DF91CF9167
:101660001F910F91FF90EF90DF90CF90BF90089562
:10167000BB24B394D5CF08950E9481050E943B0BF3
:101680000E947E01C4EFD6E00E94B6012097E1F3EC
:101690000E94F406F9CF5058BB27AA270E94630B7B
:1016A0000C94D60C0E94C80C38F00E94CF0C20F08D
:1016B00039F49F3F19F426F40C94C50C0EF4E09510
:1016C000E7FB0C94BF0CE92F0E94E70C58F3BA1704
:1016D000620773078407950720F079F4A6F50C9448
:1016E000090D0EF4E0950B2EBA2FA02D0B01B901B8
:1016F00090010C01CA01A0011124FF27591B99F088
:10170000593F50F4503E68F11A16F040A22F232F93
:10171000342F4427585FF3CF469537952795A795E3
:10172000F0405395C9F77EF41F16BA0B620B730B8A
:10173000840BBAF09150A1F0FF0FBB1F661F771FFB
:10174000881FC2F70EC0BA0F621F731F841F48F4B0
:10175000879577956795B795F7959E3F08F0B0CF39
:101760009395880F08F09927EE0F97958795089520
:101770000E949B0C08F481E008950E94D10B0C9408
:10178000D60C0E94CF0C58F00E94C80C40F029F4EF
:101790005F3F29F00C94BF0C51110C940A0D0C946E
:1017A000C50C0E94E70C68F39923B1F3552391F31C
:1017B000951B550BBB27AA2762177307840738F0C0
:1017C0009F5F5F4F220F331F441FAA1FA9F335D01D
:1017D0000E2E3AF0E0E832D091505040E695001CD1
:1017E000CAF72BD0FE2F29D0660F771F881FBB1F8B
:1017F000261737074807AB07B0E809F0BB0B802D69
:10180000BF01FF2793585F4F3AF09E3F510578F094
:101810000C94BF0C0C940A0D5F3FE4F3983ED4F394
:10182000869577956795B795F7959F5FC9F7880F68
:10183000911D9695879597F90895E1E0660F771FBA
:10184000881FBB1F621773078407BA0720F0621B4B
:10185000730B840BBA0BEE1F88F7E09508950E9476
:10186000EF0C88F09F5798F0B92F9927B751B0F037
:10187000E1F0660F771F881F991F1AF0BA95C9F714
:1018800014C0B13091F00E94090DB1E008950C949C
:10189000090D672F782F8827B85F39F0B93FCCF34F
:1018A000869577956795B395D9F73EF49095809591
:1018B000709561957F4F8F4F9F4F0895E89409C0B1
:1018C00097FB3EF490958095709561957F4F8F4F73
:1018D0009F4F9923A9F0F92F96E9BB279395F69589
:1018E000879577956795B795F111F8CFFAF4BB0F07
:1018F00011F460FF1BC06F5F7F4F8F4F9F4F16C06B
:10190000882311F096E911C0772321F09EE8872FF4
:10191000762F05C0662371F096E8862F70E060E0B0
:101920002AF09A95660F771F881FDAF7880F969529
:10193000879597F90895990F0008550FAA0BE0E8CD
:10194000FEEF16161706E807F907C0F01216130681
:10195000E407F50798F0621B730B840B950B39F4C1
:101960000A2661F0232B242B252B21F408950A2627
:1019700009F4A140A6958FEF811D811D089597F967
:101980009F6780E870E060E008959FEF80EC089525
:1019900000240A941616170618060906089500244E
:1019A0000A9412161306140605060895092E0394C8
:1019B000000C11F4882352F0BB0F40F4BF2B11F43C
:1019C00060FF04C06F5F7F4F8F4F9F4F089557FD9B
:1019D0009058440F551F59F05F3F71F04795880F9D
:1019E00097FB991F61F09F3F79F087950895121634
:1019F00013061406551FF2CF4695F1DF08C01616E0
:101A000017061806991FF1CF869571056105089490
:101A10000895E894BB2766277727CB0197F90895A7
:101A20000E949B0C08F48FEF08950E94280D0C94DF
:101A3000D60C0E94C80C38F00E94CF0C20F09523E1
:101A400011F00C94BF0C0C94C50C11240C940A0DCD
:101A50000E94E70C70F3959FC1F3950F50E0551F5E
:101A6000629FF001729FBB27F00DB11D639FAA27F3
:101A7000F00DB11DAA1F649F6627B00DA11D661F42
:101A8000829F2227B00DA11D621F739FB00DA11D63
:101A9000621F839FA00D611D221F749F3327A00D1D
:101AA000611D231F849F600D211D822F762F6A2FB9
:101AB00011249F5750409AF0F1F088234AF0EE0F1E
:101AC000FF1FBB1F661F771F881F91505040A9F74B
:101AD0009E3F510580F00C94BF0C0C940A0D5F3FA3
:101AE000E4F3983ED4F3869577956795B795F79587
:101AF000E7959F5FC1F7FE2B880F911D96958795FF
:101B000097F908950E949B0C880B990B0895A1E208
:101B10001A2EAA1BBB1BFD010DC0AA1FBB1FEE1F67
:101B2000FF1FA217B307E407F50720F0A21BB30BB2
:101B3000E40BF50B661F771F881F991F1A9469F72E
:101B400060957095809590959B01AC01BD01CF018A
:101B500008950E94BA0DA59F900DB49F900DA49F6B
:101B6000800D911D11240895EE0FFF1F0590F49133
:101B7000E02D0994A29FB001B39FC001A39F700DF7
:101B8000811D1124911DB29F700D811D1124911D85
:101B90000895F999FECF92BD81BDF89A992780B535
:101BA0000895262FF999FECF1FBA92BD81BD20BDA1
:101BB0000FB6F894FA9AF99A0FBE01960895F89420
:021BC000FFCF55
:101BC2008C0400000157616E646572657245636C36
:101BD2006970736541323032353034303441004EF1
:101BE20050000000000044077808E5062407B70605
:101BF200D106C3060D0A006E616E00696E66006F43
:041C02007666000002
:00000001FF
