:100000000C9478000C94A0000C94A0000C94A00018
:100010000C94A0000C94A0000C94A0000C94A000E0
:100020000C94A0000C94A0000C94A0000C94A000D0
:100030000C94A0000C94A0000C94A0000C94A000C0
:100040000C942E0D0C94A0000C944E100C94801067
:100050000C94A0000C94A0000C94A0000C94A000A0
:100060000C94A0000C94A000005EBCE2613FDD8314
:10007000C29C7E20A3FD1F41009D23BE46DB65F888
:100080008C11AF32CA57E974000000090003020066
:10009000000405080000000000000000000000014E
:1000A000020408102040800102040810200102040C
:1000B00008102040804004040404040404040202E4
:1000C000020202020303030303030202030000000F
:1000D0000023002600290000000000250028002B36
:1000E0000000000000240027002A0000AB01B0102F
:1000F00011241FBECFEFD4E0DEBFCDBF11E0A0E0E2
:10010000B1E0ECEEFCE202C005900D92AE33B10717
:10011000D9F722E0AEE3B1E001C01D92AF34B207DF
:10012000E1F710E0C8E7D0E004C02197FE010E948B
:100130002A16C637D107C9F70E94A1130C9474166A
:100140000C9400000C945E160C9466160F931F938B
:10015000CF93DF9380918100887F816080938100BD
:1001600010924D0110924C0182E090E090934B016F
:1001700080934A0183E090E0909349018093480185
:1001800001E010E0109347010093460167E386E920
:1001900091E00E94030B84E791E00E948C0862E0EA
:1001A00086E00E94B90E62E087E00E94B90EC0911D
:1001B0004C01D0914D01CE010E94A200823008F086
:1001C000AAC090E09093550180935401809146011C
:1001D000909147010E94A20090E090934F0180937C
:1001E0004E0184E090E00E94A20090E085389105E5
:1001F0000CF09AC0909345018093440180914E0188
:1002000090914F01029768F081E090E090934F0148
:1002100080934E0161E080914601909147010E94D8
:10022000A40080914A0190914B010E94A20090E0AD
:100230009093530180935201C0914801D09149019C
:10024000CE010E94A200823008F07AC090E0909324
:1002500051018093500184E190E00E94A20090E05F
:10026000909343018093420161E08AE00E94B90EBD
:1002700080914E0190914F01609144017091450130
:10028000019711F070E060E08AE00E94330E62E3B3
:1002900070E080E090E00E94A90D61E083E00E94A0
:1002A000B90E609152017091530183E00E94330EA8
:1002B00062E370E080E090E00E94A90D61E085E0DB
:1002C0000E94B90E6091500185E00E94F50E62E334
:1002D00070E080E090E00E94A90D61E083E10E945F
:1002E000B90E8091540161E0681B83E10E94F50E14
:1002F00062E370E080E090E00E94A90D26E040E01B
:100300005BE460E070E082EB91E0DF91CF911F91C0
:100310000F910C94F60F109355010093540161E076
:10032000CE010E94A40052CF84E890E09093450152
:100330008093440164E884E090E00E94A4005ECFD2
:1003400081E090E0909351018093500161E0CE01F3
:100350000E94A40080CF26E046E164E086E991E0B7
:100360000E94E20A62E088E891E00E946D0668E877
:1003700071E084E791E00C944807CF92DF92EF920E
:10038000FF9282EB91E00E94230F892B79F041E0EC
:1003900070E060E082EB91E00E943F1360936E0199
:1003A00070936F01809370019093710110926601B8
:1003B00010926701109268011092690110926A010F
:1003C00010926B0110926C0110926D0180916E0180
:1003D00090916F01A0917001B091710188349B4A96
:1003E000A34FB340D9F561E080914C0190914D014C
:1003F0000E94A40061E080914601909147010E9413
:10040000A4006FEF80914A0190914B010E94A400DB
:1004100061E080914801909149010E94A40060E749
:1004200084E190E00E94A40080E790E09093430173
:100430008093420181E090E09093550180935401B4
:1004400090935101809350012FEF30E0309353018E
:100450002093520190934F0180934E0180916E0141
:1004600090916F01A0917001B09171018E3691054C
:10047000A105B10509F4E5C00CF0B3C084369105BF
:10048000A105B10509F4D7C085369105A105B105CF
:1004900009F4C3C080916E0190916F01A091700129
:1004A000B0917101AC01BD01485B5B40610971090C
:1004B0004F3F51056105710509F068F4885B9B4069
:1004C0009093530180935201682F80914A0190913B
:1004D0004B010E94A40080916E0190916F01A09148
:1004E0007001B0917101AC01BD0141525E446109DE
:1004F0007109443851056105710558F480529E44D4
:100500009093450180934401682F84E090E00E941D
:10051000A40080914E0190914F0170E060E001973E
:1005200091F46091440170914501072E000C880BF5
:10053000990B0E94CD1429E335E447EF5FE30E9455
:1005400082150E9495148AE00E94330E6091520138
:100550007091530183E00E94330E6091500185E059
:100560000E94F50E8091540161E0681B83E10E94B6
:10057000F50E1092730110927201809172019091A8
:10058000730144970CF075C086E00E94150EBC0103
:10059000990F880B990B0E94CD149B01AC016091BF
:1005A00066017091670180916801909169010E94D4
:1005B000B213609366017093670180936801909312
:1005C00069016AE070E080E090E00E94A90D8091EE
:1005D000720190917301019690937301809372015F
:1005E000CCCF88379105A105B105E9F1893791058F
:1005F000A105B10561F18F369105A105B10509F09D
:1006000049CF81E090E0909355018093540161E0DF
:1006100080914C0190914D010BC081E090E090934E
:1006200051018093500161E080914801909149010E
:100630000E94A4002FCF109251011092500160E04F
:10064000F3CF109255011092540160E0E1CF81E0A8
:1006500090E090934F0180934E0161E080914601BC
:1006600090914701E5CF10924F0110924E0160E04A
:10067000F5CF20E030E040EA51E4609166017091EE
:10068000670180916801909169010E9423146B01B8
:100690007C01C0926601D0926701E0926801F092FD
:1006A0006901609142017091430160577E4F072EAE
:1006B000000C880B990B0E94CD149B01AC01C70163
:1006C000B6010E941E1487FF1CC020E030E041EEFE
:1006D00053E4C701B6010E947D15181694F420E07A
:1006E00030E048EC53E4C701B6010E94B1130E9408
:1006F0009514609342017093430184E190E00E945D
:10070000A400109266011092670110926801109285
:10071000690160E086E991E00E94E50C60935A016E
:1007200070935B0180935C0190935D0140E060E019
:1007300086E991E00E94550C609356017093570131
:1007400080935801909359016CE084E791E00E94F6
:10075000840984E791E00E94270A60E084E791E041
:100760000E94B70A60933E0170933F01809340015D
:100770009093410110927301109272018091720165
:1007800090917301843691050CF068C086E00E9458
:10079000150E209142013091430120573E4F821B9C
:1007A000930BBC01990F880B990B0E94CD142AE082
:1007B00037ED43EA51E40E9423149B01AC016091A0
:1007C00066017091670180916801909169010E94B2
:1007D000B2136093660170936701809368019093F0
:1007E000690187E00E94150EBC01990F880B990BD7
:1007F0000E94CD1420E030E040EA50E40E948215CF
:1008000020E030E040E85AE30E94821529E831E414
:1008100040E450E40E9482159B01AC0160916A01A2
:1008200070916B0180916C0190916D010E94B213E7
:1008300060936A0170936B0180936C0190936D01DA
:1008400084E690E00E94E20D809172019091730124
:100850000196909373018093720190CF20E030E075
:1008600040E050EC609166017091670180916801F1
:10087000909169010E941E1487FF08C010926601C2
:1008800010926701109268011092690120E030E037
:1008900048EC52E4609166017091670180916801B3
:1008A000909169010E9423146B017C0120E030E0EB
:1008B000A9010E947D15181624F0F7FAF094F7F8B4
:1008C000F094C0926201D0926301E0926401F092D0
:1008D000650120E030E048EC52E460916A017091DB
:1008E0006B0180916C0190916D010E9423146093C3
:1008F0005E0170935F01809360019093610161E0FC
:1009000071E082EB91E00E94191164E071E082EBEA
:1009100091E00E94191140913E0150913F01609178
:1009200040017091410122E030E082EB91E00E94B1
:10093000D51265E171E082EB91E00E9419114091BE
:100940005A0150915B0160915C0170915D0122E060
:1009500030E082EB91E00E94D51265E171E082EB1C
:1009600091E00E94191140915601509157016091F8
:1009700058017091590122E030E082EB91E00E9431
:10098000D51265E171E082EB91E00E94191140916E
:10099000620150916301609164017091650122E0F0
:1009A00030E082EB91E00E94D51265E171E082EBCC
:1009B00091E00E94191140915E0150915F01609198
:1009C00060017091610122E030E082EB91E00E94D1
:1009D000D51265E171E082EB91E00E9419116091FE
:1009E0005401709155014AE050E082EB91E00E9481
:1009F000D71165E171E082EB91E00E9419116091DD
:100A00004E0170914F014AE050E082EB91E00E946C
:100A1000D71165E171E082EB91E00E9419116091BC
:100A20005201709153014AE050E082EB91E00E9444
:100A3000D71165E171E082EB91E00E94191160919C
:100A40005001709151014AE050E082EB91E00E9428
:100A5000D71165E171E082EB91E00E94191160917C
:100A60004401709145014AE050E082EB91E00E9420
:100A7000D71165E171E082EB91E00E942C11109298
:100A80006E0110926F011092700110927101FF902F
:100A9000EF90DF90CF900895FF920F931F93CF9325
:100AA000DF93FC011081C181D281F8948981012FEB
:100AB00000958023898378948DE7F82EFA94FF209F
:100AC00061F182E090E00E94E20D88818123B1F320
:100AD000F8948A8180238A838981812B8983789401
:100AE00080EE91E00E94E20DF89489818023898351
:100AF00086E490E00E94E20D88811823C1E009F0AD
:100B0000C0E078948AE991E00E94E20D8C2FDF9199
:100B1000CF911F910F91FF900895C0E0F7CF1F93E1
:100B2000CF93DF93FC011081C181D281912F9095E9
:100B300060FF16C0F8948A8189238A838981812B7A
:100B400089838AE090E00E94E20D8A81182B1A8343
:100B5000789487E390E0DF91CF911F910C94E20DA0
:100B6000F8948A8189238A838981812B898381E40E
:100B700090E00E94E20D8A81182B1A83789485E018
:100B800090E0E9CF0F931F93CF93DF93FC01108187
:100B9000C181D281F8948981812B89838A81012F37
:100BA000009580238A8383E090E00E94E20D898192
:100BB000802389838AE090E00E94E20DC8817894C6
:100BC00085E390E00E94E20D1C2381E009F480E0BF
:100BD000DF91CF911F910F910895DF92EF92FF92D5
:100BE0000F931F93CF93DF93EC01D62EE42E08E0F2
:100BF00010E0FF24F39461E08D2D8F2109F460E073
:100C0000CE010E948F05FF0C01501109A1F7E110E0
:100C100010C0F894E981FA819181888180958923B7
:100C20008183E981FA8192818881809589238283F9
:100C30007894DF91CF911F910F91FF90EF90DF900B
:100C40000895EF92FF920F931F93CF93DF937C0150
:100C500008E010E0C0E0D1E0C7010E94C2058111A8
:100C6000CD2BDD0F01501109B9F78C2FDF91CF91FA
:100C70001F910F91FF90EF900895EF92FF920F93C5
:100C80001F93CF93DF938C017B0140E065E50E94C9
:100C9000ED05E70188E0E80EF11C699140E0C8012C
:100CA0000E94ED05CE15DF05C1F7DF91CF911F91B1
:100CB0000F91FF90EF90089540E06CEC0C94ED05DF
:100CC000FC011386158614861286118610861782FB
:100CD000168215821482138208951F93CF93DF9397
:100CE000EC01162F60E0812F0E94B90E612F70E099
:100CF000FB01E156FF4FE491E883FB01EA54FF4F0B
:100D0000E491F0E0EE0FFF1FE353FF4F85919491C4
:100D10009A838983CE01DF91CF911F910C94600655
:100D2000BF92CF92DF92EF92FF920F931F93CF93D8
:100D3000DF93EC01B62EC72E142F8D85811105C0CF
:100D4000CE010E944C0581110EC01B861D861C869B
:100D500080E0DF91CF911F910F91FF90EF90DF9096
:100D6000CF90BF90089540E060EF111101C06CEE8C
:100D7000CE010E94ED0501E0E12CD12C11E0CE0165
:100D80000E94C205F82ECE010E94C20591E0F91220
:100D900018C0813099F51134C0F2DB86D11002C041
:100DA00081E08D878B81882381F22396EB2DFC2DAA
:100DB000CF01089629912193E817F907D9F781E027
:100DC000C8CFEE2DF0E0F8120FC08B851817A0F4F5
:100DD000DE01AE0FBF1F13968C91802379F4F12CA6
:100DE000193008F41C87D12EEC0FFD1F8381902F42
:100DF0009095892383830AC08113F1CFFE01EE0D04
:100E0000F11D8381802B8383FF24F3946F2DCE010A
:100E10000E948F051F5F000F11F4E39401E087E04B
:100E20008E1508F0ACCFB7CFDC0180E0615090F0B8
:100E30009D919827E92FEF70F0E0E859FF4F24913A
:100E4000E92FE295EF70F0E0E858FF4FE491822F30
:100E50008E27ECCF0895FB018081883229F030F491
:100E6000803111F0823231F481E008958B33E1F367
:100E70008234D1F380E00895FC0177836683148285
:100E80001582108289E0818381E0828383830895C3
:100E9000CF93DF93EC010E943C071B8A1A8ADF91F3
:100EA000CF910895CF93DF93EB0167E0CE010E94CD
:100EB000140791E02F81281390E0892FDF91CF91C3
:100EC0000895EF92FF920F931F93CF93DF938C01BE
:100ED0007B01D42FFC01868197810E946006C0E0CF
:100EE00041E0B701F801868197810E94900688232E
:100EF00029F0DC1729F0CF5FDC1790F780E006C0FF
:100F0000B701C8010E9452078823A9F3DF91CF914E
:100F10001F910F91FF90EF900895EF92FF920F9322
:100F20001F93CF93DF938C01EB017A01FC01868143
:100F300097810E944C05882311F1BE01F80186813A
:100F400097810E943D0640E06EEBF8018681978113
:100F50000E94ED05E701F9E0EF0EF11CF801868132
:100F600097810E9421068993CE15DF05B9F7F80114
:100F7000868197810E944C0591E0813009F090E0D4
:100F8000892FDF91CF911F910F91FF90EF900895DE
:100F9000CF93DF93EA010E948D07982F882341F0B9
:100FA00068E0CE010E94140791E02885281390E0A4
:100FB000892FDF91CF910895EF92FF920F931F93A6
:100FC000CF93DF93EC018B017A018E819F810E9488
:100FD0004C05B8018E819F810E943D0640E06EE481
:100FE0008E819F810E94ED0540E0F70162818E8134
:100FF0009F810E94ED0540E0F70163818E819F8112
:101000000E94ED05F8018081803139F040E0F70160
:1010100064818E819F810E94ED058E819F810E9457
:101020004C05B8018E819F810E943D06488168E48D
:101030008E819F810E94ED0564E170E080E090E088
:101040000E94A90D8881882331F06AE070E080E079
:1010500090E00E94A90D8E819F81DF91CF911F9119
:101060000F91FF90EF900C944C050F931F93CF932B
:10107000DF93EC018B018E819F810E944C05B801AA
:101080008E819F810E943D0640E064EB8E819F81AE
:101090000E94ED058E819F810E94C205182F8E81CE
:1010A0009F810E944C0581E0111180E0DF91CF917A
:1010B0001F910F910895CF93DF93CDB7DEB7299796
:1010C0000FB6F894DEBF0FBECDBFFB0120812031EB
:1010D00099F0AE014F5F5F4F0E94C807882331F03F
:1010E0008D818F33A9F020F48F31A1F080E007C00B
:1010F0008F3521F08F37D1F78CE001C08BE0299636
:101100000FB6F894DEBF0FBECDBFDF91CF9108952B
:101110008AE0F5CF89E0F3CFFF920F931F93CF932F
:10112000DF93CDB7DEB728970FB6F894DEBF0FBEBA
:10113000CDBF8C01FC01868197810E946006F80179
:101140001482158241E0BE016F5F7F4FF8018681F6
:1011500097810E9490068823A9F1BE016F5F7F4F9F
:10116000C8010E945207882369F3F8018081811128
:101170000BC0BE016F5F7F4FC8010E9435088823F6
:1011800019F081E0F8018083F801F180BE016F5F02
:101190007F4FC8010E945B089F2DF81608F4982F16
:1011A000F801918384818F5F8483BE016F5F7F4FDD
:1011B000C8010E942B07882329F2F80185818F5FDF
:1011C0008583C0CF28960FB6F894DEBF0FBECDBF83
:1011D000DF91CF911F910F91FF9008959F92AF9251
:1011E000BF92CF92DF92EF92FF920F931F93CF9314
:1011F000DF93CDB7DEB761970FB6F894DEBF0FBEB1
:10120000CDBF8C015B01C22E89E0E82EF12C493064
:1012100048F0E42EF12C8DE0E816F1041CF09CE07F
:10122000E92EF12CDE2CB501C8010E945B08E81202
:1012300015C099249394892D61960FB6F894DEBF5A
:101240000FBECDBFDF91CF911F910F91FF90EF9017
:10125000DF90CF90BF90AF909F900895AE014F5F09
:101260005F4FB501C8010E94C807982E882319F363
:10127000F50180818031E9F28FE5FBE0EF16F104A2
:1012800061F08CE0E816F10439F08FE1EAE0EE1647
:10129000F10419F48FE301C08FE78D83AE014F5F36
:1012A0005F4FB501C8010E94DC07F80181818D15EF
:1012B00008F48D2DF8018183C110BBCFD81608F03A
:1012C000B8CFD182D12CC12CF80184818C151D049A
:1012D00009F00CF4B0CF4C2DBE01665F7F4FC80102
:1012E0000E946107F801F180BE01665F7F4FC8016F
:1012F0000E945B089F2DF81608F4982FF80191833F
:10130000FFEFCF1ADF0AE0CFEF92FF920F931F9308
:10131000CF93DF93CDB7DEB728970FB6F894DEBF33
:101320000FBECDBF8C01693020F170E06D307105CA
:1013300014F06CE070E0F8016183F12CE12CF8010D
:1013400084818E151F04C1F0BCF04E2DBE016F5F6D
:101350007F4FC8010E94610721E0F8014181BE0171
:101360006F5F7F4FC8010E94EE08FFEFEF1AFF0A80
:10137000E6CF69E070E0DFCF28960FB6F894DEBFC5
:101380000FBECDBFDF91CF911F910F91FF90EF90D6
:101390000895FC01868197810E94C20591E0813009
:1013A00009F090E0892F08958F929F92AF92BF929B
:1013B000CF92DF92EF92FF92CF93DF93EC016950CF
:1013C0008EEEC82E82E0D82E633040F4E62FF0E097
:1013D000EE0FFF1FE95EFE4FC080D1808B81882316
:1013E00031F18881811123C00E94780D4B015C018D
:1013F0000D2C000CEE08FF08CE010E94C9098111D6
:101400000BC00E94780D6C197D098E099F09681523
:1014100079058A059B0580F3DF91CF91FF90EF90CE
:10142000DF90CF90BF90AF909F908F900895B601BE
:10143000DD0C880B990BDF91CF91FF90EF90DF903F
:10144000CF90BF90AF909F908F900C94A90DCF93A9
:10145000DF93EC018E819F810E944C058E819F81DC
:101460000E945C06488164E48E819F810E94ED05A4
:101470008A81882331F06981CE01DF91CF910C946C
:10148000D409DF91CF910895FA01218130E0322F04
:101490002227330F330F330F808148E0849FC00130
:1014A0001124282B392BDB018C918031C1F4678109
:1014B00070E08681AB01481B5109CA019695982FAF
:1014C0008827979587950E94F4156051710953E01C
:1014D000220F331F5A95E1F72078260F371FC901D5
:1014E0000895EF92FF920F931F93CF93DF93CDB7A1
:1014F000DEB729970FB6F894DEBF0FBECDBF8C01C3
:101500007B01AE014F5F5F4F0E94C8078823A1F0A7
:10151000AE014F5F5F4FB701C8010E94440A299690
:101520000FB6F894DEBF0FBECDBFDF91CF911F91F4
:101530000F91FF90EF90089580E894EEF0CF0E9415
:10154000710A813824EE92076CF0BC01990F880B68
:10155000990B0E94CD1420E030E040E05CE30E9453
:101560008215089560E070E08EEF92EC08950F937D
:101570001F93CF93DF93CDB7DEB728970FB6F894BC
:10158000DEBF0FBECDBF8C01462FBE016F5F7F4F08
:101590000E946107882389F0BE016F5F7F4FC801F9
:1015A0000E949F0A28960FB6F894DEBF0FBECDBFEB
:1015B000DF91CF911F910F91089560E070E08EEF61
:1015C00092ECF0CFDC0115966C93159716964C9320
:1015D000169770E0FB01E156FF4FE4911796EC93EC
:1015E00017976A547F4FFB01649118966C93189774
:1015F00040E85EE360E070E01D964D935D936D936F
:101600007C93509708951F93CF93DF93EC01162F8F
:1016100062E08D810E94B90E0E94780D605D774076
:101620008109910969877A878B879C871A8BDF915B
:10163000CF911F910895CF92DF92EF92FF92CF93B7
:10164000DF93DC011796CC911797D0E06111DC2F66
:1016500018962C91189730E0220F331F23533F4FD9
:1016600050E040E0F90185919491FC01F080BA01CD
:1016700090E080E0EF2DEC23ED1310C04F5F5F4F43
:101680001D96CD90DD90ED90FC9050976C157D05EA
:101690008E059F0538F36FEF7FEFCB01DF91CF9180
:1016A000FF90EF90DF90CF9008958F929F92AF922E
:1016B000BF92CF92DF92EF92FF920F931F93CF933F
:1016C000DF93CDB7DEB7C054D1400FB6F894DEBF7C
:1016D0000FBECDBF8C01F62E0E94780DF11029C0EF
:1016E000F801C184D284E384F4849B01AC012C19F9
:1016F0003D094E095F0969017A0130EDC31637E0F3
:10170000D306E104F104A8F48189C05CDE4F0FB672
:10171000F894DEBF0FBECDBFDF91CF911F910F9127
:10172000FF90EF90DF90CF90BF90AF909F908F9001
:101730000895F801618772878387948714821382E2
:1017400012821182108262E085810E94B90E61E0EE
:1017500070E080E090E00E94A90D61E0F8018581D1
:101760000E94B90E60E0F80185810E94F50EF80133
:10177000868185518230E8F48CE494E00E94E20D89
:1017800062E0F80185810E94B90EF801828990E03B
:101790000E94E20DF89460E0C8010E941B0B6F3FAD
:1017A0007F4F8F4F9F4F61F4F801118A789480E04A
:1017B000ACCF64E170E080E090E00E94A90DE0CF42
:1017C00061E0C8010E941B0B6F3F7F4F8F4F9F4FFF
:1017D00059F39E012F5F3F4F79015E013FEBA31A42
:1017E0003EEFB30A670160E0C8010E941B0BF601DF
:1017F000608371838283938361E0C8010E941B0B25
:10180000F6016483758386839783F8E0CF0ED11C3D
:10181000CA14DB0441F7789430E020E0F7018080BF
:101820009180A280B3804481558166817781FFEFEA
:101830008F169F06AF06BF0631F04F3F8FEF580758
:101840006807780719F4F801118AB1CFF90183E02C
:10185000F595E7958A95E1F7E00FF11F8081880FF4
:1018600084169506A606B706F0F080832F5F3F4FDB
:10187000F8E0EF0EF11C2832310581F6F8014481C1
:1018800020818181280F3327331F8281280F311D4A
:101890008381820F932F911D99274817190699F676
:1018A00081E0818B32CF8160E0CFCF92DF92EF92E7
:1018B000FF920F931F93CF93DF938C01C62F642F5A
:1018C0000E94550B882341F0F80186818C3009F481
:1018D0005DC038F48B30E1F060E070E080EC9FE7B1
:1018E0004CC085518230C0F7D2816D2F70E0762FC9
:1018F000662766277F778381682B90E080E00E94CF
:10190000CB142DEC3CEC4CEC5DE30E94821559C0ED
:10191000628170E090E080E00E94CB146B017C015A
:10192000F801D381D7FF0AC0AC019B0160E070E0F1
:1019300080E89FEB0E94B1136B017C01DF706D2F7B
:1019400070E090E080E00E94CD142DEC3CEC4CEC7B
:101950005DE30E948215A70196010E94B213CC2379
:1019600061F026E636E646EE5FE30E94821520E04F
:1019700030E040E052E40E94B213DF91CF911F911A
:101980000F91FF90EF90DF90CF900895D2816D2F4F
:1019900070E090E080E00E94CB146B017C01F801C4
:1019A00063816F7070E090E080E00E94CD142DECB8
:1019B0003CEC4CEC5DE30E948215A70196010E946D
:1019C000B213D7FFCCCF9058CACFCF92DF92EF920D
:1019D000FF92CF93DF93EC010E94550B882341F0D7
:1019E0008E818B3028F08D3040F08551823030F17F
:1019F00060E070E080EC9FE71AC0698170E090E0E1
:101A000080E00E94CD142DEC3CEC4CEC5DE30E9498
:101A100082156B017C01688170E090E080E00E949B
:101A2000CD149B01AC01C701B6010E94B213DF9136
:101A3000CF91FF90EF90DF90CF90089568817981EA
:101A400076276727762790E080E00E94CB142DEC64
:101A50003CEC4CEC5DE30E948215E9CF1F920F92A3
:101A60000FB60F9211242F933F938F939F93AF93B1
:101A7000BF938091AE019091AF01A091B001B09160
:101A8000B1013091AD0123E0230F2D3768F126E835
:101A9000230F0296A11DB11D2093AD018093AE01CD
:101AA0009093AF01A093B001B093B1018091A901CF
:101AB0009091AA01A091AB01B091AC010196A11D3A
:101AC000B11D8093A9019093AA01A093AB01B0939B
:101AD000AC01BF91AF919F918F913F912F910F904A
:101AE0000FBE0F901F9018950196A11DB11DD4CF68
:101AF0002FB7F8946091AE017091AF018091B00161
:101B00009091B1012FBF08953FB7F8948091A9013A
:101B10009091AA01A091AB01B091AC0126B5A89B10
:101B200005C02F3F19F00196A11DB11D3FBFBA2F6F
:101B3000A92F982F8827BC01CD01620F711D811D2F
:101B4000911D42E0660F771F881F991F4A95D1F7B4
:101B500008958F929F92AF92BF92CF92DF92EF92B1
:101B6000FF926B017C010E94840D4B015C01C1144A
:101B7000D104E104F104E9F00E94B0130E94840D45
:101B8000681979098A099B09683E734081059105A6
:101B900070F321E0C21AD108E108F10888EE880E3E
:101BA00083E0981EA11CB11CC114D104E104F1040E
:101BB00029F7FF90EF90DF90CF90BF90AF909F906C
:101BC0008F9008958230910538F0880F991F880F03
:101BD000991F05970197F1F70895789484B583606C
:101BE00084BD85B5836085BDEEE6F0E080818160CF
:101BF0008083E1E8F0E082E08083808181608083FF
:101C0000E0E8F0E0808181608083E1EBF0E08081BA
:101C100084608083E0EBF0E080818160808387E8EE
:101C200080937A001092C1000895883020F08D30A2
:101C300008F48DE08E502091000190E4299F9001DE
:101C400011248770822B80937C0080917A008064BD
:101C500080937A0080917A0086FDFCCF8091780095
:101C60009091790008951F93CF93DF93182FEB0184
:101C700061E00E94B90E209739F460E0812FDF9176
:101C8000CF911F910C94F50ECF3FD10511F461E077
:101C9000F5CFE12FF0E0E857FF4FE491E43031F168
:101CA00040F4E230B1F0E330E1F0C038D1057CF728
:101CB000E4CFE83029F1E93059F1E530B1F780910E
:101CC0008000806280938000D0938B00C0938A0054
:101CD00004C084B5806884BDC7BDDF91CF911F91DA
:101CE000089584B5806284BDC8BDF7CF809180001F
:101CF000806880938000D0938900C0938800EDCFE6
:101D00008091B00080688093B000C093B300E5CFAD
:101D10008091B00080628093B000C093B400DDCFAA
:101D2000843081F028F48230E9F08330F9F00895AE
:101D3000883071F0893091F08530B9F4809180005D
:101D40008F7D03C0809180008F77809380000895FD
:101D50008091B0008F778093B00008958091B0009B
:101D60008F7DF9CF84B58F7784BD089584B58F7D3D
:101D7000FBCFCF93DF9390E0FC01E156FF4F24911E
:101D80008A549F4FFC0184918823C9F090E0880F0A
:101D9000991FFC01EF51FF4FA591B491FC01E9524D
:101DA000FF4FC591D49161110DC09FB7F8948C91EC
:101DB000209582238C938881282328839FBFDF91DD
:101DC000CF910895623051F49FB7F8943C91822FDF
:101DD000809583238C93E8812E2BEFCF8FB7F894D7
:101DE000EC912E2B2C938FBFEACF1F93CF93DF93D1
:101DF000282F30E0F901E857FF4F8491F901E156AF
:101E0000FF4FD491F901EA54FF4FC491CC23A9F0BC
:101E1000162F81110E94900EEC2FF0E0EE0FFF1FA5
:101E2000E952FF4FA591B4918FB7F894EC9111113D
:101E300008C0D095DE23DC938FBFDF91CF911F9137
:101E40000895DE2BF8CFFC01918D228D892F90E033
:101E5000805C9F4F821B91098F7399270895FC0125
:101E6000918D828D981731F0828DE80FF11D858D4F
:101E700090E008958FEF9FEF0895FC01918D828D82
:101E8000981761F0A28DAE0FBF2FB11D5D968C919A
:101E9000928D9F5F9F73928F90E008958FEF9FEFD9
:101EA0000895FC01538D448D252F30E0842F90E060
:101EB000821B930B541710F0CF9608950197089545
:101EC00086EA90E1892B49F080E090E0892B29F0A7
:101ED0000E94A61081110C9400000895FC01A48DAD
:101EE000A80FB92FB11DA35ABF4F2C91848D90E03C
:101EF00001968F739927848FA689B7892C93A0891F
:101F0000B1898C9180648C93938D848D981306C0D5
:101F10000288F389E02D80818F7D80830895CF939F
:101F2000DF93EC01888D8823B9F0AA89BB89E88901
:101F3000F9898C9185FD03C0808186FD0DC00FB6A7
:101F400007FCF7CF8C9185FFF2CF808185FFEDCF25
:101F5000CE010E946E0FE9CFDF91CF910895EF92ED
:101F6000FF920F931F93CF93DF93EC0181E0888F53
:101F70009B8D8C8D981316C0E889F989808185FF27
:101F800011C0EE89FF896083E889F98980818064C6
:101F9000808381E090E0DF91CF911F910F91FF90BE
:101FA000EF900895F62E0B8D10E00F5F1F4F0F730B
:101FB0001127E02E8C8D8E110CC00FB607FCFACFC6
:101FC000E889F989808185FFF5CFCE010E946E0FE7
:101FD000F1CFEB8DEC0FFD2FF11DE35AFF4FF08297
:101FE0000B8FEA89FB8980818062D2CFCF92DF920A
:101FF000EF92FF921F93CF93DF93EC016A017B0175
:10200000122FE889F98982E08083C11481EED80615
:10201000E104F104A1F060E079E08DE390E0A70134
:1020200096010E940816215031094109510956951F
:10203000479537952795211580E1380798F0E8896D
:10204000F989108260E874E88EE190E0A7019601BA
:102050000E940816215031094109510956954795AA
:1020600037952795EC85FD853083EE85FF852083A8
:10207000188EEC89FD891083EA89FB898081886943
:102080008083EA89FB8980818F7D8083DF91CF9176
:102090001F91FF90EF90DF90CF9008951F920F92C5
:1020A0000FB60F9211242F938F939F93EF93FF936B
:1020B000E091C201F091C3018081E091C801F091EB
:1020C000C90182FD1BC090818091CB018F5F8F730E
:1020D0002091CC01821741F0E091CB01F0E0EE5469
:1020E000FE4F958F8093CB01FF91EF919F918F9140
:1020F0002F910F900FBE0F901F9018958081F4CFF5
:102100001F920F920FB60F9211242F933F934F936C
:102110005F936F937F938F939F93AF93BF93EF934F
:10212000FF9382EB91E00E946E0FFF91EF91BF91C0
:10213000AF919F918F917F916F915F914F913F915F
:102140002F910F900FBE0F901F90189582EB91E08A
:102150000E94230F21E0892B09F420E0822F0895AB
:10216000E2EBF1E01382128288EE93E0A0E0B0E0AF
:1021700084839583A683B78381E291E091838083F2
:1021800085EC90E09587848784EC90E0978786873C
:1021900080EC90E0918B808B81EC90E0938B828B34
:1021A00082EC90E0958B848B86EC90E0978B868B0D
:1021B000118E128E138E148E0895AF92BF92CF920D
:1021C000DF92EF92FF920F931F93CF93DF936C01F7
:1021D0007B018B01040F151FEB015E01AE18BF08D8
:1021E000C017D10759F06991D601ED91FC9101908A
:1021F000F081E02DC6010995892B79F7C501DF91A2
:10220000CF911F910F91FF90EF90DF90CF90BF90F3
:10221000AF900895FB0101900020E9F73197AF01DD
:10222000461B570BDC01ED91FC910280F381E02D00
:1022300009946115710511F00C940A1190E080E089
:102240000895DC01ED91FC910190F081E02D09945D
:102250006FE271E00C940A110F931F93CF93DF93F9
:102260008C01D0E0C0E06115710519F00E940A11DF
:10227000EC01C8010E9428118C0F9D1FDF91CF91A6
:102280001F910F9108958F929F92AF92BF92EF92FC
:10229000FF920F931F93CF93DF93CDB7DEB7A19734
:1022A0000FB6F894DEBF0FBECDBF7C01FA01CB01A3
:1022B00019A2223008F42AE08E010F5D1F4F822EF2
:1022C000912CB12CA12CBF01A50194010E940816EC
:1022D000F901CA016A300CF5605DD8016E938D0179
:1022E000232B242B252B79F790E080E0109721F009
:1022F000BD01C7010E940A11A1960FB6F894DEBF76
:102300000FBECDBFDF91CF911F910F91FF90EF9046
:10231000BF90AF909F908F900895695CDECFCF9271
:10232000DF92EF92FF920F931F93CF93DF932115CC
:10233000310581F4DC01ED91FC910190F081E02DFB
:10234000642FDF91CF911F910F91FF90EF90DF905D
:10235000CF9009942A30310501F52AE077FF1DC09E
:102360006A017B01EC016DE20E9421118C0144277E
:102370005527BA014C195D096E097F092AE0CE0183
:102380000E944311800F911FDF91CF911F910F91F8
:10239000FF90EF90DF90CF900895DF91CF911F9144
:1023A0000F91FF90EF90DF90CF900C9443119A0122
:1023B000AB01770F660B770B0C948F11211531054C
:1023C00041F4DC01ED91FC910190F081E02D642F4E
:1023D00009940C9443119A01AB0170E060E00C94F5
:1023E000DE112F923F924F925F926F927F928F9267
:1023F0009F92AF92BF92CF92DF92EF92FF921F9384
:10240000CF93DF93EC016A017B01722EAB01960141
:10241000CB01B6010E94EF1562E371E0811126C085
:1024200046015701E894B7F82FEF3FEF4FE75FE71A
:10243000C501B4010E94EF1581110CC02FEF3FEFD1
:102440004FE75FE7C501B4010E941E1466E371E027
:10245000181664F02FEF3FEF4FE75FE4C701B601B6
:102460000E947D151816B4F46AE371E0CE01DF9185
:10247000CF911F91FF90EF90DF90CF90BF90AF90E2
:102480009F908F907F906F905F904F903F902F9094
:102490000C940A112FEF3FEF4FE75FECC701B60135
:1024A0000E941E1487FDE0CF20E030E0A901C701A3
:1024B000B6010E941E14312C212C87FF09C06DE249
:1024C000CE010E9421111C01F7FAF094F7F8F09464
:1024D00010E060E070E080E09FE3711641F020E0E2
:1024E00030E040E251E40E9423141F5FF6CFA701C1
:1024F00096010E94B2132B013C010E949C144B01D7
:102500005C012AE0BC01A401CE010E9443117C01C0
:10251000E20CF31C1123B1F1C501B4010E94CB14EC
:102520009B01AC01C301B2010E94B1134B015C01DC
:102530006EE2CE010E942111E80EF91E115010F139
:1025400020E030E040E251E4C501B4010E94821570
:102550002B013C010E949C144B014AE050E0CE014B
:102560000E94EB11E80EF91EB40190E080E00E9499
:10257000CB149B01AC01C301B2010E94B1134B010A
:102580005C01DCCFC701DF91CF911F91FF90EF90ED
:10259000DF90CF90BF90AF909F908F907F906F9083
:1025A0005F904F903F902F9008950C94F1110F93EE
:1025B0001F93CF93DF93EC010E94780D6887798792
:1025C0008A879B87E881F9810484F585E02DCE0117
:1025D000099597FF15C00E94780D088519852A85F1
:1025E0003B85601B710B820B930B0C811D812E812F
:1025F0003F81601771078207930720F38FEF9FEFEA
:10260000DF91CF911F910F910895FF920F931F9328
:10261000CF93DF93EC018B01F42ECE010E94D712F1
:1026200097FD1DC08D329105D1F09C0120533109D9
:102630002A303105A0F0FF2019F08E32910579F093
:102640000130110551F00230110589F48D309105EA
:1026500071F05CF40997029750F08FEF9FEFDF91D4
:10266000CF911F910F91FF9008958097B1F7E88166
:10267000F9810284F385E02DCE010995CECFBF927A
:10268000CF92DF92EF92FF920F931F93CF93DF933E
:102690008C01C42F40E00E940513FC01C12CD12CF9
:1026A000760197FD3EC0B12C0C2E000CDD0BCE1731
:1026B000DF07D9F0ED32F10509F43FC0CF01C09733
:1026C0000A9798F4AAE0B0E0A70196010E9430169C
:1026D0006F01FF0FEE08FF08C60ED71EE81EF91E99
:1026E00080E3C81AD108E108F108D801ED91FC9106
:1026F0000284F385E02DC8010995C8010E94D71214
:10270000FC01C0970A9798F2CE17DF0781F2BB2031
:1027100041F0F094E094D094C094C11CD11CE11C11
:10272000F11CC701B601DF91CF911F910F91FF906E
:10273000EF90DF90CF90BF900895BB24B394D5CF96
:1027400008950E94ED0D0E94A0130E94A600C0E60D
:10275000DFE00E94BD012097E1F30E94600FF9CFF6
:1027600008955058BB27AA270E94C9130C944315FB
:102770000E94351538F00E943C1520F039F49F3F37
:1027800019F426F40C9432150EF4E095E7FB0C9442
:102790002C15E92F0E94541558F3BA1762077307D6
:1027A0008407950720F079F4A6F50C9476150EF4BD
:1027B000E0950B2EBA2FA02D0B01B90190010C0151
:1027C000CA01A0011124FF27591B99F0593F50F469
:1027D000503E68F11A16F040A22F232F342F4427C1
:1027E000585FF3CF469537952795A795F0405395B9
:1027F000C9F77EF41F16BA0B620B730B840BBAF089
:102800009150A1F0FF0FBB1F661F771F881FC2F7F3
:102810000EC0BA0F621F731F841F48F48795779507
:102820006795B795F7959E3F08F0B0CF9395880FC1
:1028300008F09927EE0F9795879508950E9408153F
:1028400008F481E008950E9437140C9443150E9407
:102850003C1558F00E94351540F029F45F3F29F0EF
:102860000C942C1551110C9477150C9432150E9470
:10287000541568F39923B1F3552391F3951B550B28
:10288000BB27AA2762177307840738F09F5F5F4F43
:10289000220F331F441FAA1FA9F335D00E2E3AF082
:1028A000E0E832D091505040E695001CCAF72BD09A
:1028B000FE2F29D0660F771F881FBB1F26173707EB
:1028C0004807AB07B0E809F0BB0B802DBF01FF271D
:1028D00093585F4F3AF09E3F510578F00C942C15B9
:1028E0000C9477155F3FE4F3983ED4F38695779583
:1028F0006795B795F7959F5FC9F7880F911D9695D6
:10290000879597F90895E1E0660F771F881FBB1F31
:10291000621773078407BA0720F0621B730B840BDE
:10292000BA0BEE1F88F7E09508950E949C146894F6
:10293000B1110C94771508950E945C1588F09F578B
:1029400098F0B92F9927B751B0F0E1F0660F771FD3
:10295000881F991F1AF0BA95C9F714C0B13091F0C9
:102960000E947615B1E008950C947615672F782FA4
:102970008827B85F39F0B93FCCF38695779567958E
:10298000B395D9F73EF490958095709561957F4FFA
:102990008F4F9F4F0895E89409C097FB3EF49095A0
:1029A0008095709561957F4F8F4F9F4F9923A9F028
:1029B000F92F96E9BB279395F695879577956795B7
:1029C000B795F111F8CFFAF4BB0F11F460FF1BC0FB
:1029D0006F5F7F4F8F4F9F4F16C0882311F096E98E
:1029E00011C0772321F09EE8872F762F05C066233C
:1029F00071F096E8862F70E060E02AF09A95660FF5
:102A0000771F881FDAF7880F9695879597F90895AD
:102A1000990F0008550FAA0BE0E8FEEF16161706EF
:102A2000E807F907C0F012161306E407F50798F057
:102A3000621B730B840B950B39F40A2661F0232B70
:102A4000242B252B21F408950A2609F4A140A695EC
:102A50008FEF811D811D089597F99F6780E870E0D1
:102A600060E008959FEF80EC089500240A94161604
:102A7000170618060906089500240A94121613066C
:102A8000140605060895092E0394000C11F48823FA
:102A900052F0BB0F40F4BF2B11F460FF04C06F5F16
:102AA0007F4F8F4F9F4F089557FD9058440F551FEC
:102AB00059F05F3F71F04795880F97FB991F61F0C0
:102AC0009F3F79F087950895121613061406551F37
:102AD000F2CF4695F1DF08C0161617061806991FA3
:102AE000F1CF86957105610508940895E894BB2798
:102AF00066277727CB0197F908950E94081508F4F7
:102B00008FEF08950E9495150C9443150E9435157A
:102B100038F00E943C1520F0952311F00C942C15F0
:102B20000C94321511240C9477150E94541570F3EF
:102B3000959FC1F3950F50E0551F629FF001729F62
:102B4000BB27F00DB11D639FAA27F00DB11DAA1F71
:102B5000649F6627B00DA11D661F829F2227B00DBE
:102B6000A11D621F739FB00DA11D621F839FA00D49
:102B7000611D221F749F3327A00D611D231F849F99
:102B8000600D211D822F762F6A2F11249F575040F0
:102B90009AF0F1F088234AF0EE0FFF1FBB1F661F6B
:102BA000771F881F91505040A9F79E3F510580F034
:102BB0000C942C150C9477155F3FE4F3983ED4F3F6
:102BC000869577956795B795F795E7959F5FC1F7D8
:102BD000FE2B880F911D9695879597F908950E9471
:102BE0000815880B990B089597FB072E16F400948F
:102BF00007D077FD09D00E943B1607FC05D03EF4B4
:102C0000909581959F4F0895709561957F4F089598
:102C1000A1E21A2EAA1BBB1BFD010DC0AA1FBB1FE0
:102C2000EE1FFF1FA217B307E407F50720F0A21B52
:102C3000B30BE40BF50B661F771F881F991F1A94BF
:102C400069F760957095809590959B01AC01BD01E9
:102C5000CF010895EE0FFF1F0590F491E02D099428
:102C60000E944F16A59F900DB49F900DA49F800DBC
:102C7000911D11240895AA1BBB1B51E107C0AA1F77
:102C8000BB1FA617B70710F0A61BB70B881F991F0D
:102C90005A95A9F780959095BC01CD010895A29F02
:102CA000B001B39FC001A39F700D811D1124911D20
:102CB000B29F700D811D1124911D0895F999FECFC9
:102CC00092BD81BDF89A992780B50895262FF9996C
:102CD000FECF1FBA92BD81BD20BD0FB6F894FA9AFF
:0C2CE000F99A0FBE01960895F894FFCFFA
:102CEC00015A58005742506C75735633413230328A
:102CFC00343032313641005E00BC007701000000F8
:102D0C0000AF0FDD10510F8F0F230F3D0F2F0F0D45
:0E2D1C000A006E616E00696E66006F766600DA
:00000001FF
