:100000000C9462000C948A000C948A000C948A0070
:100010000C948A000C948A000C948A000C948A0038
:100020000C948A000C948A000C948A000C948A0028
:100030000C948A000C948A000C948A000C948A0018
:100040000C949F130C948A000C9469160C949B16C4
:100050000C948A000C948A000C948A000C948A00F8
:100060000C948A000C948A0000000009000302002E
:10007000000405080000000000000000000000016E
:10008000020408102040800102040810200102042C
:100090000810204080400404040404040404020204
:1000A000020202020303030303030202030000002F
:1000B00000250028002B0000000000240027002A53
:1000C0000000CB1611241FBECFEFD4E0DEBFCDBFA2
:1000D00012E0A0E0B1E0EEE5F9E302C005900D9278
:1000E000A23FB107D9F723E0A2EFB2E001C01D9211
:1000F000AD3CB207E1F710E0C2E6D0E004C02197C2
:10010000FE010E94771CC136D107C9F70E94021A6E
:100110000C94AD1C0C940000CF92DF92EF92FF92F2
:100120000F931F93CF93DF93EB017B0124E0E20E4B
:10013000F11C8B016C01C61AD70AC601800F911FF2
:100140000E94971CF80181938F01EE15FF05A9F716
:10015000CE01DF91CF911F910F91FF90EF90DF9033
:10016000CF9008950F931F93CF93DF938C01EB01F2
:100170000E94971C8883C80101960E94971C89835E
:10018000CE01DF91CF911F910F910895FF920F93B0
:100190001F93CF93DF93EC01F62E08811981C801DC
:1001A0000E94971CF81621F06F2DC8010E949F1C19
:1001B000CE01DF91CF911F910F91FF900895AF92E3
:1001C000BF92CF92DF92EF92FF920F931F93CF9344
:1001D000DF9300D0CDB7DEB78B016B0124E0C20EF8
:1001E000D11C7B015C01A61AB70AC5018E0D9F1DAB
:1001F0009A838983F70161917F01CE0101960E9464
:10020000C600EC14FD0489F7C8010F900F90DF9130
:10021000CF911F910F91FF90EF90DF90CF90BF9003
:10022000AF900895EF92FF920F931F93CF93DF93B8
:1002300000D0CDB7DEB78C017B019A838983FB01A7
:100240006081CE0101960E94C6000F5F1F4F1A8386
:100250000983F7016181CE0101960E94C600C701A2
:100260000F900F90DF91CF911F910F91FF90EF9022
:10027000089561E08AE00E94CD1461E089E00E9467
:10028000CD1461E088E00E94CD1461E08AE00E9414
:10029000091561E085E00E94CD1461E084E00E94D0
:1002A000CD1461E082E00E94CD1461E085E00E94FF
:1002B000091561E087E00E94CD1461E086E00E94AC
:1002C000CD1461E083E00E94CD1461E087E00E94DC
:1002D000091561E082E10E94091526E040E05BE437
:1002E00060E070E080E393E00E94111682E390E00A
:1002F0009093FA028093F90267E173E090E080E066
:100300000E948C006091170370911803809119036B
:1003100090911A039B01AC010E94501C882371F03C
:1003200010921703109218031092190310921A03D7
:1003300067E173E090E080E00E94DF0063E173E03A
:1003400084E090E00E948C0060911303709114038C
:1003500080911503909116039B01AC010E94501CE3
:10036000882371F010921303109214031092150356
:100370001092160363E173E084E090E00E94DF00D6
:100380006FE073E088E090E00E948C0060910F03C2
:100390007091100380911103909112039B01AC01A5
:1003A0000E94501C882371F010920F0310921003CA
:1003B00010921103109212036FE073E088E090E056
:1003C0000E94DF0066E171E08CE090E00E94B200E4
:1003D0008091160190911701019651F41092170126
:1003E0001092160166E171E08CE090E00E9412012B
:1003F00067EF72E08EE090E00E94B2008091F70219
:100400009091F802019661F48FEF93E09093F802D7
:100410008093F70267EF72E08EE090E00E94120195
:1004200064E171E080E190E00E94B20080911401EB
:1004300090911501019651F410921501109214013A
:1004400064E171E080E190E00E94120165EF72E0EA
:1004500082E190E00E94B2008091F5029091F60254
:10046000019661F48FEF93E09093F6028093F5028A
:1004700065EF72E082E190E00E94120162E171E0BA
:1004800084E190E00E94B2008091120190911301EA
:10049000019651F4109213011092120162E171E081
:1004A00084E190E00E94120163EF72E086E190E047
:1004B0000E94B2008091F3029091F402019661F4DF
:1004C0008FEF93E09093F4028093F30263EF72E076
:1004D00086E190E00C94120108952F923F924F9282
:1004E0005F926F927F928F929F92AF92BF92CF92C4
:1004F000DF92EF92FF920F931F93CF93DF93282EFB
:10050000D62FC42F690160E00E9409153C2C8C2D68
:100510000E948614BC01990F880B990B0E942E1B18
:100520009B01AC0160E070E88DE694E40E94121A31
:100530002B013C0120E030E0A9010E94DE1B1816CF
:100540000CF445C0C301B201905820E030E040E413
:1005500050E40E94841A20E030E048E454E40E9411
:10056000E31B4B015C0120E030E0A901C301B201B3
:100570000E94DE1B61E018160CF460E08D2F0E94D3
:100580000915412C512C3201A5019401C301B2017E
:100590000E947F1A87FF1EC061E08C2F0E94091500
:1005A00088E290E00E94531460E08C2F0E940915AD
:1005B00088E290E00E94531420E030E040E85FE3DE
:1005C000C301B2010E94131A2B013C01DDCFC3010C
:1005D000B201BBCFF12CE12C0FEF13E060E08D2FC7
:1005E0000E94091598ECA92EB12C61E08C2F0E9475
:1005F000091588E290E00E94531460E08C2F0E945D
:10060000091588E290E00E94531481E0A81AB1080D
:1006100061F78AE0A82EB12C412C512C3201832D98
:100620000E948614BC01990F880B990B0E942E1B07
:100630009B01AC01C301B2010E94131A2B013C01C2
:1006400062E070E080E090E00E941A1481E0A81A55
:10065000B10829F720E030E040E251E4C301B201E3
:100660000E94841A2B013C0181E1C816D10409F0D3
:1006700065C0B7010F2C000C880B990B0E942E1B34
:10068000A30192010E947F1A87FF09C0C301B20132
:100690000E94F61A7B017093F8026093F702B8018A
:1006A000012E000C880B990B0E942E1BA3019201B6
:1006B0000E94DE1B18164CF4C301B2010E94F61A08
:1006C0008B01709317016093160120E030E040EA3F
:1006D00051E4C301B2010E947F1A87FF7FCF61E01E
:1006E0008D2F0E94091508E813E161E08C2F0E940C
:1006F000091588E290E00E94531460E08C2F0E945C
:10070000091588E290E00E9453140150110969F71D
:1007100061E0822DDF91CF911F910F91FF90EF90BB
:10072000DF90CF90BF90AF909F908F907F906F9011
:100730005F904F903F902F900C94091580E1C81660
:10074000D10471F5B7010F2C000C880B990B0E9496
:100750002E1BA30192010E947F1A87FF09C0C301CB
:10076000B2010E94F61A7B017093F6026093F502C3
:10077000B801012E000C880B990B0E942E1BA301BF
:1007800092010E94DE1B18160CF09FCFC301B2012C
:100790000E94F61A8B01709315016093140195CF96
:1007A0008FE0C816D10409F090CFB7010F2C000CD0
:1007B000880B990B0E942E1BA30192010E947F1AA5
:1007C00087FF09C0C301B2010E94F61A7B01709332
:1007D000F4026093F302B801012E000C880B990B10
:1007E0000E942E1BA30192010E94DE1B18160CF022
:1007F0006CCFC301B2010E94F61A8B0170931301F2
:100800006093120162CF4F925F926F927F928F92AC
:100810009F92AF92BF92CF92DF92EF92FF92CF93CF
:10082000DF93CDB7DEB72C970FB6F894DEBF0FBEBF
:10083000CDBF69E171E080E393E00E94471769E36F
:1008400071E080E393E00E94471762E571E080E386
:1008500093E00E9434174AE050E061E070E080E3EA
:1008600093E00E94F91721E130E049E050E068E0B0
:1008700070E08AE090E00E946D026091F702709152
:10088000F802072E000C880B990B0E942E1B20E00B
:1008900030E0A9010E94131A2B013C01609116015E
:1008A00070911701072E000C880B990B0E942E1BCC
:1008B00020E030E0A9010E94131A4B015C0166E7B9
:1008C00071E080E393E00E9434176091160170910B
:1008D00017014AE050E080E393E00E94F2176CE8D1
:1008E00071E080E393E00E9434176091F702709109
:1008F000F8024AE050E080E393E00E94F91768E9CB
:1009000071E080E393E00E94471761EB71E080E3C0
:1009100093E00E9434174AE050E061E070E080E329
:1009200093E00E94F91720E130E044E050E062E0FB
:1009300070E085E090E00E946D026091F502709198
:10094000F602072E000C880B990B0E942E1B20E04C
:1009500030E0A9010E94131A6B017C01609114011F
:1009600070911501072E000C880B990B0E942E1B0D
:1009700020E030E0A9010E94131A69837A838B83F7
:100980009C8365ED71E080E393E00E9434176091F1
:100990001401709115014AE050E080E393E00E9459
:1009A000F2176CE871E080E393E00E9434176091E5
:1009B000F5027091F6024AE050E080E393E00E9475
:1009C000F9176BEE71E080E393E00E94471764E053
:1009D00072E080E393E00E9434174AE050E061E067
:1009E00070E080E393E00E94F9172FE030E046E0EA
:1009F00050E063E070E087E090E00E946D0260915B
:100A0000F3027091F402072E000C880B990B0E94E0
:100A10002E1B20E030E0A9010E94131A6D837E8313
:100A20008F8398876091120170911301072E000C3B
:100A3000880B990B0E942E1B20E030E0A9010E9438
:100A4000131A69877A878B879C8768E272E080E354
:100A500093E00E94341760911201709113014AE0F3
:100A600050E080E393E00E94F2176CE871E080E3CD
:100A700093E00E9434176091F3027091F4024AE00F
:100A800050E080E393E00E94F917C301B2010E9495
:100A9000F61A7093F8026093F702C501B4010E9440
:100AA000F61A7093170160931601C701B6010E94F0
:100AB000F61A7093F6026093F50269817A818B8150
:100AC0009C810E94F61A70931501609314016D8148
:100AD0007E818F8198850E94F61A7093F40260934C
:100AE000F30269857A858B859C850E94F61A70933E
:100AF00013016093120166E171E08CE090E00E94C6
:100B0000120167EF72E08EE090E00E94120164E152
:100B100071E080E190E00E94120165EF72E082E1F5
:100B200090E00E94120162E171E084E190E00E9495
:100B3000120163EF72E086E190E00E9412016EE321
:100B400072E080E393E00E94471781E08093F20215
:100B50002C960FB6F894DEBF0FBECDBFDF91CF91BC
:100B6000FF90EF90DF90CF90BF90AF909F908F90CD
:100B70007F906F905F904F9008954F925F926F9229
:100B80007F928F929F92AF92BF92CF92DF92EF921D
:100B9000FF920F931F93CF93DF93CDB7DEB72897C4
:100BA0000FB6F894DEBF0FBECDBF2B013C012983E9
:100BB0003A834B835C83ED82FE820F8318876C2D12
:100BC00080910E010E9409156A2D809108010E94F2
:100BD0000915682D809102010E94091560E080913D
:100BE0000C010E94091560E0809106010E94091520
:100BF00060E0809100010E94091539812A819B8162
:100C00008C8149815A816B817C814415550566052B
:100C1000770524F4342D252D962D872D832E922EA5
:100C2000A92EB82E6D817E818F81988586169706B4
:100C3000A806B90614F44B015C01C12CD12C760135
:100C4000C814D904EA04FB040CF050C0C414D50441
:100C5000E604F7042CF461E0809110010E9409156C
:100C600089819A81AB81BC81C816D906EA06FB0648
:100C70002CF461E080910A010E9409154D815E818A
:100C80006F817885C416D506E606F7062CF461E078
:100C9000809104010E9409158091F9029091FA0255
:100CA0000E94531460E0809110010E94091560E0D9
:100CB00080910A010E94091560E0809104010E9460
:100CC00009158091F9029091FA020E94531480E371
:100CD00093E00E9451158A30910511F0019631F48C
:100CE0006FEFC61AD60AE60AF60AAACF61E080912B
:100CF0000C010E94091561E0809106010E9409150E
:100D000061E08091000128960FB6F894DEBF0FBE17
:100D1000CDBFDF91CF911F910F91FF90EF90DF90AA
:100D2000CF90BF90AF909F908F907F906F905F908B
:100D30004F900C9409152F923F924F925F926F92B1
:100D40007F928F929F92AF92BF92CF92DF92EF925B
:100D5000FF920F931F93CF93DF93CDB7DEB76897C2
:100D60000FB6F894DEBF0FBECDBF1C014C8B5D8B60
:100D70006E8B7F8B09871A872B873C87C982DA8223
:100D8000EB82FC82A98A8A8A2DA52B8B8FA5888F5E
:100D900021E02216310409F0A6C06091160170917D
:100DA0001701072E000C880B990B0E942E1B6D83D8
:100DB0007E838F8398876091F7027091F802072EE7
:100DC000000C880B990B0E942E1B6D877E878F87E6
:100DD000988B10920B0310920C0310920D0310923B
:100DE0000E03109207031092080310920903109249
:100DF0000A03109203031092040310920503109249
:100E000006031092FB021092FC021092FD02109257
:100E1000FE0220E030E040E251E46091FB0270917C
:100E2000FC028091FD029091FE020E947F1A87FFD2
:100E300089C081E10E94861400911601109117016A
:100E4000801B910BBC01990F880B990B0E942E1BE4
:100E500020E030E044EB53E40E94E31B6B017C0193
:100E60006091F7027091F802601B710B072E000C65
:100E7000880B990B0E942E1B9B01AC01C701B60188
:100E80000E94841A9B01AC0160910B0370910C03CA
:100E900080910D0390910E030E94131A60930B032F
:100EA00070930C0380930D0390930E0362E070E047
:100EB00080E090E00E941A1420E030E040E85FE318
:100EC0006091FB027091FC028091FD029091FE0204
:100ED0000E94131A6093FB027093FC028093FD0240
:100EE0009093FE0296CF82E02816310499F4609127
:100EF000140170911501072E000C880B990B0E94AC
:100F00002E1B6D837E838F8398876091F50270918D
:100F1000F60255CF23E02216310409F05ACF609132
:100F2000120170911301072E000C880B990B0E947F
:100F30002E1B6D837E838F8398876091F30270915F
:100F4000F4023DCF20E030E040E251E460910B0339
:100F500070910C0380910D0390910E030E94841AEE
:100F60006B017C0120E030E0A9010E94DE1B181615
:100F700024F0F7FAF094F7F8F094C0920B03D092B3
:100F80000C03E0920D03F0920E031092FB021092FC
:100F9000FC021092FD021092FE0220E030E040E2DE
:100FA00051E46091FB027091FC028091FD029091EE
:100FB000FE020E947F1A87FF5AC080E10E948614B9
:100FC0000091140110911501801B910BBC01990F28
:100FD000880B990B0E942E1B20E030E044EB53E479
:100FE0000E94E31B6B017C016091F5027091F60297
:100FF000601B710B072E000C880B990B0E942E1B97
:101000009B01AC01C701B6010E94841A9B01AC018F
:1010100060910703709108038091090390910A037E
:101020000E94131A609307037093080380930903C7
:1010300090930A0362E070E080E090E00E941A144E
:1010400020E030E040E85FE36091FB027091FC0239
:101050008091FD029091FE020E94131A6093FB02A0
:101060007093FC028093FD029093FE0296CF20E0E5
:1010700030E040E251E460910703709108038091F1
:10108000090390910A030E94841A6B017C0120E0FD
:1010900030E0A9010E94DE1B181624F0F7FAF09444
:1010A000F7F8F094C0920703D0920803E092090386
:1010B000F0920A031092FB021092FC021092FD02C1
:1010C0001092FE0220E030E040E251E46091FB0229
:1010D0007091FC028091FD029091FE020E947F1AA5
:1010E00087FF5AC08FE00E94861400911201109170
:1010F0001301801B910BBC01990F880B990B0E9467
:101100002E1B20E030E044EB53E40E94E31B6B0114
:101110007C016091F3027091F402601B710B072E49
:10112000000C880B990B0E942E1B9B01AC01C70180
:10113000B6010E94841A9B01AC0160910303709177
:10114000040380910503909106030E94131A609393
:10115000030370930403809305039093060362E0F6
:1011600070E080E090E00E941A1420E030E040E857
:101170005FE36091FB027091FC028091FD0290910F
:10118000FE020E94131A6093FB027093FC0280938C
:10119000FD029093FE0296CF20E030E040E251E461
:1011A00060910303709104038091050390910603FD
:1011B0000E94841A6B017C0120E030E0A9010E94AA
:1011C000DE1B181624F0F7FAF094F7F8F094C092AA
:1011D0000303D0920403E0920503F09206034090CB
:1011E0000B0350900C0360900D0370900E038090E1
:1011F000170390901803A0901903B0901A03A5014B
:101200009401C301B2010E947F1A87FFBFC0A301EE
:101210009201C501B4010E94121A22EA3EEF4DE884
:101220005BE30E94E31B2CEF39EA41E95FE30E9494
:10123000E31B60932303709324038093250390930F
:1012400026034090070350900803609009037090B4
:101250000A038090130390901403A0901503B0909C
:101260001603A5019401C301B2010E947F1A87FFF2
:10127000B0C0A3019201C501B4010E94121A22EA72
:101280003EEF4DE85BE30E94E31B2CEF39EA41E9B6
:101290005FE30E94E31B60931F037093200380931E
:1012A00021039093220380900F0390901003A0904D
:1012B0001103B0901203A7019601C501B4010E9469
:1012C000DE1BA701960118160CF0A6C0C501B401DB
:1012D0000E94121A22EA3EEF4DE85BE30E94E31BF4
:1012E0002CEF39EA41E95FE30E94E31B60931B03A3
:1012F00070931C0380931D0390931E03512C412C6B
:101300002FEF421A520A29853A854B855C856C89F4
:101310007D898E899F890E94121A4B015C0120E011
:1013200030E0A9010E94DE1B18160CF499C0C5011B
:10133000B40190582AE037ED43EA5BE30E947F1A3C
:1013400087FF91C06AE872E080E393E00E9447174C
:1013500025E04216510409F4B0C168960FB6F8941E
:10136000DEBF0FBECDBFDF91CF911F910F91FF90D8
:10137000EF90DF90CF90BF90AF909F908F907F9035
:101380006F905F904F903F902F900895A50194012A
:10139000C301B2010E94DE1B87FD0EC0A5019401AE
:1013A000C301B2010E94121A20E030E040E251E491
:1013B0000E947F1A87FD2BCFA301920160E070E0AD
:1013C00084EB93E40E94121AA50194010E94131A5F
:1013D00024CFA5019401C301B2010E94DE1B87FD49
:1013E0000EC0A5019401C301B2010E94121A20E0AF
:1013F00030E040E251E40E947F1A87FD3ACFA3011A
:10140000920160E070E084EB93E40E94121AA5015F
:1014100094010E94131A33CFC501B4010E947F1AB0
:1014200018168CF0A5019401C701B6010E94121A8A
:1014300020E030E040E251E40E947F1A87FF03C0C1
:10144000A701960143CFA701960160E070E084EB0D
:1014500093E40E94121AA50194010E94131A3ACF34
:10146000C501B40167CF20E030E041E055E4C5019B
:10147000B4010E94E31B6B017C0181E0281631045A
:1014800009F065C020E030E543EC57E4C701B60140
:101490000E94131A20E030E048EC52E40E94E31B63
:1014A00020E836E948E15BE40E94121A6B017C01F6
:1014B00020E030E0A901C501B4010E94DE1B61E01B
:1014C00018160CF060E089890E94091560E08A898D
:1014D0000E94091520E030E0A901C701B6010E9471
:1014E000DE1B181624F0F7FAF094F7F8F094C70111
:1014F000B6010E94F61A6B017C011C141D041E0427
:101500001F040CF053C061E08B890E940915809183
:10151000F9029091FA020E94531460E08B890E94B4
:1015200009158091F9029091FA020E94531480E308
:1015300093E00E9451158A30910519F0019609F047
:10154000DAC081E0C81AD108E108F108D6CF22E05C
:101550002216310499F420E030E543E458E4C70151
:10156000B6010E94131A20E030E048EC52E40E94D9
:10157000E31B20E836E948E95BE496CF83E02816D0
:10158000310409F095CF20E03CE742E958E4C70177
:10159000B6010E94131A20E030E048EC52E40E94A9
:1015A000E31B20EC31EE44EE5BE47ECF712C61E076
:1015B0008A890E94091568EE73E080E090E00E943D
:1015C0001A140AE010E0C12CD12C7601888D0E94FB
:1015D0008614BC01990F880B990B0E942E1B2D813C
:1015E0003E814F8158850E94121A20E030E044EB82
:1015F00053E40E94E31B4B015C012D813E814F812E
:1016000058856D857E858F8598890E94121A9B0169
:10161000AC01C501B4010E94841A9B01AC01C70151
:10162000B6010E94131A6B017C0162E070E080E059
:1016300090E00E941A140150110941F620E030E0B8
:1016400040E251E4C701B6010E94841A6B017C019B
:1016500020E030E0A9010E94DE1B181624F0F7FA02
:10166000F094F7F8F094A701960169817A818B8153
:101670009C810E94DE1B18160CF040C0A701960149
:1016800069817A818B819C810E94121A22EA3EEF45
:101690004DE85BE30E94E31B2CEF39EA41E95FE38D
:1016A0000E94E31B69877A878B879C87711050CED5
:1016B00085E04816510409F023CE6CE672E080E321
:1016C00093E068960FB6F894DEBF0FBECDBFDF91F2
:1016D000CF911F910F91FF90EF90DF90CF90BF902F
:1016E000AF909F908F907F906F905F904F903F90C2
:1016F0002F900C9447177724739459CFA701960124
:1017000069817A818B819C810E947F1A181684F0EE
:1017100029813A814B815C81C701B6010E94121A6E
:1017200020E030E040E251E40E947F1A87FDA6CF1E
:10173000A701960160E070E084EB93E40E94121A26
:1017400029813A814B815C810E94131A9FCF4F926D
:101750005F926F927F928F929F92AF92BF92CF9241
:10176000DF92EF92FF920F931F934B015C0120E0F9
:101770003CE940EE57E40E947F1A1816D4F120E0AD
:1017800030E543EC57E4C501B4010E94DE1B181696
:1017900084F520E030E543EC57E4C501B4010E9434
:1017A000121A20E030E048EC52E40E94E31B0E9451
:1017B000F61A88248394912CAA24A394B12CCC24C7
:1017C000C394D12CE12CF12C870120E030E0A90159
:1017D0000E94BD051F910F91FF90EF90DF90CF9079
:1017E000BF90AF909F908F907F906F905F904F9041
:1017F000089520E03CE940EE57ECC501B4010E9499
:10180000DE1B87FD23C020E030E543EC57ECC5012B
:10181000B4010E947F1A87FF19C020E030E543EC35
:1018200057E4C501B4010E94131A20E030E048ECEF
:1018300052EC0E94E31B0E94F61A88248394912C98
:10184000AA24A394B12CD12CC12CBCCF20E036EF1C
:1018500041E558E4C501B4010E947F1A181664F1ED
:1018600020E030E543E458E4C501B4010E94DE1BEA
:10187000181614F520E030E543E458E4C501B4013E
:101880000E94121A20E030E048EC52E40E94E31B70
:101890000E94F61A9B01AC0188248394912CAA24FF
:1018A000A394B12CCC24C394D12CE12CF12C87012E
:1018B00060E070E0CB018CCF20E036EF41E558ECE2
:1018C000C501B4010E94DE1B87FD22C020E030E587
:1018D00043E458ECC501B4010E947F1A87FF18C089
:1018E00020E030E543E458E4C501B4010E94131A36
:1018F00020E030E048EC52EC0E94E31B0E94F61A14
:101900009B01AC0188248394912CB12CA12CCACFCB
:1019100020E03FEC49E958E4C501B4010E947F1A78
:1019200018164CF120E03CE742E958E4C501B40147
:101930000E94DE1B1816FCF420E03CE742E958E464
:10194000C501B4010E94121A20E030E048EC52E4D4
:101950000E94E31B0E94F61A88248394912CAA24E7
:10196000A394B12CCC24C394D12C7B018C0120E016
:1019700030E0A9019DCF20E03FEC49E958ECC501DA
:10198000B4010E94DE1B87FD1DC020E03CE742E958
:1019900058ECC501B4010E947F1A87FF13C020E0F4
:1019A0003CE742E958E4C501B4010E94131A20E063
:1019B00030E048EC52EC0E94E31B0E94F61A912C96
:1019C000812CCDCF20E033EA4AEC58E4C501B401C4
:1019D0000E947F1A181644F120E030E543EC58E4E9
:1019E000C501B4010E94DE1B1816F4F420E030E5B6
:1019F00043EC58E4C501B4010E94121A20E030E023
:101A000048EC52E40E94E31B0E94F61A8824839457
:101A1000912CAA24A394B12CCC24C394D12C7B0167
:101A20008C019B01AC01D4CE20E033EA4AEC58ECA7
:101A3000C501B4010E94DE1B87FD21C020E030E516
:101A400043EC58ECC501B4010E947F1A87FF17C010
:101A500020E030E543EC58E4C501B4010E94131ABC
:101A600020E030E048EC52EC0E94E31B0E94F61AA2
:101A7000912C812CB12CA12CD12CC12CD0CF20E0C9
:101A800030E040E251E4C501B4010E94DE1B87FD55
:101A90003BC020E030E048E351E4C501B4010E94BE
:101AA0007F1A18168CF1C0901703D0901803E0909D
:101AB0001903F0901A034090230350902403609080
:101AC00025037090260320E030E040E251E4C50198
:101AD000B4010E94121AAB01BC011F9281E18F93E5
:101AE0001F9289E08F93EAE08E2E912CF8E0AF2EC2
:101AF000B12C9301820181E090E00E949B060F903F
:101B00000F900F900F9066CE20E030E040EA51E455
:101B1000C501B4010E94DE1B87FD35C020E030E026
:101B20004CEA51E4C501B4010E947F1A18165CF119
:101B3000C0901303D0901403E0901503F0901603A7
:101B400040901F0350902003609021037090220367
:101B500020E030E040EA51E4C501B4010E94121ACD
:101B6000AB01BC011F9280E18F931F9284E08F93A1
:101B700025E0822E912C32E0A32EB12C930182011C
:101B800082E090E0BACF20E030E040EF51E4C501C0
:101B9000B4010E94DE1B87FD1DCE20E030E04CEF3B
:101BA00051E4C501B4010E947F1A18160CF412CE3C
:101BB000C0900F03D0901003E0901103F090120337
:101BC00040901B0350901C0360901D0370901E03F7
:101BD00020E030E040EF51E4C501B4010E94121A48
:101BE000AB01BC011F928FE08F931F9286E08F9311
:101BF00087E0882E912C93E0A92EB12C93018201CD
:101C000083E090E07ACF2F923F924F925F926F9253
:101C10007F928F929F92AF92BF92CF92DF92EF927C
:101C2000FF920F931F93CF93DF9300D000D0CDB7D7
:101C3000DEB780E393E00E943715892B79F041E00D
:101C400070E060E080E393E00E946C196093FF0213
:101C50007093000380930103909302036091FF024D
:101C60007091000380910103909102030E94A70BE1
:101C700010920B0310920C0310920D0310920E039E
:101C800010920703109208031092090310920A039E
:101C9000109203031092040310920503109206039E
:101CA0001092FB021092FC021092FD021092FE02B2
:101CB00020E030E040E251E46091FB027091FC02D0
:101CC0008091FD029091FE020E947F1A87FF5AC008
:101CD00081E10E9486140091160110911701801B6A
:101CE000910BBC01990F880B990B0E942E1B20E0D1
:101CF00030E044EB53E40E94E31B6B017C016091F4
:101D0000F7027091F802601B710B072E000C880B14
:101D1000990B0E942E1B9B01AC01C701B6010E94CA
:101D2000841A9B01AC0160910B0370910C038091AC
:101D30000D0390910E030E94131A60930B0370938E
:101D40000C0380930D0390930E0362E070E080E03B
:101D500090E00E941A1420E030E040E85FE36091D8
:101D6000FB027091FC028091FD029091FE020E94A4
:101D7000131A6093FB027093FC028093FD02909310
:101D8000FE0296CF20E030E040E251E460910B0388
:101D900070910C0380910D0390910E030E94841AA0
:101DA0006B017C0120E030E0A9010E94DE1B1816C7
:101DB00024F0F7FAF094F7F8F094C0920B03D09265
:101DC0000C03E0920D03F0920E031092FB021092AE
:101DD000FC021092FD021092FE0220E030E040E290
:101DE00051E46091FB027091FC028091FD029091A0
:101DF000FE020E947F1A87FF5AC080E10E9486146B
:101E00000091140110911501801B910BBC01990FD9
:101E1000880B990B0E942E1B20E030E044EB53E42A
:101E20000E94E31B6B017C016091F5027091F60248
:101E3000601B710B072E000C880B990B0E942E1B48
:101E40009B01AC01C701B6010E94841A9B01AC0141
:101E500060910703709108038091090390910A0330
:101E60000E94131A60930703709308038093090379
:101E700090930A0362E070E080E090E00E941A1400
:101E800020E030E040E85FE36091FB027091FC02EB
:101E90008091FD029091FE020E94131A6093FB0252
:101EA0007093FC028093FD029093FE0296CF20E097
:101EB00030E040E251E460910703709108038091A3
:101EC000090390910A030E94841A6B017C0120E0AF
:101ED00030E0A9010E94DE1B181624F0F7FAF094F6
:101EE000F7F8F094C0920703D0920803E092090338
:101EF000F0920A031092FB021092FC021092FD0273
:101F00001092FE0220E030E040E251E46091FB02DA
:101F10007091FC028091FD029091FE020E947F1A56
:101F200087FF5AC08FE00E94861400911201109121
:101F30001301801B910BBC01990F880B990B0E9418
:101F40002E1B20E030E044EB53E40E94E31B6B01C6
:101F50007C016091F3027091F402601B710B072EFB
:101F6000000C880B990B0E942E1B9B01AC01C70132
:101F7000B6010E94841A9B01AC0160910303709129
:101F8000040380910503909106030E94131A609345
:101F9000030370930403809305039093060362E0A8
:101FA00070E080E090E00E941A1420E030E040E809
:101FB0005FE36091FB027091FC028091FD029091C1
:101FC000FE020E94131A6093FB027093FC0280933E
:101FD000FD029093FE0296CF20E030E040E251E413
:101FE00060910303709104038091050390910603AF
:101FF0000E94841A6B017C0120E030E0A9010E945C
:10200000DE1B181624F0F7FAF094F7F8F094C0925B
:102010000303D0920403E0920503F09206032AE33F
:1020200032EE44E65BE46091FF0270910003809120
:102030000103909102030E947F1A811187C0C09012
:102040000B03D0900C03E0900D03F0900E032AE9EF
:1020500039E142EA53E4C701B6010E94131A4B0169
:102060005C0120E030E044EB53E40E947F1A87FFDC
:10207000D6C289829A82AB82BC82BE016F5F7F4FDB
:1020800090E080E00E94DF00C0900703D09008033A
:10209000E0900903F0900A032AE939E142EA53E4A7
:1020A000C701B6010E94131A4B015C0120E030E029
:1020B00044EB53E40E947F1A87FFBEC289829A8252
:1020C000AB82BC82BE016F5F7F4F84E090E00E94D4
:1020D000DF00C0900303D0900403E0900503F0906C
:1020E00006032AE939E142EA53E4C701B6010E9436
:1020F000131A4B015C0120E030E044EB53E40E94F2
:102100007F1A87FFA6C289829A82AB82BC82BE01F7
:102110006F5F7F4F88E090E00E94DF006BE972E024
:1021200080E393E00E94471767E173E090E080E06E
:102130000E948C0063E173E084E090E00E948C00D8
:102140006FE073E088E090E00E948C0020E63BE1C5
:1021500047EB59E46091FF02709100038091010305
:10216000909102030E947F1A81112AC06BE073E0F4
:1021700090E080E00E94DF0067E073E084E090E0A0
:102180000E94DF0063E073E088E090E00E94DF00DF
:102190006BE972E080E393E00E94471767E173E028
:1021A00090E080E00E948C0063E173E084E090E0C6
:1021B0000E948C006FE073E088E090E00E948C0049
:1021C00020E73BE147EB59E46091FF027091000387
:1021D00080910103909102030E947F1A811162C0D5
:1021E0001A821982BE016F5F7F4F8CE090E00E94DF
:1021F00012010FEF13E01A830983BE016F5F7F4F57
:102200008EE090E00E9412011A821982BE016F5F77
:102210007F4F80E190E00E9412011A830983BE0182
:102220006F5F7F4F82E190E00E9412011A82198253
:10223000BE016F5F7F4F84E190E00E9412011A831C
:102240000983BE016F5F7F4F86E190E00E9412011B
:102250006FE972E080E393E00E94471766E171E066
:102260008CE090E00E94B20067EF72E08EE090E0B8
:102270000E94B20064E171E080E190E00E94B2004F
:1022800065EF72E082E190E00E94B20062E171E0ED
:1022900084E190E00E94B20063EF72E086E190E09A
:1022A0000E94B20028E73BE147EB59E46091FF024E
:1022B0007091000380910103909102030E947F1AA4
:1022C000811102C00E94030428E63BE147EB59E478
:1022D0006091FF02709100038091010390910203CD
:1022E0000E947F1A8111A0C0712C612C6FE0262EF4
:1022F00076E0372EE1E14E2EF9E05F2EC0900F031D
:10230000D0901003E0901103F090120300911B0392
:1023100010911C0320911D0330911E031F922F92D8
:102320001F923F9287E0882E912C93E0A92EB12C2A
:102330004AE959E969E97FE383E090E00E949B065E
:10234000C0900F03D0901003E0901103F09012039F
:1023500000911B0310911C0320911D0330911E035B
:102360001F922F921F923F924DEC5CEC6CE47EE347
:1023700083E090E00E949B06C0901703D090180362
:10238000E0901903F0901A030091230310912403A5
:1023900020912503309126031F924F921F925F9246
:1023A0004AE0842E912C58E0A52EB12C4AE959E937
:1023B00069E97FE381E090E00E949B06C0901703EB
:1023C000D0901803E0901903F0901A0300912303B2
:1023D0001091240320912503309126031F924F92E0
:1023E0001F925F924DEC5CEC6CE47EE381E090E048
:1023F0000E949B0662EB72E080E393E00E94341738
:102400008FEF681A780A4AE050E0B30180E393E066
:102410000E94F9170FB6F894DEBF0FBECDBF94E649
:102420006916710409F06ACF80900B0390900C0339
:10243000A0900D03B0900E03C0901703D090180326
:10244000E0901903F0901A03A7019601C501B401A9
:102450000E947F1A87FF0AC1A5019401C701B60136
:102460000E94121A22EA3EEF4DE85BE30E94E31B52
:102470002CEF39EA41E95FE30E94E31B60932303F9
:102480007093240380932503909326038090070381
:1024900090900803A0900903B0900A03C090130322
:1024A000D0901403E0901503F0901603A701960155
:1024B000C501B4010E947F1A87FFFBC0A5019401EA
:1024C000C701B6010E94121A22EA3EEF4DE85BE313
:1024D0000E94E31B2CEF39EA41E95FE30E94E31B12
:1024E00060931F0370932003809321039093220332
:1024F0008090030390900403A0900503B09006031E
:10250000C0900F03D0901003E0901103F0901203DD
:10251000A7019601C501B4010E947F1A87FFECC094
:10252000A5019401C701B6010E94121A22EA3EEFEA
:102530004DE85BE30E94E31B2CEF39EA41E95FE3DE
:102540000E94E31B60931B0370931C0380931D0385
:1025500090931E0369EB72E080E393E00E943417CE
:102560004091230350912403609125037091260329
:1025700023E030E080E393E00E9402196FEC72E008
:1025800080E393E00E94341740911F035091200391
:10259000609121037091220323E030E080E393E017
:1025A0000E9402196FEC72E080E393E00E943417FE
:1025B00040911B0350911C0360911D0370911E03F9
:1025C00023E030E080E393E00E9402196FEC72E0B8
:1025D00080E393E00E9447171092FF0210920003DD
:1025E000109201031092020380E393E00E94A4156D
:1025F0000F900F900F900F90DF91CF911F910F913F
:10260000FF90EF90DF90CF90BF90AF909F908F9012
:102610007F906F905F904F903F902F90089523E3AD
:1026200033E34FE052E4C701B6010E94121A6983F6
:102630007A838B839C8321CD23E333E34FE052E401
:10264000C701B6010E94121A69837A838B839C8327
:1026500039CD23E333E34FE052E4C701B6010E94D2
:10266000121A69837A838B839C8351CDA7019601CB
:10267000C501B4010E94DE1B87FD0EC0A7019601B3
:10268000C501B4010E94121A20E030E040E251E49A
:102690000E947F1A87FDE0CEA501940160E070E002
:1026A00084EB93E40E94121AA70196010E94131A68
:1026B000D9CEA7019601C501B4010E94DE1B87FD9A
:1026C0000EC0A7019601C501B4010E94121A20E0B4
:1026D00030E040E251E40E947F1A87FDEFCEA50171
:1026E000940160E070E084EB93E40E94121AA70169
:1026F00096010E94131AE8CEA7019601C501B40104
:102700000E94DE1B87FD0EC0A7019601C501B40122
:102710000E94121A20E030E040E251E40E947F1A49
:1027200087FDFECEA501940160E070E084EB93E4A8
:102730000E94121AA70196010E94131AF7CE1F9247
:102740000F920FB60F9211242F933F938F939F9365
:10275000AF93BF9380912C0390912D03A0912E03F2
:10276000B0912F0330912B0323E0230F2D3768F115
:1027700026E8230F0296A11DB11D20932B03809301
:102780002C0390932D03A0932E03B0932F038091DD
:10279000270390912803A0912903B0912A03019661
:1027A000A11DB11D8093270390932803A0932903B3
:1027B000B0932A03BF91AF919F918F913F912F9139
:1027C0000F900FBE0F901F9018950196A11DB11D7F
:1027D000D4CF2FB7F89460912C0370912D03809182
:1027E0002E0390912F032FBF08953FB7F894809147
:1027F000270390912803A0912903B0912A0326B5BD
:10280000A89B05C02F3F19F00196A11DB11D3FBF28
:10281000BA2FA92F982F8827BC01CD01620F711DF7
:10282000811D911D42E0660F771F881F991F4A95F1
:10283000D1F708958F929F92AF92BF92CF92DF927D
:10284000EF92FF926B017C010E94F5134B015C013A
:10285000C114D104E104F104E9F00E94111A0E94AC
:10286000F513681979098A099B09683E7340810547
:10287000910570F321E0C21AD108E108F10888EE51
:10288000880E83E0981EA11CB11CC114D104E10480
:10289000F10429F7FF90EF90DF90CF90BF90AF90B9
:1028A0009F908F9008958230910538F0880F991F7E
:1028B000880F991F05970197F1F70895789484B5CB
:1028C000836084BD85B5836085BDEEE6F0E08081E0
:1028D00081608083E1E8F0E082E080838081816034
:1028E0008083E0E8F0E0808181608083E1EBF0E0CC
:1028F000808184608083E0EBF0E080818160808370
:1029000087E880937A001092C1000895883020F003
:102910008D3008F48DE08E502091180190E4299FAD
:10292000900111248770822B80937C0080917A0023
:10293000806480937A0080917A0086FDFCCF80913C
:102940007800909179000895843081F028F48230E5
:10295000E9F08330F9F00895883071F0893091F012
:102960008530B9F4809180008F7D03C08091800014
:102970008F778093800008958091B0008F77809347
:10298000B00008958091B0008F7DF9CF84B58F7726
:1029900084BD089584B58F7DFBCFCF93DF9390E006
:1029A000FC01E158FF4F24918A569F4FFC0184910E
:1029B0008823C9F090E0880F991FFC01E954FF4F6C
:1029C000A591B491FC01E355FF4FC591D4916111DC
:1029D0000DC09FB7F8948C91209582238C938881A9
:1029E000282328839FBFDF91CF910895623051F44F
:1029F0009FB7F8943C91822F809583238C93E88134
:102A00002E2BEFCF8FB7F894EC912E2B2C938FBFFA
:102A1000EACF1F93CF93DF93282F30E0F901E859D5
:102A2000FF4F8491F901E158FF4FD491F901EA5623
:102A3000FF4FC491CC23A9F0162F81110E94A4143A
:102A4000EC2FF0E0EE0FFF1FE355FF4FA591B4917F
:102A50008FB7F894EC91111108C0D095DE23DC9368
:102A60008FBFDF91CF911F910895DE2BF8CFFC012E
:102A7000918D228D892F90E0805C9F4F821B910960
:102A80008F7399270895FC01918D828D981731F0ED
:102A9000828DE80FF11D858D90E008958FEF9FEFF7
:102AA0000895FC01918D828D981761F0A28DAE0F73
:102AB000BF2FB11D5D968C91928D9F5F9F73928FFA
:102AC00090E008958FEF9FEF0895FC01538D448DA2
:102AD000252F30E0842F90E0821B930B541710F0C9
:102AE000CF9608950197089581EC96E1892B49F0DE
:102AF00080E090E0892B29F00E94C11681110C948E
:102B000000000895FC01A48DA80FB92FB11DA35A90
:102B1000BF4F2C91848D90E001968F739927848FFD
:102B2000A689B7892C93A089B1898C918370806420
:102B30008C93938D848D981306C00288F389E02DC1
:102B400080818F7D80830895CF93DF93EC01888D02
:102B50008823B9F0AA89BB89E889F9898C9185FD18
:102B600003C0808186FD0DC00FB607FCF7CF8C91A6
:102B700085FFF2CF808185FFEDCFCE010E948215C7
:102B8000E9CFDF91CF910895EF92FF920F931F93BA
:102B9000CF93DF93EC0181E0888F9B8D8C8D981310
:102BA0001AC0E889F989808185FF15C09FB7F8941C
:102BB000EE89FF896083E889F98980818370806468
:102BC00080839FBF81E090E0DF91CF911F910F91B3
:102BD000FF90EF900895F62E0B8D10E00F5F1F4FC2
:102BE0000F731127E02E8C8D8E110CC00FB607FCD1
:102BF000FACFE889F989808185FFF5CFCE010E945F
:102C00008215F1CFEB8DEC0FFD2FF11DE35AFF4F35
:102C1000F0829FB7F8940B8FEA89FB8980818062EC
:102C2000CFCFCF92DF92EF92FF921F93CF93DF939C
:102C3000EC016A017B01122FE889F98982E0808327
:102C4000C11481EED806E104F104A1F060E079E05E
:102C50008DE390E0A70196010E94551C2150310997
:102C6000410951095695479537952795211580E1DA
:102C7000380798F0E889F989108260E874E88EE1F5
:102C800090E0A70196010E94551C2150310941098D
:102C900051095695479537952795EC85FD853083E5
:102CA000EE85FF852083188EEC89FD891083EA89E3
:102CB000FB89808188698083EA89FB8980818F7D97
:102CC0008083DF91CF911F91FF90EF90DF90CF90A5
:102CD00008951F920F920FB60F9211242F938F9386
:102CE0009F93EF93FF93E0914003F0914103808124
:102CF000E0914603F091470382FD1BC090818091D3
:102D000049038F5F8F7320914A03821741F0E0914E
:102D10004903F0E0E05DFC4F958F80934903FF91FC
:102D2000EF919F918F912F910F900FBE0F901F9059
:102D300018958081F4CF1F920F920FB60F92112435
:102D40002F933F934F935F936F937F938F939F93B3
:102D5000AF93BF93EF93FF9380E393E00E948215BC
:102D6000FF91EF91BF91AF919F918F917F916F9163
:102D70005F914F913F912F910F900FBE0F901F9039
:102D8000189580E393E00E94371521E0892B09F420
:102D900020E0822F0895E0E3F3E01382128288EEB0
:102DA00093E0A0E0B0E084839583A683B78385EDAC
:102DB00092E09183808385EC90E09587848784EC12
:102DC00090E09787868780EC90E0918B808B81ECF8
:102DD00090E0938B828B82EC90E0958B848B86ECD9
:102DE00090E0978B868B118E128E138E148E089521
:102DF000AF92BF92CF92DF92EF92FF920F931F9309
:102E0000CF93DF936C017B018B01040F151FEB0146
:102E10005E01AE18BF08C017D10759F06991D601FD
:102E2000ED91FC910190F081E02DC6010995892B6F
:102E300079F7C501DF91CF911F910F91FF90EF902E
:102E4000DF90CF90BF90AF900895FB0101900020DC
:102E5000E9F73197AF01461B570BDC01ED91FC916F
:102E60000280F381E02D09946115710511F00C9435
:102E7000251790E080E00895DC01ED91FC91019030
:102E8000F081E02D099463EE72E00C9425170F9306
:102E90001F93CF93DF938C01D0E0C0E061157105E3
:102EA00019F00E942517EC01C8010E9443178C0FEE
:102EB0009D1FDF91CF911F910F9108958F929F9247
:102EC000AF92BF92EF92FF920F931F93CF93DF9336
:102ED000CDB7DEB7A1970FB6F894DEBF0FBECDBF5A
:102EE0007C01FA01CB0119A2223008F42AE08E01FC
:102EF0000F5D1F4F822E912CB12CA12CBF01A5017B
:102F000094010E94551CF901CA016A300CF5605DFC
:102F1000D8016E938D01232B242B252B79F790E07C
:102F200080E0109721F0BD01C7010E942517A196EE
:102F30000FB6F894DEBF0FBECDBFDF91CF911F91CA
:102F40000F91FF90EF90BF90AF909F908F9008955A
:102F5000695CDECFCF92DF92EF92FF920F931F93C7
:102F6000CF93DF932115310581F4DC01ED91FC91C4
:102F70000190F081E02D642FDF91CF911F910F918F
:102F8000FF90EF90DF90CF9009942A30310501F542
:102F90002AE077FF1DC06A017B01EC016DE20E940F
:102FA0003C178C0144275527BA014C195D096E095D
:102FB0007F092AE0CE010E945E17800F911FDF91EA
:102FC000CF911F910F91FF90EF90DF90CF900895D8
:102FD000DF91CF911F910F91FF90EF90DF90CF90F5
:102FE0000C945E179A01AB01770F660B770B0C946C
:102FF000AA170F931F93CF93DF93EC010E94F21750
:103000008C01CE010E944317800F911FDF91CF9159
:103010001F910F9108952115310541F4DC01ED91C7
:10302000FC910190F081E02D642F09940C945E17BF
:103030009A01AB0170E060E00C940B182F923F9264
:103040004F925F926F927F928F929F92AF92BF92B8
:10305000CF92DF92EF92FF921F93CF93DF93EC0119
:103060006A017B01722EAB019601CB01B6010E9471
:10307000501C66EE72E0811126C046015701E894AB
:10308000B7F82FEF3FEF4FE75FE7C501B4010E94AC
:10309000501C81110CC02FEF3FEF4FE75FE7C501D8
:1030A000B4010E947F1A6AEE72E0181664F02FEFE6
:1030B0003FEF4FE75FE4C701B6010E94DE1B181621
:1030C000B4F46EEE72E0CE01DF91CF911F91FF90CC
:1030D000EF90DF90CF90BF90AF909F908F907F90B8
:1030E0006F905F904F903F902F900C9425172FEF8B
:1030F0003FEF4FE75FECC701B6010E947F1A87FDE3
:10310000E0CF20E030E0A901C701B6010E947F1A9C
:10311000312C212C87FF09C06DE2CE010E943C17A3
:103120001C01F7FAF094F7F8F09410E060E070E01A
:1031300080E09FE3711641F020E030E040E251E48E
:103140000E94841A1F5FF6CFA70196010E94131AEE
:103150002B013C010E94FD1A4B015C012AE0BC01DD
:10316000A401CE010E945E177C01E20CF31C112326
:10317000B1F1C501B4010E942C1B9B01AC01C3013C
:10318000B2010E94121A4B015C016EE2CE010E9454
:103190003C17E80EF91E115010F120E030E040E23B
:1031A00051E4C501B4010E94E31B2B013C010E94C4
:1031B000FD1A4B014AE050E0CE010E941818E80EBB
:1031C000F91EB40190E080E00E942C1B9B01AC0131
:1031D000C301B2010E94121A4B015C01DCCFC7018E
:1031E000DF91CF911F91FF90EF90DF90CF90BF9034
:1031F000AF909F908F907F906F905F904F903F9097
:103200002F9008950C941E180F931F93CF93DF9364
:10321000EC010E94E913688779878A879B87E88198
:10322000F9810484F585E02DCE01099597FF15C03D
:103230000E94E913088519852A853B85601B710B5F
:10324000820B930B0C811D812E813F8160177107CA
:103250008207930720F38FEF9FEFDF91CF911F91AC
:103260000F910895FF920F931F93CF93DF93EC017B
:103270008B01F42ECE010E94041997FD1DC08D32E2
:103280009105D1F09C01205331092A303105A0F07D
:10329000FF2019F08E32910579F00130110551F0BF
:1032A0000230110589F48D30910571F05CF40997B5
:1032B000029750F08FEF9FEFDF91CF911F910F9109
:1032C000FF9008958097B1F7E881F9810284F38532
:1032D000E02DCE010995CECF4F925F926F927F92F3
:1032E000AF92BF92CF92DF92EF92FF920F931F9314
:1032F000CF93DF935C01042F41E00E943219FC015F
:1033000060E070E0CB01F7FD69C0412C512C80E8F2
:10331000682E8FE3782EC12CD12C7601C0E0D0E04E
:10332000002E000C110B0E171F0759F1ED32F1059D
:1033300009F463C0EE32F10509F461C0CF01C09712
:103340000A97F8F4AAE0B0E0A70196010E947D1C5C
:103350006F01FF0FEE08FF08C60ED71EE81EF91E0C
:1033600080E3C81AD108E108F108CC2351F02DEC14
:103370003CEC4CEC5DE3C301B2010E94E31B2B016A
:103380003C01D501ED91FC910284F385E02DC5014E
:103390000995C5010E940419FC01C0970A9718F20B
:1033A000EE32F10519F4CC2309F4BDCF0E171F0737
:1033B00009F4B9CFDD2341F0F094E094D094C094A7
:1033C000C11CD11CE11CF11CC701B6010E942E1BBF
:1033D000CC2321F0A30192010E94E31BDF91CF9146
:1033E0001F910F91FF90EF90DF90CF90BF90AF9023
:1033F0007F906F905F904F900895D1E0C2CFC1E071
:10340000C0CF08950E945E140E94011A0E943901E3
:10341000C4E7D5E10E94030E2097E1F30E947415E2
:10342000F9CF08955058BB27AA270E942A1A0C9456
:10343000A41B0E94961B38F00E949D1B20F039F4BB
:103440009F3F19F426F40C94931B0EF4E095E7FBD0
:103450000C948D1BE92F0E94B51B58F3BA17620715
:1034600073078407950720F079F4A6F50C94D71B11
:103470000EF4E0950B2EBA2FA02D0B01B90190018F
:103480000C01CA01A0011124FF27591B99F0593FD3
:1034900050F4503E68F11A16F040A22F232F342F1B
:1034A0004427585FF3CF469537952795A795F04069
:1034B0005395C9F77EF41F16BA0B620B730B840B7E
:1034C000BAF09150A1F0FF0FBB1F661F771F881F36
:1034D000C2F70EC0BA0F621F731F841F48F487958E
:1034E00077956795B795F7959E3F08F0B0CF939580
:1034F000880F08F09927EE0F9795879508950E94F9
:10350000691B08F481E008950E94981A0C94A41B8A
:103510000E949D1B58F00E94961B40F029F45F3FCB
:1035200029F00C948D1B51110C94D81B0C94931BF7
:103530000E94B51B68F39923B1F3552391F3951BB2
:10354000550BBB27AA2762177307840738F09F5FC4
:103550005F4F220F331F441FAA1FA9F335D00E2E31
:103560003AF0E0E832D091505040E695001CCAF79E
:103570002BD0FE2F29D0660F771F881FBB1F261761
:1035800037074807AB07B0E809F0BB0B802DBF0138
:10359000FF2793585F4F3AF09E3F510578F00C9407
:1035A0008D1B0C94D81B5F3FE4F3983ED4F38695B3
:1035B00077956795B795F7959F5FC9F7880F911D28
:1035C0009695879597F90895E1E0660F771F881F14
:1035D000BB1F621773078407BA0720F0621B730BC7
:1035E000840BBA0BEE1F88F7E09508950E94FD1A30
:1035F0006894B1110C94D81B08950E94BD1B88F0EB
:103600009F5798F0B92F9927B751B0F0E1F0660FA6
:10361000771F881F991F1AF0BA95C9F714C0B130E7
:1036200091F00E94D71BB1E008950C94D71B672F2F
:10363000782F8827B85F39F0B93FCCF38695779516
:103640006795B395D9F73EF49095809570956195FF
:103650007F4F8F4F9F4F0895E89409C097FB3EF42A
:1036600090958095709561957F4F8F4F9F4F9923CF
:10367000A9F0F92F96E9BB279395F695879577954D
:103680006795B795F111F8CFFAF4BB0F11F460FF0D
:103690001BC06F5F7F4F8F4F9F4F16C0882311F065
:1036A00096E911C0772321F09EE8872F762F05C079
:1036B000662371F096E8862F70E060E02AF09A9514
:1036C000660F771F881FDAF7880F9695879597F909
:1036D0000895990F0008550FAA0BE0E8FEEF1616A3
:1036E0001706E807F907C0F012161306E407F507F6
:1036F00098F0621B730B840B950B39F40A2661F06A
:10370000232B242B252B21F408950A2609F4A1400C
:10371000A6958FEF811D811D089597F99F6780E819
:1037200070E060E008959FEF80EC089500240A9413
:103730001616170618060906089500240A9412168C
:103740001306140605060895092E0394000C11F4BF
:10375000882352F0BB0F40F4BF2B11F460FF04C06C
:103760006F5F7F4F8F4F9F4F089557FD9058440FC5
:10377000551F59F05F3F71F04795880F97FB991FD0
:1037800061F09F3F79F0879508951216130614068D
:10379000551FF2CF4695F1DF08C01616170618061A
:1037A000991FF1CF86957105610508940895E894F5
:1037B000BB2766277727CB0197F908950E94691BDD
:1037C00008F48FEF08950E94F61B0C94A41B0E942E
:1037D000961B38F00E949D1B20F0952311F00C944D
:1037E0008D1B0C94931B11240C94D81B0E94B51BA9
:1037F00070F3959FC1F3950F50E0551F629FF00144
:10380000729FBB27F00DB11D639FAA27F00DB11D5C
:10381000AA1F649F6627B00DA11D661F829F2227E5
:10382000B00DA11D621F739FB00DA11D621F839F6C
:10383000A00D611D221F749F3327A00D611D231F42
:10384000849F600D211D822F762F6A2F11249F5790
:1038500050409AF0F1F088234AF0EE0FFF1FBB1F93
:10386000661F771F881F91505040A9F79E3F510552
:1038700080F00C948D1B0C94D81B5F3FE4F3983EB2
:10388000D4F3869577956795B795F795E7959F5FFC
:10389000C1F7FE2B880F911D9695879597F908958E
:1038A0000E94691B880B990B0895A1E21A2EAA1B8E
:1038B000BB1BFD010DC0AA1FBB1FEE1FFF1FA217E0
:1038C000B307E407F50720F0A21BB30BE40BF50BDD
:1038D000661F771F881F991F1A9469F76095709566
:1038E000809590959B01AC01BD01CF010895EE0F2D
:1038F000FF1F0590F491E02D09940E94881CA59F5C
:10390000900DB49F900DA49F800D911D11240895DA
:10391000A29FB001B39FC001A39F700D811D112410
:10392000911DB29F700D811D1124911D0895F9996B
:10393000FECF92BD81BDF89A992780B50895262FB4
:10394000F999FECF1FBA92BD81BD20BD0FB6F89484
:0E395000FA9AF99A0FBE01960895F894FFCFE7
:10395E000700030006000500020004000A0008002C
:10396E000900FF03FF03FF03015374617274696E54
:10397E006720656E636F6465722063616C69627245
:10398E006174696F6E2E2E2E0043616C69627261D6
:10399E0074696E6720456E636F64657220312E2EDA
:1039AE002E00456E636F6465722031202D204361B9
:1039BE006C6962726174696F6E206974657261748C
:1039CE00696F6E3A2000456E636F64657220312018
:1039DE002D205265616C4D696E3A20002C20526587
:1039EE00616C4D61783A200043616C69627261745A
:1039FE00696E6720456E636F64657220322E2E2EBF
:103A0E0000456E636F6465722032202D2043616C19
:103A1E006962726174696F6E20697465726174692E
:103A2E006F6E3A2000456E636F6465722032202DF2
:103A3E00205265616C4D696E3A200043616C69627B
:103A4E00726174696E6720456E636F6465722033B0
:103A5E002E2E2E00456E636F6465722033202D204E
:103A6E0043616C6962726174696F6E20697465720C
:103A7E006174696F6E3A2000456E636F64657220E3
:103A8E0033202D205265616C4D696E3A20004361E2
:103A9E006C6962726174696F6E20636F6D706C65B4
:103AAE0074652E2056616C7565732073617665643E
:103ABE0020746F20454550524F4D2E004D61782099
:103ACE00617474656D70747320726561636865648A
:103ADE002C2065786974696E6700506F736974691C
:103AEE006F6E2072656163686564005053450045D2
:103AFE006E636F646572204D696E2F4D6178205331
:103B0E0045004C6F6F703A200057616E64657265A8
:103B1E0072455441353441323032353033313741CC
:103B2E000000000000C415F8166515A415371551D0
:103B3E001543150D0A006E616E00696E66006F7694
:023B4E0066000F
:00000001FF
