:100000000C9462000C948A000C948A000C948A0070
:100010000C948A000C948A000C948A000C948A0038
:100020000C948A000C948A000C948A000C948A0028
:100030000C948A000C948A000C948A000C948A0018
:100040000C94950C0C948A000C94580F0C948A0F05
:100050000C948A000C948A000C948A000C948A00F8
:100060000C948A000C948A0000000009000302002E
:10007000000405080000000000000000000000016E
:10008000020408102040800102040810200102042C
:100090000810204080400404040404040404020204
:1000A000020202020303030303030202030000002F
:1000B00000250028002B0000000000240027002A53
:1000C0000000BA0F11241FBECFEFD4E0DEBFCDBFBA
:1000D00011E0A0E0B1E0E8ECFAE202C005900D9278
:1000E000AA34B107D9F722E0AAE4B1E001C01D9219
:1000F000AC31B207E1F710E0C2E6D0E004C02197CE
:10010000FE010E942C15C136D107C9F70E94AB121F
:100110000C9462150C9400000C944C150C9454151E
:10012000CF92DF92EF92FF920F931F93CF93DF93C3
:1001300061E083E00E94C30D61E082E00E94C30D94
:1001400061E084E00E94C30D61E083E00E94FF0D46
:1001500062E083E10E94C30D26E040E05BE460E0E2
:1001600070E08FE791E00E94000F109271011092F1
:100170007001C0910001D0910101CE0101970E9450
:100180008C0090E09093570180935601CE010E941D
:100190008C0090E09093590180935801CE01019614
:1001A0000E948C0090E090935B0180935A01CE01F5
:1001B00002960E948C0090E090935D0180935C0118
:1001C000CE0103960E948C0090E090935F01809393
:1001D0005E01CE0104960E948C0090E09093610134
:1001E00080936001CE0105960E948C0090E0909370
:1001F0005501809354018E010A5F1F4FC8010E9470
:100200008C006AE00E94FE14682F70E090E080E0AD
:100210000E94D7136B017C01C0925001D092510112
:10022000E0925201F0925301CE0108960E948C0098
:1002300090E090934B0180934A0120E030E040E44D
:1002400050E4C701B6010E948714181684F480E0B8
:1002500090E0A0E0BFE38093500190935101A09300
:100260005201B093530165E0C8010E948E00C09115
:100270000001D09101012796CE010E948C0090E0F0
:1002800082309105F4F490934F0180934E01809158
:100290004A0190914B010297FCF010924B01109291
:1002A0004A01809100019091010160E00896DF9180
:1002B000CF911F910F91FF90EF90DF90CF900C9412
:1002C0008E0081E090E090934F0180934E0161E0B9
:1002D000CE010E948E00DBCFDF91CF911F910F9155
:1002E000FF90EF90DF90CF9008952F923F924F9222
:1002F0005F926F927F928F929F92AF92BF92CF92B6
:10030000DF92EF92FF920F931F93CF93DF9300D072
:1003100000D000D0CDB7DEB710924D0110924C0145
:1003200020910001309101013A832983C90101978D
:100330000E948C0090E09093570180935601898130
:100340009A810E948C0090E090935901809358010B
:1003500089819A8101960E948C0090E090935B01C4
:1003600080935A0189819A8102960E948C0090E0C4
:1003700090935D0180935C0189819A8103960E942C
:100380008C0090E090935F0180935E0189819A8157
:1003900004960E948C0090E090936101809360012C
:1003A00089819A8105960E948C0090E09093550176
:1003B0008093540189819A8106960E948C00682F4F
:1003C00070E090E080E00E94D71320E030E040E24F
:1003D00051E40E942D13609350017093510180935A
:1003E00052019093530189819A8107960E948C0053
:1003F00090E090934F0180934E0189819A810896F5
:100400000E948C0090E090934B0180934A011092DF
:1004100064011092650110926601109267011092BA
:100420006C0110926D0110926E0110926F0120E02C
:1004300030E040EA51E460916C0170916D0180916F
:100440006E0190916F010E94281387FF4AC083E1DB
:100450000E947C0DBC01990F880B990B0E94D71349
:1004600020E030E040EA50E40E948C1420E030E0CC
:1004700040E85AE30E948C1429E831E440E450E457
:100480000E948C149B01AC01609164017091650124
:1004900080916601909167010E94BC126093640193
:1004A00070936501809366019093670184E690E004
:1004B0000E94490D20E030E040E85FE360916C016C
:1004C00070916D0180916E0190916F010E94BC123C
:1004D00060936C0170936D0180936E0190936F0136
:1004E000A6CF20E030E040EA51E4609164017091D1
:1004F000650180916601909167010E942D136B0147
:100500007C0120E030E0A9010E948714181624F035
:10051000F7FAF094F7F8F094C0926801D09269016C
:10052000E0926A01F0926B018FE791E00E942D0E3C
:10053000892B79F041E070E060E08FE791E00E9464
:1005400049126093720170937301809374019093C8
:1005500075018091720190917301A0917401B09125
:100560007501803231EA930737E0A307B1050CF03B
:1005700062C184E690E09093630180936201809170
:10058000720190917301A0917401B0917501AC0159
:10059000BD014052514A67407109413452446F4095
:1005A000710590F420E530E03093630120936201FF
:1005B00080549244AF40B1098093720190937301CB
:1005C000A0937401B09375018091720190917301B1
:1005D000A0917401B09175018236934EA641B10588
:1005E00009F04BC0809100019091010160E00197FA
:1005F0000E948E0060E080910001909101010E94B4
:100600008E00809100019091010160E001960E94AE
:100610008E00809100019091010160E002960E949D
:100620008E00809100019091010160E003960E948C
:100630008E00809100019091010160E004960E947B
:100640008E00809100019091010161E005960E9469
:100650008E00109259011092580110925B01109275
:100660005A0110925D0110925C0110925F0110928C
:100670005E011092610110926001609172017091AF
:10068000730180917401909175018B019C011A5640
:10069000284131090F3111052105310528F50E9446
:1006A000D71320E030E543EC59E40E94BB1220E070
:1006B00030E040E251E40E942D13609350017093AA
:1006C0005101809352019093530120E030E040E2C9
:1006D00051E40E948C140E94A61380910001909115
:1006E000010106960E948E00809172019091730123
:1006F000A0917401B0917501813A904FA941B10563
:1007000071F481E090E090934B0180934A018091D5
:1007100000019091010161E008960E948E00809195
:10072000720190917301A0917401B0917501803AAA
:10073000904FA941B10561F410924B0110924A010A
:10074000809100019091010160E008960E948E0066
:100750008091720190917301A0917401B091750123
:100760000197A109B1098032914AA740B105B0F4BF
:1007700020E030E040E351E460916801709169014C
:1007800080916A0190916B010E94281387FF21C11B
:1007900065E271E08FE791E00E943610809172016E
:1007A00090917301A0917401B0917501803E9E45B6
:1007B000A84FBF4FB0F020E030E040E351E460913B
:1007C00068017091690180916A0190916B010E94AA
:1007D000281387FFD0C465E271E08FE791E00E94A3
:1007E00036101092720110927301109274011092DF
:1007F00075018FE791E00E94990E64E670E080E059
:1008000090E026960FB6F894DEBF0FBECDBFDF9105
:10081000CF911F910F91FF90EF90DF90CF90BF90FD
:10082000AF909F908F907F906F905F904F903F9090
:100830002F900C94100D8136934EA641B10509F00E
:100840009ECE63E071E08FE791E00E9423108091DB
:10085000540190915501892B31F463E271E08FE7E7
:1008600091E00E942310609156017091570161152B
:10087000710531F480914C0190914D01019761F423
:100880004AE050E08FE791E00E94E11081E090E0C3
:1008900090934D0180934C016091580170915901E2
:1008A0006115710531F480914C0190914D010197D2
:1008B00061F44AE050E08FE791E00E94E11081E0AE
:1008C00090E090934D0180934C0160915A0170919A
:1008D0005B016115710531F480914C0190914D01DE
:1008E000019761F44AE050E08FE791E00E94E11047
:1008F00081E090E090934D0180934C0160915C0108
:1009000070915D016115710531F480914C019091F8
:100910004D01019761F44AE050E08FE791E00E94B9
:10092000E11081E090E090934D0180934C01609143
:100930005E0170915F016115710531F480914C0188
:1009400090914D01019761F44AE050E08FE791E00A
:100950000E94E11081E090E090934D0180934C0162
:1009600060916001709161014AE050E08FE791E091
:100970000E94E11061E271E08FE791E00E94231094
:100980004091500150915101609152017091530179
:1009900022E030E08FE791E00E94DF1161E271E038
:1009A0008FE791E00E94231060914A0170914B0102
:1009B0004AE050E08FE791E00E94E11061E271E0CF
:1009C0008FE791E00E94361010924D0110924C0179
:1009D000D6CD80914A0190914B0161E0892B09F0BD
:1009E00060E084E00E94FF0D60E083E00E94FF0D64
:1009F00080914E0190914F01892B09F048C020E071
:100A000030EE45E954E460915001709151018091BC
:100A10005201909153010E948C1460936C01709369
:100A20006D0180936E0190936F0120E030E0A90189
:100A300060916C0170916D0180916E0190916F01D8
:100A40000E94871418161CF561E082E00E94FF0DD9
:100A500080916201909163010E94490D60E082E003
:100A60000E94FF0D80916201909163010E94490DE7
:100A700020E030E040E85FE360916C0170916D012F
:100A800080916E0190916F010E94BB12C6CF609160
:100A900072017091730180917401909175010E94AF
:100AA000D71360936C0170936D0180936E019093E6
:100AB0006F01812C912C540120E030E0A90160915C
:100AC0006C0170916D0180916E0190916F010E9497
:100AD000871418160CF043C061E082E00E94FF0DFD
:100AE00080916201909163010E94490D60E082E073
:100AF0000E94FF0D80916201909163010E94490D57
:100B00008FE791E00E94470E9A83898320E030E0CE
:100B100040E85FE3C501B4010E94BC124B015C01D7
:100B200049815A814A30510519F04F3F5F4FB9F45E
:100B300020E030E040E85FE360916C0170916D016E
:100B400080916E0190916F010E94BB1260936C01C5
:100B500070936D0180936E0190936F01ADCF61E052
:100B600083E00E94FF0D20E030EE45E954E4C5012A
:100B7000B4010E942D13AB01BC0122E030E08FE7ED
:100B800091E00E94DF1161E271E08FE791E00E9445
:100B9000231068EE73E080E090E00E94100DC0909A
:100BA0000001D090010195E0C90ED11CC6010E9440
:100BB0008C00E0905601F09057010091580110917F
:100BC000590120915A0130915B013E832D83209081
:100BD0005C0130905D0140915E0150915F015A834C
:100BE000498320916001309161013C832B838130E6
:100BF00009F03AC2B701FF0C880B990B0E94D7137A
:100C000020E030E04AE754E40E948C142B013C01C0
:100C1000B801110F880B990B0E94D71320E030E028
:100C200048EC52E40E948C149B01AC01C301B20158
:100C30000E94BC122B013C014D815E81BA01550F0F
:100C4000880B990B0E94D71320E030E040E251E47A
:100C50000E948C149B01AC01C301B2010E94BC1222
:100C60002B013C01B101330C880B990B0E94D71367
:100C70009B01AC01C301B2010E94BC122B013C01DB
:100C800029813A81B901330F880B990B0E94D71340
:100C900020E030E040E251E40E942D139B01AC01C2
:100CA000C301B2010E94BC122B013C014B815C814B
:100CB000BA01550F880B990B0E94D71320E030E042
:100CC00048EC52E40E942D139B01AC01C301B20118
:100CD0000E94BC122B013C0120E030E040E251E4D4
:100CE000C501B4010E948C1420E030EE45E954E4C3
:100CF0000E942D139B01AC01C301B2010E94BC12E2
:100D00004B015C0120E030E0A9010E94281387FF1D
:100D100004C060E0C6010E948E0020E030E0A9011E
:100D2000C501B4010E94871487FD08C080910001AD
:100D30009091010161E005960E948E0020E030E074
:100D4000A901C501B4010E948714181624F0B7FA4E
:100D5000B094B7F8B09420E030E04AE754E4C5011D
:100D6000B4010E942D130E949F136B0170935701D1
:100D700060935601072E000C880B990B0E94D71325
:100D800020E030E04AE754E40E948C149B01AC015F
:100D9000C501B4010E94BB124B015C0120E030E0B0
:100DA00048EC52E40E942D130E949F137093590146
:100DB00060935801072E000C880B990B0E94D713E3
:100DC00020E030E048EC52E40E948C149B01AC011E
:100DD000C501B4010E94BB124B015C0120E030E070
:100DE00040E251E40E942D130E949F1370935B0117
:100DF00060935A01072E000C880B990B0E94D713A1
:100E000020E030E040E251E40E948C149B01AC01F0
:100E1000C501B4010E94BB124B015C010E949F13EB
:100E200070935D0160935C01072E000C880B990B99
:100E30000E94D7139B01AC01C501B4010E94BB12F3
:100E40004B015C0120E030E040E251E40E948C1450
:100E50000E949F1370935F0160935E01072E000C48
:100E6000880B990B0E94D71320E030E040E251E458
:100E70000E942D139B01AC01C501B4010E94BB125D
:100E800020E030E048EC52E40E948C140E949F1352
:100E90007093610160936001809100019091010164
:100EA0006C2D01970E948E008091000190910101AC
:100EB00005960E948C0090E0909355018093540118
:100EC000892B31F463E271E08FE791E00E942310F7
:100ED00060915601709157016115710531F480914F
:100EE0004C0190914D01019761F44AE050E08FE789
:100EF00091E00E94E11081E090E090934D01809399
:100F00004C016091580180910001909101010E9473
:100F10008E0060915801709159016115710531F48D
:100F200080914C0190914D01019761F44AE050E0AD
:100F30008FE791E00E94E11081E090E090934D01F5
:100F400080934C01809100019091010160915A01C0
:100F500001960E948E0060915A0170915B016115AB
:100F6000710531F480914C0190914D01019761F42C
:100F70004AE050E08FE791E00E94E11081E090E0CC
:100F800090934D0180934C0180910001909101015B
:100F900060915C0102960E948E0060915C017091EC
:100FA0005D016115710531F480914C0190914D0105
:100FB000019761F44AE050E08FE791E00E94E11070
:100FC00081E090E090934D0180934C01809100016D
:100FD0009091010160915E0103960E948E006091E4
:100FE0005E0170915F016115710531F480914C01D2
:100FF00090914D01019761F44AE050E08FE791E054
:101000000E94E11081E090E090934D0180934C01AB
:1010100080910001909101016091600104960E940D
:101020008E0060916001709161014AE050E08FE7AD
:1010300091E00E94E11061E271E08FE791E00E948F
:10104000361081E090E090934F0180934E018091A3
:1010500000019091010161E007960E948E001092BC
:101060004D0110924C019ACB20E030E040E251E477
:10107000C501B4010E948C1420E030EE45E954E42F
:101080000E942D134B015C01B701FF0C880B990BDB
:101090000E94D71320E030E04AE754E40E948C1409
:1010A0002B013C01B801110F880B990B0E94D7133B
:1010B00020E030E048EC52E40E948C149B01AC012B
:1010C000C301B2010E94BC122B013C012D813E8163
:1010D000B901330F880B990B0E94D71320E030E041
:1010E00040E251E40E948C149B01AC01C301B201A7
:1010F0000E94BC122B013C01B101330C880B990BEF
:101100000E94D7139B01AC01C301B2010E94BC1223
:101110002B013C0149815A81BA01550F880B990B6B
:101120000E94D71320E030E040E251E40E942D13EA
:101130009B01AC01C301B2010E94BC122B013C0116
:101140002B813C81B901330F880B990B0E94D71377
:1011500020E030E048EC52E40E942D139B01AC01EA
:10116000C301B2010E94BC129B01AC01C501B401D4
:101170000E94BB12C5CD80914A0190914B0160E065
:10118000892B09F061E084E00E94FF0D60E083E0BC
:101190000E94FF0D80914E0190914F01019709F03F
:1011A00048C020E030EE45E954E460915001709170
:1011B000510180915201909153010E948C146093CF
:1011C0006C0170936D0180936E0190936F0120E02C
:1011D00030E0A90160916C0170916D0180916E0108
:1011E00090916F010E94871418161CF561E082E04F
:1011F0000E94FF0D80916201909163010E94490D50
:1012000060E082E00E94FF0D809162019091630195
:101210000E94490D20E030E040E85FE360916C01FE
:1012200070916D0180916E0190916F010E94BB12CF
:10123000C6CF8091720190917301A0917401B09119
:1012400075019C01AD0166277727CB01621B730BEB
:10125000840B950B0E94D71360936C0170936D0102
:1012600080936E0190936F01812C912C540120E0AA
:1012700030E0A90160916C0170916D0180916E0167
:1012800090916F010E94871418160CF043C061E022
:1012900082E00E94FF0D80916201909163010E94A3
:1012A000490D60E082E00E94FF0D80916201909103
:1012B00063010E94490D8FE791E00E94470E9A83D7
:1012C000898320E030E040E85FE3C501B4010E947B
:1012D000BB124B015C0149815A814A30510519F01A
:1012E0004F3F5F4FB9F420E030E040E85FE36091AA
:1012F0006C0170916D0180916E0190916F010E945F
:10130000BB1260936C0170936D0180936E0190939A
:101310006F01ADCF61E083E00E94FF0D20E030EE71
:1013200045E954E4C501B4010E942D13AB01BC0191
:1013300022E030E08FE791E00E94DF1161E271E08E
:101340008FE791E00E94231068EE73E080E090E068
:101350000E94100DC0900001D090010195E0C90ECF
:10136000D11CC6010E948C00E0905601F0905701FC
:10137000009158011091590120915A0130915B015F
:101380003E832D8320905C0130905D0140915E0191
:1013900050915F015A83498320916001309161012E
:1013A0003C832B83813009F039C2B701FF0C880BD5
:1013B000990B0E94D71320E030E04AE754E40E94E2
:1013C0008C142B013C01B801110F880B990B0E9462
:1013D000D71320E030E048EC52E40E948C149B01CB
:1013E000AC01C301B2010E94BC122B013C014D8132
:1013F0005E81BA01550F880B990B0E94D71320E02C
:1014000030E040E251E40E948C149B01AC01C30126
:10141000B2010E94BC122B013C01B101330C880BBC
:10142000990B0E94D7139B01AC01C301B2010E942A
:10143000BC122B013C0129813A81B901330F880B81
:10144000990B0E94D71320E030E040E251E40E9463
:101450002D139B01AC01C301B2010E94BC122B01F0
:101460003C014B815C81BA01550F880B990B0E949E
:10147000D71320E030E048EC52E40E942D139B018A
:10148000AC01C301B2010E94BC122B013C0120E05F
:1014900030E040E251E4C501B4010E948C1420E028
:1014A00030EE45E954E40E942D139B01AC01C301C9
:1014B000B2010E94BC124B015C0120E030E0A901A6
:1014C0000E94281387FF04C060E0C6010E948E00BE
:1014D00020E030E0A901C501B4010E94871487FD16
:1014E00008C0809100019091010161E005960E9481
:1014F0008E0020E030E0A901C501B4010E948714EC
:10150000181624F0B7FAB094B7F8B09420E030E0A1
:101510004AE754E4C501B4010E942D130E949F13B1
:101520006B017093570160935601072E000C880BD6
:10153000990B0E94D71320E030E04AE754E40E9460
:101540008C149B01AC01C501B4010E94BB124B017C
:101550005C0120E030E048EC52E40E942D130E9430
:101560009F137093590160935801072E000C880B4C
:10157000990B0E94D71320E030E048EC52E40E941F
:101580008C149B01AC01C501B4010E94BB124B013C
:101590005C0120E030E040E251E40E942D130E9403
:1015A0009F1370935B0160935A01072E000C880B08
:1015B000990B0E94D71320E030E040E251E40E94F2
:1015C0008C149B01AC01C501B4010E94BB124B01FC
:1015D0005C010E949F1370935D0160935C01072E74
:1015E000000C880B990B0E94D7139B01AC01C5011D
:1015F000B4010E94BB124B015C0120E030E040E2EC
:1016000051E40E948C140E949F1370935F016093B9
:101610005E01072E000C880B990B0E94D71320E067
:1016200030E040E251E40E942D139B01AC01C50162
:10163000B4010E94BB1220E030E048EC52E40E946A
:101640008C140E949F1370936101609360018091DC
:101650000001909101016C2D01970E948E008091F4
:1016600000019091010105960E948C0090E09093FA
:10167000550180935401892B31F463E271E08FE7C7
:1016800091E00E94231060915601709157016115FD
:10169000710531F480914C0190914D01019761F4F5
:1016A0004AE050E08FE791E00E94E11081E090E095
:1016B00090934D0180934C016091580180910001FD
:1016C000909101010E948E00609158017091590122
:1016D0006115710531F480914C0190914D01019794
:1016E00061F44AE050E08FE791E00E94E11081E070
:1016F00090E090934D0180934C0180910001909176
:10170000010160915A0101960E948E0060915A0178
:1017100070915B016115710531F480914C019091DC
:101720004D01019761F44AE050E08FE791E00E949B
:10173000E11081E090E090934D0180934C01809105
:1017400000019091010160915C0102960E948E005F
:1017500060915C0170915D016115710531F48091BA
:101760004C0190914D01019761F44AE050E08FE700
:1017700091E00E94E11081E090E090934D01809310
:101780004C01809100019091010160915E010396EE
:101790000E948E0060915E0170915F01611571057C
:1017A00031F480914C0190914D01019761F44AE030
:1017B00050E08FE791E00E94E11081E090E090938B
:1017C0004D0180934C018091000190910101609145
:1017D000600104960E948E00609160017091610129
:1017E0004AE050E08FE791E00E94E11061E271E091
:1017F0008FE791E00E94361010924F0110924E0137
:10180000809100019091010160E007960E948E0096
:1018100010924D0110924C010C94F10320E030E045
:1018200040E251E4C501B4010E948C1420E030EE86
:1018300045E954E40E942D134B015C01B701FF0CF4
:10184000880B990B0E94D71320E030E04AE754E45C
:101850000E948C142B013C01B801110F880B990BCD
:101860000E94D71320E030E048EC52E40E948C1430
:101870009B01AC01C301B2010E94BC122B013C01CF
:101880002D813E81B901330F880B990B0E94D7132C
:1018900020E030E040E251E40E948C149B01AC0156
:1018A000C301B2010E94BC122B013C01B101330CF7
:1018B000880B990B0E94D7139B01AC01C301B201A5
:1018C0000E94BC122B013C0149815A81BA01550F7B
:1018D000880B990B0E94D71320E030E040E251E4DE
:1018E0000E942D139B01AC01C301B2010E94BC12E6
:1018F0002B013C012B813C81B901330F880B990BE3
:101900000E94D71320E030E048EC52E40E942D13EF
:101910009B01AC01C301B2010E94BC129B01AC014E
:10192000C501B4010E94BB12C6CD1F920F920FB623
:101930000F9211242F933F938F939F93AF93BF9355
:1019400080917B0190917C01A0917D01B0917E01FD
:1019500030917A0123E0230F2D3768F126E8230F19
:101960000296A11DB11D20937A0180937B01909373
:101970007C01A0937D01B0937E01809176019091CE
:101980007701A0917801B09179010196A11DB11D57
:101990008093760190937701A0937801B0937901B9
:1019A000BF91AF919F918F913F912F910F900FBE5B
:1019B0000F901F9018950196A11DB11DD4CF2FB780
:1019C000F89460917B0170917C0180917D019091F0
:1019D0007E012FBF08953FB7F894809176019091D2
:1019E0007701A0917801B091790126B5A89B05C037
:1019F0002F3F19F00196A11DB11D3FBFBA2FA92F8E
:101A0000982F8827BC01CD01620F711D811D911D8A
:101A100042E0660F771F881F991F4A95D1F70895F6
:101A20008F929F92AF92BF92CF92DF92EF92FF92EE
:101A30006B017C010E94EB0C4B015C01C114D104D1
:101A4000E104F104E9F00E94BA120E94EB0C68195B
:101A500079098A099B09683E73408105910570F3F5
:101A600021E0C21AD108E108F10888EE880E83E06F
:101A7000981EA11CB11CC114D104E104F10429F782
:101A8000FF90EF90DF90CF90BF90AF909F908F909E
:101A900008958230910538F0880F991F880F991F9B
:101AA00005970197F1F70895789484B5836084BD14
:101AB00085B5836085BDEEE6F0E08081816080833E
:101AC000E1E8F0E082E08083808181608083E0E86B
:101AD000F0E0808181608083E1EBF0E080818460D0
:101AE0008083E0EBF0E080818160808387E88093F1
:101AF0007A001092C1000895883020F08D3008F4EB
:101B00008DE08E502091020190E4299F90011124D4
:101B10008770822B80937C0080917A008064809310
:101B20007A0080917A0086FDFCCF809178009091B8
:101B300079000895843081F028F48230E9F0833010
:101B4000F9F00895883071F0893091F08530B9F45A
:101B5000809180008F7D03C0809180008F7780937B
:101B6000800008958091B0008F778093B000089531
:101B70008091B0008F7DF9CF84B58F7784BD0895B3
:101B800084B58F7DFBCFCF93DF9390E0FC01E158CC
:101B9000FF4F24918A569F4FFC0184918823C9F0FE
:101BA00090E0880F991FFC01E954FF4FA591B49173
:101BB000FC01E355FF4FC591D49161110DC09FB752
:101BC000F8948C91209582238C93888128232883F4
:101BD0009FBFDF91CF910895623051F49FB7F89481
:101BE0003C91822F809583238C93E8812E2BEFCF1D
:101BF0008FB7F894EC912E2B2C938FBFEACF1F93C5
:101C0000CF93DF93282F30E0F901E859FF4F8491FB
:101C1000F901E158FF4FD491F901EA56FF4FC49101
:101C2000CC23A9F0162F81110E949A0DEC2FF0E021
:101C3000EE0FFF1FE355FF4FA591B4918FB7F894B6
:101C4000EC91111108C0D095DE23DC938FBFDF919A
:101C5000CF911F910895DE2BF8CFFC01918D228D3D
:101C6000892F90E0805C9F4F821B91098F73992789
:101C70000895FC01918D828D981731F0828DE80FC7
:101C8000F11D858D90E008958FEF9FEF0895FC0181
:101C9000918D828D981761F0A28DAE0FBF2FB11D6F
:101CA0005D968C91928D9F5F9F73928F90E00895C7
:101CB0008FEF9FEF0895FC01538D448D252F30E069
:101CC000842F90E0821B930B541710F0CF96089549
:101CD0000197089580EB9FE0892B49F080E090E028
:101CE000892B29F00E94B00F81110C9400000895F7
:101CF000FC01A48DA80FB92FB11DA35ABF4F2C9181
:101D0000848D90E001968F739927848FA689B78977
:101D10002C93A089B1898C9180648C93938D848D50
:101D2000981306C00288F389E02D80818F7D80831F
:101D30000895CF93DF93EC01888D8823B9F0AA89A9
:101D4000BB89E889F9898C9185FD03C0808186FD76
:101D50000DC00FB607FCF7CF8C9185FFF2CF8081C5
:101D600085FFEDCFCE010E94780EE9CFDF91CF91B4
:101D70000895EF92FF920F931F93CF93DF93EC019F
:101D800081E0888F9B8D8C8D981316C0E889F98926
:101D9000808185FF11C0EE89FF896083E889F98918
:101DA00080818064808381E090E0DF91CF911F91FA
:101DB0000F91FF90EF900895F62E0B8D10E00F5FBE
:101DC0001F4F0F731127E02E8C8D8E110CC00FB694
:101DD00007FCFACFE889F989808185FFF5CFCE012C
:101DE0000E94780EF1CFEB8DEC0FFD2FF11DE35A21
:101DF000FF4FF0820B8FEA89FB8980818062D2CF0E
:101E0000CF92DF92EF92FF921F93CF93DF93EC017B
:101E10006A017B01122FE889F98982E08083C1146D
:101E200081EED806E104F104A1F060E079E08DE3F1
:101E300090E0A70196010E940A152150310941093D
:101E400051095695479537952795211580E1380713
:101E500098F0E889F989108260E874E88EE190E0F2
:101E6000A70196010E940A15215031094109510923
:101E70005695479537952795EC85FD853083EE85FA
:101E8000FF852083188EEC89FD891083EA89FB8900
:101E9000808188698083EA89FB8980818F7D808346
:101EA000DF91CF911F91FF90EF90DF90CF90089539
:101EB0001F920F920FB60F9211242F938F939F931F
:101EC000EF93FF93E0918F01F09190018081E09179
:101ED0009501F091960182FD1BC09081809198013F
:101EE0008F5F8F7320919901821741F0E0919801E3
:101EF000F0E0E158FE4F958F80939801FF91EF91AC
:101F00009F918F912F910F900FBE0F901F9018955A
:101F10008081F4CF1F920F920FB60F9211242F934E
:101F20003F934F935F936F937F938F939F93AF9361
:101F3000BF93EF93FF938FE791E00E94780EFF919C
:101F4000EF91BF91AF919F918F917F916F915F9131
:101F50004F913F912F910F900FBE0F901F901895AA
:101F60008FE791E00E942D0E21E0892B09F420E0FB
:101F7000822F0895EFE7F1E01382128288EE93E05A
:101F8000A0E0B0E084839583A683B7838CE291E0E0
:101F90009183808385EC90E09587848784EC90E042
:101FA0009787868780EC90E0918B808B81EC90E026
:101FB000938B828B82EC90E0958B848B86EC90E007
:101FC000978B868B118E128E138E148E0895AF927E
:101FD000BF92CF92DF92EF92FF920F931F93CF9316
:101FE000DF936C017B018B01040F151FEB015E0178
:101FF000AE18BF08C017D10759F06991D601ED910D
:10200000FC910190F081E02DC6010995892B79F7AB
:10201000C501DF91CF911F910F91FF90EF90DF905D
:10202000CF90BF90AF900895FB0101900020E9F799
:102030003197AF01461B570BDC01ED91FC910280FB
:10204000F381E02D09946115710511F00C941410C1
:1020500090E080E00895DC01ED91FC910190F08129
:10206000E02D09946AE371E00C9414100F931F9310
:10207000CF93DF938C01D0E0C0E06115710519F0BA
:102080000E941410EC01C8010E9432108C0F9D1F99
:10209000DF91CF911F910F9108958F929F92AF92F0
:1020A000BF92EF92FF920F931F93CF93DF93CDB721
:1020B000DEB7A1970FB6F894DEBF0FBECDBF7C018F
:1020C000FA01CB0119A2223008F42AE08E010F5D3B
:1020D0001F4F822E912CB12CA12CBF01A501940180
:1020E0000E940A15F901CA016A300CF5605DD80139
:1020F0006E938D01232B242B252B79F790E080E024
:10210000109721F0BD01C7010E941410A1960FB6CF
:10211000F894DEBF0FBECDBFDF91CF911F910F911D
:10212000FF90EF90BF90AF909F908F900895695C63
:10213000DECFCF92DF92EF92FF920F931F93CF9358
:10214000DF932115310581F4DC01ED91FC910190C3
:10215000F081E02D642FDF91CF911F910F91FF90BF
:10216000EF90DF90CF9009942A30310501F52AE0F5
:1021700077FF1DC06A017B01EC016DE20E942B100C
:102180008C0144275527BA014C195D096E097F0956
:102190002AE0CE010E944D10800F911FDF91CF9158
:1021A0001F910F91FF90EF90DF90CF900895DF91F6
:1021B000CF911F910F91FF90EF90DF90CF900C94F3
:1021C0004D109A01AB01770F660B770B0C949910A9
:1021D0002115310541F4DC01ED91FC910190F08174
:1021E000E02D642F09940C944D109A01AB0170E01E
:1021F00060E00C94E8102F923F924F925F926F92A2
:102200007F928F929F92AF92BF92CF92DF92EF9286
:10221000FF921F93CF93DF93EC016A017B01722E33
:10222000AB019601CB01B6010E94F9146DE371E098
:10223000811126C046015701E894B7F82FEF3FEF10
:102240004FE75FE7C501B4010E94F91481110CC08A
:102250002FEF3FEF4FE75FE7C501B4010E9428135E
:1022600061E471E0181664F02FEF3FEF4FE75FE491
:10227000C701B6010E9487141816B4F465E471E032
:10228000CE01DF91CF911F91FF90EF90DF90CF9023
:10229000BF90AF909F908F907F906F905F904F9086
:1022A0003F902F900C9414102FEF3FEF4FE75FEC0F
:1022B000C701B6010E94281387FDE0CF20E030E07F
:1022C000A901C701B6010E942813312C212C87FFD8
:1022D00009C06DE2CE010E942B101C01F7FAF094A8
:1022E000F7F8F09410E060E070E080E09FE3711692
:1022F00041F020E030E040E251E40E942D131F5FE6
:10230000F6CFA70196010E94BC122B013C010E944E
:10231000A6134B015C012AE0BC01A401CE010E947E
:102320004D107C01E20CF31C1123B1F1C501B40185
:102330000E94D5139B01AC01C301B2010E94BB12E4
:102340004B015C016EE2CE010E942B10E80EF91EDB
:10235000115010F120E030E040E251E4C501B40139
:102360000E948C142B013C010E94A6134B014AE0F1
:1023700050E0CE010E94F510E80EF91EB40190E085
:1023800080E00E94D5139B01AC01C301B2010E9401
:10239000BB124B015C01DCCFC701DF91CF911F91D4
:1023A000FF90EF90DF90CF90BF90AF909F908F9075
:1023B0007F906F905F904F903F902F9008950C9476
:1023C000FB100F931F93CF93DF93EC010E94DF0C60
:1023D000688779878A879B87E881F9810484F585F6
:1023E000E02DCE01099597FF15C00E94DF0C0885EE
:1023F00019852A853B85601B710B820B930B0C8121
:102400001D812E813F81601771078207930720F39A
:102410008FEF9FEFDF91CF911F910F910895FF9262
:102420000F931F93CF93DF93EC018B01F42ECE011A
:102430000E94E11197FD1DC08D329105D1F09C01E4
:10244000205331092A303105A0F0FF2019F08E32D7
:10245000910579F00130110551F00230110589F430
:102460008D30910571F05CF40997029750F08FEF71
:102470009FEFDF91CF911F910F91FF90089580976B
:10248000B1F7E881F9810284F385E02DCE01099549
:10249000CECFBF92CF92DF92EF92FF920F931F9316
:1024A000CF93DF938C01C42F40E00E940F12FC01F8
:1024B000C12CD12C760197FD3EC0B12C0C2E000C06
:1024C000DD0BCE17DF07D9F0ED32F10509F43FC07F
:1024D000CF01C0970A9798F4AAE0B0E0A70196014F
:1024E0000E9432156F01FF0FEE08FF08C60ED71EBF
:1024F000E81EF91E80E3C81AD108E108F108D801E6
:10250000ED91FC910284F385E02DC8010995C80185
:102510000E94E111FC01C0970A9798F2CE17DF07DD
:1025200081F2BB2041F0F094E094D094C094C11C9F
:10253000D11CE11CF11CC701B601DF91CF911F91A5
:102540000F91FF90EF90DF90CF90BF900895BB2444
:10255000B394D5CF08950E94540D0E94AA120E94F0
:102560009000CAE6DEE00E9475012097E1F30E9428
:102570006A0EF9CF08955058BB27AA270E94D3129C
:102580000C944D140E943F1438F00E94461420F021
:1025900039F49F3F19F426F40C943C140EF4E095A2
:1025A000E7FB0C943614E92F0E945E1458F3BA1717
:1025B000620773078407950720F079F4A6F50C9459
:1025C00080140EF4E0950B2EBA2FA02D0B01B9014B
:1025D00090010C01CA01A0011124FF27591B99F099
:1025E000593F50F4503E68F11A16F040A22F232FA5
:1025F000342F4427585FF3CF469537952795A795F5
:10260000F0405395C9F77EF41F16BA0B620B730B9B
:10261000840BBAF09150A1F0FF0FBB1F661F771F0C
:10262000881FC2F70EC0BA0F621F731F841F48F4C1
:10263000879577956795B795F7959E3F08F0B0CF4A
:102640009395880F08F09927EE0F97958795089531
:102650000E94121408F481E008950E9441130C9422
:102660004D140E94461458F00E943F1440F029F483
:102670005F3F29F00C94361451110C9481140C9482
:102680003C140E945E1468F39923B1F3552391F32F
:10269000951B550BBB27AA2762177307840738F0D1
:1026A0009F5F5F4F220F331F441FAA1FA9F335D02E
:1026B0000E2E3AF0E0E832D091505040E695001CE2
:1026C000CAF72BD0FE2F29D0660F771F881FBB1F9C
:1026D000261737074807AB07B0E809F0BB0B802D7A
:1026E000BF01FF2793585F4F3AF09E3F510578F0A6
:1026F0000C9436140C9481145F3FE4F3983ED4F3A9
:10270000869577956795B795F7959F5FC9F7880F79
:10271000911D9695879597F90895E1E0660F771FCB
:10272000881FBB1F621773078407BA0720F0621B5C
:10273000730B840BBA0BEE1F88F7E09508950E9487
:10274000A6136894B1110C94811408950E94661424
:1027500088F09F5798F0B92F9927B751B0F0E1F062
:10276000660F771F881F991F1AF0BA95C9F714C012
:10277000B13091F00E948014B1E008950C9480145F
:10278000672F782F8827B85F39F0B93FCCF386954B
:1027900077956795B395D9F73EF4909580957095A8
:1027A00061957F4F8F4F9F4F0895E89409C097FB25
:1027B0003EF490958095709561957F4F8F4F9F4F18
:1027C0009923A9F0F92F96E9BB279395F69587955C
:1027D00077956795B795F111F8CFFAF4BB0F11F41F
:1027E00060FF1BC06F5F7F4F8F4F9F4F16C08823C6
:1027F00011F096E911C0772321F09EE8872F762FFC
:1028000005C0662371F096E8862F70E060E02AF03C
:102810009A95660F771F881FDAF7880F9695879528
:1028200097F90895990F0008550FAA0BE0E8FEEFFD
:1028300016161706E807F907C0F012161306E40784
:10284000F50798F0621B730B840B950B39F40A267D
:1028500061F0232B242B252B21F408950A2609F45B
:10286000A140A6958FEF811D811D089597F99F675F
:1028700080E870E060E008959FEF80EC0895002408
:102880000A941616170618060906089500240A94D5
:1028900012161306140605060895092E0394000C5B
:1028A00011F4882352F0BB0F40F4BF2B11F460FFEA
:1028B00004C06F5F7F4F8F4F9F4F089557FD905813
:1028C000440F551F59F05F3F71F04795880F97FBF4
:1028D000991F61F09F3F79F08795089512161306AE
:1028E0001406551FF2CF4695F1DF08C016161706DD
:1028F0001806991FF1CF8695710561050894089512
:10290000E894BB2766277727CB0197F908950E94A3
:10291000121408F48FEF08950E949F140C944D1424
:102920000E943F1438F00E94461420F0952311F0C5
:102930000C9436140C943C1411240C9481140E94B1
:102940005E1470F3959FC1F3950F50E0551F629F81
:10295000F001729FBB27F00DB11D639FAA27F00DF8
:10296000B11DAA1F649F6627B00DA11D661F829F1F
:102970002227B00DA11D621F739FB00DA11D621F04
:10298000839FA00D611D221F749F3327A00D611D21
:10299000231F849F600D211D822F762F6A2F112403
:1029A0009F5750409AF0F1F088234AF0EE0FFF1F36
:1029B000BB1F661F771F881F91505040A9F79E3F8D
:1029C000510580F00C9436140C9481145F3FE4F3AD
:1029D000983ED4F3869577956795B795F795E795E3
:1029E0009F5FC1F7FE2B880F911D9695879597F9EC
:1029F00008950E941214880B990B0895991B79E091
:102A000004C0991F961708F0961B881F7A95C9F77E
:102A100080950895A1E21A2EAA1BBB1BFD010DC0D3
:102A2000AA1FBB1FEE1FFF1FA217B307E407F5077E
:102A300020F0A21BB30BE40BF50B661F771F881F5A
:102A4000991F1A9469F760957095809590959B01F0
:102A5000AC01BD01CF010895EE0FFF1F0590F49169
:102A6000E02D09940E943D15A59F900DB49F900DF7
:102A7000A49F800D911D11240895A29FB001B39FC2
:102A8000C001A39F700D811D1124911DB29F700D77
:102A9000811D1124911D0895F999FECF92BD81BD2C
:102AA000F89A992780B50895262FF999FECF1FBA75
:102AB00092BD81BD20BD0FB6F894FA9AF99A0FBE67
:082AC00001960895F894FFCF80
:102AC80001000157616E6465726572526F746174BA
:102AD8006F724C697465563241323032343032325A
:102AE8003641002D004E500000000000B90EE70FDF
:102AF8005B0E990E2D0E470E390E0D0A006E616E93
:0A2B080000696E66006F766600003B
:00000001FF
