:100000000C9462000C948A000C948A000C948A0070
:100010000C948A000C948A000C948A000C948A0038
:100020000C948A000C948A000C948A000C948A0028
:100030000C948A000C948A000C948A000C948A0018
:100040000C94720D0C948A000C9499100C94CB10A3
:100050000C948A000C948A000C948A000C948A00F8
:100060000C948A000C948A0000000009000302002E
:10007000000405080000000000000000000000016E
:10008000020408102040800102040810200102042C
:100090000810204080400404040404040404020204
:1000A000020202020303030303030202030000002F
:1000B00000250028002B0000000000240027002A53
:1000C0000000FB1011241FBECFEFD4E0DEBFCDBF78
:1000D00011E0A0E0B1E0E6E5FDE202C005900D927E
:1000E000A639B107D9F722E0A6E9B1E001C01D9217
:1000F000A13AB207E1F710E0C2E6D0E004C02197D0
:10010000FE010E947316C136D107C9F70E94FE1383
:100110000C94A9160C9400000C949B16AF92BF92FD
:10012000DF92EF92FF920F931F93CF93DF935C01C7
:100130000DE911E0D0E0C0E0F801D1908F01750128
:10014000EC0EFD1EC7010E949316D81621F06D2DEE
:10015000C7010E949B162196C430D10569F78DE92D
:1001600091E0DF91CF911F910F91FF90EF90DF9081
:10017000BF90AF9008950F931F93CF93DF93CDE976
:10018000D1E08C010D591140C8018C0F9D1F0E94B8
:100190009316899381E0C13AD807B1F78DE991E0D0
:1001A000DF91CF911F910F9108950C949316CF92E8
:1001B000DF92EF92FF920F931F93CF93DF9361E053
:1001C00087E00E94FD0E61E086E00E94FD0E61E086
:1001D00083E00E94FD0E61E087E00E94390F60E03D
:1001E00083E10E94FD0E61E085E00E94FD0E26E0A5
:1001F00040E05BE460E070E084E092E00E94411047
:100200001092E5011092E40185B5887F816085BD7B
:10021000C091C601D091C701CE010E94D500682FC0
:1002200070E090E080E00E9428156093BA0170931E
:10023000BB018093BC019093BD01CE0101960E9449
:10024000D500682F70E090E080E00E942815609350
:10025000B2017093B3018093B4019093B501CE01C4
:1002600002960E94D500682F70E06C597F4F072ED0
:10027000000C880B990B0E942A156093B6017093AD
:10028000B7018093B8019093B901CE0103960E9403
:10029000D500682F70E090E080E00E942815609300
:1002A000AE017093AF018093B0019093B101249699
:1002B000CE010E94D500682F70E090E080E00E949F
:1002C000281520E030E048EC52E40E947B148111B4
:1002D00075C180E090E0A8ECB2E48093AA0190930D
:1002E000AB01A093AC01B093AD0120E030E048EC4D
:1002F00052E46091B2017091B3018091B401909188
:10030000B5010E9480142091BA013091BB01409147
:10031000BC015091BD010E940F146B017C01C09281
:10032000C201D092C301E092C401F092C50120E065
:1003300030E048EC52E46091AE017091AF018091E1
:10034000B0019091B1010E9480142091B6013091CA
:10035000B7014091B8015091B9010E940F14609308
:10036000BE017093BF018093C0019093C10120E052
:1003700030E044EB52E4C701B6010E94DA151816CA
:10038000A4F58091C6019091C70140E050E060EA79
:1003900071E44093C2015093C3016093C401709310
:1003A000C5014093BA015093BB016093BC017093A7
:1003B000BD011092B2011092B3011092B4011092DB
:1003C000B50164E10E948C006091B2017091B301AB
:1003D0008091B4019091B5010E94F9148091C601F9
:1003E0009091C70101960E948C0020E030E046E920
:1003F00053E46091BE017091BF018091C001909162
:10040000C1010E94DA151816ACF58091C6019091D1
:10041000C70140E050E06CED72E44093BE015093A0
:10042000BF016093C0017093C1014093B601509326
:10043000B7016093B8017093B9011092AE011092A8
:10044000AF011092B0011092B1016AE002960E94D1
:100450008C006091AE017091AF018091B0019091DC
:10046000B1010E94F9148091C6019091C7010396D1
:100470000E948C008091C6019091C70106960E944F
:10048000BB00C0909D01D0909E01E0909F01F09034
:10049000A001A7019601C701B6010E944C16811167
:1004A00013C020E030E0A901C701B6010E947B140F
:1004B00087FD0AC020E030E044EB53E4C701B601F9
:1004C0000E94DA1587FD16C010929D0110929E01C0
:1004D00010929F011092A0018091C6019091C701D6
:1004E00006960E948E008091C6019091C7010696E3
:1004F0000E94BB00C090C601D090C70176018AE07F
:10050000E80EF11CC7010E94D500C82FD0E0D0939F
:100510009C01C0939B01C6010B960E94D500082F39
:1005200010E010939A0100939901C6010C960E9465
:10053000D50090E0209711F4C1E0D0E0D0939C0169
:10054000C0939B010115110511F401E010E0109317
:100550009A0100939901009711F481E090E0909343
:100560009801809397016C2FC7010E948C008091A5
:10057000C6019091C701609199010B960E948C0071
:100580008091C6019091C701609197010C960E94DD
:100590008C008091C6019091C7010D960E94D500F4
:1005A0008A37C9F481E080939601DF91CF911F9142
:1005B0000F91FF90EF90DF90CF9008951092AA01D5
:1005C0001092AB011092AC011092AD0160E0CE012F
:1005D0000E948C008ACE10929601E7CF8F929F9254
:1005E000AF92BF92CF92DF92EF92FF921F93CF9381
:1005F000DF93CDB7DEB764970FB6F894DEBF0FBEBA
:10060000CDBFE090C601F090C70124E0E20EF11CDE
:10061000C7010E94D500682F70E090E080E00E9442
:1006200028156093AA017093AB018093AC0190935D
:10063000AD0120E030E048EC52E40E947B148823B6
:1006400009F45CC41092AA011092AB011092AC01A3
:100650001092AD0180E094E0A6EAB7E48093A60191
:100660009093A701A093A801B093A90160E0C701EE
:100670000E948C0080E590E09093E7018093E60172
:100680001092CC011092CD011092CE011092CF01A8
:100690001092C8011092C9011092CA011092CB01A8
:1006A00020E030E044EB52E46091A1017091A2019E
:1006B0008091A3019091A4010E94DA151816BCF450
:1006C0008091E4019091E501892B89F070E060E070
:1006D00085E00E94770E1092E5011092E40180916E
:1006E000C6019091C70160E004960E948C00E090E2
:1006F000C601F090C701C7010A960E94D50090E09C
:1007000090939C0180939B01C7010B960E94D5009A
:1007100090E090939A0180939901C7010C960E94F2
:10072000D50090E0909398018093970183E10E9417
:10073000590EBC01990F880B990B0E942A1520E0D5
:1007400030E040EA50E40E94DF1520E030E040E86D
:100750005AE30E94DF1529E831E440E450E40E94A6
:10076000DF156B017C01C092D401D092D501E092DB
:10077000D601F092D70111E020E030E040E251E4F0
:100780000E94DA1518160CF010E08091960188236B
:1007900009F490C0B090EC0120E030E040E251E478
:1007A000C701B6010E94DA1518160CF073C4B11017
:1007B00077C08091F3019091F401A091F501B0917F
:1007C000F601892B8A2B8B2B51F40E94BC0D609370
:1007D000F3017093F4018093F5019093F6010E9468
:1007E000BC0DC090F701D090F801E090F901F090B5
:1007F000FA016C197D098E099F090E94281520E0D5
:1008000030E04AE757E40E9480146B017C0120E04D
:1008100030E040E050E40E94DA1587FD83C320E019
:1008200030E040E850E4C701B6010E947B1487FF26
:1008300079C32091BE013091BF014091C001509118
:10084000C1016091C2017091C3018091C401909176
:10085000C5010E940F1420E030E040E05FE30E94F9
:10086000DF152091A1013091A2014091A301509187
:10087000A4010E94DA1518160CF04FC389EE93E01C
:10088000A0E0B0E08093E8019093E901A093EA0131
:10089000B093EB011092EE011092ED011092A501C0
:1008A0000E94BC0D6093EF017093F0018093F10101
:1008B0009093F2018091F3019091F401A091F501E0
:1008C000B091F601892B8A2B8B2B09F10E94BC0D6C
:1008D000C090F301D090F401E090F501F090F601A2
:1008E0006C197D098E099F096130724E8440910513
:1008F00070F01092EE011092ED011092A50110928D
:10090000F3011092F4011092F5011092F601109388
:10091000EC0184E092E00E94670F892B79F041E0BE
:1009200070E060E084E092E00E949C136093E80134
:100930007093E9018093EA019093EB018091E801C3
:100940009091E901A091EA01B091EB01873C9E40B2
:10095000A741B105A1F480E090E0A8ECB2E4809357
:10096000AA019093AB01A093AC01B093AD0180912B
:10097000C6019091C70164E604960E948C008091A4
:10098000E8019091E901A091EA01B091EB01863C68
:100990009E40A741B10581F41092AA011092AB01CB
:1009A0001092AC011092AD018091C6019091C701E7
:1009B00060E004960E948C008091E8019091E9012A
:1009C000A091EA01B091EB018336934EA641B105A7
:1009D00059F48091C6019091C7016AE70D960E9473
:1009E0008C0081E0809396018091E8019091E9016B
:1009F000A091EA01B091EB018436934EA641B10576
:100A000051F48091C6019091C70160E00D960E945B
:100A10008C00109296018091E8019091E901A091DB
:100A2000EA01B091EB010197A109B1098F3F91054E
:100A3000A105B10598F485B5887F816085BD609179
:100A4000E8017091E90185E00E94770E8091E8014C
:100A50009091E9019093E5018093E4018091E80190
:100A60009091E901A091EA01B091EB018F3097429A
:100A7000A105B10549F470E060E085E00E94770EC1
:100A80001092E5011092E4016091E8017091E90192
:100A90008091EA019091EB016B017C0120E1C21A87
:100AA00027E2D20AE108F10820E3C21625E7D206C0
:100AB000E104F10408F069C00E942A1520E030E446
:100AC0004CE156E40E940E1420E030E048EC52E481
:100AD0000E9480146B017C01C092C201D092C301BC
:100AE000E092C401F092C5010E94F2144B01072E5E
:100AF000000C880B990B0E942A159B01AC012093D6
:100B0000BA013093BB014093BC015093BD01C701B2
:100B1000B6010E940E1420E030E048EC52E40E943E
:100B2000DF156093B2017093B3018093B401909389
:100B3000B501682D8091C6019091C7010E948C007B
:100B40006091B2017091B3018091B4019091B501AF
:100B50000E94F9148091C6019091C70101960E94EC
:100B60008C0067E171E084E092E00E9464114091A2
:100B7000C2015091C3016091C4017091C50122E08E
:100B800030E084E092E00E9422136091E8017091CD
:100B9000E9018091EA019091EB016B017C0120E475
:100BA000C21A2CE9D20AE108F10828EBC21628E89B
:100BB000D206E104F10408F074C00E942A1520E076
:100BC00030E44CE157E40E940E1420E030E048ECA1
:100BD00052E40E9480144B015C018092BE0190920D
:100BE000BF01A092C001B092C1010E94F214072E71
:100BF000000C880B990B0E942A156B017C01C09296
:100C0000B601D092B701E092B801F092B901AC01FF
:100C10009B01C501B4010E940E1420E030E048ECB5
:100C200052E40E94DF156093AE017093AF01809390
:100C3000B0019093B10120E030E048EC52E4C701EC
:100C4000B6010E940E140E94F9148091C601909181
:100C5000C70102960E948C006091AE017091AF01B5
:100C60008091B0019091B1010E94F9148091C60168
:100C70009091C70103960E948C0068E271E084E0C5
:100C800092E00E9464114091BE015091BF016091B9
:100C9000C0017091C10122E030E084E092E00E9446
:100CA00022138091E8019091E901A091EA01B091AD
:100CB000EB01893E9340A105B10509F0EAC270E05D
:100CC00060E085E00E94770E1092E5011092E40149
:100CD0008091C6019091C70160E004960E948C004B
:100CE00085B5887F836085BD60E083E00E94390F11
:100CF00060E087E00E94390F1092DC011092DD0164
:100D00001092DE011092DF0180E090E0AAE7B5E4E6
:100D10008093E0019093E101A093E201B093E3019D
:100D200020E030E0A9016091E0017091E101809143
:100D3000E2019091E3010E94DA1518160CF0CBC184
:100D400080E10E94590EBC01990F880B990B0E94FB
:100D50002A152DEC3CEC4CE453E40E94801420E076
:100D600030E040E952E40E94DF150E94F214072EA1
:100D7000000C880B990B0E942A156B017C01809056
:100D80009D0190909E01A0909F01B090A001A501AF
:100D900094010E94DA15A501940118160CF090C177
:100DA000C701B6010E940E140E94F214072E000C17
:100DB000880B990B0E942A152091BE013091BF012A
:100DC0004091C0015091C1010E94DA1518160CF42F
:100DD00082C161E086E00E94390F20E030E040EA05
:100DE00051E46091E0017091E1018091E201909104
:100DF000E3010E9480146B017C016091E601709117
:100E0000E701072E000C880B990B0E942A159B0105
:100E1000AC01C701B6010E940F140E94F914CB0166
:100E20000E94260E60E086E00E94390F20E030E04C
:100E300040EA51E46091E0017091E1018091E201AA
:100E40009091E3010E9480146B017C016091E601A6
:100E50007091E701072E000C880B990B0E942A1550
:100E60009B01AC01C701B6010E940F140E94F91446
:100E7000CB010E94260E20E030E040E85FE3609165
:100E8000E0017091E1018091E2019091E3010E9403
:100E90000E146093E0017093E1018093E20190935E
:100EA000E30120E030E040E85FE36091DC01709115
:100EB000DD018091DE019091DF010E940F146093AB
:100EC000DC017093DD018093DE019093DF0120E06F
:100ED00030E040E85FE36091D8017091D9018091E2
:100EE000DA019091DB010E940F146093D801709396
:100EF000D9018093DA019093DB0112CF80E094E076
:100F0000A6E2B8E48093A6019093A701A093A8015C
:100F1000B093A90185E090E0AFCB88EE93E0A0E02C
:100F2000B0E0B0CC20E030E040E050E4C701B601D2
:100F30000E947B1487FF8AC02DEC3CEC4CE45EE3FE
:100F4000C701B6010E94DA1587FD80C08091A50116
:100F5000811132C084E1E3E0F1E0DE0111960190FD
:100F60000D928A95E1F72091000130910101FE0177
:100F7000319690E080E0419151914217530709F476
:100F8000A0C501968A309105B1F78FE097E2909362
:100F90000101809300018091000190910101092ECF
:100FA000000CAA0BBB0B8093E8019093E901A0937E
:100FB000EA01B093EB0174CC8091ED019091EE01C8
:100FC00001969093EE018093ED0181309105B1F48B
:100FD00080919B0190919C01AC01092E000C660B45
:100FE000770B4093E8015093E9016093EA01709315
:100FF000EB01909301018093000152CC8230910566
:1010000029F48091990190919A01E6CF833091055E
:1010100029F48091970190919801DECF049709F00F
:101020003FCC8FE097E2A0E0B0E08093E80190939E
:10103000E901A093EA01B093EB0190930101809341
:1010400000011092EE011092ED012ACC20E030E078
:1010500040E251E4C701B6010E947B1487FF20CC17
:1010600020E030E040E850E4C701B6010E94DA1504
:1010700087FD16CC81E08093A5018FE097E2A0E088
:10108000B0E08093E8019093E901A093EA01B09366
:10109000EB01AFCFBB2009F40DCC0E94BC0D6093D7
:1010A000F7017093F8018093F9019093FA0110927F
:1010B000F3011092F4011092F5011092F601FACBAF
:1010C00060E070E084EB93E40E940E14A7019601A7
:1010D0000E940F1469CE8091A6019091A701A09162
:1010E000A801B091A9018093E0019093E101A09340
:1010F000E201B093E30120E030E0A9016091E0015A
:101100007091E1018091E2019091E3010E94DA1572
:1011100018160CF0AAC080E10E94590EBC01990F6C
:10112000880B990B0E942A152DEC3CEC4CE453E4FF
:101130000E94801420E030E040E952E40E94DF1574
:101140000E94F214072E000C880B990B0E942A159E
:101150006B017C0180909D0190909E01A0909F0169
:10116000B090A001A50194010E94DA15A501940197
:1011700018160CF06FC0C701B6010E940E140E9431
:10118000F214072E000C880B990B0E942A1520914F
:10119000BE013091BF014091C0015091C1010E9438
:1011A000DA1587FF62C061E086E00E94390F809106
:1011B000E6019091E7010E94260E60E086E00E9421
:1011C000390F8091E6019091E7010E94260E20E000
:1011D00030E040E85FE36091E0017091E1018091CF
:1011E000E2019091E3010E940E146093E00170937C
:1011F000E1018093E2019093E30120E030E040E8D8
:101200005FE36091DC017091DD018091DE019091DE
:10121000DF010E940F146093DC017093DD01809365
:10122000DE019093DF0120E030E040E85FE3609171
:10123000D8017091D9018091DA019091DB010E946F
:101240000F146093D8017093D9018093DA019093C1
:10125000DB0151CF60E070E084EB93E40E940E1458
:10126000A70196010E940F148ACF68EE73E080E018
:1012700090E00E94ED0D61E087E00E94390F68E385
:1012800071E084E092E00E94771185B5887F8160EB
:1012900085BD8091E8019091E901A091EA01B091AA
:1012A000EB01883E9340A105B10509F007C270E04B
:1012B00060E085E00E94770E1092E5011092E40153
:1012C0008091C6019091C70160E004960E948C0055
:1012D00085B5887F836085BD61E083E00E94390F1A
:1012E00060E087E00E94390F1092DC011092DD016E
:1012F0001092DE011092DF0180E090E0AAE7B5E4F1
:101300008093E0019093E101A093E201B093E301A7
:1013100020E030E0A9016091E0017091E10180914D
:10132000E2019091E3010E94DA1518160CF0E8C072
:1013300080E10E94590EBC01990F880B990B0E9405
:101340002A152DEC3CEC4CE453E40E94801420E080
:1013500030E040E952E40E94DF150E94F214072EAB
:10136000000C880B990B0E942A156B017C01809060
:101370009D0190909E01A0909F01B090A001A501B9
:1013800094010E94DA15A501940118160CF0ADC065
:10139000C701B6010E940E140E94F214072E000C21
:1013A000880B990B0E942A152091C2013091C3012C
:1013B0004091C4015091C5010E947B1487FDA0C0DB
:1013C00061E086E00E94390F20E030E040EA51E41D
:1013D0006091E0017091E1018091E2019091E3015F
:1013E0000E9480146B017C016091E6017091E7011D
:1013F000072E000C880B990B0E942A159B01AC014B
:10140000C701B6010E940F140E94F914CB010E947B
:10141000260E60E086E00E94390F20E030E040EACE
:1014200051E46091E0017091E1018091E2019091BD
:10143000E3010E9480146B017C016091E6017091D0
:10144000E701072E000C880B990B0E942A159B01BF
:10145000AC01C701B6010E940F140E94F914CB0120
:101460000E94260E20E030E040E85FE36091E0015A
:101470007091E1018091E2019091E3010E940E14CC
:101480006093E0017093E1018093E2019093E301A6
:1014900020E030E040E85FE36091DC017091DD0125
:1014A0008091DE019091DF010E940F146093DC01B6
:1014B0007093DD018093DE019093DF0120E030E046
:1014C00040E85FE36091D8017091D9018091DA0121
:1014D0009091DB010E940F146093D8017093D901A1
:1014E0008093DA019093DB0113CF60E070E084EB2E
:1014F00093E40E940E14A70196010E940F144CCF92
:101500008091A6019091A701A091A801B091A90195
:101510008093E0019093E101A093E201B093E30195
:1015200020E030E0A9016091E0017091E10180913B
:10153000E2019091E3010E94DA1518160CF0AAC09E
:1015400080E10E94590EBC01990F880B990B0E94F3
:101550002A152DEC3CEC4CE453E40E94801420E06E
:1015600030E040E952E40E94DF150E94F214072E99
:10157000000C880B990B0E942A156B017C0180904E
:101580009D0190909E01A0909F01B090A001A501A7
:1015900094010E94DA15A501940118160CF06FC091
:1015A000C701B6010E940E140E94F214072E000C0F
:1015B000880B990B0E942A152091C2013091C3011A
:1015C0004091C4015091C5010E947B1487FD62C007
:1015D00061E086E00E94390F8091E6019091E70179
:1015E0000E94260E60E086E00E94390F8091E6019D
:1015F0009091E7010E94260E20E030E040E85FE392
:101600006091E0017091E1018091E2019091E3012C
:101610000E940E146093E0017093E1018093E20157
:101620009093E30120E030E040E85FE36091DC016B
:101630007091DD018091DE019091DF010E940F1415
:101640006093DC017093DD018093DE019093DF01F4
:1016500020E030E040E85FE36091D8017091D9016B
:101660008091DA019091DB010E940F146093D80100
:101670007093D9018093DA019093DB0151CF60E040
:1016800070E084EB93E40E940E14A70196010E947F
:101690000F148ACF68EE73E080E090E00E94ED0DB9
:1016A00061E087E00E94390F68E371E084E092E036
:1016B0000E94771185B5887F816085BD8091E801A2
:1016C0009091E901A091EA01B091EB01AC01BD015B
:1016D000415452446F4071094F3F510561057105F6
:1016E00050F460EC680F2091C6013091C701C90128
:1016F0000A960E948C008091E8019091E901A091E6
:10170000EA01B091EB01AC01BD01415854486E4172
:1017100071094F3F51056105710550F460E8680F8C
:101720002091C6013091C701C9010B960E948C001F
:101730008091E8019091E901A091EA01B091EB015B
:10174000AC01BD01415C564C6D4271094F3F5105E2
:101750006105710550F460E4680F2091C601309175
:10176000C701C9010C960E948C008091E8019091FC
:10177000E901A091EA01B091EB018236934EA641B6
:10178000B105F1F58090D0019090D101A090D201E7
:10179000B090D30120E030E040EA51E4C501B4014B
:1017A0000E940E146B017C0120E030E0A9010E9430
:1017B0007B1487FF93C0A501940160E070E080EA8C
:1017C00091E40E940E149B01AC0160E070E084EB98
:1017D00093E40E940E1460939D0170939E01809388
:1017E0009F019093A0018091C6019091C701069638
:1017F0000E948E006DE371E084E092E00E94771118
:101800001092E8011092E9011092EA011092EB01A6
:101810001092D0011092D1011092D2011092D301F6
:101820001092E0011092E1011092E2011092E301A6
:1018300020E030E040EA50E46091E0017091E10185
:101840008091E2019091E3010E947B1487FF4FC0D9
:1018500080E10E94590EBC01990F880B990B0E94E0
:101860002A152DEC3CEC4CE453E40E94801420E05B
:1018700030E040E952E40E94DF159B01AC01609129
:10188000D0017091D1018091D2019091D3010E9439
:101890000F146093D0017093D1018093D201909383
:1018A000D30160E075E080E090E00E94ED0D20E063
:1018B00030E040E85FE36091E0017091E1018091E8
:1018C000E2019091E3010E940F146093E001709394
:1018D000E1018093E2019093E301AACFC0929D01C0
:1018E000D0929E01E0929F01F092A0017CCF20E077
:1018F00030E040EA50E46091D0017091D1018091D4
:10190000D2019091D3010E9480146B017C0120E0F0
:1019100030E0A9010E94DA15181624F0F7FAF094C5
:10192000F7F8F094C092D001D092D101E092D201A8
:10193000F092D30180909D0190909E01A0909F0114
:10194000B090A001A7019601C501B4010E947B14CB
:10195000A501940187FFAAC0C701B6010E940E1419
:101960006093A1017093A2018093A3019093A401BD
:1019700067E571E084E092E00E9464114091C20149
:101980005091C3016091C4017091C50122E030E023
:1019900084E092E00E94201362E771E084E092E02C
:1019A0000E9464114091BE015091BF016091C0013D
:1019B0007091C10122E030E084E092E00E942013A7
:1019C00062E771E084E092E00E9464114091A1011D
:1019D0005091A2016091A3017091A40122E030E036
:1019E00084E092E00E94201362E771E084E092E0DC
:1019F0000E9464114091D4015091D5016091D601AB
:101A00007091D70122E030E084E092E00E94201340
:101A100062E771E084E092E00E9464116091E40169
:101A20007091E5014AE050E084E092E00E942212C9
:101A300062E771E084E092E00E9464114AE050E0C5
:101A400070E060E084E092E00E94221262E771E0C0
:101A500084E092E00E9464116091960170E04AE097
:101A600050E084E092E00E94221262E771E084E09C
:101A700092E00E94771184E092E00E94D40F60E02F
:101A800079E180E090E064960FB6F894DEBF0FBE77
:101A9000CDBFDF91CF911F91FF90EF90DF90CF905E
:101AA000BF90AF909F908F900C94ED0D60E070E030
:101AB00084EB93E40E940E14A70196010E940F1478
:101AC0004FCF8930910509F460CAFC013196EE0FC1
:101AD000FF1F81E090E08C0F9D1FE80FF91F8081B0
:101AE000918155CA1F920F920FB60F9211242F9316
:101AF0003F938F939F93AF93BF93809100029091F8
:101B00000102A0910202B09103023091FF0123E093
:101B1000230F2D3768F126E8230F0296A11DB11D72
:101B20002093FF018093000290930102A093020290
:101B3000B09303028091FB019091FC01A091FD0103
:101B4000B091FE010196A11DB11D8093FB01909300
:101B5000FC01A093FD01B093FE01BF91AF919F9155
:101B60008F913F912F910F900FBE0F901F9018955E
:101B70000196A11DB11DD4CF2FB7F894609100023A
:101B80007091010280910202909103022FBF08958B
:101B90003FB7F8948091FB019091FC01A091FD0169
:101BA000B091FE0126B5A89B05C02F3F19F0019604
:101BB000A11DB11D3FBFBA2FA92F982F8827BC01A7
:101BC000CD01620F711D811D911D42E0660F771FCF
:101BD000881F991F4A95D1F708958F929F92AF92CF
:101BE000BF92CF92DF92EF92FF926B017C010E9435
:101BF000C80D4B015C01C114D104E104F104E9F00A
:101C00000E940D140E94C80D681979098A099B0960
:101C1000683E73408105910570F321E0C21AD10836
:101C2000E108F10888EE880E83E0981EA11CB11C23
:101C3000C114D104E104F10429F7FF90EF90DF9083
:101C4000CF90BF90AF909F908F9008958230910574
:101C500038F0880F991F880F991F05970197F1F7A2
:101C60000895789484B5836084BD85B5836085BD0F
:101C7000EEE6F0E0808181608083E1E8F0E082E0E0
:101C80008083808181608083E0E8F0E080818160F2
:101C90008083E1EBF0E0808184608083E0EBF0E022
:101CA00080818160808387E880937A001092C100F0
:101CB0000895883020F08D3008F48DE08E5020910A
:101CC000020190E4299F900111248770822B809358
:101CD0007C0080917A00806480937A0080917A0001
:101CE00086FDFCCF809178009091790008951F9334
:101CF000CF93DF93182FEB0161E00E94FD0E209738
:101D000039F460E0812FDF91CF911F910C94390F4E
:101D1000CF3FD10511F461E0F5CFE12FF0E0E859B4
:101D2000FF4FE491E43031F140F4E230B1F0E330C0
:101D3000E1F0C038D1057CF7E4CFE83029F1E93093
:101D400059F1E530B1F78091800080628093800086
:101D5000D0938B00C0938A0004C084B5806884BD92
:101D6000C7BDDF91CF911F91089584B5806284BD76
:101D7000C8BDF7CF80918000806880938000D093A9
:101D80008900C0938800EDCF8091B0008068809377
:101D9000B000C093B300E5CF8091B0008062809323
:101DA000B000C093B400DDCF843081F028F48230DD
:101DB000E9F08330F9F00895883071F0893091F0BE
:101DC0008530B9F4809180008F7D03C080918000C0
:101DD0008F778093800008958091B0008F778093F3
:101DE000B00008958091B0008F7DF9CF84B58F77D2
:101DF00084BD089584B58F7DFBCFCF93DF9390E0B2
:101E0000FC01E158FF4F24918A569F4FFC018491B9
:101E10008823C9F090E0880F991FFC01E954FF4F17
:101E2000A591B491FC01E355FF4FC591D491611187
:101E30000DC09FB7F8948C91209582238C93888154
:101E4000282328839FBFDF91CF910895623051F4FA
:101E50009FB7F8943C91822F809583238C93E881DF
:101E60002E2BEFCF8FB7F894EC912E2B2C938FBFA6
:101E7000EACF1F93CF93DF93282F30E0F901E85981
:101E8000FF4F8491F901E158FF4FD491F901EA56CF
:101E9000FF4FC491CC23A9F0162F81110E94D40EBC
:101EA000EC2FF0E0EE0FFF1FE355FF4FA591B4912B
:101EB0008FB7F894EC91111108C0D095DE23DC9314
:101EC0008FBFDF91CF911F910895DE2BF8CFFC01DA
:101ED000918D228D892F90E0805C9F4F821B91090C
:101EE0008F7399270895FC01918D828D981731F099
:101EF000828DE80FF11D858D90E008958FEF9FEFA3
:101F00000895FC01918D828D981761F0A28DAE0F1E
:101F1000BF2FB11D5D968C91928D9F5F9F73928FA5
:101F200090E008958FEF9FEF0895FC01538D448D4D
:101F3000252F30E0842F90E0821B930B541710F074
:101F4000CF9608950197089581EF90E1892B49F08C
:101F500080E090E0892B29F00E94F11081110C940F
:101F600000000895FC01A48DA80FB92FB11DA35A3C
:101F7000BF4F2C91848D90E001968F739927848FA9
:101F8000A689B7892C93A089B1898C9183708064CC
:101F90008C93938D848D981306C00288F389E02D6D
:101FA00080818F7D80830895CF93DF93EC01888DAE
:101FB0008823B9F0AA89BB89E889F9898C9185FDC4
:101FC00003C0808186FD0DC00FB607FCF7CF8C9152
:101FD00085FFF2CF808185FFEDCFCE010E94B20F49
:101FE000E9CFDF91CF910895EF92FF920F931F9366
:101FF000CF93DF93EC0181E0888F9B8D8C8D9813BC
:102000001AC0E889F989808185FF15C09FB7F894C7
:10201000EE89FF896083E889F98980818370806413
:1020200080839FBF81E090E0DF91CF911F910F915E
:10203000FF90EF900895F62E0B8D10E00F5F1F4F6D
:102040000F731127E02E8C8D8E110CC00FB607FC7C
:10205000FACFE889F989808185FFF5CFCE010E940A
:10206000B20FF1CFEB8DEC0FFD2FF11DE35AFF4FB7
:10207000F0829FB7F8940B8FEA89FB898081806298
:10208000CFCFCF92DF92EF92FF921F93CF93DF9348
:10209000EC016A017B01122FE889F98982E08083D3
:1020A000C11481EED806E104F104A1F060E079E00A
:1020B0008DE390E0A70196010E945116215031094D
:1020C000410951095695479537952795211580E186
:1020D000380798F0E889F989108260E874E88EE1A1
:1020E00090E0A70196010E94511621503109410943
:1020F00051095695479537952795EC85FD85308391
:10210000EE85FF852083188EEC89FD891083EA898E
:10211000FB89808188698083EA89FB8980818F7D42
:102120008083DF91CF911F91FF90EF90DF90CF9050
:1021300008951F920F920FB60F9211242F938F9331
:102140009F93EF93FF93E0911402F0911502808129
:10215000E0911A02F0911B0282FD1BC090818091D8
:102160001D028F5F8F7320911E02821741F0E09154
:102170001D02F0E0EC5FFD4F958F80931D02FF91F3
:10218000EF919F918F912F910F900FBE0F901F9005
:1021900018958081F4CF1F920F920FB60F921124E1
:1021A0002F933F934F935F936F937F938F939F935F
:1021B000AF93BF93EF93FF9384E092E00E94B20F3E
:1021C000FF91EF91BF91AF919F918F917F916F910F
:1021D0005F914F913F912F910F900FBE0F901F90E5
:1021E000189584E092E00E94670F21E0892B09F4A2
:1021F00020E0822F0895E4E0F2E01382128288EE5C
:1022000093E0A0E0B0E084839583A683B78388E75A
:1022100091E09183808385EC90E09587848784ECBE
:1022200090E09787868780EC90E0918B808B81ECA3
:1022300090E0938B828B82EC90E0958B848B86EC84
:1022400090E0978B868B118E128E138E148E0895CC
:10225000AF92BF92CF92DF92EF92FF920F931F93B4
:10226000CF93DF936C017B018B01040F151FEB01F2
:102270005E01AE18BF08C017D10759F06991D601A9
:10228000ED91FC910190F081E02DC6010995892B1B
:1022900079F7C501DF91CF911F910F91FF90EF90DA
:1022A000DF90CF90BF90AF900895FB010190002088
:1022B000E9F73197AF01461B570BDC01ED91FC911B
:1022C0000280F381E02D09946115710511F00C94E1
:1022D000551190E080E00895DC01ED91FC910190B2
:1022E000F081E02D099466E871E00C9455110F938C
:1022F0001F93CF93DF938C01D0E0C0E0611571058F
:1023000019F00E945511EC01C8010E9473118C0F45
:102310009D1FDF91CF911F910F9108958F929F92F2
:10232000AF92BF92EF92FF920F931F93CF93DF93E1
:10233000CDB7DEB7A1970FB6F894DEBF0FBECDBF05
:102340007C01FA01CB0119A2223008F42AE08E01A7
:102350000F5D1F4F822E912CB12CA12CBF01A50126
:1023600094010E945116F901CA016A300CF5605DB2
:10237000D8016E938D01232B242B252B79F790E028
:1023800080E0109721F0BD01C7010E945511A19670
:102390000FB6F894DEBF0FBECDBFDF91CF911F9176
:1023A0000F91FF90EF90BF90AF909F908F90089506
:1023B000695CDECFCF92DF92EF92FF920F931F9373
:1023C000CF93DF932115310581F4DC01ED91FC9170
:1023D0000190F081E02D642FDF91CF911F910F913B
:1023E000FF90EF90DF90CF9009942A30310501F5EE
:1023F0002AE077FF1DC06A017B01EC016DE20E94BB
:102400006C118C0144275527BA014C195D096E09DE
:102410007F092AE0CE010E948E11800F911FDF916B
:10242000CF911F910F91FF90EF90DF90CF90089583
:10243000DF91CF911F910F91FF90EF90DF90CF90A0
:102440000C948E119A01AB01770F660B770B0C94ED
:10245000DA112115310541F4DC01ED91FC91019077
:10246000F081E02D642F09940C948E119A01AB0138
:1024700070E060E00C9429122F923F924F925F928D
:102480006F927F928F929F92AF92BF92CF92DF9284
:10249000EF92FF921F93CF93DF93EC016A017B01D0
:1024A000722EAB019601CB01B6010E944C1669E871
:1024B00071E0811126C046015701E894B7F82FEF6B
:1024C0003FEF4FE75FE7C501B4010E944C16811151
:1024D0000CC02FEF3FEF4FE75FE7C501B4010E944B
:1024E0007B146DE871E0181664F02FEF3FEF4FE7B3
:1024F0005FE4C701B6010E94DA151816B4F461E969
:1025000071E0CE01DF91CF911F91FF90EF90DF90AE
:10251000CF90BF90AF909F908F907F906F905F9083
:102520004F903F902F900C9455112FEF3FEF4FE7B6
:102530005FECC701B6010E947B1487FDE0CF20E06D
:1025400030E0A901C701B6010E947B14312C212C77
:1025500087FF09C06DE2CE010E946C111C01F7FAE1
:10256000F094F7F8F09410E060E070E080E09FE312
:10257000711641F020E030E040E251E40E94801406
:102580001F5FF6CFA70196010E940F142B013C019B
:102590000E94F9144B015C012AE0BC01A401CE01A8
:1025A0000E948E117C01E20CF31C1123B1F1C501D4
:1025B000B4010E9428159B01AC01C301B2010E9425
:1025C0000E144B015C016EE2CE010E946C11E80E0C
:1025D000F91E115010F120E030E040E251E4C50155
:1025E000B4010E94DF152B013C010E94F9144B013C
:1025F0004AE050E0CE010E943612E80EF91EB40106
:1026000090E080E00E9428159B01AC01C301B2015B
:102610000E940E144B015C01DCCFC701DF91CF910A
:102620001F91FF90EF90DF90CF90BF90AF909F9061
:102630008F907F906F905F904F903F902F90089574
:102640000C943C120F931F93CF93DF93EC010E94E5
:102650003C128C01CE010E947311800F911FDF91FB
:10266000CF911F910F9108950F931F93CF93DF93F5
:10267000EC010E94BC0D688779878A879B87E88177
:10268000F9810484F585E02DCE01099597FF15C0E9
:102690000E94BC0D088519852A853B85601B710B3E
:1026A000820B930B0C811D812E813F816017710776
:1026B0008207930720F38FEF9FEFDF91CF911F9158
:1026C0000F910895FF920F931F93CF93DF93EC0127
:1026D0008B01F42ECE010E94341397FD1DC08D3264
:1026E0009105D1F09C01205331092A303105A0F029
:1026F000FF2019F08E32910579F00130110551F06B
:102700000230110589F48D30910571F05CF4099760
:10271000029750F08FEF9FEFDF91CF911F910F91B4
:10272000FF9008958097B1F7E881F9810284F385DD
:10273000E02DCE010995CECFBF92CF92DF92EF92DE
:10274000FF920F931F93CF93DF938C01C42F40E030
:102750000E946213FC01C12CD12C760197FD3EC072
:10276000B12C0C2E000CDD0BCE17DF07D9F0ED32AB
:10277000F10509F43FC0CF01C0970A9798F4AAE089
:10278000B0E0A70196010E9479166F01FF0FEE08D5
:10279000FF08C60ED71EE81EF91E80E3C81AD1082E
:1027A000E108F108D801ED91FC910284F385E02D58
:1027B000C8010995C8010E943413FC01C0970A970B
:1027C00098F2CE17DF0781F2BB2041F0F094E0943D
:1027D000D094C094C11CD11CE11CF11CC701B601EE
:1027E000DF91CF911F910F91FF90EF90DF90CF90ED
:1027F000BF900895BB24B394D5CF08950E94310EA5
:102800000E94FD130E94D700C4EADFE00E94EE029E
:102810002097E1F30E94A40FF9CF08955058BB27E9
:10282000AA270E9426140C94A0150E94921538F035
:102830000E94991520F039F49F3F19F426F40C9466
:102840008F150EF4E095E7FB0C948915E92F0E9493
:10285000B11558F3BA17620773078407950720F07C
:1028600079F4A6F50C94D3150EF4E0950B2EBA2F3F
:10287000A02D0B01B90190010C01CA01A001112486
:10288000FF27591B99F0593F50F4503E68F11A1632
:10289000F040A22F232F342F4427585FF3CF4695C3
:1028A00037952795A795F0405395C9F77EF41F16E5
:1028B000BA0B620B730B840BBAF09150A1F0FF0FAF
:1028C000BB1F661F771F881FC2F70EC0BA0F621F9B
:1028D000731F841F48F4879577956795B795F7958B
:1028E0009E3F08F0B0CF9395880F08F09927EE0F20
:1028F0009795879508950E94651508F481E00895DD
:102900000E9494140C94A0150E94991558F00E94EE
:10291000921540F029F45F3F29F00C94891551116C
:102920000C94D4150C948F150E94B11568F399235B
:10293000B1F3552391F3951B550BBB27AA276217BB
:102940007307840738F09F5F5F4F220F331F441FC8
:10295000AA1FA9F335D00E2E3AF0E0E832D09150FC
:102960005040E695001CCAF72BD0FE2F29D0660FE9
:10297000771F881FBB1F261737074807AB07B0E82C
:1029800009F0BB0B802DBF01FF2793585F4F3AF032
:102990009E3F510578F00C9489150C94D4155F3F37
:1029A000E4F3983ED4F3869577956795B795F795B8
:1029B0009F5FC9F7880F911D9695879597F90895A0
:1029C000E1E0660F771F881FBB1F6217730784073C
:1029D000BA0720F0621B730B840BBA0BEE1F88F74B
:1029E000E09508950E94F9146894B1110C94D415DF
:1029F00008950E94B91588F09F5798F0B92F99272C
:102A0000B751B0F0E1F0660F771F881F991F1AF0D9
:102A1000BA95C9F714C0B13091F00E94D315B1E056
:102A200008950C94D315672F782F8827B85F39F055
:102A3000B93FCCF3869577956795B395D9F73EF472
:102A400090958095709561957F4F8F4F9F4F08951A
:102A5000E89409C097FB3EF4909580957095619538
:102A60007F4F8F4F9F4F9923A9F0F92F96E9BB27EE
:102A70009395F695879577956795B795F111F8CF6A
:102A8000FAF4BB0F11F460FF1BC06F5F7F4F8F4FD5
:102A90009F4F16C0882311F096E911C0772321F0CB
:102AA0009EE8872F762F05C0662371F096E8862F63
:102AB00070E060E02AF09A95660F771F881FDAF7BA
:102AC000880F9695879597F90895990F0008550FE7
:102AD000AA0BE0E8FEEF16161706E807F907C0F0A4
:102AE00012161306E407F50798F0621B730B840BAC
:102AF000950B39F40A2661F0232B242B252B21F486
:102B000008950A2609F4A140A6958FEF811D811D25
:102B1000089597F99F6780E870E060E008959FEF5F
:102B200080EC089500240A94161617061806090664
:102B3000089500240A941216130614060506089533
:102B4000092E0394000C11F4882352F0BB0F40F4BB
:102B5000BF2B11F460FF04C06F5F7F4F8F4F9F4FFB
:102B6000089557FD9058440F551F59F05F3F71F07D
:102B70004795880F97FB991F61F09F3F79F08795E4
:102B80000895121613061406551FF2CF4695F1DF6D
:102B900008C0161617061806991FF1CF86957105FD
:102BA000610508940895E894BB2766277727CB0131
:102BB00097F908950E94651508F48FEF08950E9413
:102BC000F2150C94A0150E94921538F00E949915E8
:102BD00020F0952311F00C9489150C948F15112475
:102BE0000C94D4150E94B11570F3959FC1F3950F05
:102BF00050E0551F629FF001729FBB27F00DB11D81
:102C0000639FAA27F00DB11DAA1F649F6627B00D10
:102C1000A11D661F829F2227B00DA11D621F739FF9
:102C2000B00DA11D621F839FA00D611D221F749F07
:102C30003327A00D611D231F849F600D211D822F4E
:102C4000762F6A2F11249F5750409AF0F1F0882375
:102C50004AF0EE0FFF1FBB1F661F771F881F9150A2
:102C60005040A9F79E3F510580F00C9489150C94B3
:102C7000D4155F3FE4F3983ED4F386957795679536
:102C8000B795F795E7959F5FC1F7FE2B880F911DCC
:102C90009695879597F908950E946515880B990B6D
:102CA0000895A1E21A2EAA1BBB1BFD010DC0AA1F8D
:102CB000BB1FEE1FFF1FA217B307E407F50720F0A5
:102CC000A21BB30BE40BF50B661F771F881F991F20
:102CD0001A9469F760957095809590959B01AC0169
:102CE000BD01CF010895EE0FFF1F0590F491E02D77
:102CF00009940E948416A59F900DB49F900DA49FE7
:102D0000800D911D11240895A29FB001B39FC001B1
:102D1000A39F700D811D1124911DB29F700D811D07
:102D20001124911D0895F999FECF92BD81BDF89AA5
:102D3000992780B50895262FF999FECF1FBA92BD25
:102D400081BD20BD0FB6F894FA9AF99A0FBE01968C
:062D50000895F894FFCF86
:102D56000F27010F2701000200040008000F001EC4
:102D6600003C007800FF00436C6F7365506F736919
:102D760074696F6E536574004F70656E506F73693A
:102D860074696F6E53657400646F6E6500506F737F
:102D96006974696F6E20736176656420746F20456F
:102DA6004550524F4D2E0057616E646572657243F1
:102DB6006F766572563450726F4132303235303527
:102DC6003034410000000000F40F2811950FD40F95
:102DD600670F810F730F0D0A006E616E00696E66D4
:062DE600006F766600009C
:00000001FF
