:100000000C9478000C94A0000C94A0000C94A00018
:100010000C94A0000C94A0000C94A0000C94A000E0
:100020000C94A0000C94A0000C94A0000C94A000D0
:100030000C94A0000C94A0000C94A0000C94A000C0
:100040000C9402130C94A0000C9429160C945B16CB
:100050000C94A0000C94A0000C94A0000C94A000A0
:100060000C94A0000C94A000005EBCE2613FDD8314
:10007000C29C7E20A3FD1F41009D23BE46DB65F888
:100080008C11AF32CA57E974000000090003020066
:10009000000405080000000000000000000000014E
:1000A000020408102040800102040810200102040C
:1000B00008102040804004040404040404040202E4
:1000C000020202020303030303030202030000000F
:1000D0000023002600290000000000250028002B36
:1000E0000000000000240027002A00000A038B16ED
:1000F00011241FBECFEFD4E0DEBFCDBF11E0A0E0E2
:10010000B1E0E2EAF8E302C005900D92AE33B10728
:10011000D9F722E0AEE3B1E001C01D92A33CB207E3
:10012000E1F710E0C8E7D0E004C02197FE010E948B
:10013000051CC637D107C9F70E947C190C944F1CC7
:100140000C9400000C94391C0C94411CCF938091AA
:100150008100887F8160809381008AE090E09093A5
:100160005D0180935C0186E090E090935B01809359
:100170005A0185E090E0909359018093580183E003
:1001800090E090935701809356018CE090E090931B
:1001900055018093540188E090E09093530180933F
:1001A000520187E090E0909351018093500167E302
:1001B0008AE092E00E94D7108CEC91E00E94740ECD
:1001C00088EB91E00E94740E84EA91E00E94740E24
:1001D00062E086E00E948D1462E087E00E948D1448
:1001E00080915C0190915D010E94A20090E090934B
:1001F00075018093740180915A0190915B010E9476
:10020000A20090E090937301809372018091580155
:10021000909159010E94A20090E090937101809307
:10022000700180915601909157010E94A20090E0C8
:1002300090936F0180936E018091540190915501CC
:100240000E94A20090E090936D0180936C018091D8
:100250005201909153010E94A20090E090936B0193
:1002600080936A0183E190E00E94A20090E0909365
:1002700069018093680182E190E00E94A20090E011
:10028000909367018093660181E190E00E94A20053
:1002900090E090936501809364018FE090E00E946C
:1002A000A20090E0909363018093620180915001DD
:1002B000909151010E94A20090E09093610180937F
:1002C00060018BE090E00E94A20090E085389105EB
:1002D0000CF094C190935F0180935E018091740152
:1002E00090917501029768F081E090E0909375011C
:1002F0008093740161E080915C0190915D010E94A6
:10030000A40080916C0190916D01029768F081E0EA
:1003100090E090936D0180936C0161E080915401B5
:10032000909155010E94A40080916A0190916B0107
:10033000029768F081E090E090936B0180936A01EE
:1003400061E080915201909153010E94A40080913C
:10035000680190916901029758F081E090E09093D4
:1003600069018093680161E083E190E00E94A4004C
:100370008091660190916701029758F081E090E0CA
:10038000909367018093660161E082E190E00E94B2
:10039000A4008091640190916501029758F081E07A
:1003A00090E0909365018093640161E081E190E0C9
:1003B0000E94A4008091620190916301029758F01D
:1003C00081E090E0909363018093620161E08FE0AF
:1003D00090E00E94A40080916001909161010297D9
:1003E00068F081E090E0909361018093600161E0AA
:1003F00080915001909151010E94A40084E190E00D
:100400000E94A20090E0909343018093420185E115
:1004100090E00E94A20090E09093410180934001FF
:1004200086E190E00E94A20090E090933F018093CB
:100430003E0161E08AE00E948D14809174019091E8
:10044000750160915E0170915F01019711F070E09C
:1004500060E080915C010E94071462E370E080E03C
:1004600090E00E947D1361E080915A010E948D14FA
:10047000609172017091730180915A010E9407147A
:1004800062E370E080E090E00E947D1361E0809183
:1004900058010E948D1460917001709171018091DA
:1004A00058010E94071462E370E080E090E00E942F
:1004B0007D1361E0809156010E948D1460916E0160
:1004C00070916F01809156010E94071462E370E001
:1004D00080E090E00E947D1361E0809154010E94D1
:1004E0008D1460916C01809154010E94C91462E3E3
:1004F00070E080E090E00E947D1361E08091520105
:100500000E948D1460916A01809152010E94C91469
:1005100062E370E080E090E00E947D1361E083E19F
:100520000E948D14C1E0809168016C2F681B83E1EB
:100530000E94C91462E370E080E090E00E947D13A5
:1005400061E082E10E948D14809166016C2F681B2E
:1005500082E10E94C91462E370E080E090E00E94B2
:100560007D1361E081E10E948D14809164016C2F04
:10057000681B81E10E94C91462E370E080E090E0B2
:100580000E947D1361E08FE00E948D1480916201D2
:100590006C2F681B8FE00E94C91462E370E080E05A
:1005A00090E00E947D1361E0809150010E948D14C3
:1005B000809160016C2F681B809150010E94C914CA
:1005C00062E370E080E090E00E947D1361E089E0EA
:1005D0000E948D1460E089E00E94C91462E370E01B
:1005E00080E090E00E947D1326E040E05BE460E064
:1005F00070E086E292E0CF910C94D11584E890E00F
:1006000090935F0180935E0164E88BE090E00E942C
:10061000A40064CE26E046E164E08AE092E00E9415
:10062000B6106BE08CEF91E00E94550C62E08EEE0C
:1006300091E00E94550C6DE080EE91E00E94550C17
:100640006CEF71E08CEC91E00E94300D6EEE71E089
:1006500088EB91E00E94300D60EE71E084EA91E059
:100660000C94300D4F925F926F927F928F929F9277
:10067000AF92BF92CF92DF92EF92FF92CF9386E23A
:1006800092E00E94F714892B79F041E070E060E07D
:1006900086E292E00E941A1960939E0170939F0176
:1006A0008093A0019093A10110929601109297015E
:1006B000109298011092990110928E0110928F0160
:1006C0001092900110929101109286011092870170
:1006D000109288011092890110929A0110929B0148
:1006E00010929C0110929D0180919E0190919F011A
:1006F000A091A001B091A10188349B4AA34FB340BF
:1007000009F09BC060E083E190E00E94A40060E0FB
:1007100082E190E00E94A40060E081E190E00E940C
:10072000A40060E08FE090E00E94A40060E080916F
:100730005001909151010E94A40060E080915C0101
:1007400090915D010E94A40060E080915A01909117
:100750005B010E94A40060E08091580190915901D2
:100760000E94A40060E080915601909157010E9480
:10077000A40060E080915401909155010E94A40072
:1007800060E080915201909153010E94A40086E0A4
:100790000E94E91380599140909343018093420154
:1007A000682F84E190E00E94A40080E10E94E91398
:1007B000805991409093410180934001682F85E1D9
:1007C00090E00E94A4008EE00E94E91380599140BD
:1007D00090933F0180933E01682F86E190E00E9454
:1007E000A4001092690110926801109267011092A2
:1007F00066011092650110926401109263011092DB
:1008000062011092610110926001109275011092C4
:100810007401109273011092720110927101109282
:10082000700110926F0110926E0110926D01109282
:100830006C0110926B0110926A0180919E0190915F
:100840009F01A091A001B091A10183389105A1055C
:10085000B10509F4CDC1B4F58F369105A105B105F7
:1008600009F4ACC1C4F485369105A105B10509F4BC
:10087000EBC18E369105A105B10509F4A9C18436F5
:100880009105A105B10509F049C0109275011092BA
:10089000740160E0E0C189379105A105B10509F453
:1008A0009DC182389105A105B10509F4ABC1883716
:1008B0009105A105B10591F51092670110926601AD
:1008C00060E093C187399105A105B10509F4AAC17A
:1008D000BCF48D389105A105B10509F499C186399B
:1008E0009105A105B10509F4A9C18C389105A105AF
:1008F000B105A1F4109263011092620160E08FC112
:10090000893C9105A105B10509F43EC10CF025C152
:10091000883C9105A105B10509F444C180919E016F
:1009200090919F01A091A001B091A101AC01BD01E6
:1009300048585341610971094F3F510561057105DF
:1009400009F068F488589341909373018093720181
:10095000682F80915A0190915B010E94A4008091C0
:100960009E0190919F01A091A001B091A101AC01C5
:10097000BD0140575741610971094F3F510561055C
:10098000710509F068F48057974190937101809345
:100990007001682F80915801909159010E94A40024
:1009A00080919E0190919F01A091A001B091A10121
:1009B000AC01BD0148555B41610971094F3F5105CB
:1009C0006105710509F068F488559B4190936F01AA
:1009D00080936E01682F80915601909157010E947B
:1009E000A40080919E0190919F01A091A001B091DF
:1009F000A101AC01BD0141525E4461097109443855
:100A000051056105710558F480529E4490935F0131
:100A100080935E01682F8BE090E00E94A40080919B
:100A200074019091750170E060E0019791F460911C
:100A30005E0170915F01072E000C880B990B0E94DC
:100A4000A81A29E335E447EF5FE30E945D1B0E948B
:100A5000701A8AE00E94071460917201709173010C
:100A600080915A010E940714609170017091710188
:100A7000809158010E94071460916E0170916F017E
:100A8000809156010E94071460916C01809154017D
:100A90000E94C91460916A01809152010E94C91498
:100AA000C1E0809168016C2F681B83E10E94C9142A
:100AB000809166016C2F681B82E10E94C9148091AD
:100AC00064016C2F681B81E10E94C914809162014E
:100AD0006C2F681B8FE00E94C914809160016C2FFD
:100AE000681B809150010E94C9141092A3011092BA
:100AF000A2018091A2019091A30144970CF0B0C093
:100B000086E00E94E913BC01990F880B990B0E94A3
:100B1000A81A9B01AC016091960170919701809198
:100B20009801909199010E948D196093960170939C
:100B3000970180939801909399016AE070E080E0BA
:100B400090E00E947D138091A2019091A3010196F3
:100B50009093A3018093A201CCCF823D9105A10582
:100B6000B10531F1833D9105A105B10509F0D6CE5E
:100B700081E090E090936B0180936A0161E0809145
:100B80005201909153010BC081E090E090936D0170
:100B900080936C0161E080915401909155010E9415
:100BA000A400BCCE10926D0110926C0160E0F3CFF6
:100BB00010926B0110926A0160E0E1CF81E090E059
:100BC000909369018093680161E083E190E0E7CF51
:100BD000109269011092680160E0F7CF81E090E027
:100BE000909367018093660161E082E190E0D7CF46
:100BF00081E090E0909365018093640161E081E180
:100C000090E0CDCF109265011092640160E0F7CFC3
:100C100081E090E0909363018093620161E08FE056
:100C200090E0BDCF81E090E09093610180936001FE
:100C300061E08091500190915101B1CF109261011A
:100C40001092600160E0F5CF81E090E09093750133
:100C50008093740161E080915C0190915D019FCF70
:100C600020E030E040EA51E46091960170919701F4
:100C700080919801909199010E94FE196B017C016D
:100C8000C0929601D0929701E0929801F09299015A
:100C9000609142017091430160577E4F072E000C16
:100CA000880B990B0E94A81A9B01AC01C701B601E1
:100CB0000E94F91987FF1CC020E030E041EE53E4A8
:100CC000C701B6010E94581B181694F420E030E0CA
:100CD00048EC53E4C701B6010E948C190E94701AB7
:100CE000609342017093430184E190E00E94A4006C
:100CF0001092A3011092A2018091A2019091A301F0
:100D000044976CF580E10E94E913BC01990F880BB0
:100D1000990B0E94A81A9B01AC0160918E01709101
:100D20008F0180919001909191010E948D196093A3
:100D30008E0170938F0180939001909391016AE0EE
:100D400070E080E090E00E947D138091A20190917C
:100D5000A30101969093A3018093A201CDCF20E03F
:100D600030E040EA51E460918E0170918F018091F2
:100D70009001909191010E94FE196B017C01C0923B
:100D80008E01D0928F01E0929001F09291016091DA
:100D900040017091410160577E4F072E000C880B77
:100DA000990B0E94A81A9B01AC01C701B6010E94D1
:100DB000F91987FF1CC020E030E041EE53E4C70181
:100DC000B6010E94581B181694F420E030E048EC5D
:100DD00053E4C701B6010E948C190E94701A6093F7
:100DE00040017093410185E190E00E94A4001092BF
:100DF000A3011092A2018091A2019091A3014497B6
:100E00006CF58EE00E94E913BC01990F880B990BD9
:100E10000E94A81A9B01AC01609186017091870124
:100E200080918801909189010E948D1960938601BB
:100E30007093870180938801909389016AE070E044
:100E400080E090E00E947D138091A2019091A30127
:100E500001969093A3018093A201CDCF20E030E0D2
:100E600040EA51E460918601709187018091880188
:100E7000909189010E94FE196B017C01C09286014C
:100E8000D0928701E0928801F092890160913E0141
:100E900070913F0160577E4F072E000C880B990B15
:100EA0000E94A81A9B01AC01C701B6010E94F91962
:100EB00087FF1CC020E030E041EE53E4C701B601DB
:100EC0000E94581B181694F420E030E048EC53E4DC
:100ED000C701B6010E948C190E94701A60933E01EE
:100EE00070933F0186E190E00E94A4001092960169
:100EF00010929701109298011092990110928E0110
:100F000010928F011092900110929101109286011F
:100F100010928701109288011092890160E08AE0A6
:100F200092E00E94B91260937A0170937B018093E2
:100F30007C0190937D0140E060E08AE092E00E94B5
:100F400029126093760170937701809378019093D2
:100F500079016CE08CEC91E00E94580F8CEC91E0F0
:100F60000E94FB0F6CE088EB91E00E94580F88EB29
:100F700091E00E94FB0F6CE084EA91E00E94580F20
:100F800084EA91E00E94FB0F60E08CEC91E00E940B
:100F90008B1060934C0170934D0180934E019093A0
:100FA0004F0160E088EB91E00E948B106093480154
:100FB0007093490180934A0190934B0160E084EA69
:100FC00091E00E948B1060934401709345018093DF
:100FD0004601909347011092A3011092A2018091C3
:100FE000A2019091A301843691050CF0C0C086E067
:100FF0000E94E913209142013091430120573E4F56
:10100000821B930BBC01990F880B990B0E94A81AA5
:101010002AE037ED43EA51E40E94FE199B01AC013E
:10102000609196017091970180919801909199013A
:101030000E948D1960939601709397018093980197
:101040009093990180E10E94E91320914001309131
:10105000410120573E4F821B930BBC01990F880B17
:10106000990B0E94A81A2AE037ED43EA51E40E9446
:10107000FE199B01AC0160918E0170918F018091EE
:101080009001909191010E948D1960938E0170934F
:101090008F0180939001909391018EE00E94E9135B
:1010A00020913E0130913F0120573E4F821B930B10
:1010B000BC01990F880B990B0E94A81A2AE037ED02
:1010C00043EA51E40E94FE199B01AC016091860144
:1010D0007091870180918801909189010E948D19FA
:1010E00060938601709387018093880190938901B2
:1010F00087E00E94E913BC01990F880B990B0E94AD
:10110000A81A20E030E040EA50E40E945D1B20E095
:1011100030E040E85AE30E945D1B29E831E440E4F6
:1011200050E40E945D1B9B01AC0160919A0170919B
:101130009B0180919C0190919D010E948D1960936B
:101140009A0170939B0180939C0190939D0162E0B2
:1011500070E080E090E00E947D138091A201909168
:10116000A30101969093A3018093A20138CF20E0C0
:1011700030E040E050EC60919601709197018091D1
:101180009801909199010E94F91987FF08C0109267
:10119000960110929701109298011092990120E007
:1011A00030E040E050EC60918E0170918F018091B1
:1011B0009001909191010E94F91987FF08C0109247
:1011C0008E0110928F01109290011092910120E0F7
:1011D00030E040E050EC6091860170918701809191
:1011E0008801909189010E94F91987FF08C0109227
:1011F000860110928701109288011092890120E0E7
:1012000030E048EC52E46091960170919701809132
:101210009801909199010E94FE192B013C0120E058
:1012200030E0A9010E94581B181624F077FA709438
:1012300077F87094409292015092930160929401D9
:101240007092950120E030E048EC52E460918E010C
:1012500070918F0180919001909191010E94FE19EF
:101260004B015C0120E030E0A9010E94581B1816D8
:1012700024F0B7FAB094B7F8B09480928A019092B3
:101280008B01A0928C01B0928D0120E030E048ECFF
:1012900052E460918601709187018091880190915C
:1012A00089010E94FE196B017C0120E030E0A90158
:1012B0000E94581B181624F0F7FAF094F7F8F094EF
:1012C000C0928201D0928301E0928401F092850164
:1012D00020E030E048EC52E460919A0170919B016B
:1012E00080919C0190919D010E94FE1960937E0166
:1012F00070937F01809380019093810120E030E022
:1013000040E251E4C301B2010E94581B1816ACF030
:1013100020E030E040E250E4C501B4010E94581BD7
:1013200018165CF020E030E040E650E4C701B6015A
:101330000E94581B60E018160CF461E089E00E94DE
:10134000C91461E071E086E292E00E94F41664E064
:1013500071E086E292E00E94F41640914C015091B7
:101360004D0160914E0170914F0122E030E086E224
:1013700092E00E94B01864E171E086E292E00E947F
:10138000F416409148015091490160914A017091D1
:101390004B0122E030E086E292E00E94B01864E166
:1013A00071E086E292E00E94F4164091440150916F
:1013B0004501609146017091470122E030E086E2EC
:1013C00092E00E94B01864E171E086E292E00E942F
:1013D000F41640917A0150917B0160917C017091EB
:1013E0007D0122E030E086E292E00E94B01864E1E4
:1013F00071E086E292E00E94F416409176015091ED
:101400007701609178017091790122E030E086E205
:1014100092E00E94B01864E171E086E292E00E94DE
:10142000F416409192015091930160919401709152
:10143000950122E030E086E292E00E94B01864E17B
:1014400071E086E292E00E94F41640918A01509188
:101450008B0160918C0170918D0122E030E086E279
:1014600092E00E94B01864E171E086E292E00E948E
:10147000F416409182015091830160918401709132
:10148000850122E030E086E292E00E94B01864E13B
:1014900071E086E292E00E94F41640917E01509144
:1014A0007F01609180017091810122E030E086E24D
:1014B00092E00E94B01864E171E086E292E00E943E
:1014C000F41660916801709169014AE050E086E28B
:1014D00092E00E94B21764E171E086E292E00E941D
:1014E000F41660916601709167014AE050E086E26F
:1014F00092E00E94B21764E171E086E292E00E94FD
:10150000F41660916401709165014AE050E086E252
:1015100092E00E94B21764E171E086E292E00E94DC
:10152000F41660916201709163014AE050E086E236
:1015300092E00E94B21764E171E086E292E00E94BC
:10154000F41660916001709161014AE050E086E21A
:1015500092E00E94B21764E171E086E292E00E949C
:10156000F41660917401709175014AE050E086E2D2
:1015700092E00E94B21764E171E086E292E00E947C
:10158000F41660917201709173014AE050E086E2B6
:1015900092E00E94B21764E171E086E292E00E945C
:1015A000F41660917001709171014AE050E086E29A
:1015B00092E00E94B21764E171E086E292E00E943C
:1015C000F41660916E0170916F014AE050E086E27E
:1015D00092E00E94B21764E171E086E292E00E941C
:1015E000F41660916C0170916D014AE050E086E262
:1015F00092E00E94B21764E171E086E292E00E94FC
:10160000F41660916A0170916B014AE050E086E245
:1016100092E00E94B21764E171E086E292E00E94DB
:10162000F41660915E0170915F014AE050E086E23D
:1016300092E00E94B21764E171E086E292E00E94BB
:10164000071762E370E080E090E0CF91FF90EF90A9
:10165000DF90CF90BF90AF909F908F907F906F90D2
:101660005F904F900C947D13FF920F931F93CF9335
:10167000DF93FC011081C181D281F8948981012F0F
:1016800000958023898378948DE7F82EFA94FF20C3
:1016900061F182E090E00E94B61388818123B1F36A
:1016A000F8948A8180238A838981812B8983789425
:1016B00080EE91E00E94B613F8948981802389839B
:1016C00086E490E00E94B61388811823C1E009F0F7
:1016D000C0E078948AE991E00E94B6138C2FDF91E4
:1016E000CF911F910F91FF900895C0E0F7CF1F9306
:1016F000CF93DF93FC011081C181D281912F90950E
:1017000060FF16C0F8948A8189238A838981812B9E
:1017100089838AE090E00E94B6138A81182B1A838D
:10172000789487E390E0DF91CF911F910C94B613EA
:10173000F8948A8189238A838981812B898381E432
:1017400090E00E94B6138A81182B1A83789485E062
:1017500090E0E9CF0F931F93CF93DF93FC011081AB
:10176000C181D281F8948981812B89838A81012F5B
:10177000009580238A8383E090E00E94B6138981DC
:10178000802389838AE090E00E94B613C881789410
:1017900085E390E00E94B6131C2381E009F480E009
:1017A000DF91CF911F910F910895DF92EF92FF92F9
:1017B0000F931F93CF93DF93EC01D62EE42E08E016
:1017C00010E0FF24F39461E08D2D8F2109F460E097
:1017D000CE010E94770BFF0C01501109A1F7E11017
:1017E00010C0F894E981FA819181888180958923DC
:1017F0008183E981FA81928188818095892382831E
:101800007894DF91CF911F910F91FF90EF90DF902F
:101810000895EF92FF920F931F93CF93DF937C0174
:1018200008E010E0C0E0D1E0C7010E94AA0B8111DE
:10183000CD2BDD0F01501109B9F78C2FDF91CF911E
:101840001F910F91FF90EF900895EF92FF920F93E9
:101850001F93CF93DF938C017B0140E065E50E94ED
:10186000D50BE70188E0E80EF11C699140E0C80162
:101870000E94D50BCE15DF05C1F7DF91CF911F91E7
:101880000F91FF90EF90089540E06CEC0C94D50B15
:10189000FC0113861586148612861186108617821F
:1018A000168215821482138208951F93CF93DF93BB
:1018B000EC01162F60E0812F0E948D14612F70E0E3
:1018C000FB01E156FF4FE491E883FB01EA54FF4F2F
:1018D000E491F0E0EE0FFF1FE353FF4F85919491E9
:1018E0009A838983CE01DF91CF911F910C94480C8C
:1018F000BF92CF92DF92EF92FF920F931F93CF93FD
:10190000DF93EC01B62EC72E142F8D85811105C0F3
:10191000CE010E94340B81110EC01B861D861C86D1
:1019200080E0DF91CF911F910F91FF90EF90DF90BA
:10193000CF90BF90089540E060EF111101C06CEEB0
:10194000CE010E94D50B01E0E12CD12C11E0CE019B
:101950000E94AA0BF82ECE010E94AA0B91E0F91268
:1019600018C0813099F51134C0F2DB86D11002C065
:1019700081E08D878B81882381F22396EB2DFC2DCE
:10198000CF01089629912193E817F907D9F781E04B
:10199000C8CFEE2DF0E0F8120FC08B851817A0F419
:1019A000DE01AE0FBF1F13968C91802379F4F12CCA
:1019B000193008F41C87D12EEC0FFD1F8381902F66
:1019C0009095892383830AC08113F1CFFE01EE0D28
:1019D000F11D8381802B8383FF24F3946F2DCE012F
:1019E0000E94770B1F5F000F11F4E39401E087E082
:1019F0008E1508F0ACCFB7CFDC0180E0615090F0DD
:101A00009D919827E92FEF70F0E0E859FF4F24915E
:101A1000E92FE295EF70F0E0E858FF4FE491822F54
:101A20008E27ECCF0895FB018081883229F030F4B5
:101A3000803111F0823231F481E008958B33E1F38B
:101A40008234D1F380E00895FC01778366831482A9
:101A50001582108289E0818381E0828383830895E7
:101A6000CF93DF93EC010E94240D1B8A1A8ADF9129
:101A7000CF910895CF93DF93EB0167E0CE010E94F1
:101A8000FC0C91E02F81281390E0892FDF91CF91FA
:101A90000895EF92FF920F931F93CF93DF938C01E2
:101AA0007B01D42FFC01868197810E94480CC0E005
:101AB00041E0B701F801868197810E94780C882364
:101AC00029F0DC1729F0CF5FDC1790F780E006C023
:101AD000B701C8010E943A0D8823A9F3DF91CF9185
:101AE0001F910F91FF90EF900895EF92FF920F9347
:101AF0001F93CF93DF938C01EB017A01FC01868168
:101B000097810E94340B882311F1BE01F801868170
:101B100097810E94250C40E06EEBF8018681978149
:101B20000E94D50BE701F9E0EF0EF11CF801868168
:101B300097810E94090C8993CE15DF05B9F7F8014A
:101B4000868197810E94340B91E0813009F090E00A
:101B5000892FDF91CF911F910F91FF90EF90089502
:101B6000CF93DF93EA010E94750D982F882341F0EF
:101B700068E0CE010E94FC0C91E02885281390E0DB
:101B8000892FDF91CF910895EF92FF920F931F93CA
:101B9000CF93DF93EC018B017A018E819F810E94AC
:101BA000340BB8018E819F810E94250C40E06EE4C9
:101BB0008E819F810E94D50B40E0F70162818E816A
:101BC0009F810E94D50B40E0F70163818E819F8148
:101BD0000E94D50BF8018081803139F040E0F70197
:101BE00064818E819F810E94D50B8E819F810E948E
:101BF000340BB8018E819F810E94250C488168E4D6
:101C00008E819F810E94D50B64E170E080E090E0BE
:101C10000E947D138881882331F06AE070E080E0C3
:101C200090E00E947D138E819F81DF91CF911F9163
:101C30000F91FF90EF900C94340B0F931F93CF9361
:101C4000DF93EC018B018E819F810E94340BB801E0
:101C50008E819F810E94250C40E064EB8E819F81E4
:101C60000E94D50B8E819F810E94AA0B182F8E8116
:101C70009F810E94340B81E0111180E0DF91CF91B0
:101C80001F910F910895CF93DF93CDB7DEB72997BA
:101C90000FB6F894DEBF0FBECDBFFB01208120310F
:101CA00099F0AE014F5F5F4F0E94B00D882331F075
:101CB0008D818F33A9F020F48F31A1F080E007C02F
:101CC0008F3521F08F37D1F78CE001C08BE029965A
:101CD0000FB6F894DEBF0FBECDBFDF91CF91089550
:101CE0008AE0F5CF89E0F3CF0F931F93CF93DF9373
:101CF000CDB7DEB728970FB6F894DEBF0FBECDBFC5
:101D00008C01FC01868197810E94480CF8011482A5
:101D1000158241E0BE016F5F7F4FF8018681978198
:101D20000E94780C8823A1F1BE016F5F7F4FC8012C
:101D30000E943A0D882369F3F801808181110BC05C
:101D4000BE016F5F7F4FC8010E941D0E882319F0EE
:101D500081E0F8018083BE016F5F7F4FC8010E9460
:101D6000430EF8019181981708F4982FF801918398
:101D700084818F5F8483BE016F5F7F4FC8010E94A3
:101D8000130D882331F2F80185818F5F8583C1CFE0
:101D900028960FB6F894DEBF0FBECDBFDF91CF916E
:101DA0001F910F910895BF92CF92DF92EF92FF9211
:101DB0000F931F93CF93DF93CDB7DEB761970FB625
:101DC000F894DEBF0FBECDBF7C016B01022F50E047
:101DD0004D30510514F04CE050E04930510514F4F9
:101DE00049E050E0142FB601C7010E94430E1813BA
:101DF00013C0BB24B3948B2D61960FB6F894DEBF4D
:101E00000FBECDBFDF91CF911F910F91FF90EF904B
:101E1000DF90CF90BF900895AE014F5F5F4FB60146
:101E2000C7010E94B00DB82E882329F3F6018081E6
:101E30008031F9F28FE51B3039F08FE71C3021F04B
:101E40008FE11A3009F48FE38D83AE014F5F5F4F4E
:101E5000B601C7010E94C40DF7018181811708F402
:101E6000812FF70181830111C4CF181710F6118358
:101E700010E000E0F70184818017110609F00CF4EE
:101E8000BACF402FBE01665F7F4FC7010E94490D48
:101E9000BE01665F7F4FC7010E94430EF70191812B
:101EA000981708F4982FF70191830F5F1F4FE2CF27
:101EB000EF92FF920F931F93CF93DF93CDB7DEB7CF
:101EC00028970FB6F894DEBF0FBECDBF8C0170E02F
:101ED0006D30710514F06CE070E06930710514F438
:101EE00069E070E0F8016183F12CE12CF801848154
:101EF0008E151F04A9F0A4F04E2DBE016F5F7F4F19
:101F0000C8010E94490D21E0F8014181BE016F5FC7
:101F10007F4FC8010E94D30EFFEFEF1AFF0AE6CFF2
:101F200028960FB6F894DEBF0FBECDBFDF91CF91DC
:101F30001F910F91FF90EF900895FC01868197818A
:101F40000E94AA0B91E0813009F090E0892F08955A
:101F50008F929F92AF92BF92CF92DF92EF92FF92B9
:101F6000CF93DF93EC0169508EEEC82E82E0D82E1D
:101F7000633040F4E62FF0E0EE0FFF1FEA5EFE4F05
:101F8000C080D1808B81882331F18881811123C069
:101F90000E944C134B015C010D2C000CEE08FF0855
:101FA000CE010E949D0F81110BC00E944C136C1931
:101FB0007D098E099F09681579058A059B0580F3BF
:101FC000DF91CF91FF90EF90DF90CF90BF90AF90D7
:101FD0009F908F900895B601DD0C880B990BDF91CF
:101FE000CF91FF90EF90DF90CF90BF90AF909F90F8
:101FF0008F900C947D13CF93DF93EC018E819F81A2
:102000000E94340B8E819F810E94440C488164E4BD
:102010008E819F810E94D50B8A81882331F069814E
:10202000CE01DF91CF910C94A80FDF91CF9108954D
:10203000FA01218130E0322F2227330F330F330F83
:10204000808148E0849FC0011124282B392BDB01BB
:102050008C918031C1F4678170E08681AB01481BAF
:102060005109CA019695982F8827979587950E94C0
:10207000CF1B6051710953E0220F331F5A95E1F7CE
:102080002078260F371FC9010895EF92FF920F9312
:102090001F93CF93DF93CDB7DEB729970FB6F89490
:1020A000DEBF0FBECDBF8C017B01AE014F5F5F4F26
:1020B0000E94B00D8823A1F0AE014F5F5F4FB701C2
:1020C000C8010E94181029960FB6F894DEBF0FBE03
:1020D000CDBFDF91CF911F910F91FF90EF900895A9
:1020E00080E894EEF0CF0E944510813824EE9207EC
:1020F0006CF0BC01990F880B990B0E94A81A20E084
:1021000030E040E05CE30E945D1B089560E070E019
:102110008EEF92EC08950F931F93CF93DF93CDB77B
:10212000DEB728970FB6F894DEBF0FBECDBF8C0187
:10213000462FBE016F5F7F4F0E94490D882389F0B3
:10214000BE016F5F7F4FC8010E94731028960FB6C3
:10215000F894DEBF0FBECDBFDF91CF911F910F91DD
:10216000089560E070E08EEF92ECF0CFDC01159600
:102170006C93159716964C93169770E0FB01E156F9
:10218000FF4FE4911796EC9317976A547F4FFB012A
:10219000649118966C93189740E85EE360E070E0F5
:1021A0001D964D935D936D937C93509708951F9367
:1021B000CF93DF93EC01162F62E08D810E948D1486
:1021C0000E944C13605D77408109910969877A8785
:1021D0008B879C871A8BDF91CF911F910895CF92A7
:1021E000DF92EF92FF92CF93DF93DC011796CC91B1
:1021F0001797D0E06111DC2F18962C91189730E0DA
:10220000220F331F23533F4F50E040E0F9018591E7
:102210009491FC01F080BA0190E080E0EF2DEC2376
:10222000ED1310C04F5F5F4F1D96CD90DD90ED9088
:10223000FC9050976C157D058E059F0538F36FEF68
:102240007FEFCB01DF91CF91FF90EF90DF90CF90A8
:1022500008958F929F92AF92BF92CF92DF92EF92AA
:10226000FF920F931F93CF93DF93CDB7DEB7C05488
:10227000D1400FB6F894DEBF0FBECDBF8C01F62E55
:102280000E944C13F11029C0F801C184D284E38468
:10229000F4849B01AC012C193D094E095F096901C9
:1022A0007A0130EDC31637E0D306E104F104A8F457
:1022B0008189C05CDE4F0FB6F894DEBF0FBECDBF84
:1022C000DF91CF911F910F91FF90EF90DF90CF9012
:1022D000BF90AF909F908F900895F80161877287AB
:1022E000838794871482138212821182108262E0A3
:1022F00085810E948D1461E070E080E090E00E9492
:102300007D1361E0F80185810E948D1460E0F80181
:1023100085810E94C914F801868185518230E8F4D4
:102320008CE494E00E94B61362E0F80185810E947B
:102330008D14F801828990E00E94B613F89460E051
:10234000C8010E94EF106F3F7F4F8F4F9F4F61F486
:10235000F801118A789480E0ACCF64E170E080E00D
:1023600090E00E947D13E0CF61E0C8010E94EF1071
:102370006F3F7F4F8F4F9F4F59F39E012F5F3F4F0E
:1023800079015E013FEBA31A3EEFB30A670160E0FB
:10239000C8010E94EF10F6016083718382839383EA
:1023A00061E0C8010E94EF10F601648375838683A3
:1023B0009783F8E0CF0ED11CCA14DB0441F7789460
:1023C00030E020E0F70180809180A280B3804481DA
:1023D000558166817781FFEF8F169F06AF06BF0696
:1023E00031F04F3F8FEF58076807780719F4F8016D
:1023F000118AB1CFF90183E0F595E7958A95E1F768
:10240000E00FF11F8081880F84169506A606B70697
:10241000F0F080832F5F3F4FF8E0EF0EF11C283281
:10242000310581F6F801448120818181280F33270D
:10243000331F8281280F311D8381820F932F911DBD
:1024400099274817190699F681E0818B32CF816070
:10245000E0CFCF92DF92EF92FF920F931F93CF9333
:10246000DF938C01C62F642F0E942911882341F02D
:10247000F80186818C3009F45DC038F48B30E1F0CE
:1024800060E070E080EC9FE74CC085518230C0F77F
:10249000D2816D2F70E0762F662766277F77838144
:1024A000682B90E080E00E94A61A2DEC3CEC4CECEE
:1024B0005DE30E945D1B59C0628170E090E080E0A6
:1024C0000E94A61A6B017C01F801D381D7FF0AC0D4
:1024D000AC019B0160E070E080E89FEB0E948C19EA
:1024E0006B017C01DF706D2F70E090E080E00E9456
:1024F000A81A2DEC3CEC4CEC5DE30E945D1BA7019F
:1025000096010E948D19CC2361F026E636E646EE50
:102510005FE30E945D1B20E030E040E052E40E9457
:102520008D19DF91CF911F910F91FF90EF90DF9068
:10253000CF900895D2816D2F70E090E080E00E94EE
:10254000A61A6B017C01F80163816F7070E090E066
:1025500080E00E94A81A2DEC3CEC4CEC5DE30E945C
:102560005D1BA70196010E948D19D7FFCCCF905813
:10257000CACFCF92DF92EF92FF92CF93DF93EC011D
:102580000E942911882341F08E818B3028F08D30F4
:1025900040F08551823030F160E070E080EC9FE7E0
:1025A0001AC0698170E090E080E00E94A81A2DECCA
:1025B0003CEC4CEC5DE30E945D1B6B017C0168818F
:1025C00070E090E080E00E94A81A9B01AC01C70176
:1025D000B6010E948D19DF91CF91FF90EF90DF90AF
:1025E000CF9008956881798176276727762790E0D4
:1025F00080E00E94A61A2DEC3CEC4CEC5DE30E94BE
:102600005D1BE9CF1F920F920FB60F9211242F93EB
:102610003F938F939F93AF93BF93809122029091AA
:102620002302A0912402B09125023091210223E0DF
:10263000230F2D3768F126E8230F0296A11DB11D47
:10264000209321028093220290932302A0932402DC
:10265000B093250280911D0290911E02A0911F024D
:10266000B09120020196A11DB11D80931D0290938F
:102670001E02A0931F02B0932002BF91AF919F91C1
:102680008F913F912F910F900FBE0F901F90189533
:102690000196A11DB11DD4CF2FB7F89460912202ED
:1026A0007091230280912402909125022FBF0895FA
:1026B0003FB7F89480911D0290911E02A0911F02D5
:1026C000B091200226B5A89B05C02F3F19F00196B6
:1026D000A11DB11D3FBFBA2FA92F982F8827BC017C
:1026E000CD01620F711D811D911D42E0660F771FA4
:1026F000881F991F4A95D1F708958F929F92AF92A4
:10270000BF92CF92DF92EF92FF926B017C010E9409
:1027100058134B015C01C114D104E104F104E9F048
:102720000E948B190E945813681979098A099B091C
:10273000683E73408105910570F321E0C21AD1080B
:10274000E108F10888EE880E83E0981EA11CB11CF8
:10275000C114D104E104F10429F7FF90EF90DF9058
:10276000CF90BF90AF909F908F9008958230910549
:1027700038F0880F991F880F991F05970197F1F777
:102780000895789484B5836084BD85B5836085BDE4
:10279000EEE6F0E0808181608083E1E8F0E082E0B5
:1027A0008083808181608083E0E8F0E080818160C7
:1027B0008083E1EBF0E0808184608083E0EBF0E0F7
:1027C00080818160808387E880937A001092C100C5
:1027D0000895883020F08D3008F48DE08E502091DF
:1027E000000190E4299F900111248770822B80932F
:1027F0007C0080917A00806480937A0080917A00D6
:1028000086FDFCCF809178009091790008951F9308
:10281000CF93DF93182FEB0161E00E948D14209776
:1028200039F460E0812FDF91CF911F910C94C9148E
:10283000CF3FD10511F461E0F5CFE12FF0E0E8578B
:10284000FF4FE491E43031F140F4E230B1F0E33095
:10285000E1F0C038D1057CF7E4CFE83029F1E93068
:1028600059F1E530B1F7809180008062809380005B
:10287000D0938B00C0938A0004C084B5806884BD67
:10288000C7BDDF91CF911F91089584B5806284BD4B
:10289000C8BDF7CF80918000806880938000D0937E
:1028A0008900C0938800EDCF8091B000806880934C
:1028B000B000C093B300E5CF8091B00080628093F8
:1028C000B000C093B400DDCF843081F028F48230B2
:1028D000E9F08330F9F00895883071F0893091F093
:1028E0008530B9F4809180008F7D03C08091800095
:1028F0008F778093800008958091B0008F778093C8
:10290000B00008958091B0008F7DF9CF84B58F77A6
:1029100084BD089584B58F7DFBCFCF93DF9390E086
:10292000FC01E156FF4F24918A549F4FFC01849192
:102930008823C9F090E0880F991FFC01EF51FF4FE9
:10294000A591B491FC01E952FF4FC591D491611159
:102950000DC09FB7F8948C91209582238C93888129
:10296000282328839FBFDF91CF910895623051F4CF
:102970009FB7F8943C91822F809583238C93E881B4
:102980002E2BEFCF8FB7F894EC912E2B2C938FBF7B
:10299000EACF1F93CF93DF93282F30E0F901E85758
:1029A000FF4F8491F901E156FF4FD491F901EA54A8
:1029B000FF4FC491CC23A9F0162F81110E946414FB
:1029C000EC2FF0E0EE0FFF1FE952FF4FA591B491FD
:1029D0008FB7F894EC91111108C0D095DE23DC93E9
:1029E0008FBFDF91CF911F910895DE2BF8CFFC01AF
:1029F000918D228D892F90E0805C9F4F821B9109E1
:102A00008F7399270895FC01918D828D981731F06D
:102A1000828DE80FF11D858D90E008958FEF9FEF77
:102A20000895FC01918D828D981761F0A28DAE0FF3
:102A3000BF2FB11D5D968C91928D9F5F9F73928F7A
:102A400090E008958FEF9FEF0895FC01538D448D22
:102A5000252F30E0842F90E0821B930B541710F049
:102A6000CF9608950197089581E896E1892B49F062
:102A700080E090E0892B29F00E94811681110C944E
:102A800000000895FC01A48DA80FB92FB11DA35A11
:102A9000BF4F2C91848D90E001968F739927848F7E
:102AA000A689B7892C93A089B1898C9183708064A1
:102AB0008C93938D848D981306C00288F389E02D42
:102AC00080818F7D80830895CF93DF93EC01888D83
:102AD0008823B9F0AA89BB89E889F9898C9185FD99
:102AE00003C0808186FD0DC00FB607FCF7CF8C9127
:102AF00085FFF2CF808185FFEDCFCE010E94421588
:102B0000E9CFDF91CF910895EF92FF920F931F933A
:102B1000CF93DF93EC0181E0888F9B8D8C8D981390
:102B20001AC0E889F989808185FF15C09FB7F8949C
:102B3000EE89FF896083E889F989808183708064E8
:102B400080839FBF81E090E0DF91CF911F910F9133
:102B5000FF90EF900895F62E0B8D10E00F5F1F4F42
:102B60000F731127E02E8C8D8E110CC00FB607FC51
:102B7000FACFE889F989808185FFF5CFCE010E94DF
:102B80004215F1CFEB8DEC0FFD2FF11DE35AFF4FF6
:102B9000F0829FB7F8940B8FEA89FB89808180626D
:102BA000CFCFCF92DF92EF92FF921F93CF93DF931D
:102BB000EC016A017B01122FE889F98982E08083A8
:102BC000C11481EED806E104F104A1F060E079E0DF
:102BD0008DE390E0A70196010E94E31B215031098B
:102BE000410951095695479537952795211580E15B
:102BF000380798F0E889F989108260E874E88EE176
:102C000090E0A70196010E94E31B21503109410980
:102C100051095695479537952795EC85FD85308365
:102C2000EE85FF852083188EEC89FD891083EA8963
:102C3000FB89808188698083EA89FB8980818F7D17
:102C40008083DF91CF911F91FF90EF90DF90CF9025
:102C500008951F920F920FB60F9211242F938F9306
:102C60009F93EF93FF93E0913602F09137028081BA
:102C7000E0913C02F0913D0282FD1BC09081809169
:102C80003F028F5F8F7320914002821741F0E091E5
:102C90003F02F0E0EA5DFD4F958F80933F02FF9188
:102CA000EF919F918F912F910F900FBE0F901F90DA
:102CB00018958081F4CF1F920F920FB60F921124B6
:102CC0002F933F934F935F936F937F938F939F9334
:102CD000AF93BF93EF93FF9386E292E00E94421579
:102CE000FF91EF91BF91AF919F918F917F916F91E4
:102CF0005F914F913F912F910F900FBE0F901F90BA
:102D0000189586E292E00E94F71421E0892B09F4DD
:102D100020E0822F0895E6E2F2E01382128288EE2C
:102D200093E0A0E0B0E084839583A683B78380E23C
:102D300091E09183808385EC90E09587848784EC93
:102D400090E09787868780EC90E0918B808B81EC78
:102D500090E0938B828B82EC90E0958B848B86EC59
:102D600090E0978B868B118E128E138E148E0895A1
:102D7000AF92BF92CF92DF92EF92FF920F931F9389
:102D8000CF93DF936C017B018B01040F151FEB01C7
:102D90005E01AE18BF08C017D10759F06991D6017E
:102DA000ED91FC910190F081E02DC6010995892BF0
:102DB00079F7C501DF91CF911F910F91FF90EF90AF
:102DC000DF90CF90BF90AF900895FB01019000205D
:102DD000E9F73197AF01461B570BDC01ED91FC91F0
:102DE0000280F381E02D09946115710511F00C94B6
:102DF000E51690E080E00895DC01ED91FC910190F2
:102E0000F081E02D09946EE271E00C94E5160F93C9
:102E10001F93CF93DF938C01D0E0C0E06115710563
:102E200019F00E94E516EC01C8010E9403178C0FEF
:102E30009D1FDF91CF911F910F9108958F929F92C7
:102E4000AF92BF92EF92FF920F931F93CF93DF93B6
:102E5000CDB7DEB7A1970FB6F894DEBF0FBECDBFDA
:102E60007C01FA01CB0119A2223008F42AE08E017C
:102E70000F5D1F4F822E912CB12CA12CBF01A501FB
:102E800094010E94E31BF901CA016A300CF5605DF0
:102E9000D8016E938D01232B242B252B79F790E0FD
:102EA00080E0109721F0BD01C7010E94E516A196B0
:102EB0000FB6F894DEBF0FBECDBFDF91CF911F914B
:102EC0000F91FF90EF90BF90AF909F908F900895DB
:102ED000695CDECFCF92DF92EF92FF920F931F9348
:102EE000CF93DF932115310581F4DC01ED91FC9145
:102EF0000190F081E02D642FDF91CF911F910F9110
:102F0000FF90EF90DF90CF9009942A30310501F5C2
:102F10002AE077FF1DC06A017B01EC016DE20E948F
:102F2000FC168C0144275527BA014C195D096E091E
:102F30007F092AE0CE010E941E17800F911FDF91AA
:102F4000CF911F910F91FF90EF90DF90CF90089558
:102F5000DF91CF911F910F91FF90EF90DF90CF9075
:102F60000C941E179A01AB01770F660B770B0C942C
:102F70006A172115310541F4DC01ED91FC910190B6
:102F8000F081E02D642F09940C941E179A01AB0177
:102F900070E060E00C94B9172F923F924F925F92CD
:102FA0006F927F928F929F92AF92BF92CF92DF9259
:102FB000EF92FF921F93CF93DF93EC016A017B01A5
:102FC000722EAB019601CB01B6010E94CA1B61E3D0
:102FD00071E0811126C046015701E894B7F82FEF40
:102FE0003FEF4FE75FE7C501B4010E94CA1B8111A3
:102FF0000CC02FEF3FEF4FE75FE7C501B4010E9420
:10300000F91965E371E0181664F02FEF3FEF4FE711
:103010005FE4C701B6010E94581B1816B4F469E3B7
:1030200071E0CE01DF91CF911F91FF90EF90DF9083
:10303000CF90BF90AF909F908F907F906F905F9058
:103040004F903F902F900C94E5162FEF3FEF4FE7F6
:103050005FECC701B6010E94F91987FDE0CF20E0BF
:1030600030E0A901C701B6010E94F919312C212CC9
:1030700087FF09C06DE2CE010E94FC161C01F7FA21
:10308000F094F7F8F09410E060E070E080E09FE3E7
:10309000711641F020E030E040E251E40E94FE1958
:1030A0001F5FF6CFA70196010E948D192B013C01ED
:1030B0000E94771A4B015C012AE0BC01A401CE01F9
:1030C0000E941E177C01E20CF31C1123B1F1C50113
:1030D000B4010E94A61A9B01AC01C301B2010E9477
:1030E0008C194B015C016EE2CE010E94FC16E80EC9
:1030F000F91E115010F120E030E040E251E4C5012A
:10310000B4010E945D1B2B013C010E94771A4B0108
:103110004AE050E0CE010E94C617E80EF91EB40145
:1031200090E080E00E94A61A9B01AC01C301B201AD
:103130000E948C194B015C01DCCFC701DF91CF915C
:103140001F91FF90EF90DF90CF90BF90AF909F9036
:103150008F907F906F905F904F903F902F90089549
:103160000C94CC170F931F93CF93DF93EC010E9425
:103170004C13688779878A879B87E881F981048463
:10318000F585E02DCE01099597FF15C00E944C13DF
:10319000088519852A853B85601B710B820B930B73
:1031A0000C811D812E813F81601771078207930773
:1031B00020F38FEF9FEFDF91CF911F910F91089533
:1031C000FF920F931F93CF93DF93EC018B01F42EAB
:1031D000CE010E94B21897FD1DC08D329105D1F02D
:1031E0009C01205331092A303105A0F0FF2019F04D
:1031F0008E32910579F00130110551F00230110540
:1032000089F48D30910571F05CF40997029750F0C4
:103210008FEF9FEFDF91CF911F910F91FF90089556
:103220008097B1F7E881F9810284F385E02DCE0122
:103230000995CECFBF92CF92DF92EF92FF920F937C
:103240001F93CF93DF938C01C42F40E00E94E018BE
:10325000FC01C12CD12C760197FD3EC0B12C0C2E67
:10326000000CDD0BCE17DF07D9F0ED32F10509F4C4
:103270003FC0CF01C0970A9798F4AAE0B0E0A70139
:1032800096010E940B1C6F01FF0FEE08FF08C60E8F
:10329000D71EE81EF91E80E3C81AD108E108F1081C
:1032A000D801ED91FC910284F385E02DC8010995C8
:1032B000C8010E94B218FC01C0970A9798F2CE1775
:1032C000DF0781F2BB2041F0F094E094D094C094E9
:1032D000C11CD11CE11CF11CC701B601DF91CF91CB
:1032E0001F910F91FF90EF90DF90CF90BF900895C6
:1032F000BB24B394D5CF08950E94C1130E947B19BB
:103300000E94A600C4E3D5E10E9432032097E1F3B6
:103310000E943415F9CF08955058BB27AA270E9460
:10332000A4190C941E1B0E94101B38F00E94171B3E
:1033300020F039F49F3F19F426F40C940D1B0EF481
:10334000E095E7FB0C94071BE92F0E942F1B58F315
:10335000BA17620773078407950720F079F4A6F57A
:103360000C94511B0EF4E0950B2EBA2FA02D0B01DF
:10337000B90190010C01CA01A0011124FF27591BBA
:1033800099F0593F50F4503E68F11A16F040A22FC0
:10339000232F342F4427585FF3CF46953795279531
:1033A000A795F0405395C9F77EF41F16BA0B620B30
:1033B000730B840BBAF09150A1F0FF0FBB1F661F77
:1033C000771F881FC2F70EC0BA0F621F731F841FBA
:1033D00048F4879577956795B795F7959E3F08F0E0
:1033E000B0CF9395880F08F09927EE0F97958795A2
:1033F00008950E94E31A08F481E008950E94121AC9
:103400000C941E1B0E94171B58F00E94101B40F0CA
:1034100029F45F3F29F00C94071B51110C94521BA7
:103420000C940D1B0E942F1B68F39923B1F35523B5
:1034300091F3951B550BBB27AA27621773078407C7
:1034400038F09F5F5F4F220F331F441FAA1FA9F35D
:1034500035D00E2E3AF0E0E832D091505040E6954B
:10346000001CCAF72BD0FE2F29D0660F771F881FAC
:10347000BB1F261737074807AB07B0E809F0BB0B9F
:10348000802DBF01FF2793585F4F3AF09E3F5105B3
:1034900078F00C94071B0C94521B5F3FE4F3983EAA
:1034A000D4F3869577956795B795F7959F5FC9F79C
:1034B000880F911D9695879597F90895E1E0660F1D
:1034C000771F881FBB1F621773078407BA0720F096
:1034D000621B730B840BBA0BEE1F88F7E0950895FF
:1034E0000E94771A6894B1110C94521B08950E949F
:1034F000371B88F09F5798F0B92F9927B751B0F034
:10350000E1F0660F771F881F991F1AF0BA95C9F767
:1035100014C0B13091F00E94511BB1E008950C9499
:10352000511B672F782F8827B85F39F0B93FCCF34C
:10353000869577956795B395D9F73EF490958095E4
:10354000709561957F4F8F4F9F4F0895E89409C004
:1035500097FB3EF490958095709561957F4F8F4FC6
:103560009F4F9923A9F0F92F96E9BB279395F695DC
:10357000879577956795B795F111F8CFFAF4BB0F5A
:1035800011F460FF1BC06F5F7F4F8F4F9F4F16C0BE
:10359000882311F096E911C0772321F09EE8872F48
:1035A000762F05C0662371F096E8862F70E060E004
:1035B0002AF09A95660F771F881FDAF7880F96957D
:1035C000879597F90895990F0008550FAA0BE0E821
:1035D000FEEF16161706E807F907C0F012161306D5
:1035E000E407F50798F0621B730B840B950B39F415
:1035F0000A2661F0232B242B252B21F408950A267B
:1036000009F4A140A6958FEF811D811D089597F9BA
:103610009F6780E870E060E008959FEF80EC089578
:1036200000240A94161617061806090608950024A1
:103630000A9412161306140605060895092E03941B
:10364000000C11F4882352F0BB0F40F4BF2B11F48F
:1036500060FF04C06F5F7F4F8F4F9F4F089557FDEE
:103660009058440F551F59F05F3F71F04795880FF0
:1036700097FB991F61F09F3F79F087950895121687
:1036800013061406551FF2CF4695F1DF08C0161633
:1036900017061806991FF1CF8695710561050894E4
:1036A0000895E894BB2766277727CB0197F90895FB
:1036B0000E94E31A08F48FEF08950E94701B0C9487
:1036C0001E1B0E94101B38F00E94171B20F0952330
:1036D00011F00C94071B0C940D1B11240C94521B1D
:1036E0000E942F1B70F3959FC1F3950F50E0551F5B
:1036F000629FF001729FBB27F00DB11D639FAA2747
:10370000F00DB11DAA1F649F6627B00DA11D661F95
:10371000829F2227B00DA11D621F739FB00DA11DB6
:10372000621F839FA00D611D221F749F3327A00D70
:10373000611D231F849F600D211D822F762F6A2F0C
:1037400011249F5750409AF0F1F088234AF0EE0F71
:10375000FF1FBB1F661F771F881F91505040A9F79E
:103760009E3F510580F00C94071B0C94521B5F3F49
:10377000E4F3983ED4F3869577956795B795F795DA
:10378000E7959F5FC1F7FE2B880F911D9695879552
:1037900097F908950E94E31A880B990B089597FBF7
:1037A000072E16F4009407D077FD09D00E94161C4E
:1037B00007FC05D03EF4909581959F4F0895709534
:1037C00061957F4F0895A1E21A2EAA1BBB1BFD0134
:1037D0000DC0AA1FBB1FEE1FFF1FA217B307E407F0
:1037E000F50720F0A21BB30BE40BF50B661F771F48
:1037F000881F991F1A9469F7609570958095909528
:103800009B01AC01BD01CF010895EE0FFF1F059094
:10381000F491E02D09940E942A1CA59F900DB49F5D
:10382000900DA49F800D911D11240895AA1BBB1B10
:1038300051E107C0AA1FBB1FA617B70710F0A61BB0
:10384000B70B881F991F5A95A9F780959095BC01D1
:10385000CD010895A29FB001B39FC001A39F700D39
:10386000811D1124911DB29F700D811D1124911D88
:103870000895F999FECF92BD81BDF89A992780B538
:103880000895262FF999FECF1FBA92BD81BD20BDA4
:103890000FB6F894FA9AF99A0FBE01960895F89423
:0238A000FFCF58
:1038A200015A5800574250726F5633413230323506
:1038B2003034313041005E00BC007701000000006E
:1038C2008415B81625156415F714111503150D0A7C
:0E38D200006E616E00696E66006F7666000023
:00000001FF
