:100000000C9478000C94A0000C94A0000C94A00018
:100010000C94A0000C94A0000C94A0000C94A000E0
:100020000C94A0000C94A0000C94A0000C94A000D0
:100030000C94A0000C94A0000C94A0000C94A000C0
:100040000C94500B0C94A0000C94700E0C94A20E07
:100050000C94A0000C94A0000C94A0000C94A000A0
:100060000C94A0000C94A000005EBCE2613FDD8314
:10007000C29C7E20A3FD1F41009D23BE46DB65F888
:100080008C11AF32CA57E974000000090003020066
:10009000000405080000000000000000000000014E
:1000A000020408102040800102040810200102040C
:1000B00008102040804004040404040404040202E4
:1000C000020202020303030303030202030000000F
:1000D0000023002600290000000000250028002B36
:1000E0000000000000240027002A00003601D20E84
:1000F00011241FBECFEFD4E0DEBFCDBF11E0A0E0E2
:10010000B1E0E2E2F9E202C005900D92A634B10737
:10011000D9F722E0A6E4B1E001C01D92A339B207ED
:10012000E1F710E0C8E7D0E004C02197FE010E948B
:100130004514C637D107C9F70E94C3110C948F1418
:100140000C940000CF93DF93E1E8F0E08081887F9A
:100150008160808386E090E0909357018093560100
:1001600085E090E0909355018093540183E090E006
:10017000909353018093520167E38AED91E00E94CE
:1001800025098CE991E00E94AE0688E891E00E9482
:10019000AE0684E791E00E94AE0662E083E10E9431
:1001A000DB0CC09156018C2F909157010E9479145D
:1001B00090E090935D0180935C0180915401909157
:1001C00055010E94791490E090935B0180935A014D
:1001D00080915201909153010E94791490E0909384
:1001E00059018093580161E08C2F0E94DB0C6091D3
:1001F0005C0170915D01809156010E94550C62E393
:1002000070E080E090E00E94CB0BC4E5D1E061E0BB
:1002100088810E94DB0C60915A0170915B0188819A
:100220000E94550C62E370E080E090E00E94CB0BEE
:10023000C2E5D1E061E088810E94DB0C6091580149
:100240007091590188810E94550C62E370E080E052
:1002500090E00E94CB0B26E040E05BE460E070E0C1
:1002600086EF91E0DF91CF910C94180E26E046E1E5
:1002700064E08AED91E00E9404096BE08CEC91E06F
:100280000E948F0462E08EEB91E00E948F046DE08B
:1002900080EB91E00E948F046CEC71E08CE991E0BE
:1002A0000E946A056EEB71E088E891E00E946A05A1
:1002B00060EB71E084E791E00C946A0586EF91E0D1
:1002C0000E94450D892B79F041E070E060E086EFF7
:1002D00091E00E94611160936E0170936F018093B1
:1002E00070019093710110926A0110926B0110924B
:1002F0006C0110926D0180916E0190916F01A0913F
:100300007001B0917101AC01BD01485853416109C0
:1003100071094F3F51056105710509F068F488586E
:10032000934190935D0180935C01682F8091560109
:10033000909157010E94811480916E0190916F01FC
:10034000A0917001B0917101AC01BD0140575741BE
:10035000610971094F3F51056105710509F068F4A4
:100360008057974190935B0180935A01682F809149
:100370005401909155010E94811480916E019091D9
:100380006F01A0917001B0917101AC01BD014855A0
:100390005B41610971094F3F51056105710509F024
:1003A00068F488559B419093590180935801682FB8
:1003B00080915201909153010E94811460915C01DF
:1003C00070915D01809156010E94550C60915A0117
:1003D00070915B01809154010E94550C609158010D
:1003E00070915901809152010E94550C60E08AED94
:1003F00091E00E94070B6093620170936301809308
:1004000064019093650140E060E08AED91E00E9414
:10041000770A60935E0170935F018093600190930F
:1004200061016CE08CE991E00E94A6078CE991E003
:100430000E9449086CE088E891E00E94A60788E8DD
:1004400091E00E9449086CE084E791E00E94A607D1
:1004500084E791E00E94490860E08CE991E00E9405
:10046000D90860934E0170934F018093500190938F
:10047000510160E088E891E00E94D908609346014C
:1004800070934701809348019093490160E084E7AD
:1004900091E00E94D90860934A0170934B018093C8
:1004A0004C0190934D011092730110927201809152
:1004B000720190917301843691050CF03FC083E185
:1004C0000E94370CBC01990F880B990B0E94E8120F
:1004D00020E030E040EA50E40E949D1320E030E04C
:1004E00040E85AE30E949D1329E831E440E450E4D7
:1004F0000E949D139B01AC0160916A0170916B0198
:1005000080916C0190916D010E94D41160936A01F9
:1005100070936B0180936C0190936D0162E070E0C9
:1005200080E090E00E94CB0B80917201909173016A
:1005300001969093730180937201B9CF20E030E06F
:1005400048EC52E460916A0170916B0180916C01FA
:1005500090916D010E94451260936601709367014E
:10056000809368019093690161E071E086EF91E00A
:100570000E943B0F64E071E086EF91E00E943B0F28
:1005800040914E0150914F01609150017091510185
:1005900022E030E086EF91E00E94F7106CE171E01C
:1005A00086EF91E00E943B0F40914A0150914B0130
:1005B00060914C0170914D0122E030E086EF91E0B6
:1005C0000E94F7106CE171E086EF91E00E943B0F12
:1005D0004091460150914701609148017091490155
:1005E00022E030E086EF91E00E94F7106CE171E0CC
:1005F00086EF91E00E943B0F4091620150916301B0
:10060000609164017091650122E030E086EF91E035
:100610000E94F7106CE171E086EF91E00E943B0FC1
:1006200040915E0150915F016091600170916101A4
:1006300022E030E086EF91E00E94F7106CE171E07B
:1006400086EF91E00E943B0F409166015091670157
:10065000609168017091690122E030E086EF91E0DD
:100660000E94F7106CE171E086EF91E00E943B0F71
:1006700060915C0170915D014AE050E086EF91E08D
:100680000E94F90F6CE171E086EF91E00E943B0F50
:1006900060915A0170915B014AE050E086EF91E071
:1006A0000E94F90F6CE171E086EF91E00E943B0F30
:1006B00060915801709159014AE050E086EF91E055
:1006C0000E94F90F6CE171E086EF91E00E944E0FFD
:1006D00068EC70E080E090E00C94CB0BFF920F93FD
:1006E0001F93CF93DF93FC011081C181D281F894D5
:1006F0008981012F00958023898378948DE7F82ED6
:10070000FA94FF2061F182E090E00E94040C88815D
:100710008123B1F3F8948A8180238A838981812B94
:100720008983789480EE91E00E94040CF89489818A
:100730008023898386E490E00E94040C888118233A
:10074000C1E009F0C0E078948AE991E00E94040CCD
:100750008C2FDF91CF911F910F91FF900895C0E0F2
:10076000F7CF1F93CF93DF93FC011081C181D2811A
:10077000912F909560FF16C0F8948A8189238A830F
:100780008981812B89838AE090E00E94040C8A8110
:10079000182B1A83789487E390E0DF91CF911F9113
:1007A0000C94040CF8948A8189238A838981812B93
:1007B000898381E490E00E94040C8A81182B1A83BB
:1007C000789485E090E0E9CF0F931F93CF93DF9368
:1007D000FC011081C181D281F8948981812B8983A8
:1007E0008A81012F009580238A8383E090E00E9414
:1007F000040C8981802389838AE090E00E94040CA4
:10080000C881789485E390E00E94040C1C2381E069
:1008100009F480E0DF91CF911F910F910895DF924D
:10082000EF92FF920F931F93CF93DF93EC01D62E9D
:10083000E42E08E010E0FF24F39461E08D2D8F2179
:1008400009F460E0CE010E94B103FF0C01501109D0
:10085000A1F7E11010C0F894E981FA8191818881B3
:10086000809589238183E981FA81928188818095AD
:10087000892382837894DF91CF911F910F91FF900C
:10088000EF90DF900895EF92FF920F931F93CF9315
:10089000DF937C0108E010E0C0E0D1E0C7010E94D6
:1008A000E4038111CD2BDD0F01501109B9F78C2F15
:1008B000DF91CF911F910F91FF90EF900895EF92EC
:1008C000FF920F931F93CF93DF938C017B0140E046
:1008D00065E50E940F04E70188E0E80EF11C6991CC
:1008E00040E0C8010E940F04CE15DF05C1F7DF917B
:1008F000CF911F910F91FF90EF90089540E06CEC25
:100900000C940F04FC01138615861486128611863A
:1009100010861782168215821482138208951F93FF
:10092000CF93DF93EC01162F60E0812F0E94DB0C48
:10093000612F70E0FB01E156FF4FE491E883FB017A
:10094000EA54FF4FE491F0E0EE0FFF1FE353FF4F37
:10095000859194919A838983CE01DF91CF911F91E4
:100960000C948204BF92CF92DF92EF92FF920F938A
:100970001F93CF93DF93EC01B62EC72E142F8D85D6
:10098000811105C0CE010E946E0381110EC01B862D
:100990001D861C8680E0DF91CF911F910F91FF9003
:1009A000EF90DF90CF90BF90089540E060EF11117D
:1009B00001C06CEECE010E940F0401E0E12CD12CAD
:1009C00011E0CE010E94E403F82ECE010E94E40360
:1009D00091E0F91218C0813099F51134C0F2DB862C
:1009E000D11002C081E08D878B81882381F223960C
:1009F000EB2DFC2DCF01089629912193E817F907DB
:100A0000D9F781E0C8CFEE2DF0E0F8120FC08B854A
:100A10001817A0F4DE01AE0FBF1F13968C91802330
:100A200079F4F12C193008F41C87D12EEC0FFD1F3E
:100A30008381902F9095892383830AC08113F1CFFE
:100A4000FE01EE0DF11D8381802B8383FF24F3943F
:100A50006F2DCE010E94B1031F5F000F11F4E394CC
:100A600001E087E08E1508F0ACCFB7CFDC0180E065
:100A7000615090F09D919827E92FEF70F0E0E859D0
:100A8000FF4F2491E92FE295EF70F0E0E858FF4F17
:100A9000E491822F8E27ECCF0895FB01808188326C
:100AA00029F030F4803111F0823231F481E0089580
:100AB0008B33E1F38234D1F380E00895FC01778336
:100AC000668314821582108289E0818381E08283AB
:100AD00083830895CF93DF93EC010E945E051B8A08
:100AE0001A8ADF91CF910895CF93DF93EB0167E0EE
:100AF000CE010E94360591E02F81281390E0892FC6
:100B0000DF91CF910895EF92FF920F931F93CF93B0
:100B1000DF938C017B01D42FFC01868197810E9499
:100B20008204C0E041E0B701F801868197810E940C
:100B3000B204882329F0DC1729F0CF5FDC1790F787
:100B400080E006C0B701C8010E9474058823A9F39C
:100B5000DF91CF911F910F91FF90EF900895EF9249
:100B6000FF920F931F93CF93DF938C01EB017A01D8
:100B7000FC01868197810E946E03882311F1BE01DA
:100B8000F801868197810E945F0440E06EEBF801D6
:100B9000868197810E940F04E701F9E0EF0EF11CB6
:100BA000F801868197810E9443048993CE15DF0561
:100BB000B9F7F801868197810E946E0391E0813038
:100BC00009F090E0892FDF91CF911F910F91FF9055
:100BD000EF900895CF93DF93EA010E94AF05982F1D
:100BE000882341F068E0CE010E94360591E0288517
:100BF000281390E0892FDF91CF910895EF92FF9213
:100C00000F931F93CF93DF93EC018B017A018E81B9
:100C10009F810E946E03B8018E819F810E945F04B4
:100C200040E06EE48E819F810E940F0440E0F70156
:100C300062818E819F810E940F0440E0F7016381F1
:100C40008E819F810E940F04F8018081803139F0EC
:100C500040E0F70164818E819F810E940F048E81A4
:100C60009F810E946E03B8018E819F810E945F0464
:100C7000488168E48E819F810E940F0464E170E0E6
:100C800080E090E00E94CB0B8881882331F06AE0FD
:100C900070E080E090E00E94CB0B8E819F81DF911D
:100CA000CF911F910F91FF90EF900C946E030F93D3
:100CB0001F93CF93DF93EC018B018E819F810E9464
:100CC0006E03B8018E819F810E945F0440E064EB57
:100CD0008E819F810E940F048E819F810E94E40378
:100CE000182F8E819F810E946E0381E0111180E098
:100CF000DF91CF911F910F910895CF93DF93CDB7DF
:100D0000DEB729970FB6F894DEBF0FBECDBFFB014B
:100D10002081203199F0AE014F5F5F4F0E94EA05BC
:100D2000882331F08D818F33A9F020F48F31A1F029
:100D300080E007C08F3521F08F37D1F78CE001C0FC
:100D40008BE029960FB6F894DEBF0FBECDBFDF91C2
:100D5000CF9108958AE0F5CF89E0F3CFFF920F930A
:100D60001F93CF93DF93CDB7DEB728970FB6F894D4
:100D7000DEBF0FBECDBF8C01FC01868197810E9432
:100D80008204F8011482158241E0BE016F5F7F4F3B
:100D9000F801868197810E94B2048823A9F1BE01DF
:100DA0006F5F7F4FC8010E947405882369F3F801C3
:100DB000808181110BC0BE016F5F7F4FC8010E940F
:100DC0005706882319F081E0F8018083F801F1804B
:100DD000BE016F5F7F4FC8010E947D069F2DF816F0
:100DE00008F4982FF801918384818F5F8483BE017A
:100DF0006F5F7F4FC8010E944D05882329F2F801DB
:100E000085818F5F8583C0CF28960FB6F894DEBFAB
:100E10000FBECDBFDF91CF911F910F91FF9008952D
:100E20009F92AF92BF92CF92DF92EF92FF920F9379
:100E30001F93CF93DF93CDB7DEB761970FB6F894CA
:100E4000DEBF0FBECDBF8C015B01C22E89E0E82E54
:100E5000F12C493048F0E42EF12C8DE0E816F10435
:100E60001CF09CE0E92EF12CDE2CB501C8010E949B
:100E70007D06E81215C099249394892D61960FB6CA
:100E8000F894DEBF0FBECDBFDF91CF911F910F91C0
:100E9000FF90EF90DF90CF90BF90AF909F9008951C
:100EA000AE014F5F5F4FB501C8010E94EA05982E61
:100EB000882319F3F50180818031E9F28FE5FBE0A9
:100EC000EF16F10461F08CE0E816F10439F08FE1DF
:100ED000EAE0EE16F10419F48FE301C08FE78D8389
:100EE000AE014F5F5F4FB501C8010E94FE05F801DA
:100EF00081818D1508F48D2DF8018183C110BBCF40
:100F0000D81608F0B8CFD182D12CC12CF801848139
:100F10008C151D0409F00CF4B0CF4C2DBE01665F9A
:100F20007F4FC8010E948305F801F180BE01665F12
:100F30007F4FC8010E947D069F2DF81608F4982F58
:100F4000F8019183FFEFCF1ADF0AE0CFEF92FF9213
:100F50000F931F93CF93DF93CDB7DEB728970FB6CC
:100F6000F894DEBF0FBECDBF8C01693020F170E078
:100F70006D30710514F06CE070E0F8016183F12CC4
:100F8000E12CF80184818E151F04C1F0BCF04E2DB8
:100F9000BE016F5F7F4FC8010E94830521E0F80109
:100FA0004181BE016F5F7F4FC8010E941007FFEFB4
:100FB000EF1AFF0AE6CF69E070E0DFCF28960FB6A0
:100FC000F894DEBF0FBECDBFDF91CF911F910F917F
:100FD000FF90EF900895FC01868197810E94E403C1
:100FE00091E0813009F090E0892F08958F929F92CF
:100FF000AF92BF92CF92DF92EF92FF92CF93DF93A7
:10100000EC0169508EEEC82E82E0D82E633040F499
:10101000E62FF0E0EE0FFF1FE25EFE4FC080D180B2
:101020008B81882331F18881811123C00E949A0B22
:101030004B015C010D2C000CEE08FF08CE010E9454
:10104000EB0781110BC00E949A0B6C197D098E0968
:101050009F09681579058A059B0580F3DF91CF917B
:10106000FF90EF90DF90CF90BF90AF909F908F90C8
:101070000895B601DD0C880B990BDF91CF91FF909D
:10108000EF90DF90CF90BF90AF909F908F900C9497
:10109000CB0BCF93DF93EC018E819F810E946E0377
:1010A0008E819F810E947E04488164E48E819F81AD
:1010B0000E940F048A81882331F06981CE01DF917B
:1010C000CF910C94F607DF91CF910895FA01218119
:1010D00030E0322F2227330F330F330F808148E067
:1010E000849FC0011124282B392BDB018C91803186
:1010F000C1F4678170E08681AB01481B5109CA01C8
:101100009695982F8827979587950E940F14605180
:10111000710953E0220F331F5A95E1F72078260F0B
:10112000371FC9010895EF92FF920F931F93CF933A
:10113000DF93CDB7DEB729970FB6F894DEBF0FBEA9
:10114000CDBF8C017B01AE014F5F5F4F0E94EA056E
:101150008823A1F0AE014F5F5F4FB701C8010E9425
:10116000660829960FB6F894DEBF0FBECDBFDF919B
:10117000CF911F910F91FF90EF90089580E894EE2A
:10118000F0CF0E949308813824EE92076CF0BC01E6
:10119000990F880B990B0E94E81220E030E040E0A4
:1011A0005CE30E949D13089560E070E08EEF92EC86
:1011B00008950F931F93CF93DF93CDB7DEB7289792
:1011C0000FB6F894DEBF0FBECDBF8C01462FBE0117
:1011D0006F5F7F4F0E948305882389F0BE016F5F98
:1011E0007F4FC8010E94C10828960FB6F894DEBF51
:1011F0000FBECDBFDF91CF911F910F91089560E099
:1012000070E08EEF92ECF0CFDC0115966C931597A1
:1012100016964C93169770E0FB01E156FF4FE49150
:101220001796EC9317976A547F4FFB0164911896B9
:101230006C93189740E85EE360E070E01D964D9374
:101240005D936D937C93509708951F93CF93DF9395
:10125000EC01162F62E08D810E94DB0C0E949A0B3C
:10126000605D77408109910969877A878B879C87C0
:101270001A8BDF91CF911F910895CF92DF92EF9259
:10128000FF92CF93DF93DC011796CC911797D0E0B4
:101290006111DC2F18962C91189730E0220F331F24
:1012A00023533F4F50E040E0F90185919491FC01B8
:1012B000F080BA0190E080E0EF2DEC23ED1310C038
:1012C0004F5F5F4F1D96CD90DD90ED90FC90509755
:1012D0006C157D058E059F0538F36FEF7FEFCB0111
:1012E000DF91CF91FF90EF90DF90CF9008958F9294
:1012F0009F92AF92BF92CF92DF92EF92FF920F93A5
:101300001F93CF93DF93CDB7DEB7C054D1400FB654
:10131000F894DEBF0FBECDBF8C01F62E0E949A0B53
:10132000F11029C0F801C184D284E384F4849B01C4
:10133000AC012C193D094E095F0969017A0130EDB4
:10134000C31637E0D306E104F104A8F48189C05C38
:10135000DE4F0FB6F894DEBF0FBECDBFDF91CF9149
:101360001F910F91FF90EF90DF90CF90BF90AF90C3
:101370009F908F900895F801618772878387948783
:101380001482138212821182108262E085810E948F
:10139000DB0C61E070E080E090E00E94CB0B61E04C
:1013A000F80185810E94DB0C60E0F80185810E94D4
:1013B000170DF801868185518230E8F48CE494E0C1
:1013C0000E94040C62E0F80185810E94DB0CF801A8
:1013D000828990E00E94040CF89460E0C8010E94A9
:1013E0003D096F3F7F4F8F4F9F4F61F4F801118A86
:1013F000789480E0ACCF64E170E080E090E00E94FF
:10140000CB0BE0CF61E0C8010E943D096F3F7F4FE9
:101410008F4F9F4F59F39E012F5F3F4F79015E0120
:101420003FEBA31A3EEFB30A670160E0C8010E94D8
:101430003D09F601608371838283938361E0C80173
:101440000E943D09F6016483758386839783F8E0E3
:10145000CF0ED11CCA14DB0441F7789430E020E0B1
:10146000F70180809180A280B3804481558166819C
:101470007781FFEF8F169F06AF06BF0631F04F3F13
:101480008FEF58076807780719F4F801118AB1CF70
:10149000F90183E0F595E7958A95E1F7E00FF11FF3
:1014A0008081880F84169506A606B706F0F0808323
:1014B0002F5F3F4FF8E0EF0EF11C2832310581F627
:1014C000F801448120818181280F3327331F8281D5
:1014D000280F311D8381820F932F911D9927481763
:1014E000190699F681E0818B32CF8160E0CFCF92EF
:1014F000DF92EF92FF920F931F93CF93DF938C01B4
:10150000C62F642F0E947709882341F0F801868155
:101510008C3009F45DC038F48B30E1F060E070E0AD
:1015200080EC9FE74CC085518230C0F7D2816D2F8F
:1015300070E0762F662766277F778381682B90E09F
:1015400080E00E94E6122DEC3CEC4CEC5DE30E9446
:101550009D1359C0628170E090E080E00E94E61225
:101560006B017C01F801D381D7FF0AC0AC019B015C
:1015700060E070E080E89FEB0E94D3116B017C017A
:10158000DF706D2F70E090E080E00E94E8122DEC9B
:101590003CEC4CEC5DE30E949D13A70196010E9478
:1015A000D411CC2361F026E636E646EE5FE30E94D6
:1015B0009D1320E030E040E052E40E94D411DF911E
:1015C000CF911F910F91FF90EF90DF90CF900895F2
:1015D000D2816D2F70E090E080E00E94E6126B01F6
:1015E0007C01F80163816F7070E090E080E00E9400
:1015F000E8122DEC3CEC4CEC5DE30E949D13A7013E
:1016000096010E94D411D7FFCCCF9058CACFCF9269
:10161000DF92EF92FF92CF93DF93EC010E94770964
:10162000882341F08E818B3028F08D3040F0855139
:10163000823030F160E070E080EC9FE71AC0698191
:1016400070E090E080E00E94E8122DEC3CEC4CEC65
:101650005DE30E949D136B017C01688170E090E066
:1016600080E00E94E8129B01AC01C701B6010E9414
:10167000D411DF91CF91FF90EF90DF90CF9008953C
:101680006881798176276727762790E080E00E943D
:10169000E6122DEC3CEC4CEC5DE30E949D13E9CF8F
:1016A0001F920F920FB60F9211242F933F938F9397
:1016B0009F93AF93BF938091F2019091F301A0911A
:1016C000F401B091F5013091F10123E0230F2D37A2
:1016D00068F126E8230F0296A11DB11D2093F101A8
:1016E0008093F2019093F301A093F401B093F5017C
:1016F0008091ED019091EE01A091EF01B091F00188
:101700000196A11DB11D8093ED019093EE01A09370
:10171000EF01B093F001BF91AF919F918F913F91F5
:101720002F910F900FBE0F901F9018950196A11D3D
:10173000B11DD4CF2FB7F8946091F2017091F301ED
:101740008091F4019091F5012FBF08953FB7F8946F
:101750008091ED019091EE01A091EF01B091F00127
:1017600026B5A89B05C02F3F19F00196A11DB11DFC
:101770003FBFBA2FA92F982F8827BC01CD01620F38
:10178000711D811D911D42E0660F771F881F991FF3
:101790004A95D1F708958F929F92AF92BF92CF92C0
:1017A000DF92EF92FF926B017C010E94A60B4B012E
:1017B0005C01C114D104E104F104E9F00E94D211EA
:1017C0000E94A60B681979098A099B09683E734033
:1017D0008105910570F321E0C21AD108E108F108F2
:1017E00088EE880E83E0981EA11CB11CC114D104A0
:1017F000E104F10429F7FF90EF90DF90CF90BF90C4
:10180000AF909F908F9008958230910538F0880FA7
:10181000991F880F991F05970197F1F708957894FC
:1018200084B5836084BD85B5836085BDEEE6F0E058
:10183000808181608083E1E8F0E082E080838081C4
:1018400081608083E0E8F0E0808181608083E1EB6B
:10185000F0E0808184608083E0EBF0E08081816053
:10186000808387E880937A001092C10008958830C1
:1018700020F08D3008F48DE08E502091000190E42E
:10188000299F900111248770822B80937C00809186
:101890007A00806480937A0080917A0086FDFCCF84
:1018A000809178009091790008951F93CF93DF93F2
:1018B000182FEB0161E00E94DB0C209739F460E007
:1018C000812FDF91CF911F910C94170DCF3FD10540
:1018D00011F461E0F5CFE12FF0E0E857FF4FE4911C
:1018E000E43031F140F4E230B1F0E330E1F0C038FF
:1018F000D1057CF7E4CFE83029F1E93059F1E53042
:10190000B1F780918000806280938000D0938B003B
:10191000C0938A0004C084B5806884BDC7BDDF91D0
:10192000CF911F91089584B5806284BDC8BDF7CF63
:1019300080918000806880938000D0938900C0935C
:101940008800EDCF8091B00080688093B000C09394
:10195000B300E5CF8091B00080628093B000C09367
:10196000B400DDCF843081F028F48230E9F0833098
:10197000F9F00895883071F0893091F08530B9F42C
:10198000809180008F7D03C0809180008F7780934D
:10199000800008958091B0008F778093B000089503
:1019A0008091B0008F7DF9CF84B58F7784BD089585
:1019B00084B58F7DFBCFCF93DF9390E0FC01E156A0
:1019C000FF4F24918A549F4FFC0184918823C9F0D2
:1019D00090E0880F991FFC01EF51FF4FA591B49142
:1019E000FC01E952FF4FC591D49161110DC09FB721
:1019F000F8948C91209582238C93888128232883C6
:101A00009FBFDF91CF910895623051F49FB7F89452
:101A10003C91822F809583238C93E8812E2BEFCFEE
:101A20008FB7F894EC912E2B2C938FBFEACF1F9396
:101A3000CF93DF93282F30E0F901E857FF4F8491CF
:101A4000F901E156FF4FD491F901EA54FF4FC491D7
:101A5000CC23A9F0162F81110E94B20CEC2FF0E0DC
:101A6000EE0FFF1FE952FF4FA591B4918FB7F89485
:101A7000EC91111108C0D095DE23DC938FBFDF916C
:101A8000CF911F910895DE2BF8CFFC01918D228D0F
:101A9000892F90E0805C9F4F821B91098F7399275B
:101AA0000895FC01918D828D981731F0828DE80F99
:101AB000F11D858D90E008958FEF9FEF0895FC0153
:101AC000918D828D981761F0A28DAE0FBF2FB11D41
:101AD0005D968C91928D9F5F9F73928F90E0089599
:101AE0008FEF9FEF0895FC01538D448D252F30E03B
:101AF000842F90E0821B930B541710F0CF9608951B
:101B00000197089588EC9EE0892B49F080E090E0F1
:101B1000892B29F00E94C80E81110C9400000895B1
:101B2000FC01A48DA80FB92FB11DA35ABF4F2C9152
:101B3000848D90E001968F739927848FA689B78949
:101B40002C93A089B1898C9180648C93938D848D22
:101B5000981306C00288F389E02D80818F7D8083F1
:101B60000895CF93DF93EC01888D8823B9F0AA897B
:101B7000BB89E889F9898C9185FD03C0808186FD48
:101B80000DC00FB607FCF7CF8C9185FFF2CF808197
:101B900085FFEDCFCE010E94900DE9CFDF91CF916F
:101BA0000895EF92FF920F931F93CF93DF93EC0171
:101BB00081E0888F9B8D8C8D981316C0E889F989F8
:101BC000808185FF11C0EE89FF896083E889F989EA
:101BD00080818064808381E090E0DF91CF911F91CC
:101BE0000F91FF90EF900895F62E0B8D10E00F5F90
:101BF0001F4F0F731127E02E8C8D8E110CC00FB666
:101C000007FCFACFE889F989808185FFF5CFCE01FD
:101C10000E94900DF1CFEB8DEC0FFD2FF11DE35ADB
:101C2000FF4FF0820B8FEA89FB8980818062D2CFDF
:101C3000CF92DF92EF92FF921F93CF93DF93EC014D
:101C40006A017B01122FE889F98982E08083C1143F
:101C500081EED806E104F104A1F060E079E08DE3C3
:101C600090E0A70196010E942314215031094109F7
:101C700051095695479537952795211580E13807E5
:101C800098F0E889F989108260E874E88EE190E0C4
:101C9000A70196010E9423142150310941095109DD
:101CA0005695479537952795EC85FD853083EE85CC
:101CB000FF852083188EEC89FD891083EA89FB89D2
:101CC000808188698083EA89FB8980818F7D808318
:101CD000DF91CF911F91FF90EF90DF90CF9008950B
:101CE0001F920F920FB60F9211242F938F939F93F1
:101CF000EF93FF93E0910602F09107028081E0915B
:101D00000C02F0910D0282FD1BC0908180910F02A8
:101D10008F5F8F7320911002821741F0E0910F02C4
:101D2000F0E0EA50FE4F958F80930F02FF91EF9104
:101D30009F918F912F910F900FBE0F901F9018952C
:101D40008081F4CF1F920F920FB60F9211242F9320
:101D50003F934F935F936F937F938F939F93AF9333
:101D6000BF93EF93FF9386EF91E00E94900DFF9158
:101D7000EF91BF91AF919F918F917F916F915F9103
:101D80004F913F912F910F900FBE0F901F9018957C
:101D900086EF91E00E94450D21E0892B09F420E0B7
:101DA000822F0895E6EFF1E01382128288EE93E02D
:101DB000A0E0B0E084839583A683B78388E291E0B6
:101DC0009183808385EC90E09587848784EC90E014
:101DD0009787868780EC90E0918B808B81EC90E0F8
:101DE000938B828B82EC90E0958B848B86EC90E0D9
:101DF000978B868B118E128E138E148E0895AF9250
:101E0000BF92CF92DF92EF92FF920F931F93CF93E7
:101E1000DF936C017B018B01040F151FEB015E0149
:101E2000AE18BF08C017D10759F06991D601ED91DE
:101E3000FC910190F081E02DC6010995892B79F77D
:101E4000C501DF91CF911F910F91FF90EF90DF902F
:101E5000CF90BF90AF900895FB0101900020E9F76B
:101E60003197AF01461B570BDC01ED91FC910280CD
:101E7000F381E02D09946115710511F00C942C0F7C
:101E800090E080E00895DC01ED91FC910190F081FB
:101E9000E02D099466E371E00C942C0F0F931F93CF
:101EA000CF93DF938C01D0E0C0E06115710519F08C
:101EB0000E942C0FEC01C8010E944A0F8C0F9D1F3D
:101EC000DF91CF911F910F9108958F929F92AF92C2
:101ED000BF92EF92FF920F931F93CF93DF93CDB7F3
:101EE000DEB7A1970FB6F894DEBF0FBECDBF7C0161
:101EF000FA01CB0119A2223008F42AE08E010F5D0D
:101F00001F4F822E912CB12CA12CBF01A501940151
:101F10000E942314F901CA016A300CF5605DD801F2
:101F20006E938D01232B242B252B79F790E080E0F5
:101F3000109721F0BD01C7010E942C0FA1960FB68A
:101F4000F894DEBF0FBECDBFDF91CF911F910F91EF
:101F5000FF90EF90BF90AF909F908F900895695C35
:101F6000DECFCF92DF92EF92FF920F931F93CF932A
:101F7000DF932115310581F4DC01ED91FC91019095
:101F8000F081E02D642FDF91CF911F910F91FF9091
:101F9000EF90DF90CF9009942A30310501F52AE0C7
:101FA00077FF1DC06A017B01EC016DE20E94430FC7
:101FB0008C0144275527BA014C195D096E097F0928
:101FC0002AE0CE010E94650F800F911FDF91CF9113
:101FD0001F910F91FF90EF90DF90CF900895DF91C8
:101FE000CF911F910F91FF90EF90DF90CF900C94C5
:101FF000650F9A01AB01770F660B770B0C94B10F4D
:102000002115310541F4DC01ED91FC910190F08145
:10201000E02D642F09940C94650F9A01AB0170E0D8
:1020200060E00C9400102F923F924F925F926F925B
:102030007F928F929F92AF92BF92CF92DF92EF9258
:10204000FF921F93CF93DF93EC016A017B01722E05
:10205000AB019601CB01B6010E940A1469E371E05D
:10206000811126C046015701E894B7F82FEF3FEFE2
:102070004FE75FE7C501B4010E940A1481110CC04B
:102080002FEF3FEF4FE75FE7C501B4010E94401219
:102090006DE371E0181664F02FEF3FEF4FE75FE458
:1020A000C701B6010E9498131816B4F461E471E0F8
:1020B000CE01DF91CF911F91FF90EF90DF90CF90F5
:1020C000BF90AF909F908F907F906F905F904F9058
:1020D0003F902F900C942C0F2FEF3FEF4FE75FECCA
:1020E000C701B6010E94401287FDE0CF20E030E03A
:1020F000A901C701B6010E944012312C212C87FF93
:1021000009C06DE2CE010E94430F1C01F7FAF09462
:10211000F7F8F09410E060E070E080E09FE3711663
:1021200041F020E030E040E251E40E9445121F5FA0
:10213000F6CFA70196010E94D4112B013C010E9409
:10214000B7124B015C012AE0BC01A401CE010E9440
:10215000650F7C01E20CF31C1123B1F1C501B40140
:102160000E94E6129B01AC01C301B2010E94D3118F
:102170004B015C016EE2CE010E94430FE80EF91E96
:10218000115010F120E030E040E251E4C501B4010B
:102190000E949D132B013C010E94B7124B014AE0A3
:1021A00050E0CE010E940D10E80EF91EB40190E03F
:1021B00080E00E94E6129B01AC01C301B2010E94C3
:1021C000D3114B015C01DCCFC701DF91CF911F918F
:1021D000FF90EF90DF90CF90BF90AF909F908F9047
:1021E0007F906F905F904F903F902F9008950C9448
:1021F00013100F931F93CF93DF93EC010E949A0B60
:10220000688779878A879B87E881F9810484F585C7
:10221000E02DCE01099597FF15C00E949A0B088505
:1022200019852A853B85601B710B820B930B0C81F2
:102230001D812E813F81601771078207930720F36C
:102240008FEF9FEFDF91CF911F910F910895FF9234
:102250000F931F93CF93DF93EC018B01F42ECE01EC
:102260000E94F91097FD1DC08D329105D1F09C019F
:10227000205331092A303105A0F0FF2019F08E32A9
:10228000910579F00130110551F00230110589F402
:102290008D30910571F05CF40997029750F08FEF43
:1022A0009FEFDF91CF911F910F91FF90089580973D
:1022B000B1F7E881F9810284F385E02DCE0109951B
:1022C000CECFBF92CF92DF92EF92FF920F931F93E8
:1022D000CF93DF938C01C42F40E00E942711FC01B3
:1022E000C12CD12C760197FD3EC0B12C0C2E000CD8
:1022F000DD0BCE17DF07D9F0ED32F10509F43FC051
:10230000CF01C0970A9798F4AAE0B0E0A701960120
:102310000E944B146F01FF0FEE08FF08C60ED71E78
:10232000E81EF91E80E3C81AD108E108F108D801B7
:10233000ED91FC910284F385E02DC8010995C80157
:102340000E94F910FC01C0970A9798F2CE17DF0798
:1023500081F2BB2041F0F094E094D094C094C11C71
:10236000D11CE11CF11CC701B601DF91CF911F9177
:102370000F91FF90EF90DF90CF90BF900895BB2416
:10238000B394D5CF08950E940F0C0E94C2110E94F1
:10239000A200C2E8DDE00E945E012097E1F30E9406
:1023A000820DF9CF08955058BB27AA270E94EB1140
:1023B0000C945E130E94501338F00E94571320F0C3
:1023C00039F49F3F19F426F40C944D130EF4E09564
:1023D000E7FB0C944713E92F0E946F1358F3BA17C9
:1023E000620773078407950720F079F4A6F50C942B
:1023F00091130EF4E0950B2EBA2FA02D0B01B9010D
:1024000090010C01CA01A0011124FF27591B99F06A
:10241000593F50F4503E68F11A16F040A22F232F76
:10242000342F4427585FF3CF469537952795A795C6
:10243000F0405395C9F77EF41F16BA0B620B730B6D
:10244000840BBAF09150A1F0FF0FBB1F661F771FDE
:10245000881FC2F70EC0BA0F621F731F841F48F493
:10246000879577956795B795F7959E3F08F0B0CF1C
:102470009395880F08F09927EE0F97958795089503
:102480000E94231308F481E008950E9459120C94CD
:102490005E130E94571358F00E94501340F029F425
:1024A0005F3F29F00C94471351110C9492130C9434
:1024B0004D130E946F1368F39923B1F3552391F3E1
:1024C000951B550BBB27AA2762177307840738F0A3
:1024D0009F5F5F4F220F331F441FAA1FA9F335D000
:1024E0000E2E3AF0E0E832D091505040E695001CB4
:1024F000CAF72BD0FE2F29D0660F771F881FBB1F6E
:10250000261737074807AB07B0E809F0BB0B802D4B
:10251000BF01FF2793585F4F3AF09E3F510578F077
:102520000C9447130C9492135F3FE4F3983ED4F35A
:10253000869577956795B795F7959F5FC9F7880F4B
:10254000911D9695879597F90895E1E0660F771F9D
:10255000881FBB1F621773078407BA0720F0621B2E
:10256000730B840BBA0BEE1F88F7E09508950E9459
:10257000771388F09F5798F0B92F9927B751B0F08B
:10258000E1F0660F771F881F991F1AF0BA95C9F7F7
:1025900014C0B13091F00E949113B1E008950C94F1
:1025A0009113672F782F8827B85F39F0B93FCCF3A4
:1025B000869577956795B395D9F73EF49095809574
:1025C000709561957F4F8F4F9F4F0895E89409C094
:1025D00097FB3EF490958095709561957F4F8F4F56
:1025E0009F4F9923A9F0F92F96E9BB279395F6956C
:1025F000879577956795B795F111F8CFFAF4BB0FEA
:1026000011F460FF1BC06F5F7F4F8F4F9F4F16C04D
:10261000882311F096E911C0772321F09EE8872FD7
:10262000762F05C0662371F096E8862F70E060E093
:102630002AF09A95660F771F881FDAF7880F96950C
:10264000879597F90895990F0008550FAA0BE0E8B0
:10265000FEEF16161706E807F907C0F01216130664
:10266000E407F50798F0621B730B840B950B39F4A4
:102670000A2661F0232B242B252B21F408950A260A
:1026800009F4A140A6958FEF811D811D089597F94A
:102690009F6780E870E060E008959FEF80EC089508
:1026A00000240A9416161706180609060895002431
:1026B0000A9412161306140605060895092E0394AB
:1026C000000C11F4882352F0BB0F40F4BF2B11F41F
:1026D00060FF04C06F5F7F4F8F4F9F4F089557FD7E
:1026E0009058440F551F59F05F3F71F04795880F80
:1026F00097FB991F61F09F3F79F087950895121617
:1027000013061406551FF2CF4695F1DF08C01616C2
:1027100017061806991FF1CF869571056105089473
:102720000895E894BB2766277727CB0197F908958A
:102730000E94231308F48FEF08950E94B0130C94A5
:102740005E130E94501338F00E94571320F0952317
:1027500011F00C9447130C944D1311240C94921304
:102760000E946F1370F3959FC1F3950F50E0551FB2
:10277000629FF001729FBB27F00DB11D639FAA27D6
:10278000F00DB11DAA1F649F6627B00DA11D661F25
:10279000829F2227B00DA11D621F739FB00DA11D46
:1027A000621F839FA00D611D221F749F3327A00D00
:1027B000611D231F849F600D211D822F762F6A2F9C
:1027C00011249F5750409AF0F1F088234AF0EE0F01
:1027D000FF1FBB1F661F771F881F91505040A9F72E
:1027E0009E3F510580F00C9447130C9492135F3F69
:1027F000E4F3983ED4F3869577956795B795F7956A
:10280000E7959F5FC1F7FE2B880F911D96958795E1
:1028100097F908950E942313880B990B089597FB4D
:10282000072E16F4009407D077FD09D00E945614A5
:1028300007FC05D03EF4909581959F4F08957095C3
:1028400061957F4F0895A1E21A2EAA1BBB1BFD01C3
:102850000DC0AA1FBB1FEE1FFF1FA217B307E4077F
:10286000F50720F0A21BB30BE40BF50B661F771FD7
:10287000881F991F1A9469F76095709580959095B7
:102880009B01AC01BD01CF010895EE0FFF1F059024
:10289000F491E02D09940E946A14A59F900DB49FB5
:1028A000900DA49F800D911D11240895AA1BBB1BA0
:1028B00051E107C0AA1FBB1FA617B70710F0A61B40
:1028C000B70B881F991F5A95A9F780959095BC0161
:1028D000CD010895A29FB001B39FC001A39F700DC9
:1028E000811D1124911DB29F700D811D1124911D18
:1028F0000895F999FECF92BD81BDF89A992780B5C8
:102900000895262FF999FECF1FBA92BD81BD20BD33
:102910000FB6F894FA9AF99A0FBE01960895F894B2
:02292000FFCFE7
:10292200015A580057424465775465726D696E6169
:10293200746F7241323032343034313041005E00D3
:10294200BC00770100000000D10DFF0E730DB10D28
:10295200450D5F0D510D0D0A006E616E00696E66C8
:06296200006F7666000024
:00000001FF
