:100000000C9462000C948A000C948A000C948A0070
:100010000C948A000C948A000C948A000C948A0038
:100020000C948A000C948A000C948A000C948A0028
:100030000C948A000C948A000C948A000C948A0018
:100040000C94C7100C948A000C94EE130C9420149A
:100050000C948A000C948A000C948A000C948A00F8
:100060000C948A000C948A0000000009000302002E
:10007000000405080000000000000000000000016E
:10008000020408102040800102040810200102042C
:100090000810204080400404040404040404020204
:1000A000020202020303030303030202030000002F
:1000B00000250028002B0000000000240027002A53
:1000C0000000501411241FBECFEFD4E0DEBFCDBF1F
:1000D00011E0A0E0B1E0E0E5F4E302C005900D928C
:1000E000A437B107D9F722E0A4E7B1E001C01D921F
:1000F000AA36B207E1F710E0C2E6D0E004C02197CB
:10010000FE010E94DC19C136D107C9F70E945317BE
:100110000C94261A0C9400000C94101A0C94181AC3
:10012000CF92DF92EF92FF92CF93DF9361E087E06F
:100130000E94521261E086E00E94521261E083E068
:100140000E94521261E087E00E948E1260E083E11B
:100150000E94521260E080E10E94521261E083E04E
:100160000E94521261E089E00E94521226E040E0B3
:100170005BE460E070E08DEC91E00E9496131092D9
:10018000BD011092BC0180918100887F81608093C5
:10019000810085B5887F816085BDC0918C01D0913B
:1001A0008D01CE010E948C00682F70E090E080E00D
:1001B0000E947D1860938001709381018093820179
:1001C00090938301CE0101960E948C00682F70E00D
:1001D00090E080E00E947D1860937801709379012F
:1001E00080937A0190937B01CE0102960E948C004D
:1001F000682F70E06C597F4F072E000C880B990B0D
:100200000E947F1860937C0170937D0180937E0132
:1002100090937F01CE0103960E948C00682F70E0BE
:1002200090E080E00E947D186093740170937501E6
:100230008093760190937701CE0104960E948C0002
:1002400090E09093BD018093BC012596CE010E9461
:100250008C0090E0873991050CF0D0C09093BB01E1
:100260008093BA0120E030E048EC52E460917801DC
:100270007091790180917A0190917B010E94D5174C
:100280002091800130918101409182015091830140
:100290000E9464176B017C01C0928801D092890191
:1002A000E0928A01F0928B0120E030E048EC52E4C9
:1002B0006091740170917501809176019091770140
:1002C0000E94D51720917C0130917D0140917E01E3
:1002D00050917F010E94641760938401709385019F
:1002E000809386019093870120E030E044EB52E454
:1002F000C701B6010E942F191816A4F580E090E0FE
:10030000A0EAB1E48093880190938901A0938A01C7
:10031000B0938B018093800190938101A09382011F
:10032000B0938301109278011092790110927A01B2
:1003300010927B0164E180918C0190918D010E946B
:100340008E00609178017091790180917A0190918D
:100350007B010E944E1880918C0190918D01019635
:100360000E948E0020E030E046E953E46091840171
:100370007091850180918601909187010E942F19CB
:1003800018160CF044C080E090E0ACEDB2E480932D
:10039000840190938501A0938601B0938701809397
:1003A0007C0190937D01A0937E01B0937F01109218
:1003B000740110927501109276011092770180916C
:1003C0008C0190918D016AE002960E948E006091EE
:1003D00074017091750180917601909177010E946E
:1003E0004E1880918C0190918D010396DF91CF91F1
:1003F000FF90EF90DF90CF900C948E001092BB0195
:100400001092BA0160E0CE010E948E002BCFDF91E6
:10041000CF91FF90EF90DF90CF9008954F925F9231
:100420006F927F928F929F92AF92BF92CF92DF9204
:10043000EF92FF92CF93DF9300D000D0CDB7DEB71D
:1004400080918C0190918D019A83898304960E94FA
:100450008C00E82EF12CF092BD01E092BC01898164
:100460009A8105960E948C0090E09093BB01809346
:10047000BA01B70185E00E94CC116091BA01709178
:10048000BB0189E00E94CC1180ED97E09093BF0101
:100490008093BE01109292011092930110929401E8
:1004A0001092950110928E0110928F01109290017E
:1004B000109291011092B6011092B7011092B801FA
:1004C0001092B90120E030E040EA51E46091B601B9
:1004D0007091B7018091B8019091B9010E94D01735
:1004E00087FF4CC083E10E94AE11BC01990F880BBD
:1004F000990B0E947F1820E030E040EA50E40E940F
:10050000341920E030E040E85AE30E94341929E829
:1005100031E440E450E40E9434199B01AC01609145
:1005200092017091930180919401909195010E94A4
:100530006417609392017093930180939401909358
:10054000950160E471E080E090E00E94421120E0BB
:1005500030E040E85FE36091B6017091B7018091AF
:10056000B8019091B9010E9464176093B60170932D
:10057000B7018093B8019093B901A4CF20E030E097
:1005800040EA51E46091920170919301809194014D
:10059000909195010E94D5176B017C0120E030E01D
:1005A000A9010E942F19181624F0F7FAF094F7F811
:1005B000F094C092AA01D092AB01E092AC01F0920B
:1005C000AD018DEC91E00E94BC12892B79F041E0E5
:1005D00070E060E08DEC91E00E94F1166093C00144
:1005E0007093C1018093C2019093C3018091C001B7
:1005F0009091C101A091C201B091C3018136934E87
:10060000A641B10509F0F9C0E0908C01F0908D0190
:10061000C7010E948C00682F70E090E080E00E948B
:100620007D184B015C018092800190928101A09223
:100630008201B0928301C70101960E948C00682F4D
:1006400070E090E080E00E947D182B013C01409218
:1006500078015092790160927A0170927B01C70112
:1006600002960E948C00682F70E06C597F4F072E15
:10067000000C880B990B0E947F1869837A838B8307
:100680009C8360937C0170937D0180937E019093A5
:100690007F01C70103960E948C00682F70E090E0F4
:1006A00080E00E947D186B017C01C0927401D092A1
:1006B0007501E0927601F092770120E030E048EC9D
:1006C00052E4C301B2010E94D517A50194010E9412
:1006D0006417609388017093890180938A019093D5
:1006E0008B0120E030E048EC52E4C701B6010E94E3
:1006F000D51729813A814B815C810E9464176093F0
:10070000840170938501809386019093870161E055
:1007100071E08DEC91E00E94B914409188015091F4
:10072000890160918A0170918B0122E030E08DECAB
:1007300091E00E94751669E171E08DEC91E00E94F4
:10074000B9144091840150918501609186017091A6
:10075000870122E030E08DEC91E00E94751669E19E
:1007600071E08DEC91E00E94B91440919601509196
:100770009701609198017091990122E030E08DEC31
:1007800091E00E94751669E171E08DEC91E00E94A4
:10079000B9144091AA015091AB016091AC017091E4
:1007A000AD0122E030E08DEC91E00E94751669E128
:1007B00071E08DEC91E00E94B9146091BC017091E0
:1007C000BD014AE050E08DEC91E00E94771569E1AF
:1007D00071E08DEC91E00E94B9146091BA017091C2
:1007E000BB014AE050E08DEC91E00E94771569E191
:1007F00071E08DEC91E00E94CC148091C001909149
:10080000C101A091C201B091C3010197A109B10931
:100810008F3F9105A105B105A0F485B5887F816062
:1008200085BD9091C001692F8091C1019093BC0159
:100830008093BD0180918C0190918D0104960E945E
:100840008E008091C0019091C101A091C201B09130
:10085000C3018F309742A105B10589F470E060E0D3
:1008600085E00E94CC111092BD011092BC018091D4
:100870008C0190918D0160E004960E948E00809121
:10088000C0019091C101A091C201B091C301AC011E
:10089000BD01405D57406109710947395105610546
:1008A000710578F4805D97409093BB018093BA0105
:1008B00020918C0130918D01682FC90105960E940D
:1008C0008E006091C0017091C1018091C201909130
:1008D000C3016B017C01A0E1CA1AA7E2DA0AE108B0
:1008E000F108B0E3CB16B5E7DB06E104F10408F04C
:1008F00069C00E947F1820E030E44CE156E40E9479
:10090000631720E030E048EC52E40E94D5176B01F9
:100910007C01C0928801D0928901E0928A01F09214
:100920008B010E9447184B01072E000C880B990B76
:100930000E947F189B01AC012093800130938101BC
:100940004093820150938301C701B6010E9463174F
:1009500020E030E048EC52E40E94341960937801C2
:100960007093790180937A0190937B01682D809137
:100970008C0190918D010E948E00609178017091A0
:10098000790180917A0190917B010E944E188091AB
:100990008C0190918D0101960E948E006BE171E0B7
:1009A0008DEC91E00E94B914409188015091890129
:1009B00060918A0170918B0122E030E08DEC91E032
:1009C0000E9477166091C0017091C1018091C201AF
:1009D0009091C3016B017C0120E4C21A2CE9D20A78
:1009E000E108F108A8EBCA16A8E8DA06E104F10468
:1009F00008F074C00E947F1820E030E44CE157E416
:100A00000E94631720E030E048EC52E40E94D517C2
:100A10004B015C018092840190928501A092860135
:100A2000B09287010E944718072E000C880B990B83
:100A30000E947F186B017C01C0927C01D0927D01E5
:100A4000E0927E01F0927F01AC019B01C501B401EF
:100A50000E94631720E030E048EC52E40E94341911
:100A60006093740170937501809376019093770180
:100A700020E030E048EC52E4C701B6010E94631761
:100A80000E944E1880918C0190918D0102960E94D7
:100A90008E00609174017091750180917601909142
:100AA00077010E944E1880918C0190918D010396E0
:100AB0000E948E006CE271E08DEC91E00E94B9140E
:100AC0004091840150918501609186017091870168
:100AD00022E030E08DEC91E00E9477168091C00119
:100AE0009091C101A091C201B091C301883E934091
:100AF000A105B10509F086C170E060E085E00E94C3
:100B0000CC1185B5887F836085BD60E083E00E945D
:100B10008E1260E087E00E948E121092B201109255
:100B2000B3011092B4011092B50180E090E8ABEBF4
:100B3000B4E48093B6019093B701A093B801B09349
:100B4000B90120E030E0A9016091B6017091B701D0
:100B50008091B8019091B9010E942F1918160CF0DC
:100B60009EC080E10E94AE11BC01990F880B990BC9
:100B70000E947F182DEC3CEC4CE453E40E94D51706
:100B800020E030E040E952E40E94341920918801CD
:100B90003091890140918A0150918B010E94D017B8
:100BA00087FD7DC061E086E00E948E1220E030E08B
:100BB00040E05FE36091B6017091B7018091B801A8
:100BC0009091B9010E94341920E030E04AEF53E4DB
:100BD0000E9464170E944E18CB010E947B1160E0B6
:100BE00086E00E948E1220E030E040E05FE36091FA
:100BF000B6017091B7018091B8019091B9010E943E
:100C0000341920E030E04AEF53E40E9464170E9458
:100C10004E18CB010E947B1120E030E040E85FE3FA
:100C20006091B6017091B7018091B8019091B901BE
:100C30000E9463176093B6017093B7018093B80167
:100C40009093B90120E030E040E85FE36091B201A9
:100C50007091B3018091B4019091B5010E94641725
:100C60006093B2017093B3018093B4019093B50186
:100C700020E030E040E85FE36091AE017091AF01A9
:100C80008091B0019091B1010E9464176093AE0110
:100C90007093AF018093B0019093B10152CF80E087
:100CA00090E6AAE6B6E48093B6019093B701A093CC
:100CB000B801B093B90120E030E0A9016091B6011C
:100CC0007091B7018091B8019091B9010E942F19DC
:100CD00018160CF07CC080E10E94AE11BC01990F87
:100CE000880B990B0E947F182DEC3CEC4CE453E4EC
:100CF0000E94D51720E030E040E952E40E94341908
:100D0000209188013091890140918A0150918B0195
:100D10000E94D01787FD5BC061E086E00E948E12C2
:100D20008091BE019091BF018C5D95400E947B1126
:100D300060E086E00E948E128091BE019091BF011A
:100D4000845A96400E947B1120E030E040E85FE347
:100D50006091B6017091B7018091B8019091B9018D
:100D60000E9463176093B6017093B7018093B80136
:100D70009093B90120E030E040E85FE36091B20178
:100D80007091B3018091B4019091B5010E946417F4
:100D90006093B2017093B3018093B4019093B50155
:100DA00020E030E040E85FE36091AE017091AF0178
:100DB0008091B0019091B1010E9464176093AE01DF
:100DC0007093AF018093B0019093B10174CF68EE3E
:100DD00073E080E090E00E94421161E087E00E94B1
:100DE0008E126CE371E08DEC91E00E94CC1485B51D
:100DF000887F816085BD6091BC017091BD0185E0F7
:100E00000E94CC118091C0019091C101A091C201BA
:100E1000B091C301893E9340A105B10509F088C195
:100E200070E060E085E00E94CC1185B5887F83602A
:100E300085BD61E083E00E948E1260E087E00E9441
:100E40008E121092B2011092B3011092B40110925E
:100E5000B50180E090E8ABEBB4E48093B6019093E9
:100E6000B701A093B801B093B90120E030E0A90127
:100E70006091B6017091B7018091B8019091B9016C
:100E80000E942F1918160CF09FC080E10E94AE112D
:100E9000BC01990F880B990B0E947F182DEC3CEC3C
:100EA0004CE453E40E94D51720E030E040E952E4DE
:100EB0000E9434192091840130918501409186016E
:100EC000509187010E942F1918160CF47DC061E023
:100ED00086E00E948E1220E030E040E05FE3609107
:100EE000B6017091B7018091B8019091B9010E944B
:100EF000341920E030E04AEF53E40E9464170E9466
:100F00004E18CB010E947B1160E086E00E948E1299
:100F100020E030E040E05FE36091B6017091B701FE
:100F20008091B8019091B9010E94341920E030E01D
:100F30004AEF53E40E9464170E944E18CB010E94AE
:100F40007B1120E030E040E85FE36091B6017091F2
:100F5000B7018091B8019091B9010E946317609325
:100F6000B6017093B7018093B8019093B90120E066
:100F700030E040E85FE36091B2017091B30180918D
:100F8000B4019091B5010E9464176093B20170930F
:100F9000B3018093B4019093B50120E030E040E8C4
:100FA0005FE36091AE017091AF018091B0019091CB
:100FB000B1010E9464176093AE017093AF018093FA
:100FC000B0019093B10151CF80E090E6AAE6B6E47B
:100FD0008093B6019093B701A093B801B093B90183
:100FE00020E030E0A9016091B6017091B7018091D5
:100FF000B8019091B9010E942F1918160CF07DC00C
:1010000080E10E94AE11BC01990F880B990B0E94E0
:101010007F182DEC3CEC4CE453E40E94D51720E003
:1010200030E040E952E40E9434192091840130916B
:10103000850140918601509187010E942F19181651
:101040000CF45BC061E086E00E948E128091BE01CC
:101050009091BF018C5D95400E947B1160E086E01D
:101060000E948E128091BE019091BF01845A9640D9
:101070000E947B1120E030E040E85FE36091B60120
:101080007091B7018091B8019091B9010E946317E6
:101090006093B6017093B7018093B8019093B90142
:1010A00020E030E040E85FE36091B2017091B3016D
:1010B0008091B4019091B5010E9464176093B201D0
:1010C0007093B3018093B4019093B50120E030E0B8
:1010D00040E85FE36091AE017091AF018091B00193
:1010E0009091B1010E9464176093AE017093AF01BB
:1010F0008093B0019093B10173CF68EE73E080E00C
:1011000090E00E94421161E087E00E948E126CE341
:1011100071E08DEC91E00E94CC1485B5887F8160F0
:1011200085BD6091BC017091BD0185E00E94CC112C
:101130008091C0019091C101A091C201B091C30101
:10114000813A9648A140B10509F04EC370E060E0D5
:1011500085E00E94CC1185B5887F836085BD61E004
:1011600083E00E948E1260E087E00E948E1280E190
:101170000E94AE11BC01990F880B990B0E947F1839
:101180002DEC3CEC4CE453E40E94D51720E030E019
:1011900040E952E40E94341920E030E044EB52E48C
:1011A0000E94D01787FF6FC080E090E5A3ECB6E403
:1011B0008093B6019093B701A093B801B093B901A1
:1011C00020E030E0A9016091B6017091B7018091F3
:1011D000B8019091B9010E942F1918160CF0C5C0E2
:1011E00080E10E94AE11BC01990F880B990B0E94FF
:1011F0007F182DEC3CEC4CE453E40E94D51720E022
:1012000030E040E952E40E94341920E030E044EB41
:1012100052E40E942F1918160CF4A7C061E086E072
:101220000E948E128091BE019091BF0163E070E038
:101230000E94A619CB010E947B1160E086E00E940B
:101240008E128091BE019091BF0163E070E00E9418
:10125000A619CB010E947B1120E030E040E85FE35B
:101260006091B6017091B7018091B8019091B90178
:101270000E9463176093B6017093B7018093B80121
:101280009093B9019DCF60E083E00E948E1280E0D0
:1012900090E5A3ECB6E48093B6019093B701A093D8
:1012A000B801B093B90120E030E0A9016091B60126
:1012B0007091B7018091B8019091B9010E942F19E6
:1012C00018160CF052C080E10E94AE11BC01990FBB
:1012D000880B990B0E947F182DEC3CEC4CE453E4F6
:1012E0000E94D51720E030E040E952E40E94341912
:1012F00020E030E044EB52E40E94D01787FD35C077
:1013000061E086E00E948E128091BE019091BF0143
:1013100063E070E00E94A619CB010E947B1160E09F
:1013200086E00E948E128091BE019091BF0163E021
:1013300070E00E94A619CB010E947B1120E030E0F2
:1013400040E85FE36091B6017091B7018091B80108
:101350009091B9010E9463176093B6017093B70131
:101360008093B8019093B9019ECF68EE73E080E05E
:1013700090E00E94421161E083E00E948E12109280
:10138000B2011092B3011092B4011092B501109203
:10139000AE011092AF011092B0011092B10180E045
:1013A00090E5A3ECB6E48093B6019093B701A093C7
:1013B000B801B093B90120E030E0A9016091B60115
:1013C0007091B7018091B8019091B9010E942F19D5
:1013D00018160CF010C120E030E040E85FE36091A7
:1013E000B2017091B3018091B4019091B5010E9456
:1013F000D017811127C00E9411116093A60170932C
:10140000A7018093A8019093A90180E10E94AE11E9
:10141000BC01990F880B990B0E947F182DEC3CECB6
:101420004CE453E40E94D51720E030E040E952E458
:101430000E94341960939A0170939B0180939C01E0
:1014400090939D0120E030E046E153E46091B201C9
:101450007091B3018091B4019091B5010E942F1950
:1014600018160CF019C10E941111C090A601D0905D
:10147000A701E090A801F090A9016C197D098E09DF
:101480009F096093A2017093A3018093A40190939C
:10149000A50180E10E94AE11BC01990F880B990B48
:1014A0000E947F182DEC3CEC4CE453E40E94D517CD
:1014B00020E030E040E952E40E94341920919A0182
:1014C00030919B0140919C0150919D010E946317B6
:1014D0006B017C016091A2017091A3018091A40134
:1014E0009091A5010E947D189B01AC01C701B60136
:1014F0000E94D51720E030E048EC52E40E943419F5
:101500006B017C0120E030E0A9010E942F19181620
:1015100024F0F7FAF094F7F8F094C0929E01D0927C
:101520009F01E092A001F092A1011092B2011092ED
:10153000B3011092B4011092B5012DEC3CEC4CECCF
:101540005DE3C701B6010E94D01787FFA5C020E068
:1015500030E04AEF53E46091AE017091AF018091A9
:10156000B0019091B1010E942F1918160CF094C08F
:1015700080E10E94AE11BC01990F880B990B0E946B
:101580007F182DEC3CEC4CE453E40E94D51720E08E
:1015900030E040E952E40E9434196B017C01C092B2
:1015A0008401D0928501E0928601F09287010E9429
:1015B0004718072E000C880B990B0E947F189B017F
:1015C000AC0120937C0130937D0140937E015093C8
:1015D0007F01C701B6010E94631720E030E048ECAC
:1015E00052E40E94341960937401709375018093E2
:1015F00076019093770168EC70E080E090E00E94C3
:10160000421180E090E0A8E4B3E48093B6019093A7
:10161000B701A093B801B093B90120E030E0A9016F
:101620006091B6017091B7018091B8019091B901B4
:101630000E942F1918160CF086C060E083E00E940B
:101640008E1261E086E00E948E128091BE01909120
:10165000BF010E947B1160E086E00E948E128091A3
:10166000BE019091BF010E947B1120E030E040E874
:101670005FE36091B6017091B7018091B8019091DC
:10168000B9010E9463176093B6017093B70180930C
:10169000B8019093B901C1CF61E086E00E948E123B
:1016A0008091BE019091BF010E947B1160E086E0B5
:1016B0000E948E128091BE019091BF010E947B1109
:1016C00020E030E040E85FE36091B6017091B7013F
:1016D0008091B8019091B9010E9463176093B6019F
:1016E0007093B7018093B8019093B90120E030E086
:1016F00040E85FE36091B2017091B3018091B40161
:101700009091B5010E9464176093B2017093B30188
:101710008093B4019093B50120E030E040E85FE3AE
:101720006091AE017091AF018091B0019091B101D3
:101730000E9464176093AE017093AF018093B00173
:101740009093B10138CE61E087E00E948E1220E0D4
:1017500030E048EC52E460917C0170917D01809111
:101760007E0190917F010E9463170E944E18809124
:101770008C0190918D0102960E948E0060917401FF
:101780007091750180917601909177010E944E18B9
:1017900080918C0190918D0103960E948E0061E4EE
:1017A00071E08DEC91E00E94B91440918401509158
:1017B0008501609186017091870122E030E08DEC17
:1017C00091E00E94751669E171E08DEC91E00E9454
:1017D000CC1485B5887F816085BD6091BC01709116
:1017E000BD0185E00E94CC118091C0019091C101A2
:1017F000A091C201B091C301803A9648A140B105C1
:1018000009F0A2C370E060E085E00E94CC1185B5CC
:10181000887F836085BD60E083E00E948E1260E077
:1018200087E00E948E1280E10E94AE11BC01990FE8
:10183000880B990B0E947F182DEC3CEC4CE453E490
:101840000E94D51720E030E040E952E40E943419AC
:1018500020E030E044EB52E40E94D01787FF9FC0A5
:1018600061E083E00E948E1280E090E5A3ECB6E494
:101870008093B6019093B701A093B801B093B901DA
:1018800020E030E0A9016091B6017091B70180912C
:10189000B8019091B9010E942F1918160CF01DC1C2
:1018A00080E10E94AE11BC01990F880B990B0E9438
:1018B0007F182DEC3CEC4CE453E40E94D51720E05B
:1018C00030E040E952E40E94341920E030E044EB7B
:1018D00052E40E942F1918160CF4FFC061E086E054
:1018E0000E948E128091BE019091BF0163E070E072
:1018F0000E94A619CB010E947B1160E086E00E9445
:101900008E128091BE019091BF0163E070E00E9451
:10191000A619CB010E947B1120E030E040E85FE394
:101920006091B6017091B7018091B8019091B901B1
:101930000E9463176093B6017093B7018093B8015A
:101940009093B90120E030E040E85FE36091B2019C
:101950007091B3018091B4019091B5010E94641718
:101960006093B2017093B3018093B4019093B50179
:1019700020E030E040E85FE36091AE017091AF019C
:101980008091B0019091B1010E9464176093AE0103
:101990007093AF018093B0019093B10171CF60E07B
:1019A00083E00E948E1280E090E5A3ECB6E4809381
:1019B000B6019093B701A093B801B093B90120E0AC
:1019C00030E0A9016091B6017091B7018091B80132
:1019D0009091B9010E942F1918160CF07EC080E179
:1019E0000E94AE11BC01990F880B990B0E947F18C1
:1019F0002DEC3CEC4CE453E40E94D51720E030E0A1
:101A000040E952E40E94341920E030E044EB52E413
:101A10000E94D01787FD61C061E086E00E948E12AF
:101A20008091BE019091BF0163E070E00E94A61911
:101A3000CB010E947B1160E086E00E948E128091B3
:101A4000BE019091BF0163E070E00E94A619CB0136
:101A50000E947B1120E030E040E85FE36091B60136
:101A60007091B7018091B8019091B9010E946317FC
:101A70006093B6017093B7018093B8019093B90158
:101A800020E030E040E85FE36091B2017091B30183
:101A90008091B4019091B5010E9464176093B201E6
:101AA0007093B3018093B4019093B50120E030E0CE
:101AB00040E85FE36091AE017091AF018091B001A9
:101AC0009091B1010E9464176093AE017093AF01D1
:101AD0008093B0019093B10172CF68EE73E080E023
:101AE00090E00E94421160E083E00E948E1210920A
:101AF000B2011092B3011092B4011092B50110928C
:101B0000AE011092AF011092B0011092B10180E0CD
:101B100090E5A3ECB6E48093B6019093B701A0934F
:101B2000B801B093B90120E030E0A9016091B6019D
:101B30007091B7018091B8019091B9010E942F195D
:101B400018160CF010C120E030E040E85FE360912F
:101B5000B2017091B3018091B4019091B5010E94DE
:101B6000D017811127C00E9411116093A6017093B4
:101B7000A7018093A8019093A90180E10E94AE1172
:101B8000BC01990F880B990B0E947F182DEC3CEC3F
:101B90004CE453E40E94D51720E030E040E952E4E1
:101BA0000E94341960939A0170939B0180939C0169
:101BB00090939D0120E030E046E153E46091B20152
:101BC0007091B3018091B4019091B5010E942F19D9
:101BD00018160CF019C10E941111C090A601D090E6
:101BE000A701E090A801F090A9016C197D098E0968
:101BF0009F096093A2017093A3018093A401909325
:101C0000A50180E10E94AE11BC01990F880B990BD0
:101C10000E947F182DEC3CEC4CE453E40E94D51755
:101C200020E030E040E952E40E94341920919A010A
:101C300030919B0140919C0150919D010E9463173E
:101C40006B017C016091A2017091A3018091A401BC
:101C50009091A5010E947D189B01AC01C701B601BE
:101C60000E94D51720E030E048EC52E40E9434197D
:101C70006B017C0120E030E0A9010E942F191816A9
:101C800024F0F7FAF094F7F8F094C0929E01D09205
:101C90009F01E092A001F092A1011092B201109276
:101CA000B3011092B4011092B5012DEC3CEC4CEC58
:101CB0005DE3C701B6010E94D01787FFA5C020E0F1
:101CC00030E04AEF53E46091AE017091AF01809132
:101CD000B0019091B1010E942F1918160CF094C018
:101CE00080E10E94AE11BC01990F880B990B0E94F4
:101CF0007F182DEC3CEC4CE453E40E94D51720E017
:101D000030E040E952E40E9434196B017C01C0923A
:101D10008801D0928901E0928A01F0928B010E94A1
:101D20004718072E000C880B990B0E947F189B0107
:101D3000AC01209380013093810140938201509344
:101D40008301C701B6010E94631720E030E048EC30
:101D500052E40E9434196093780170937901809362
:101D60007A0190937B0168EC70E080E090E00E9443
:101D7000421180E090E0A8E4B3E48093B601909330
:101D8000B701A093B801B093B90120E030E0A901F8
:101D90006091B6017091B7018091B8019091B9013D
:101DA0000E942F1961E018160CF085C083E00E9494
:101DB0008E1261E086E00E948E128091BE019091A9
:101DC000BF010E947B1160E086E00E948E1280912C
:101DD000BE019091BF010E947B1120E030E040E8FD
:101DE0005FE36091B6017091B7018091B801909165
:101DF000B9010E9463176093B6017093B701809395
:101E0000B8019093B901C1CF61E086E00E948E12C3
:101E10008091BE019091BF010E947B1160E086E03D
:101E20000E948E128091BE019091BF010E947B1191
:101E300020E030E040E85FE36091B6017091B701C7
:101E40008091B8019091B9010E9463176093B60127
:101E50007093B7018093B8019093B90120E030E00E
:101E600040E85FE36091B2017091B3018091B401E9
:101E70009091B5010E9464176093B2017093B30111
:101E80008093B4019093B50120E030E040E85FE337
:101E90006091AE017091AF018091B0019091B1015C
:101EA0000E9464176093AE017093AF018093B001FC
:101EB0009093B10138CE87E00E948E12609180012C
:101EC0007091810180918201909183010E944E184E
:101ED00080918C0190918D010E948E00609178011B
:101EE0007091790180917A0190917B010E944E1846
:101EF00080918C0190918D0101960E948E0069E481
:101F000071E08DEC91E00E94B914409188015091EC
:101F1000890160918A0170918B0122E030E08DECA3
:101F200091E00E94751669E171E08DEC91E00E94EC
:101F3000CC1485B5887F816085BD6091BC017091AE
:101F4000BD0185E00E94CC111092C0011092C10128
:101F50001092C2011092C301109296011092970143
:101F600010929801109299011092B6011092B70147
:101F70001092B8011092B90120E030E040EA51E43B
:101F80006091B6017091B7018091B8019091B9014B
:101F90000E94D01787FF46C080E10E94AE11BC01AD
:101FA000990F880B990B0E947F182DEC3CEC4CE4A8
:101FB00053E40E94D51720E030E040E952E40E944B
:101FC00034199B01AC016091960170919701809149
:101FD0009801909199010E94641760939601709303
:101FE0009701809398019093990160E87CE080E0EC
:101FF00090E00E94421120E030E040E85FE3609111
:10200000B6017091B7018091B8019091B9010E9419
:1020100064176093B6017093B7018093B8019093F1
:10202000B901AACF20E030E040EA51E46091960186
:102030007091970180919801909199010E94D51714
:102040006B017C0120E030E0A9010E942F191816D5
:1020500024F0F7FAF094F7F8F094C0929601D09239
:102060009701E0929801F092990161E071E08DECA6
:1020700091E00E94B91440918801509189016091CA
:102080008A0170918B0122E030E08DEC91E00E949A
:10209000751669E171E08DEC91E00E94B9144091F0
:1020A000840150918501609186017091870122E041
:1020B00030E08DEC91E00E94751669E171E08DECE5
:1020C00091E00E94B914409196015091970160915E
:1020D00098017091990122E030E08DEC91E00E942E
:1020E000751669E171E08DEC91E00E94B9144091A0
:1020F000AA015091AB016091AC017091AD0122E059
:1021000030E08DEC91E00E94751669E171E08DEC94
:1021100091E00E94B9146091BC017091BD014AE048
:1021200050E08DEC91E00E94771569E171E08DEC53
:1021300091E00E94B9146091BA017091BB014AE02C
:1021400050E08DEC91E00E94771569E171E08DEC33
:1021500091E00E94CC148DEC91E00E94291360E084
:1021600079E180E090E00F900F900F900F90DF9159
:10217000CF91FF90EF90DF90CF90BF90AF909F9066
:102180008F907F906F905F904F900C9442111F92B0
:102190000F920FB60F9211242F933F938F939F931B
:1021A000AF93BF938091C9019091CA01A091CB01D7
:1021B000B091CC013091C80123E0230F2D3768F195
:1021C00026E8230F0296A11DB11D2093C80180931C
:1021D000C9019093CA01A093CB01B093CC01809127
:1021E000C4019091C501A091C601B091C7010196AB
:1021F000A11DB11D8093C4019093C501A093C60198
:10220000B093C701BF91AF919F918F913F912F9153
:102210000F900FBE0F901F9018950196A11DB11D34
:10222000D4CF2FB7F8946091C9017091CA01809101
:10223000CB019091CC012FBF08953FB7F8948091C6
:10224000C4019091C501A091C601B091C70126B506
:10225000A89B05C02F3F19F00196A11DB11D3FBFDE
:10226000BA2FA92F982F8827BC01CD01620F711DAD
:10227000811D911D42E0660F771F881F991F4A95A7
:10228000D1F708958F929F92AF92BF92CF92DF9233
:10229000EF92FF926B017C010E941D114B015C01CA
:1022A000C114D104E104F104E9F00E9462170E9414
:1022B0001D11681979098A099B09683E73408105D7
:1022C000910570F321E0C21AD108E108F10888EE07
:1022D000880E83E0981EA11CB11CC114D104E10436
:1022E000F10429F7FF90EF90DF90CF90BF90AF906F
:1022F0009F908F9008958230910538F0880F991F34
:10230000880F991F05970197F1F70895789484B580
:10231000836084BD85B5836085BDEEE6F0E0808195
:1023200081608083E1E8F0E082E0808380818160E9
:102330008083E0E8F0E0808181608083E1EBF0E081
:10234000808184608083E0EBF0E080818160808325
:1023500087E880937A001092C1000895883020F0B9
:102360008D3008F48DE08E502091000190E4299F7B
:10237000900111248770822B80937C0080917A00D9
:10238000806480937A0080917A0086FDFCCF8091F2
:1023900078009091790008951F93CF93DF93182FC1
:1023A000EB0161E00E945212209739F460E0812F26
:1023B000DF91CF911F910C948E12CF3FD10511F474
:1023C00061E0F5CFE12FF0E0E859FF4FE491E43010
:1023D00031F140F4E230B1F0E330E1F0C038D10542
:1023E0007CF7E4CFE83029F1E93059F1E530B1F775
:1023F00080918000806280938000D0938B00C09396
:102400008A0004C084B5806884BDC7BDDF91CF91C8
:102410001F91089584B5806284BDC8BDF7CF8091B7
:102420008000806880938000D0938900C0938800EA
:10243000EDCF8091B00080688093B000C093B3006E
:10244000E5CF8091B00080628093B000C093B4006B
:10245000DDCF843081F028F48230E9F08330F9F068
:102460000895883071F0893091F08530B9F4809109
:1024700080008F7D03C0809180008F7780938000E3
:1024800008958091B0008F778093B0000895809177
:10249000B0008F7DF9CF84B58F7784BD089584B562
:1024A0008F7DFBCFCF93DF9390E0FC01E158FF4F8E
:1024B00024918A569F4FFC0184918823C9F090E0B3
:1024C000880F991FFC01E954FF4FA591B491FC01BD
:1024D000E355FF4FC591D49161110DC09FB7F8949A
:1024E0008C91209582238C938881282328839FBFF9
:1024F000DF91CF910895623051F49FB7F8943C91E9
:10250000822F809583238C93E8812E2BEFCF8FB77A
:10251000F894EC912E2B2C938FBFEACF1F93CF937F
:10252000DF93282F30E0F901E859FF4F8491F9013A
:10253000E158FF4FD491F901EA56FF4FC491CC23E3
:10254000A9F0162F81110E942912EC2FF0E0EE0F56
:10255000FF1FE355FF4FA591B4918FB7F894EC910D
:10256000111108C0D095DE23DC938FBFDF91CF918E
:102570001F910895DE2BF8CFFC01918D228D892FBC
:1025800090E0805C9F4F821B91098F73992708957B
:10259000FC01918D828D981731F0828DE80FF11D2D
:1025A000858D90E008958FEF9FEF0895FC01918D48
:1025B000828D981761F0A28DAE0FBF2FB11D5D9671
:1025C0008C91928D9F5F9F73928F90E008958FEF13
:1025D0009FEF0895FC01538D448D252F30E0842F0B
:1025E00090E0821B930B541710F0CF96089501973B
:1025F000089586E494E1892B49F080E090E0892BEE
:1026000029F00E94461481110C9400000895FC01E9
:10261000A48DA80FB92FB11DA35ABF4F2C91848D43
:1026200090E001968F739927848FA689B7892C93A0
:10263000A089B1898C91837080648C93938D848DF3
:10264000981306C00288F389E02D80818F7D8083F6
:102650000895CF93DF93EC01888D8823B9F0AA8980
:10266000BB89E889F9898C9185FD03C0808186FD4D
:102670000DC00FB607FCF7CF8C9185FFF2CF80819C
:1026800085FFEDCFCE010E940713E9CFDF91CF91F7
:102690000895EF92FF920F931F93CF93DF93EC0176
:1026A00081E0888F9B8D8C8D98131AC0E889F989F9
:1026B000808185FF15C09FB7F894EE89FF896083FC
:1026C000E889F98980818370806480839FBF81E07D
:1026D00090E0DF91CF911F910F91FF90EF900895BF
:1026E000F62E0B8D10E00F5F1F4F0F731127E02E9A
:1026F0008C8D8E110CC00FB607FCFACFE889F989D2
:10270000808185FFF5CFCE010E940713F1CFEB8DBD
:10271000EC0FFD2FF11DE35AFF4FF0829FB7F894A5
:102720000B8FEA89FB8980818062CFCFCF92DF92C5
:10273000EF92FF921F93CF93DF93EC016A017B012D
:10274000122FE889F98982E08083C11481EED806CE
:10275000E104F104A1F060E079E08DE390E0A701ED
:1027600096010E94BA192150310941095109569523
:10277000479537952795211580E1380798F0E88926
:10278000F989108260E874E88EE190E0A701960173
:102790000E94BA19215031094109510956954795AE
:1027A00037952795EC85FD853083EE85FF85208361
:1027B000188EEC89FD891083EA89FB8980818869FC
:1027C0008083EA89FB8980818F7D8083DF91CF912F
:1027D0001F91FF90EF90DF90CF9008951F920F927E
:1027E0000FB60F9211242F938F939F93EF93FF9324
:1027F000E091DD01F091DE018081E091E301F09153
:10280000E40182FD1BC090818091E6018F5F8F7390
:102810002091E701821741F0E091E601F0E0E353F7
:10282000FE4F958F8093E601FF91EF919F918F91DD
:102830002F910F900FBE0F901F9018958081F4CFAD
:102840001F920F920FB60F9211242F933F934F9325
:102850005F936F937F938F939F93AF93BF93EF9308
:10286000FF938DEC91E00E940713FF91EF91BF91D0
:10287000AF919F918F917F916F915F914F913F9118
:102880002F910F900FBE0F901F9018958DEC91E037
:102890000E94BC1221E0892B09F420E0822F0895C8
:1028A000EDECF1E01382128288EE93E0A0E0B0E05C
:1028B00084839583A683B78386E591E091838083A3
:1028C00085EC90E09587848784EC90E097878687F5
:1028D00080EC90E0918B808B81EC90E0938B828BED
:1028E00082EC90E0958B848B86EC90E0978B868BC6
:1028F000118E128E138E148E0895AF92BF92CF92C6
:10290000DF92EF92FF920F931F93CF93DF936C01AF
:102910007B018B01040F151FEB015E01AE18BF0890
:10292000C017D10759F06991D601ED91FC91019042
:10293000F081E02DC6010995892B79F7C501DF915A
:10294000CF911F910F91FF90EF90DF90CF90BF90AC
:10295000AF900895FB0101900020E9F73197AF0196
:10296000461B570BDC01ED91FC910280F381E02DB9
:1029700009946115710511F00C94AA1490E080E09F
:102980000895DC01ED91FC910190F081E02D099416
:1029900064E671E00C94AA140F931F93CF93DF9316
:1029A0008C01D0E0C0E06115710519F00E94AA14F5
:1029B000EC01C8010E94C8148C0F9D1FDF91CF91BC
:1029C0001F910F9108958F929F92AF92BF92EF92B5
:1029D000FF920F931F93CF93DF93CDB7DEB7A197ED
:1029E0000FB6F894DEBF0FBECDBF7C01FA01CB015C
:1029F00019A2223008F42AE08E010F5D1F4F822EAB
:102A0000912CB12CA12CBF01A50194010E94BA19EF
:102A1000F901CA016A300CF5605DD8016E938D0131
:102A2000232B242B252B79F790E080E0109721F0C1
:102A3000BD01C7010E94AA14A1960FB6F894DEBF8B
:102A40000FBECDBFDF91CF911F910F91FF90EF90FF
:102A5000BF90AF909F908F900895695CDECFCF922A
:102A6000DF92EF92FF920F931F93CF93DF93211585
:102A7000310581F4DC01ED91FC910190F081E02DB4
:102A8000642FDF91CF911F910F91FF90EF90DF9016
:102A9000CF9009942A30310501F52AE077FF1DC057
:102AA0006A017B01EC016DE20E94C1148C01442794
:102AB0005527BA014C195D096E097F092AE0CE013C
:102AC0000E94E314800F911FDF91CF911F910F910E
:102AD000FF90EF90DF90CF900895DF91CF911F91FD
:102AE0000F91FF90EF90DF90CF900C94E3149A0138
:102AF000AB01770F660B770B0C942F152115310561
:102B000041F4DC01ED91FC910190F081E02D642F06
:102B100009940C94E3149A01AB0170E060E00C940A
:102B20007E152F923F924F925F926F927F928F927B
:102B30009F92AF92BF92CF92DF92EF92FF921F933C
:102B4000CF93DF93EC016A017B01722EAB019601FA
:102B5000CB01B6010E94A11967E671E0811126C080
:102B600046015701E894B7F82FEF3FEF4FE75FE7D3
:102B7000C501B4010E94A11981110CC02FEF3FEFD4
:102B80004FE75FE7C501B4010E94D0176BE671E023
:102B9000181664F02FEF3FEF4FE75FE4C701B6016F
:102BA0000E942F191816B4F46FE671E0CE01DF9180
:102BB000CF911F91FF90EF90DF90CF90BF90AF909B
:102BC0009F908F907F906F905F904F903F902F904D
:102BD0000C94AA142FEF3FEF4FE75FECC701B6014B
:102BE0000E94D01787FDE0CF20E030E0A901C701A7
:102BF000B6010E94D017312C212C87FF09C06DE24D
:102C0000CE010E94C1141C01F7FAF094F7F8F09479
:102C100010E060E070E080E09FE3711641F020E09A
:102C200030E040E251E40E94D5171F5FF6CFA701C4
:102C300096010E9464172B013C010E944E184B0123
:102C40005C012AE0BC01A401CE010E94E3147C01D6
:102C5000E20CF31C1123B1F1C501B4010E947D18EF
:102C60009B01AC01C301B2010E9463174B015C01DF
:102C70006EE2CE010E94C114E80EF91E115010F14F
:102C800020E030E040E251E4C501B4010E94341973
:102C90002B013C010E944E184B014AE050E0CE014E
:102CA0000E948B15E80EF91EB40190E080E00E94AE
:102CB0007D189B01AC01C301B2010E9463174B0157
:102CC0005C01DCCFC701DF91CF911F91FF90EF90A6
:102CD000DF90CF90BF90AF909F908F907F906F903C
:102CE0005F904F903F902F9008950C9491150F9303
:102CF0001F93CF93DF93EC010E9491158C01CE01BD
:102D00000E94C814800F911FDF91CF911F910F91E6
:102D100008950F931F93CF93DF93EC010E9411113D
:102D2000688779878A879B87E881F9810484F5859C
:102D3000E02DCE01099597FF15C00E94111108855D
:102D400019852A853B85601B710B820B930B0C81C7
:102D50001D812E813F81601771078207930720F341
:102D60008FEF9FEFDF91CF911F910F910895FF9209
:102D70000F931F93CF93DF93EC018B01F42ECE01C1
:102D80000E94891697FD1DC08D329105D1F09C01DE
:102D9000205331092A303105A0F0FF2019F08E327E
:102DA000910579F00130110551F00230110589F4D7
:102DB0008D30910571F05CF40997029750F08FEF18
:102DC0009FEFDF91CF911F910F91FF900895809712
:102DD000B1F7E881F9810284F385E02DCE010995F0
:102DE000CECFBF92CF92DF92EF92FF920F931F93BD
:102DF000CF93DF938C01C42F40E00E94B716FC01F3
:102E0000C12CD12C760197FD3EC0B12C0C2E000CAC
:102E1000DD0BCE17DF07D9F0ED32F10509F43FC025
:102E2000CF01C0970A9798F4AAE0B0E0A7019601F5
:102E30000E94E2196F01FF0FEE08FF08C60ED71EB1
:102E4000E81EF91E80E3C81AD108E108F108D8018C
:102E5000ED91FC910284F385E02DC8010995C8012C
:102E60000E948916FC01C0970A9798F2CE17DF07D7
:102E700081F2BB2041F0F094E094D094C094C11C46
:102E8000D11CE11CF11CC701B601DF91CF911F914C
:102E90000F91FF90EF90DF90CF90BF900895BB24EB
:102EA000B394D5CF08950E9486110E9452170E94B4
:102EB0009000C9EFD2E10E940E022097E1F30E9438
:102EC000F912F9CF08955058BB27AA270E947B1703
:102ED0000C94F5180E94E71838F00E94EE1820F0C4
:102EE00039F49F3F19F426F40C94E4180EF4E0959D
:102EF000E7FB0C94DE18E92F0E94061958F3BA1765
:102F0000620773078407950720F079F4A6F50C94FF
:102F100028190EF4E0950B2EBA2FA02D0B01B90144
:102F200090010C01CA01A0011124FF27591B99F03F
:102F3000593F50F4503E68F11A16F040A22F232F4B
:102F4000342F4427585FF3CF469537952795A7959B
:102F5000F0405395C9F77EF41F16BA0B620B730B42
:102F6000840BBAF09150A1F0FF0FBB1F661F771FB3
:102F7000881FC2F70EC0BA0F621F731F841F48F468
:102F8000879577956795B795F7959E3F08F0B0CFF1
:102F90009395880F08F09927EE0F979587950895D8
:102FA0000E94BA1808F481E008950E94E9170C9471
:102FB000F5180E94EE1858F00E94E71840F029F426
:102FC0005F3F29F00C94DE1851110C9429190C94D0
:102FD000E4180E94061968F39923B1F3552391F37D
:102FE000951B550BBB27AA2762177307840738F078
:102FF0009F5F5F4F220F331F441FAA1FA9F335D0D5
:103000000E2E3AF0E0E832D091505040E695001C88
:10301000CAF72BD0FE2F29D0660F771F881FBB1F42
:10302000261737074807AB07B0E809F0BB0B802D20
:10303000BF01FF2793585F4F3AF09E3F510578F04C
:103040000C94DE180C9429195F3FE4F3983ED4F3F6
:10305000869577956795B795F7959F5FC9F7880F20
:10306000911D9695879597F90895E1E0660F771F72
:10307000881FBB1F621773078407BA0720F0621B03
:10308000730B840BBA0BEE1F88F7E09508950E942E
:103090004E186894B1110C94291908950E940E19C4
:1030A00088F09F5798F0B92F9927B751B0F0E1F009
:1030B000660F771F881F991F1AF0BA95C9F714C0B9
:1030C000B13091F00E942819B1E008950C942819AC
:1030D000672F782F8827B85F39F0B93FCCF38695F2
:1030E00077956795B395D9F73EF49095809570954F
:1030F00061957F4F8F4F9F4F0895E89409C097FBCC
:103100003EF490958095709561957F4F8F4F9F4FBE
:103110009923A9F0F92F96E9BB279395F695879502
:1031200077956795B795F111F8CFFAF4BB0F11F4C5
:1031300060FF1BC06F5F7F4F8F4F9F4F16C088236C
:1031400011F096E911C0772321F09EE8872F762FA2
:1031500005C0662371F096E8862F70E060E02AF0E3
:103160009A95660F771F881FDAF7880F96958795CF
:1031700097F90895990F0008550FAA0BE0E8FEEFA4
:1031800016161706E807F907C0F012161306E4072B
:10319000F50798F0621B730B840B950B39F40A2624
:1031A00061F0232B242B252B21F408950A2609F402
:1031B000A140A6958FEF811D811D089597F99F6706
:1031C00080E870E060E008959FEF80EC08950024AF
:1031D0000A941616170618060906089500240A947C
:1031E00012161306140605060895092E0394000C02
:1031F00011F4882352F0BB0F40F4BF2B11F460FF91
:1032000004C06F5F7F4F8F4F9F4F089557FD9058B9
:10321000440F551F59F05F3F71F04795880F97FB9A
:10322000991F61F09F3F79F0879508951216130654
:103230001406551FF2CF4695F1DF08C01616170683
:103240001806991FF1CF86957105610508940895B8
:10325000E894BB2766277727CB0197F908950E944A
:10326000BA1808F48FEF08950E9447190C94F518C6
:103270000E94E71838F00E94EE1820F0952311F014
:103280000C94DE180C94E41811240C9429190E9453
:10329000061970F3959FC1F3950F50E0551F629F7B
:1032A000F001729FBB27F00DB11D639FAA27F00D9F
:1032B000B11DAA1F649F6627B00DA11D661F829FC6
:1032C0002227B00DA11D621F739FB00DA11D621FAB
:1032D000839FA00D611D221F749F3327A00D611DC8
:1032E000231F849F600D211D822F762F6A2F1124AA
:1032F0009F5750409AF0F1F088234AF0EE0FFF1FDD
:10330000BB1F661F771F881F91505040A9F79E3F33
:10331000510580F00C94DE180C9429195F3FE4F3FA
:10332000983ED4F3869577956795B795F795E79589
:103330009F5FC1F7FE2B880F911D9695879597F992
:1033400008950E94BA18880B990B089597FB072ED1
:1033500016F4009407D077FD09D00E94ED1907FC00
:1033600005D03EF4909581959F4F08957095619595
:103370007F4F0895A1E21A2EAA1BBB1BFD010DC0B1
:10338000AA1FBB1FEE1FFF1FA217B307E407F50715
:1033900020F0A21BB30BE40BF50B661F771F881FF1
:1033A000991F1A9469F760957095809590959B0187
:1033B000AC01BD01CF010895EE0FFF1F0590F49100
:1033C000E02D09940E94011AA59F900DB49F900DC5
:1033D000A49F800D911D11240895AA1BBB1B51E1D0
:1033E00007C0AA1FBB1FA617B70710F0A61BB70B75
:1033F000881F991F5A95A9F780959095BC01CD011A
:103400000895A29FB001B39FC001A39F700D811DBD
:103410001124911DB29F700D811D1124911D0895DD
:10342000F999FECF92BD81BDF89A992780B508958C
:10343000262FF999FECF1FBA92BD81BD20BD0FB6D0
:10344000F894FA9AF99A0FBE01960895F894FFCF6E
:103450000157616E6465726572436F7665725634AA
:103460004132303234313130324100436C6F736558
:10347000506F736974696F6E536574004F70656E39
:10348000506F736974696F6E53657400646F6E6515
:10349000004F70656E53657400436C6F73655365C0
:1034A00074000000000049137D14EA122913BC12B5
:1034B000D612C8120D0A006E616E00696E66006F4A
:0434C000766600002C
:00000001FF
